{
  "_format": "hh-sol-artifact-1",
  "contractName": "MyNFT",
  "sourceName": "contracts/NFT.sol",
  "abi": [
    {
      "inputs": [
        {
          "internalType": "string",
          "name": "_name",
          "type": "string"
        },
        {
          "internalType": "string",
          "name": "_symbol",
          "type": "string"
        }
      ],
      "stateMutability": "nonpayable",
      "type": "constructor"
    },
    {
      "anonymous": false,
      "inputs": [
        {
          "indexed": true,
          "internalType": "address",
          "name": "owner",
          "type": "address"
        },
        {
          "indexed": true,
          "internalType": "address",
          "name": "approved",
          "type": "address"
        },
        {
          "indexed": true,
          "internalType": "uint256",
          "name": "tokenId",
          "type": "uint256"
        }
      ],
      "name": "Approval",
      "type": "event"
    },
    {
      "anonymous": false,
      "inputs": [
        {
          "indexed": true,
          "internalType": "address",
          "name": "owner",
          "type": "address"
        },
        {
          "indexed": true,
          "internalType": "address",
          "name": "operator",
          "type": "address"
        },
        {
          "indexed": false,
          "internalType": "bool",
          "name": "approved",
          "type": "bool"
        }
      ],
      "name": "ApprovalForAll",
      "type": "event"
    },
    {
      "anonymous": false,
      "inputs": [
        {
          "indexed": false,
          "internalType": "uint256",
          "name": "_fromTokenId",
          "type": "uint256"
        },
        {
          "indexed": false,
          "internalType": "uint256",
          "name": "_toTokenId",
          "type": "uint256"
        }
      ],
      "name": "BatchMetadataUpdate",
      "type": "event"
    },
    {
      "anonymous": false,
      "inputs": [
        {
          "indexed": false,
          "internalType": "uint256",
          "name": "_tokenId",
          "type": "uint256"
        }
      ],
      "name": "MetadataUpdate",
      "type": "event"
    },
    {
      "anonymous": false,
      "inputs": [
        {
          "indexed": true,
          "internalType": "address",
          "name": "previousOwner",
          "type": "address"
        },
        {
          "indexed": true,
          "internalType": "address",
          "name": "newOwner",
          "type": "address"
        }
      ],
      "name": "OwnershipTransferred",
      "type": "event"
    },
    {
      "anonymous": false,
      "inputs": [
        {
          "indexed": true,
          "internalType": "address",
          "name": "from",
          "type": "address"
        },
        {
          "indexed": true,
          "internalType": "address",
          "name": "to",
          "type": "address"
        },
        {
          "indexed": true,
          "internalType": "uint256",
          "name": "tokenId",
          "type": "uint256"
        }
      ],
      "name": "Transfer",
      "type": "event"
    },
    {
      "inputs": [
        {
          "internalType": "address",
          "name": "to",
          "type": "address"
        },
        {
          "internalType": "uint256",
          "name": "tokenId",
          "type": "uint256"
        }
      ],
      "name": "approve",
      "outputs": [],
      "stateMutability": "nonpayable",
      "type": "function"
    },
    {
      "inputs": [
        {
          "internalType": "address",
          "name": "owner",
          "type": "address"
        }
      ],
      "name": "balanceOf",
      "outputs": [
        {
          "internalType": "uint256",
          "name": "",
          "type": "uint256"
        }
      ],
      "stateMutability": "view",
      "type": "function"
    },
    {
      "inputs": [
        {
          "internalType": "uint256",
          "name": "tokenId",
          "type": "uint256"
        }
      ],
      "name": "getApproved",
      "outputs": [
        {
          "internalType": "address",
          "name": "",
          "type": "address"
        }
      ],
      "stateMutability": "view",
      "type": "function"
    },
    {
      "inputs": [
        {
          "internalType": "address",
          "name": "owner",
          "type": "address"
        },
        {
          "internalType": "address",
          "name": "operator",
          "type": "address"
        }
      ],
      "name": "isApprovedForAll",
      "outputs": [
        {
          "internalType": "bool",
          "name": "",
          "type": "bool"
        }
      ],
      "stateMutability": "view",
      "type": "function"
    },
    {
      "inputs": [
        {
          "internalType": "address",
          "name": "_to",
          "type": "address"
        },
        {
          "internalType": "uint256",
          "name": "_tokenId",
          "type": "uint256"
        },
        {
          "internalType": "string",
          "name": "_uri",
          "type": "string"
        }
      ],
      "name": "mint",
      "outputs": [],
      "stateMutability": "nonpayable",
      "type": "function"
    },
    {
      "inputs": [],
      "name": "name",
      "outputs": [
        {
          "internalType": "string",
          "name": "",
          "type": "string"
        }
      ],
      "stateMutability": "view",
      "type": "function"
    },
    {
      "inputs": [],
      "name": "owner",
      "outputs": [
        {
          "internalType": "address",
          "name": "",
          "type": "address"
        }
      ],
      "stateMutability": "view",
      "type": "function"
    },
    {
      "inputs": [
        {
          "internalType": "uint256",
          "name": "tokenId",
          "type": "uint256"
        }
      ],
      "name": "ownerOf",
      "outputs": [
        {
          "internalType": "address",
          "name": "",
          "type": "address"
        }
      ],
      "stateMutability": "view",
      "type": "function"
    },
    {
      "inputs": [],
      "name": "renounceOwnership",
      "outputs": [],
      "stateMutability": "nonpayable",
      "type": "function"
    },
    {
      "inputs": [
        {
          "internalType": "address",
          "name": "from",
          "type": "address"
        },
        {
          "internalType": "address",
          "name": "to",
          "type": "address"
        },
        {
          "internalType": "uint256",
          "name": "tokenId",
          "type": "uint256"
        }
      ],
      "name": "safeTransferFrom",
      "outputs": [],
      "stateMutability": "nonpayable",
      "type": "function"
    },
    {
      "inputs": [
        {
          "internalType": "address",
          "name": "from",
          "type": "address"
        },
        {
          "internalType": "address",
          "name": "to",
          "type": "address"
        },
        {
          "internalType": "uint256",
          "name": "tokenId",
          "type": "uint256"
        },
        {
          "internalType": "bytes",
          "name": "data",
          "type": "bytes"
        }
      ],
      "name": "safeTransferFrom",
      "outputs": [],
      "stateMutability": "nonpayable",
      "type": "function"
    },
    {
      "inputs": [
        {
          "internalType": "address",
          "name": "operator",
          "type": "address"
        },
        {
          "internalType": "bool",
          "name": "approved",
          "type": "bool"
        }
      ],
      "name": "setApprovalForAll",
      "outputs": [],
      "stateMutability": "nonpayable",
      "type": "function"
    },
    {
      "inputs": [
        {
          "internalType": "bytes4",
          "name": "interfaceId",
          "type": "bytes4"
        }
      ],
      "name": "supportsInterface",
      "outputs": [
        {
          "internalType": "bool",
          "name": "",
          "type": "bool"
        }
      ],
      "stateMutability": "view",
      "type": "function"
    },
    {
      "inputs": [],
      "name": "symbol",
      "outputs": [
        {
          "internalType": "string",
          "name": "",
          "type": "string"
        }
      ],
      "stateMutability": "view",
      "type": "function"
    },
    {
      "inputs": [
        {
          "internalType": "uint256",
          "name": "tokenId",
          "type": "uint256"
        }
      ],
      "name": "tokenURI",
      "outputs": [
        {
          "internalType": "string",
          "name": "",
          "type": "string"
        }
      ],
      "stateMutability": "view",
      "type": "function"
    },
    {
      "inputs": [
        {
          "internalType": "address",
          "name": "from",
          "type": "address"
        },
        {
          "internalType": "address",
          "name": "to",
          "type": "address"
        },
        {
          "internalType": "uint256",
          "name": "tokenId",
          "type": "uint256"
        }
      ],
      "name": "transferFrom",
      "outputs": [],
      "stateMutability": "nonpayable",
      "type": "function"
    },
    {
      "inputs": [
        {
          "internalType": "address",
          "name": "newOwner",
          "type": "address"
        }
      ],
      "name": "transferOwnership",
      "outputs": [],
      "stateMutability": "nonpayable",
      "type": "function"
    }
  ],
  "bytecode": "0x60806040523480156200001157600080fd5b50604051620034c4380380620034c48339818101604052810190620000379190620002e8565b818181600090816200004a9190620005b8565b5080600190816200005c9190620005b8565b5050506200007f620000736200008760201b60201c565b6200008f60201b60201c565b50506200069f565b600033905090565b6000600760009054906101000a900473ffffffffffffffffffffffffffffffffffffffff16905081600760006101000a81548173ffffffffffffffffffffffffffffffffffffffff021916908373ffffffffffffffffffffffffffffffffffffffff1602179055508173ffffffffffffffffffffffffffffffffffffffff168173ffffffffffffffffffffffffffffffffffffffff167f8be0079c531659141344cd1fd0a4f28419497f9722a3daafe3b4186f6b6457e060405160405180910390a35050565b6000604051905090565b600080fd5b600080fd5b600080fd5b600080fd5b6000601f19601f8301169050919050565b7f4e487b7100000000000000000000000000000000000000000000000000000000600052604160045260246000fd5b620001be8262000173565b810181811067ffffffffffffffff82111715620001e057620001df62000184565b5b80604052505050565b6000620001f562000155565b9050620002038282620001b3565b919050565b600067ffffffffffffffff82111562000226576200022562000184565b5b620002318262000173565b9050602081019050919050565b60005b838110156200025e57808201518184015260208101905062000241565b60008484015250505050565b6000620002816200027b8462000208565b620001e9565b905082815260208101848484011115620002a0576200029f6200016e565b5b620002ad8482856200023e565b509392505050565b600082601f830112620002cd57620002cc62000169565b5b8151620002df8482602086016200026a565b91505092915050565b600080604083850312156200030257620003016200015f565b5b600083015167ffffffffffffffff81111562000323576200032262000164565b5b6200033185828601620002b5565b925050602083015167ffffffffffffffff81111562000355576200035462000164565b5b6200036385828601620002b5565b9150509250929050565b600081519050919050565b7f4e487b7100000000000000000000000000000000000000000000000000000000600052602260045260246000fd5b60006002820490506001821680620003c057607f821691505b602082108103620003d657620003d562000378565b5b50919050565b60008190508160005260206000209050919050565b60006020601f8301049050919050565b600082821b905092915050565b600060088302620004407fffffffffffffffffffffffffffffffffffffffffffffffffffffffffffffffff8262000401565b6200044c868362000401565b95508019841693508086168417925050509392505050565b6000819050919050565b6000819050919050565b600062000499620004936200048d8462000464565b6200046e565b62000464565b9050919050565b6000819050919050565b620004b58362000478565b620004cd620004c482620004a0565b8484546200040e565b825550505050565b600090565b620004e4620004d5565b620004f1818484620004aa565b505050565b5b8181101562000519576200050d600082620004da565b600181019050620004f7565b5050565b601f82111562000568576200053281620003dc565b6200053d84620003f1565b810160208510156200054d578190505b620005656200055c85620003f1565b830182620004f6565b50505b505050565b600082821c905092915050565b60006200058d600019846008026200056d565b1980831691505092915050565b6000620005a883836200057a565b9150826002028217905092915050565b620005c3826200036d565b67ffffffffffffffff811115620005df57620005de62000184565b5b620005eb8254620003a7565b620005f88282856200051d565b600060209050601f8311600181146200063057600084156200061b578287015190505b6200062785826200059a565b86555062000697565b601f1984166200064086620003dc565b60005b828110156200066a5784890151825560018201915060208501945060208101905062000643565b868310156200068a578489015162000686601f8916826200057a565b8355505b6001600288020188555050505b505050505050565b612e1580620006af6000396000f3fe608060405234801561001057600080fd5b506004361061010b5760003560e01c8063715018a6116100a2578063b88d4fde11610071578063b88d4fde146102a4578063c87b56dd146102c0578063d3fc9864146102f0578063e985e9c51461030c578063f2fde38b1461033c5761010b565b8063715018a6146102425780638da5cb5b1461024c57806395d89b411461026a578063a22cb465146102885761010b565b806323b872dd116100de57806323b872dd146101aa57806342842e0e146101c65780636352211e146101e257806370a08231146102125761010b565b806301ffc9a71461011057806306fdde0314610140578063081812fc1461015e578063095ea7b31461018e575b600080fd5b61012a60048036038101906101259190611c2f565b610358565b6040516101379190611c77565b60405180910390f35b6101486103b9565b6040516101559190611d22565b60405180910390f35b61017860048036038101906101739190611d7a565b61044b565b6040516101859190611de8565b60405180910390f35b6101a860048036038101906101a39190611e2f565b610491565b005b6101c460048036038101906101bf9190611e6f565b6105a8565b005b6101e060048036038101906101db9190611e6f565b610608565b005b6101fc60048036038101906101f79190611d7a565b610628565b6040516102099190611de8565b60405180910390f35b61022c60048036038101906102279190611ec2565b6106ae565b6040516102399190611efe565b60405180910390f35b61024a610765565b005b610254610779565b6040516102619190611de8565b60405180910390f35b6102726107a3565b60405161027f9190611d22565b60405180910390f35b6102a2600480360381019061029d9190611f45565b610835565b005b6102be60048036038101906102b991906120ba565b61084b565b005b6102da60048036038101906102d59190611d7a565b6108ad565b6040516102e79190611d22565b60405180910390f35b61030a6004803603810190610305919061219d565b6109bf565b005b61032660048036038101906103219190612211565b610a25565b6040516103339190611c77565b60405180910390f35b61035660048036038101906103519190611ec2565b610ab9565b005b6000634906490660e01b7bffffffffffffffffffffffffffffffffffffffffffffffffffffffff1916827bffffffffffffffffffffffffffffffffffffffffffffffffffffffff191614806103b257506103b182610b3c565b5b9050919050565b6060600080546103c890612280565b80601f01602080910402602001604051908101604052809291908181526020018280546103f490612280565b80156104415780601f1061041657610100808354040283529160200191610441565b820191906000526020600020905b81548152906001019060200180831161042457829003601f168201915b5050505050905090565b600061045682610c1e565b6004600083815260200190815260200160002060009054906101000a900473ffffffffffffffffffffffffffffffffffffffff169050919050565b600061049c82610628565b90508073ffffffffffffffffffffffffffffffffffffffff168373ffffffffffffffffffffffffffffffffffffffff160361050c576040517f08c379a000000000000000000000000000000000000000000000000000000000815260040161050390612323565b60405180910390fd5b8073ffffffffffffffffffffffffffffffffffffffff1661052b610c69565b73ffffffffffffffffffffffffffffffffffffffff16148061055a575061055981610554610c69565b610a25565b5b610599576040517f08c379a0000000000000000000000000000000000000000000000000000000008152600401610590906123b5565b60405180910390fd5b6105a38383610c71565b505050565b6105b96105b3610c69565b82610d2a565b6105f8576040517f08c379a00000000000000000000000000000000000000000000000000000000081526004016105ef90612447565b60405180910390fd5b610603838383610dbf565b505050565b6106238383836040518060200160405280600081525061084b565b505050565b600080610634836110b8565b9050600073ffffffffffffffffffffffffffffffffffffffff168173ffffffffffffffffffffffffffffffffffffffff16036106a5576040517f08c379a000000000000000000000000000000000000000000000000000000000815260040161069c906124b3565b60405180910390fd5b80915050919050565b60008073ffffffffffffffffffffffffffffffffffffffff168273ffffffffffffffffffffffffffffffffffffffff160361071e576040517f08c379a000000000000000000000000000000000000000000000000000000000815260040161071590612545565b60405180910390fd5b600360008373ffffffffffffffffffffffffffffffffffffffff1673ffffffffffffffffffffffffffffffffffffffff168152602001908152602001600020549050919050565b61076d6110f5565b6107776000611173565b565b6000600760009054906101000a900473ffffffffffffffffffffffffffffffffffffffff16905090565b6060600180546107b290612280565b80601f01602080910402602001604051908101604052809291908181526020018280546107de90612280565b801561082b5780601f106108005761010080835404028352916020019161082b565b820191906000526020600020905b81548152906001019060200180831161080e57829003601f168201915b5050505050905090565b610847610840610c69565b8383611239565b5050565b61085c610856610c69565b83610d2a565b61089b576040517f08c379a000000000000000000000000000000000000000000000000000000000815260040161089290612447565b60405180910390fd5b6108a7848484846113a5565b50505050565b60606108b882610c1e565b60006006600084815260200190815260200160002080546108d890612280565b80601f016020809104026020016040519081016040528092919081815260200182805461090490612280565b80156109515780601f1061092657610100808354040283529160200191610951565b820191906000526020600020905b81548152906001019060200180831161093457829003601f168201915b505050505090506000610962611401565b905060008151036109775781925050506109ba565b6000825111156109ac5780826040516020016109949291906125a1565b604051602081830303815290604052925050506109ba565b6109b584611418565b925050505b919050565b6109c76110f5565b6109d18484611480565b610a1f8383838080601f016020809104026020016040519081016040528093929190818152602001838380828437600081840152601f19601f8201169050808301925050505050505061169d565b50505050565b6000600560008473ffffffffffffffffffffffffffffffffffffffff1673ffffffffffffffffffffffffffffffffffffffff16815260200190815260200160002060008373ffffffffffffffffffffffffffffffffffffffff1673ffffffffffffffffffffffffffffffffffffffff16815260200190815260200160002060009054906101000a900460ff16905092915050565b610ac16110f5565b600073ffffffffffffffffffffffffffffffffffffffff168173ffffffffffffffffffffffffffffffffffffffff1603610b30576040517f08c379a0000000000000000000000000000000000000000000000000000000008152600401610b2790612637565b60405180910390fd5b610b3981611173565b50565b60007f80ac58cd000000000000000000000000000000000000000000000000000000007bffffffffffffffffffffffffffffffffffffffffffffffffffffffff1916827bffffffffffffffffffffffffffffffffffffffffffffffffffffffff19161480610c0757507f5b5e139f000000000000000000000000000000000000000000000000000000007bffffffffffffffffffffffffffffffffffffffffffffffffffffffff1916827bffffffffffffffffffffffffffffffffffffffffffffffffffffffff1916145b80610c175750610c1682611741565b5b9050919050565b610c27816117ab565b610c66576040517f08c379a0000000000000000000000000000000000000000000000000000000008152600401610c5d906124b3565b60405180910390fd5b50565b600033905090565b816004600083815260200190815260200160002060006101000a81548173ffffffffffffffffffffffffffffffffffffffff021916908373ffffffffffffffffffffffffffffffffffffffff160217905550808273ffffffffffffffffffffffffffffffffffffffff16610ce483610628565b73ffffffffffffffffffffffffffffffffffffffff167f8c5be1e5ebec7d5bd14f71427d1e84f3dd0314c0f7b2291e5b200ac8c7c3b92560405160405180910390a45050565b600080610d3683610628565b90508073ffffffffffffffffffffffffffffffffffffffff168473ffffffffffffffffffffffffffffffffffffffff161480610d785750610d778185610a25565b5b80610db657508373ffffffffffffffffffffffffffffffffffffffff16610d9e8461044b565b73ffffffffffffffffffffffffffffffffffffffff16145b91505092915050565b8273ffffffffffffffffffffffffffffffffffffffff16610ddf82610628565b73ffffffffffffffffffffffffffffffffffffffff1614610e35576040517f08c379a0000000000000000000000000000000000000000000000000000000008152600401610e2c906126c9565b60405180910390fd5b600073ffffffffffffffffffffffffffffffffffffffff168273ffffffffffffffffffffffffffffffffffffffff1603610ea4576040517f08c379a0000000000000000000000000000000000000000000000000000000008152600401610e9b9061275b565b60405180910390fd5b610eb183838360016117ec565b8273ffffffffffffffffffffffffffffffffffffffff16610ed182610628565b73ffffffffffffffffffffffffffffffffffffffff1614610f27576040517f08c379a0000000000000000000000000000000000000000000000000000000008152600401610f1e906126c9565b60405180910390fd5b6004600082815260200190815260200160002060006101000a81549073ffffffffffffffffffffffffffffffffffffffff02191690556001600360008573ffffffffffffffffffffffffffffffffffffffff1673ffffffffffffffffffffffffffffffffffffffff168152602001908152602001600020600082825403925050819055506001600360008473ffffffffffffffffffffffffffffffffffffffff1673ffffffffffffffffffffffffffffffffffffffff16815260200190815260200160002060008282540192505081905550816002600083815260200190815260200160002060006101000a81548173ffffffffffffffffffffffffffffffffffffffff021916908373ffffffffffffffffffffffffffffffffffffffff160217905550808273ffffffffffffffffffffffffffffffffffffffff168473ffffffffffffffffffffffffffffffffffffffff167fddf252ad1be2c89b69c2b068fc378daa952ba7f163c4a11628f55a4df523b3ef60405160405180910390a46110b383838360016117f2565b505050565b60006002600083815260200190815260200160002060009054906101000a900473ffffffffffffffffffffffffffffffffffffffff169050919050565b6110fd610c69565b73ffffffffffffffffffffffffffffffffffffffff1661111b610779565b73ffffffffffffffffffffffffffffffffffffffff1614611171576040517f08c379a0000000000000000000000000000000000000000000000000000000008152600401611168906127c7565b60405180910390fd5b565b6000600760009054906101000a900473ffffffffffffffffffffffffffffffffffffffff16905081600760006101000a81548173ffffffffffffffffffffffffffffffffffffffff021916908373ffffffffffffffffffffffffffffffffffffffff1602179055508173ffffffffffffffffffffffffffffffffffffffff168173ffffffffffffffffffffffffffffffffffffffff167f8be0079c531659141344cd1fd0a4f28419497f9722a3daafe3b4186f6b6457e060405160405180910390a35050565b8173ffffffffffffffffffffffffffffffffffffffff168373ffffffffffffffffffffffffffffffffffffffff16036112a7576040517f08c379a000000000000000000000000000000000000000000000000000000000815260040161129e90612833565b60405180910390fd5b80600560008573ffffffffffffffffffffffffffffffffffffffff1673ffffffffffffffffffffffffffffffffffffffff16815260200190815260200160002060008473ffffffffffffffffffffffffffffffffffffffff1673ffffffffffffffffffffffffffffffffffffffff16815260200190815260200160002060006101000a81548160ff0219169083151502179055508173ffffffffffffffffffffffffffffffffffffffff168373ffffffffffffffffffffffffffffffffffffffff167f17307eab39ab6107e8899845ad3d59bd9653f200f220920489ca2b5937696c31836040516113989190611c77565b60405180910390a3505050565b6113b0848484610dbf565b6113bc848484846117f8565b6113fb576040517f08c379a00000000000000000000000000000000000000000000000000000000081526004016113f2906128c5565b60405180910390fd5b50505050565b606060405180602001604052806000815250905090565b606061142382610c1e565b600061142d611401565b9050600081511161144d5760405180602001604052806000815250611478565b806114578461197f565b6040516020016114689291906125a1565b6040516020818303038152906040525b915050919050565b600073ffffffffffffffffffffffffffffffffffffffff168273ffffffffffffffffffffffffffffffffffffffff16036114ef576040517f08c379a00000000000000000000000000000000000000000000000000000000081526004016114e690612931565b60405180910390fd5b6114f8816117ab565b15611538576040517f08c379a000000000000000000000000000000000000000000000000000000000815260040161152f9061299d565b60405180910390fd5b6115466000838360016117ec565b61154f816117ab565b1561158f576040517f08c379a00000000000000000000000000000000000000000000000000000000081526004016115869061299d565b60405180910390fd5b6001600360008473ffffffffffffffffffffffffffffffffffffffff1673ffffffffffffffffffffffffffffffffffffffff16815260200190815260200160002060008282540192505081905550816002600083815260200190815260200160002060006101000a81548173ffffffffffffffffffffffffffffffffffffffff021916908373ffffffffffffffffffffffffffffffffffffffff160217905550808273ffffffffffffffffffffffffffffffffffffffff16600073ffffffffffffffffffffffffffffffffffffffff167fddf252ad1be2c89b69c2b068fc378daa952ba7f163c4a11628f55a4df523b3ef60405160405180910390a46116996000838360016117f2565b5050565b6116a6826117ab565b6116e5576040517f08c379a00000000000000000000000000000000000000000000000000000000081526004016116dc90612a2f565b60405180910390fd5b806006600084815260200190815260200160002090816117059190612bfb565b507ff8e1a15aba9398e019f0b49df1a4fde98ee17ae345cb5f6b5e2c27f5033e8ce7826040516117359190611efe565b60405180910390a15050565b60007f01ffc9a7000000000000000000000000000000000000000000000000000000007bffffffffffffffffffffffffffffffffffffffffffffffffffffffff1916827bffffffffffffffffffffffffffffffffffffffffffffffffffffffff1916149050919050565b60008073ffffffffffffffffffffffffffffffffffffffff166117cd836110b8565b73ffffffffffffffffffffffffffffffffffffffff1614159050919050565b50505050565b50505050565b60006118198473ffffffffffffffffffffffffffffffffffffffff16611a4d565b15611972578373ffffffffffffffffffffffffffffffffffffffff1663150b7a02611842610c69565b8786866040518563ffffffff1660e01b81526004016118649493929190612d22565b6020604051808303816000875af19250505080156118a057506040513d601f19601f8201168201806040525081019061189d9190612d83565b60015b611922573d80600081146118d0576040519150601f19603f3d011682016040523d82523d6000602084013e6118d5565b606091505b50600081510361191a576040517f08c379a0000000000000000000000000000000000000000000000000000000008152600401611911906128c5565b60405180910390fd5b805181602001fd5b63150b7a0260e01b7bffffffffffffffffffffffffffffffffffffffffffffffffffffffff1916817bffffffffffffffffffffffffffffffffffffffffffffffffffffffff191614915050611977565b600190505b949350505050565b60606000600161198e84611a70565b01905060008167ffffffffffffffff8111156119ad576119ac611f8f565b5b6040519080825280601f01601f1916602001820160405280156119df5781602001600182028036833780820191505090505b509050600082602001820190505b600115611a42578080600190039150507f3031323334353637383961626364656600000000000000000000000000000000600a86061a8153600a8581611a3657611a35612db0565b5b049450600085036119ed575b819350505050919050565b6000808273ffffffffffffffffffffffffffffffffffffffff163b119050919050565b600080600090507a184f03e93ff9f4daa797ed6e38ed64bf6a1f0100000000000000008310611ace577a184f03e93ff9f4daa797ed6e38ed64bf6a1f0100000000000000008381611ac457611ac3612db0565b5b0492506040810190505b6d04ee2d6d415b85acef81000000008310611b0b576d04ee2d6d415b85acef81000000008381611b0157611b00612db0565b5b0492506020810190505b662386f26fc100008310611b3a57662386f26fc100008381611b3057611b2f612db0565b5b0492506010810190505b6305f5e1008310611b63576305f5e1008381611b5957611b58612db0565b5b0492506008810190505b6127108310611b88576127108381611b7e57611b7d612db0565b5b0492506004810190505b60648310611bab5760648381611ba157611ba0612db0565b5b0492506002810190505b600a8310611bba576001810190505b80915050919050565b6000604051905090565b600080fd5b600080fd5b60007fffffffff0000000000000000000000000000000000000000000000000000000082169050919050565b611c0c81611bd7565b8114611c1757600080fd5b50565b600081359050611c2981611c03565b92915050565b600060208284031215611c4557611c44611bcd565b5b6000611c5384828501611c1a565b91505092915050565b60008115159050919050565b611c7181611c5c565b82525050565b6000602082019050611c8c6000830184611c68565b92915050565b600081519050919050565b600082825260208201905092915050565b60005b83811015611ccc578082015181840152602081019050611cb1565b60008484015250505050565b6000601f19601f8301169050919050565b6000611cf482611c92565b611cfe8185611c9d565b9350611d0e818560208601611cae565b611d1781611cd8565b840191505092915050565b60006020820190508181036000830152611d3c8184611ce9565b905092915050565b6000819050919050565b611d5781611d44565b8114611d6257600080fd5b50565b600081359050611d7481611d4e565b92915050565b600060208284031215611d9057611d8f611bcd565b5b6000611d9e84828501611d65565b91505092915050565b600073ffffffffffffffffffffffffffffffffffffffff82169050919050565b6000611dd282611da7565b9050919050565b611de281611dc7565b82525050565b6000602082019050611dfd6000830184611dd9565b92915050565b611e0c81611dc7565b8114611e1757600080fd5b50565b600081359050611e2981611e03565b92915050565b60008060408385031215611e4657611e45611bcd565b5b6000611e5485828601611e1a565b9250506020611e6585828601611d65565b9150509250929050565b600080600060608486031215611e8857611e87611bcd565b5b6000611e9686828701611e1a565b9350506020611ea786828701611e1a565b9250506040611eb886828701611d65565b9150509250925092565b600060208284031215611ed857611ed7611bcd565b5b6000611ee684828501611e1a565b91505092915050565b611ef881611d44565b82525050565b6000602082019050611f136000830184611eef565b92915050565b611f2281611c5c565b8114611f2d57600080fd5b50565b600081359050611f3f81611f19565b92915050565b60008060408385031215611f5c57611f5b611bcd565b5b6000611f6a85828601611e1a565b9250506020611f7b85828601611f30565b9150509250929050565b600080fd5b600080fd5b7f4e487b7100000000000000000000000000000000000000000000000000000000600052604160045260246000fd5b611fc782611cd8565b810181811067ffffffffffffffff82111715611fe657611fe5611f8f565b5b80604052505050565b6000611ff9611bc3565b90506120058282611fbe565b919050565b600067ffffffffffffffff82111561202557612024611f8f565b5b61202e82611cd8565b9050602081019050919050565b82818337600083830152505050565b600061205d6120588461200a565b611fef565b90508281526020810184848401111561207957612078611f8a565b5b61208484828561203b565b509392505050565b600082601f8301126120a1576120a0611f85565b5b81356120b184826020860161204a565b91505092915050565b600080600080608085870312156120d4576120d3611bcd565b5b60006120e287828801611e1a565b94505060206120f387828801611e1a565b935050604061210487828801611d65565b925050606085013567ffffffffffffffff81111561212557612124611bd2565b5b6121318782880161208c565b91505092959194509250565b600080fd5b600080fd5b60008083601f84011261215d5761215c611f85565b5b8235905067ffffffffffffffff81111561217a5761217961213d565b5b60208301915083600182028301111561219657612195612142565b5b9250929050565b600080600080606085870312156121b7576121b6611bcd565b5b60006121c587828801611e1a565b94505060206121d687828801611d65565b935050604085013567ffffffffffffffff8111156121f7576121f6611bd2565b5b61220387828801612147565b925092505092959194509250565b6000806040838503121561222857612227611bcd565b5b600061223685828601611e1a565b925050602061224785828601611e1a565b9150509250929050565b7f4e487b7100000000000000000000000000000000000000000000000000000000600052602260045260246000fd5b6000600282049050600182168061229857607f821691505b6020821081036122ab576122aa612251565b5b50919050565b7f4552433732313a20617070726f76616c20746f2063757272656e74206f776e6560008201527f7200000000000000000000000000000000000000000000000000000000000000602082015250565b600061230d602183611c9d565b9150612318826122b1565b604082019050919050565b6000602082019050818103600083015261233c81612300565b9050919050565b7f4552433732313a20617070726f76652063616c6c6572206973206e6f7420746f60008201527f6b656e206f776e6572206f7220617070726f76656420666f7220616c6c000000602082015250565b600061239f603d83611c9d565b91506123aa82612343565b604082019050919050565b600060208201905081810360008301526123ce81612392565b9050919050565b7f4552433732313a2063616c6c6572206973206e6f7420746f6b656e206f776e6560008201527f72206f7220617070726f76656400000000000000000000000000000000000000602082015250565b6000612431602d83611c9d565b915061243c826123d5565b604082019050919050565b6000602082019050818103600083015261246081612424565b9050919050565b7f4552433732313a20696e76616c696420746f6b656e2049440000000000000000600082015250565b600061249d601883611c9d565b91506124a882612467565b602082019050919050565b600060208201905081810360008301526124cc81612490565b9050919050565b7f4552433732313a2061646472657373207a65726f206973206e6f74206120766160008201527f6c6964206f776e65720000000000000000000000000000000000000000000000602082015250565b600061252f602983611c9d565b915061253a826124d3565b604082019050919050565b6000602082019050818103600083015261255e81612522565b9050919050565b600081905092915050565b600061257b82611c92565b6125858185612565565b9350612595818560208601611cae565b80840191505092915050565b60006125ad8285612570565b91506125b98284612570565b91508190509392505050565b7f4f776e61626c653a206e6577206f776e657220697320746865207a65726f206160008201527f6464726573730000000000000000000000000000000000000000000000000000602082015250565b6000612621602683611c9d565b915061262c826125c5565b604082019050919050565b6000602082019050818103600083015261265081612614565b9050919050565b7f4552433732313a207472616e736665722066726f6d20696e636f72726563742060008201527f6f776e6572000000000000000000000000000000000000000000000000000000602082015250565b60006126b3602583611c9d565b91506126be82612657565b604082019050919050565b600060208201905081810360008301526126e2816126a6565b9050919050565b7f4552433732313a207472616e7366657220746f20746865207a65726f2061646460008201527f7265737300000000000000000000000000000000000000000000000000000000602082015250565b6000612745602483611c9d565b9150612750826126e9565b604082019050919050565b6000602082019050818103600083015261277481612738565b9050919050565b7f4f776e61626c653a2063616c6c6572206973206e6f7420746865206f776e6572600082015250565b60006127b1602083611c9d565b91506127bc8261277b565b602082019050919050565b600060208201905081810360008301526127e0816127a4565b9050919050565b7f4552433732313a20617070726f766520746f2063616c6c657200000000000000600082015250565b600061281d601983611c9d565b9150612828826127e7565b602082019050919050565b6000602082019050818103600083015261284c81612810565b9050919050565b7f4552433732313a207472616e7366657220746f206e6f6e20455243373231526560008201527f63656976657220696d706c656d656e7465720000000000000000000000000000602082015250565b60006128af603283611c9d565b91506128ba82612853565b604082019050919050565b600060208201905081810360008301526128de816128a2565b9050919050565b7f4552433732313a206d696e7420746f20746865207a65726f2061646472657373600082015250565b600061291b602083611c9d565b9150612926826128e5565b602082019050919050565b6000602082019050818103600083015261294a8161290e565b9050919050565b7f4552433732313a20746f6b656e20616c7265616479206d696e74656400000000600082015250565b6000612987601c83611c9d565b915061299282612951565b602082019050919050565b600060208201905081810360008301526129b68161297a565b9050919050565b7f45524337323155524953746f726167653a2055524920736574206f66206e6f6e60008201527f6578697374656e7420746f6b656e000000000000000000000000000000000000602082015250565b6000612a19602e83611c9d565b9150612a24826129bd565b604082019050919050565b60006020820190508181036000830152612a4881612a0c565b9050919050565b60008190508160005260206000209050919050565b60006020601f8301049050919050565b600082821b905092915050565b600060088302612ab17fffffffffffffffffffffffffffffffffffffffffffffffffffffffffffffffff82612a74565b612abb8683612a74565b95508019841693508086168417925050509392505050565b6000819050919050565b6000612af8612af3612aee84611d44565b612ad3565b611d44565b9050919050565b6000819050919050565b612b1283612add565b612b26612b1e82612aff565b848454612a81565b825550505050565b600090565b612b3b612b2e565b612b46818484612b09565b505050565b5b81811015612b6a57612b5f600082612b33565b600181019050612b4c565b5050565b601f821115612baf57612b8081612a4f565b612b8984612a64565b81016020851015612b98578190505b612bac612ba485612a64565b830182612b4b565b50505b505050565b600082821c905092915050565b6000612bd260001984600802612bb4565b1980831691505092915050565b6000612beb8383612bc1565b9150826002028217905092915050565b612c0482611c92565b67ffffffffffffffff811115612c1d57612c1c611f8f565b5b612c278254612280565b612c32828285612b6e565b600060209050601f831160018114612c655760008415612c53578287015190505b612c5d8582612bdf565b865550612cc5565b601f198416612c7386612a4f565b60005b82811015612c9b57848901518255600182019150602085019450602081019050612c76565b86831015612cb85784890151612cb4601f891682612bc1565b8355505b6001600288020188555050505b505050505050565b600081519050919050565b600082825260208201905092915050565b6000612cf482612ccd565b612cfe8185612cd8565b9350612d0e818560208601611cae565b612d1781611cd8565b840191505092915050565b6000608082019050612d376000830187611dd9565b612d446020830186611dd9565b612d516040830185611eef565b8181036060830152612d638184612ce9565b905095945050505050565b600081519050612d7d81611c03565b92915050565b600060208284031215612d9957612d98611bcd565b5b6000612da784828501612d6e565b91505092915050565b7f4e487b7100000000000000000000000000000000000000000000000000000000600052601260045260246000fdfea264697066735822122084c66d5cc4baa15f2e3edce119d4b48236d7b757d5c7f450739b19d11e6dc20a64736f6c63430008120033",
  "linkReferences": {},
  "deployedLinkReferences": {}
}