{"contracts/Swapper.sol":{"Swapper":{"abi":[{"inputs":[],"stateMutability":"nonpayable","type":"constructor"},{"anonymous":false,"inputs":[{"indexed":true,"internalType":"bytes32","name":"txId","type":"bytes32"},{"indexed":true,"internalType":"address","name":"to","type":"address"},{"indexed":false,"internalType":"uint256","name":"amount","type":"uint256"}],"name":"accepted","type":"event"},{"anonymous":false,"inputs":[{"indexed":true,"internalType":"bytes32","name":"txId","type":"bytes32"},{"indexed":true,"internalType":"address","name":"from","type":"address"},{"indexed":false,"internalType":"uint256","name":"amount","type":"uint256"}],"name":"canceled","type":"event"},{"anonymous":false,"inputs":[{"indexed":true,"internalType":"bytes32","name":"txId","type":"bytes32"},{"indexed":true,"internalType":"address","name":"from","type":"address"}],"name":"created","type":"event"},{"anonymous":false,"inputs":[{"indexed":true,"internalType":"bytes32","name":"txId","type":"bytes32"},{"indexed":true,"internalType":"address","name":"from","type":"address"},{"indexed":true,"internalType":"address","name":"to","type":"address"}],"name":"swapSuccessfully","type":"event"},{"inputs":[{"internalType":"bytes32","name":"txId","type":"bytes32"}],"name":"acceptTx","outputs":[],"stateMutability":"nonpayable","type":"function"},{"inputs":[{"internalType":"bytes32","name":"id","type":"bytes32"},{"internalType":"address","name":"tokenFrom","type":"address"},{"internalType":"address","name":"tokenTo","type":"address"},{"internalType":"uint256","name":"amountFrom","type":"uint256"},{"internalType":"uint256","name":"amountTo","type":"uint256"}],"name":"createTx","outputs":[],"stateMutability":"nonpayable","type":"function"},{"inputs":[{"internalType":"bytes32","name":"txId","type":"bytes32"}],"name":"refund","outputs":[],"stateMutability":"nonpayable","type":"function"},{"inputs":[{"internalType":"bytes32","name":"","type":"bytes32"}],"name":"transactions","outputs":[{"internalType":"address","name":"from","type":"address"},{"internalType":"contract ERC20","name":"token_from","type":"address"},{"internalType":"contract ERC20","name":"token_to","type":"address"},{"internalType":"uint256","name":"amount_from","type":"uint256"},{"internalType":"uint256","name":"amount_to","type":"uint256"},{"internalType":"enum Swapper.Status","name":"status","type":"uint8"}],"stateMutability":"view","type":"function"}],"evm":{"bytecode":{"linkReferences":{},"object":"608060405234801561001057600080fd5b50611704806100206000396000f3fe608060405234801561001057600080fd5b506004361061004c5760003560e01c80635407a9e314610051578063642f2eaf1461006d5780637249fbb6146100a2578063c0a88f41146100be575b600080fd5b61006b60048036038101906100669190610f34565b6100da565b005b61008760048036038101906100829190610f34565b6103fa565b60405161009996959493929190611091565b60405180910390f35b6100bc60048036038101906100b79190610f34565b6104a3565b005b6100d860048036038101906100d3919061114a565b61082d565b005b80600073ffffffffffffffffffffffffffffffffffffffff1660008083815260200190815260200160002060000160009054906101000a900473ffffffffffffffffffffffffffffffffffffffff1673ffffffffffffffffffffffffffffffffffffffff160361017f576040517f08c379a000000000000000000000000000000000000000000000000000000000815260040161017690611222565b60405180910390fd5b81600060028111156101945761019361101a565b5b60008083815260200190815260200160002060050160009054906101000a900460ff1660028111156101c9576101c861101a565b5b14610209576040517f08c379a00000000000000000000000000000000000000000000000000000000081526004016102009061128e565b60405180910390fd5b600080600085815260200190815260200160002090503373ffffffffffffffffffffffffffffffffffffffff168160000160009054906101000a900473ffffffffffffffffffffffffffffffffffffffff1673ffffffffffffffffffffffffffffffffffffffff16036102b1576040517f08c379a00000000000000000000000000000000000000000000000000000000081526004016102a8906112fa565b60405180910390fd5b8060020160009054906101000a900473ffffffffffffffffffffffffffffffffffffffff1673ffffffffffffffffffffffffffffffffffffffff166323b872dd333084600401546040518463ffffffff1660e01b81526004016103169392919061131a565b6020604051808303816000875af1158015610335573d6000803e3d6000fd5b505050506040513d601f19601f820116820180604052508101906103599190611389565b610398576040517f08c379a000000000000000000000000000000000000000000000000000000000815260040161038f90611402565b60405180910390fd5b6103a184610c45565b3373ffffffffffffffffffffffffffffffffffffffff16847f01f065322c1eac265fbcd003e081771bd7769ec5d82cd23c9f2e00e5f71113cd83600401546040516103ec9190611422565b60405180910390a350505050565b60006020528060005260406000206000915090508060000160009054906101000a900473ffffffffffffffffffffffffffffffffffffffff16908060010160009054906101000a900473ffffffffffffffffffffffffffffffffffffffff16908060020160009054906101000a900473ffffffffffffffffffffffffffffffffffffffff16908060030154908060040154908060050160009054906101000a900460ff16905086565b80600073ffffffffffffffffffffffffffffffffffffffff1660008083815260200190815260200160002060000160009054906101000a900473ffffffffffffffffffffffffffffffffffffffff1673ffffffffffffffffffffffffffffffffffffffff1603610548576040517f08c379a000000000000000000000000000000000000000000000000000000000815260040161053f90611222565b60405180910390fd5b816000600281111561055d5761055c61101a565b5b60008083815260200190815260200160002060050160009054906101000a900460ff1660028111156105925761059161101a565b5b146105d2576040517f08c379a00000000000000000000000000000000000000000000000000000000081526004016105c99061128e565b60405180910390fd5b600080600085815260200190815260200160002090503373ffffffffffffffffffffffffffffffffffffffff168160000160009054906101000a900473ffffffffffffffffffffffffffffffffffffffff1673ffffffffffffffffffffffffffffffffffffffff161461067a576040517f08c379a0000000000000000000000000000000000000000000000000000000008152600401610671906114af565b60405180910390fd5b8060010160009054906101000a900473ffffffffffffffffffffffffffffffffffffffff1673ffffffffffffffffffffffffffffffffffffffff1663a9059cbb8260000160009054906101000a900473ffffffffffffffffffffffffffffffffffffffff1683600301546040518363ffffffff1660e01b81526004016107019291906114cf565b6020604051808303816000875af1158015610720573d6000803e3d6000fd5b505050506040513d601f19601f820116820180604052508101906107449190611389565b610783576040517f08c379a000000000000000000000000000000000000000000000000000000000815260040161077a90611544565b60405180910390fd5b60028160050160006101000a81548160ff021916908360028111156107ab576107aa61101a565b5b02179055508060000160009054906101000a900473ffffffffffffffffffffffffffffffffffffffff1673ffffffffffffffffffffffffffffffffffffffff16847fce1fbacea7f745c89680bdb99975ce1e5f6a7381689e57cc3662f45bbd341a94836003015460405161081f9190611422565b60405180910390a350505050565b84600073ffffffffffffffffffffffffffffffffffffffff1660008083815260200190815260200160002060000160009054906101000a900473ffffffffffffffffffffffffffffffffffffffff1673ffffffffffffffffffffffffffffffffffffffff16146108d2576040517f08c379a00000000000000000000000000000000000000000000000000000000081526004016108c9906115b0565b60405180910390fd5b8373ffffffffffffffffffffffffffffffffffffffff168573ffffffffffffffffffffffffffffffffffffffff1603610940576040517f08c379a000000000000000000000000000000000000000000000000000000000815260040161093790611642565b60405180910390fd5b6040518060c001604052803373ffffffffffffffffffffffffffffffffffffffff1681526020018673ffffffffffffffffffffffffffffffffffffffff1681526020018573ffffffffffffffffffffffffffffffffffffffff168152602001848152602001838152602001600060028111156109bf576109be61101a565b5b81525060008088815260200190815260200160002060008201518160000160006101000a81548173ffffffffffffffffffffffffffffffffffffffff021916908373ffffffffffffffffffffffffffffffffffffffff16021790555060208201518160010160006101000a81548173ffffffffffffffffffffffffffffffffffffffff021916908373ffffffffffffffffffffffffffffffffffffffff16021790555060408201518160020160006101000a81548173ffffffffffffffffffffffffffffffffffffffff021916908373ffffffffffffffffffffffffffffffffffffffff160217905550606082015181600301556080820151816004015560a08201518160050160006101000a81548160ff02191690836002811115610ae857610ae761101a565b5b021790555090505060008087815260200190815260200160002060010160009054906101000a900473ffffffffffffffffffffffffffffffffffffffff1673ffffffffffffffffffffffffffffffffffffffff166323b872dd33306000808b8152602001908152602001600020600301546040518463ffffffff1660e01b8152600401610b779392919061131a565b6020604051808303816000875af1158015610b96573d6000803e3d6000fd5b505050506040513d601f19601f82011682018060405250810190610bba9190611389565b610bf9576040517f08c379a0000000000000000000000000000000000000000000000000000000008152600401610bf090611402565b60405180910390fd5b3373ffffffffffffffffffffffffffffffffffffffff16867f597868596d6ce2373d6cca48fc876374194d4e581dee04262121463a33fa35d960405160405180910390a3505050505050565b600080600083815260200190815260200160002090508060010160009054906101000a900473ffffffffffffffffffffffffffffffffffffffff1673ffffffffffffffffffffffffffffffffffffffff1663a9059cbb3383600301546040518363ffffffff1660e01b8152600401610cbe9291906114cf565b6020604051808303816000875af1158015610cdd573d6000803e3d6000fd5b505050506040513d601f19601f82011682018060405250810190610d019190611389565b610d40576040517f08c379a0000000000000000000000000000000000000000000000000000000008152600401610d37906116ae565b60405180910390fd5b8060020160009054906101000a900473ffffffffffffffffffffffffffffffffffffffff1673ffffffffffffffffffffffffffffffffffffffff1663a9059cbb8260000160009054906101000a900473ffffffffffffffffffffffffffffffffffffffff1683600401546040518363ffffffff1660e01b8152600401610dc79291906114cf565b6020604051808303816000875af1158015610de6573d6000803e3d6000fd5b505050506040513d601f19601f82011682018060405250810190610e0a9190611389565b610e49576040517f08c379a0000000000000000000000000000000000000000000000000000000008152600401610e40906116ae565b60405180910390fd5b60018160050160006101000a81548160ff02191690836002811115610e7157610e7061101a565b5b02179055503373ffffffffffffffffffffffffffffffffffffffff168160000160009054906101000a900473ffffffffffffffffffffffffffffffffffffffff1673ffffffffffffffffffffffffffffffffffffffff16837f25ba91fac1454f9bc07a738e2efff96f184334bc009f12fcf60f6be2b2cbb97160405160405180910390a45050565b600080fd5b6000819050919050565b610f1181610efe565b8114610f1c57600080fd5b50565b600081359050610f2e81610f08565b92915050565b600060208284031215610f4a57610f49610ef9565b5b6000610f5884828501610f1f565b91505092915050565b600073ffffffffffffffffffffffffffffffffffffffff82169050919050565b6000610f8c82610f61565b9050919050565b610f9c81610f81565b82525050565b6000819050919050565b6000610fc7610fc2610fbd84610f61565b610fa2565b610f61565b9050919050565b6000610fd982610fac565b9050919050565b6000610feb82610fce565b9050919050565b610ffb81610fe0565b82525050565b6000819050919050565b61101481611001565b82525050565b7f4e487b7100000000000000000000000000000000000000000000000000000000600052602160045260246000fd5b6003811061105a5761105961101a565b5b50565b600081905061106b82611049565b919050565b600061107b8261105d565b9050919050565b61108b81611070565b82525050565b600060c0820190506110a66000830189610f93565b6110b36020830188610ff2565b6110c06040830187610ff2565b6110cd606083018661100b565b6110da608083018561100b565b6110e760a0830184611082565b979650505050505050565b6110fb81610f81565b811461110657600080fd5b50565b600081359050611118816110f2565b92915050565b61112781611001565b811461113257600080fd5b50565b6000813590506111448161111e565b92915050565b600080600080600060a0868803121561116657611165610ef9565b5b600061117488828901610f1f565b955050602061118588828901611109565b945050604061119688828901611109565b93505060606111a788828901611135565b92505060806111b888828901611135565b9150509295509295909350565b600082825260208201905092915050565b7f54686973206f7264657220646f65736e27742065786973747300000000000000600082015250565b600061120c6019836111c5565b9150611217826111d6565b602082019050919050565b6000602082019050818103600083015261123b816111ff565b9050919050565b7f54686973207472616e73616374696f6e20686173206265656e20646f6e650000600082015250565b6000611278601e836111c5565b915061128382611242565b602082019050919050565b600060208201905081810360008301526112a78161126b565b9050919050565b7f43616e27742061636365707420627920796f75722073656c6621203d29290000600082015250565b60006112e4601e836111c5565b91506112ef826112ae565b602082019050919050565b60006020820190508181036000830152611313816112d7565b9050919050565b600060608201905061132f6000830186610f93565b61133c6020830185610f93565b611349604083018461100b565b949350505050565b60008115159050919050565b61136681611351565b811461137157600080fd5b50565b6000815190506113838161135d565b92915050565b60006020828403121561139f5761139e610ef9565b5b60006113ad84828501611374565b91505092915050565b7f5472616e7366657220746f20636f6e7472616374206661696c65640000000000600082015250565b60006113ec601b836111c5565b91506113f7826113b6565b602082019050919050565b6000602082019050818103600083015261141b816113df565b9050919050565b6000602082019050611437600083018461100b565b92915050565b7f4f6e6c79206f776e65722063616e20726566756e642074686973207472616e7360008201527f616374696f6e0000000000000000000000000000000000000000000000000000602082015250565b60006114996026836111c5565b91506114a48261143d565b604082019050919050565b600060208201905081810360008301526114c88161148c565b9050919050565b60006040820190506114e46000830185610f93565b6114f1602083018461100b565b9392505050565b7f526566756e64206661696c656400000000000000000000000000000000000000600082015250565b600061152e600d836111c5565b9150611539826114f8565b602082019050919050565b6000602082019050818103600083015261155d81611521565b9050919050565b7f4475706c6963617465206f726465722062792069640000000000000000000000600082015250565b600061159a6015836111c5565b91506115a582611564565b602082019050919050565b600060208201905081810360008301526115c98161158d565b9050919050565b7f4f6e6c792073776170206265747765656e2074776f20646966666572656e742060008201527f746f6b656e000000000000000000000000000000000000000000000000000000602082015250565b600061162c6025836111c5565b9150611637826115d0565b604082019050919050565b6000602082019050818103600083015261165b8161161f565b9050919050565b7f53776170206661696c6564000000000000000000000000000000000000000000600082015250565b6000611698600b836111c5565b91506116a382611662565b602082019050919050565b600060208201905081810360008301526116c78161168b565b905091905056fea2646970667358221220daaa68adc1f05079e855f3b11c1feebfeab7356a827e7147f412ddf2935a21d464736f6c63430008120033","opcodes":"PUSH1 0x80 PUSH1 0x40 MSTORE CALLVALUE DUP1 ISZERO PUSH2 0x10 JUMPI PUSH1 0x0 DUP1 REVERT JUMPDEST POP PUSH2 0x1704 DUP1 PUSH2 0x20 PUSH1 0x0 CODECOPY PUSH1 0x0 RETURN INVALID PUSH1 0x80 PUSH1 0x40 MSTORE CALLVALUE DUP1 ISZERO PUSH2 0x10 JUMPI PUSH1 0x0 DUP1 REVERT JUMPDEST POP PUSH1 0x4 CALLDATASIZE LT PUSH2 0x4C JUMPI PUSH1 0x0 CALLDATALOAD PUSH1 0xE0 SHR DUP1 PUSH4 0x5407A9E3 EQ PUSH2 0x51 JUMPI DUP1 PUSH4 0x642F2EAF EQ PUSH2 0x6D JUMPI DUP1 PUSH4 0x7249FBB6 EQ PUSH2 0xA2 JUMPI DUP1 PUSH4 0xC0A88F41 EQ PUSH2 0xBE JUMPI JUMPDEST PUSH1 0x0 DUP1 REVERT JUMPDEST PUSH2 0x6B PUSH1 0x4 DUP1 CALLDATASIZE SUB DUP2 ADD SWAP1 PUSH2 0x66 SWAP2 SWAP1 PUSH2 0xF34 JUMP JUMPDEST PUSH2 0xDA JUMP JUMPDEST STOP JUMPDEST PUSH2 0x87 PUSH1 0x4 DUP1 CALLDATASIZE SUB DUP2 ADD SWAP1 PUSH2 0x82 SWAP2 SWAP1 PUSH2 0xF34 JUMP JUMPDEST PUSH2 0x3FA JUMP JUMPDEST PUSH1 0x40 MLOAD PUSH2 0x99 SWAP7 SWAP6 SWAP5 SWAP4 SWAP3 SWAP2 SWAP1 PUSH2 0x1091 JUMP JUMPDEST PUSH1 0x40 MLOAD DUP1 SWAP2 SUB SWAP1 RETURN JUMPDEST PUSH2 0xBC PUSH1 0x4 DUP1 CALLDATASIZE SUB DUP2 ADD SWAP1 PUSH2 0xB7 SWAP2 SWAP1 PUSH2 0xF34 JUMP JUMPDEST PUSH2 0x4A3 JUMP JUMPDEST STOP JUMPDEST PUSH2 0xD8 PUSH1 0x4 DUP1 CALLDATASIZE SUB DUP2 ADD SWAP1 PUSH2 0xD3 SWAP2 SWAP1 PUSH2 0x114A JUMP JUMPDEST PUSH2 0x82D JUMP JUMPDEST STOP JUMPDEST DUP1 PUSH1 0x0 PUSH20 0xFFFFFFFFFFFFFFFFFFFFFFFFFFFFFFFFFFFFFFFF AND PUSH1 0x0 DUP1 DUP4 DUP2 MSTORE PUSH1 0x20 ADD SWAP1 DUP2 MSTORE PUSH1 0x20 ADD PUSH1 0x0 KECCAK256 PUSH1 0x0 ADD PUSH1 0x0 SWAP1 SLOAD SWAP1 PUSH2 0x100 EXP SWAP1 DIV PUSH20 0xFFFFFFFFFFFFFFFFFFFFFFFFFFFFFFFFFFFFFFFF AND PUSH20 0xFFFFFFFFFFFFFFFFFFFFFFFFFFFFFFFFFFFFFFFF AND SUB PUSH2 0x17F JUMPI PUSH1 0x40 MLOAD PUSH32 0x8C379A000000000000000000000000000000000000000000000000000000000 DUP2 MSTORE PUSH1 0x4 ADD PUSH2 0x176 SWAP1 PUSH2 0x1222 JUMP JUMPDEST PUSH1 0x40 MLOAD DUP1 SWAP2 SUB SWAP1 REVERT JUMPDEST DUP2 PUSH1 0x0 PUSH1 0x2 DUP2 GT ISZERO PUSH2 0x194 JUMPI PUSH2 0x193 PUSH2 0x101A JUMP JUMPDEST JUMPDEST PUSH1 0x0 DUP1 DUP4 DUP2 MSTORE PUSH1 0x20 ADD SWAP1 DUP2 MSTORE PUSH1 0x20 ADD PUSH1 0x0 KECCAK256 PUSH1 0x5 ADD PUSH1 0x0 SWAP1 SLOAD SWAP1 PUSH2 0x100 EXP SWAP1 DIV PUSH1 0xFF AND PUSH1 0x2 DUP2 GT ISZERO PUSH2 0x1C9 JUMPI PUSH2 0x1C8 PUSH2 0x101A JUMP JUMPDEST JUMPDEST EQ PUSH2 0x209 JUMPI PUSH1 0x40 MLOAD PUSH32 0x8C379A000000000000000000000000000000000000000000000000000000000 DUP2 MSTORE PUSH1 0x4 ADD PUSH2 0x200 SWAP1 PUSH2 0x128E JUMP JUMPDEST PUSH1 0x40 MLOAD DUP1 SWAP2 SUB SWAP1 REVERT JUMPDEST PUSH1 0x0 DUP1 PUSH1 0x0 DUP6 DUP2 MSTORE PUSH1 0x20 ADD SWAP1 DUP2 MSTORE PUSH1 0x20 ADD PUSH1 0x0 KECCAK256 SWAP1 POP CALLER PUSH20 0xFFFFFFFFFFFFFFFFFFFFFFFFFFFFFFFFFFFFFFFF AND DUP2 PUSH1 0x0 ADD PUSH1 0x0 SWAP1 SLOAD SWAP1 PUSH2 0x100 EXP SWAP1 DIV PUSH20 0xFFFFFFFFFFFFFFFFFFFFFFFFFFFFFFFFFFFFFFFF AND PUSH20 0xFFFFFFFFFFFFFFFFFFFFFFFFFFFFFFFFFFFFFFFF AND SUB PUSH2 0x2B1 JUMPI PUSH1 0x40 MLOAD PUSH32 0x8C379A000000000000000000000000000000000000000000000000000000000 DUP2 MSTORE PUSH1 0x4 ADD PUSH2 0x2A8 SWAP1 PUSH2 0x12FA JUMP JUMPDEST PUSH1 0x40 MLOAD DUP1 SWAP2 SUB SWAP1 REVERT JUMPDEST DUP1 PUSH1 0x2 ADD PUSH1 0x0 SWAP1 SLOAD SWAP1 PUSH2 0x100 EXP SWAP1 DIV PUSH20 0xFFFFFFFFFFFFFFFFFFFFFFFFFFFFFFFFFFFFFFFF AND PUSH20 0xFFFFFFFFFFFFFFFFFFFFFFFFFFFFFFFFFFFFFFFF AND PUSH4 0x23B872DD CALLER ADDRESS DUP5 PUSH1 0x4 ADD SLOAD PUSH1 0x40 MLOAD DUP5 PUSH4 0xFFFFFFFF AND PUSH1 0xE0 SHL DUP2 MSTORE PUSH1 0x4 ADD PUSH2 0x316 SWAP4 SWAP3 SWAP2 SWAP1 PUSH2 0x131A JUMP JUMPDEST PUSH1 0x20 PUSH1 0x40 MLOAD DUP1 DUP4 SUB DUP2 PUSH1 0x0 DUP8 GAS CALL ISZERO DUP1 ISZERO PUSH2 0x335 JUMPI RETURNDATASIZE PUSH1 0x0 DUP1 RETURNDATACOPY RETURNDATASIZE PUSH1 0x0 REVERT JUMPDEST POP POP POP POP PUSH1 0x40 MLOAD RETURNDATASIZE PUSH1 0x1F NOT PUSH1 0x1F DUP3 ADD AND DUP3 ADD DUP1 PUSH1 0x40 MSTORE POP DUP2 ADD SWAP1 PUSH2 0x359 SWAP2 SWAP1 PUSH2 0x1389 JUMP JUMPDEST PUSH2 0x398 JUMPI PUSH1 0x40 MLOAD PUSH32 0x8C379A000000000000000000000000000000000000000000000000000000000 DUP2 MSTORE PUSH1 0x4 ADD PUSH2 0x38F SWAP1 PUSH2 0x1402 JUMP JUMPDEST PUSH1 0x40 MLOAD DUP1 SWAP2 SUB SWAP1 REVERT JUMPDEST PUSH2 0x3A1 DUP5 PUSH2 0xC45 JUMP JUMPDEST CALLER PUSH20 0xFFFFFFFFFFFFFFFFFFFFFFFFFFFFFFFFFFFFFFFF AND DUP5 PUSH32 0x1F065322C1EAC265FBCD003E081771BD7769EC5D82CD23C9F2E00E5F71113CD DUP4 PUSH1 0x4 ADD SLOAD PUSH1 0x40 MLOAD PUSH2 0x3EC SWAP2 SWAP1 PUSH2 0x1422 JUMP JUMPDEST PUSH1 0x40 MLOAD DUP1 SWAP2 SUB SWAP1 LOG3 POP POP POP POP JUMP JUMPDEST PUSH1 0x0 PUSH1 0x20 MSTORE DUP1 PUSH1 0x0 MSTORE PUSH1 0x40 PUSH1 0x0 KECCAK256 PUSH1 0x0 SWAP2 POP SWAP1 POP DUP1 PUSH1 0x0 ADD PUSH1 0x0 SWAP1 SLOAD SWAP1 PUSH2 0x100 EXP SWAP1 DIV PUSH20 0xFFFFFFFFFFFFFFFFFFFFFFFFFFFFFFFFFFFFFFFF AND SWAP1 DUP1 PUSH1 0x1 ADD PUSH1 0x0 SWAP1 SLOAD SWAP1 PUSH2 0x100 EXP SWAP1 DIV PUSH20 0xFFFFFFFFFFFFFFFFFFFFFFFFFFFFFFFFFFFFFFFF AND SWAP1 DUP1 PUSH1 0x2 ADD PUSH1 0x0 SWAP1 SLOAD SWAP1 PUSH2 0x100 EXP SWAP1 DIV PUSH20 0xFFFFFFFFFFFFFFFFFFFFFFFFFFFFFFFFFFFFFFFF AND SWAP1 DUP1 PUSH1 0x3 ADD SLOAD SWAP1 DUP1 PUSH1 0x4 ADD SLOAD SWAP1 DUP1 PUSH1 0x5 ADD PUSH1 0x0 SWAP1 SLOAD SWAP1 PUSH2 0x100 EXP SWAP1 DIV PUSH1 0xFF AND SWAP1 POP DUP7 JUMP JUMPDEST DUP1 PUSH1 0x0 PUSH20 0xFFFFFFFFFFFFFFFFFFFFFFFFFFFFFFFFFFFFFFFF AND PUSH1 0x0 DUP1 DUP4 DUP2 MSTORE PUSH1 0x20 ADD SWAP1 DUP2 MSTORE PUSH1 0x20 ADD PUSH1 0x0 KECCAK256 PUSH1 0x0 ADD PUSH1 0x0 SWAP1 SLOAD SWAP1 PUSH2 0x100 EXP SWAP1 DIV PUSH20 0xFFFFFFFFFFFFFFFFFFFFFFFFFFFFFFFFFFFFFFFF AND PUSH20 0xFFFFFFFFFFFFFFFFFFFFFFFFFFFFFFFFFFFFFFFF AND SUB PUSH2 0x548 JUMPI PUSH1 0x40 MLOAD PUSH32 0x8C379A000000000000000000000000000000000000000000000000000000000 DUP2 MSTORE PUSH1 0x4 ADD PUSH2 0x53F SWAP1 PUSH2 0x1222 JUMP JUMPDEST PUSH1 0x40 MLOAD DUP1 SWAP2 SUB SWAP1 REVERT JUMPDEST DUP2 PUSH1 0x0 PUSH1 0x2 DUP2 GT ISZERO PUSH2 0x55D JUMPI PUSH2 0x55C PUSH2 0x101A JUMP JUMPDEST JUMPDEST PUSH1 0x0 DUP1 DUP4 DUP2 MSTORE PUSH1 0x20 ADD SWAP1 DUP2 MSTORE PUSH1 0x20 ADD PUSH1 0x0 KECCAK256 PUSH1 0x5 ADD PUSH1 0x0 SWAP1 SLOAD SWAP1 PUSH2 0x100 EXP SWAP1 DIV PUSH1 0xFF AND PUSH1 0x2 DUP2 GT ISZERO PUSH2 0x592 JUMPI PUSH2 0x591 PUSH2 0x101A JUMP JUMPDEST JUMPDEST EQ PUSH2 0x5D2 JUMPI PUSH1 0x40 MLOAD PUSH32 0x8C379A000000000000000000000000000000000000000000000000000000000 DUP2 MSTORE PUSH1 0x4 ADD PUSH2 0x5C9 SWAP1 PUSH2 0x128E JUMP JUMPDEST PUSH1 0x40 MLOAD DUP1 SWAP2 SUB SWAP1 REVERT JUMPDEST PUSH1 0x0 DUP1 PUSH1 0x0 DUP6 DUP2 MSTORE PUSH1 0x20 ADD SWAP1 DUP2 MSTORE PUSH1 0x20 ADD PUSH1 0x0 KECCAK256 SWAP1 POP CALLER PUSH20 0xFFFFFFFFFFFFFFFFFFFFFFFFFFFFFFFFFFFFFFFF AND DUP2 PUSH1 0x0 ADD PUSH1 0x0 SWAP1 SLOAD SWAP1 PUSH2 0x100 EXP SWAP1 DIV PUSH20 0xFFFFFFFFFFFFFFFFFFFFFFFFFFFFFFFFFFFFFFFF AND PUSH20 0xFFFFFFFFFFFFFFFFFFFFFFFFFFFFFFFFFFFFFFFF AND EQ PUSH2 0x67A JUMPI PUSH1 0x40 MLOAD PUSH32 0x8C379A000000000000000000000000000000000000000000000000000000000 DUP2 MSTORE PUSH1 0x4 ADD PUSH2 0x671 SWAP1 PUSH2 0x14AF JUMP JUMPDEST PUSH1 0x40 MLOAD DUP1 SWAP2 SUB SWAP1 REVERT JUMPDEST DUP1 PUSH1 0x1 ADD PUSH1 0x0 SWAP1 SLOAD SWAP1 PUSH2 0x100 EXP SWAP1 DIV PUSH20 0xFFFFFFFFFFFFFFFFFFFFFFFFFFFFFFFFFFFFFFFF AND PUSH20 0xFFFFFFFFFFFFFFFFFFFFFFFFFFFFFFFFFFFFFFFF AND PUSH4 0xA9059CBB DUP3 PUSH1 0x0 ADD PUSH1 0x0 SWAP1 SLOAD SWAP1 PUSH2 0x100 EXP SWAP1 DIV PUSH20 0xFFFFFFFFFFFFFFFFFFFFFFFFFFFFFFFFFFFFFFFF AND DUP4 PUSH1 0x3 ADD SLOAD PUSH1 0x40 MLOAD DUP4 PUSH4 0xFFFFFFFF AND PUSH1 0xE0 SHL DUP2 MSTORE PUSH1 0x4 ADD PUSH2 0x701 SWAP3 SWAP2 SWAP1 PUSH2 0x14CF JUMP JUMPDEST PUSH1 0x20 PUSH1 0x40 MLOAD DUP1 DUP4 SUB DUP2 PUSH1 0x0 DUP8 GAS CALL ISZERO DUP1 ISZERO PUSH2 0x720 JUMPI RETURNDATASIZE PUSH1 0x0 DUP1 RETURNDATACOPY RETURNDATASIZE PUSH1 0x0 REVERT JUMPDEST POP POP POP POP PUSH1 0x40 MLOAD RETURNDATASIZE PUSH1 0x1F NOT PUSH1 0x1F DUP3 ADD AND DUP3 ADD DUP1 PUSH1 0x40 MSTORE POP DUP2 ADD SWAP1 PUSH2 0x744 SWAP2 SWAP1 PUSH2 0x1389 JUMP JUMPDEST PUSH2 0x783 JUMPI PUSH1 0x40 MLOAD PUSH32 0x8C379A000000000000000000000000000000000000000000000000000000000 DUP2 MSTORE PUSH1 0x4 ADD PUSH2 0x77A SWAP1 PUSH2 0x1544 JUMP JUMPDEST PUSH1 0x40 MLOAD DUP1 SWAP2 SUB SWAP1 REVERT JUMPDEST PUSH1 0x2 DUP2 PUSH1 0x5 ADD PUSH1 0x0 PUSH2 0x100 EXP DUP2 SLOAD DUP2 PUSH1 0xFF MUL NOT AND SWAP1 DUP4 PUSH1 0x2 DUP2 GT ISZERO PUSH2 0x7AB JUMPI PUSH2 0x7AA PUSH2 0x101A JUMP JUMPDEST JUMPDEST MUL OR SWAP1 SSTORE POP DUP1 PUSH1 0x0 ADD PUSH1 0x0 SWAP1 SLOAD SWAP1 PUSH2 0x100 EXP SWAP1 DIV PUSH20 0xFFFFFFFFFFFFFFFFFFFFFFFFFFFFFFFFFFFFFFFF AND PUSH20 0xFFFFFFFFFFFFFFFFFFFFFFFFFFFFFFFFFFFFFFFF AND DUP5 PUSH32 0xCE1FBACEA7F745C89680BDB99975CE1E5F6A7381689E57CC3662F45BBD341A94 DUP4 PUSH1 0x3 ADD SLOAD PUSH1 0x40 MLOAD PUSH2 0x81F SWAP2 SWAP1 PUSH2 0x1422 JUMP JUMPDEST PUSH1 0x40 MLOAD DUP1 SWAP2 SUB SWAP1 LOG3 POP POP POP POP JUMP JUMPDEST DUP5 PUSH1 0x0 PUSH20 0xFFFFFFFFFFFFFFFFFFFFFFFFFFFFFFFFFFFFFFFF AND PUSH1 0x0 DUP1 DUP4 DUP2 MSTORE PUSH1 0x20 ADD SWAP1 DUP2 MSTORE PUSH1 0x20 ADD PUSH1 0x0 KECCAK256 PUSH1 0x0 ADD PUSH1 0x0 SWAP1 SLOAD SWAP1 PUSH2 0x100 EXP SWAP1 DIV PUSH20 0xFFFFFFFFFFFFFFFFFFFFFFFFFFFFFFFFFFFFFFFF AND PUSH20 0xFFFFFFFFFFFFFFFFFFFFFFFFFFFFFFFFFFFFFFFF AND EQ PUSH2 0x8D2 JUMPI PUSH1 0x40 MLOAD PUSH32 0x8C379A000000000000000000000000000000000000000000000000000000000 DUP2 MSTORE PUSH1 0x4 ADD PUSH2 0x8C9 SWAP1 PUSH2 0x15B0 JUMP JUMPDEST PUSH1 0x40 MLOAD DUP1 SWAP2 SUB SWAP1 REVERT JUMPDEST DUP4 PUSH20 0xFFFFFFFFFFFFFFFFFFFFFFFFFFFFFFFFFFFFFFFF AND DUP6 PUSH20 0xFFFFFFFFFFFFFFFFFFFFFFFFFFFFFFFFFFFFFFFF AND SUB PUSH2 0x940 JUMPI PUSH1 0x40 MLOAD PUSH32 0x8C379A000000000000000000000000000000000000000000000000000000000 DUP2 MSTORE PUSH1 0x4 ADD PUSH2 0x937 SWAP1 PUSH2 0x1642 JUMP JUMPDEST PUSH1 0x40 MLOAD DUP1 SWAP2 SUB SWAP1 REVERT JUMPDEST PUSH1 0x40 MLOAD DUP1 PUSH1 0xC0 ADD PUSH1 0x40 MSTORE DUP1 CALLER PUSH20 0xFFFFFFFFFFFFFFFFFFFFFFFFFFFFFFFFFFFFFFFF AND DUP2 MSTORE PUSH1 0x20 ADD DUP7 PUSH20 0xFFFFFFFFFFFFFFFFFFFFFFFFFFFFFFFFFFFFFFFF AND DUP2 MSTORE PUSH1 0x20 ADD DUP6 PUSH20 0xFFFFFFFFFFFFFFFFFFFFFFFFFFFFFFFFFFFFFFFF AND DUP2 MSTORE PUSH1 0x20 ADD DUP5 DUP2 MSTORE PUSH1 0x20 ADD DUP4 DUP2 MSTORE PUSH1 0x20 ADD PUSH1 0x0 PUSH1 0x2 DUP2 GT ISZERO PUSH2 0x9BF JUMPI PUSH2 0x9BE PUSH2 0x101A JUMP JUMPDEST JUMPDEST DUP2 MSTORE POP PUSH1 0x0 DUP1 DUP9 DUP2 MSTORE PUSH1 0x20 ADD SWAP1 DUP2 MSTORE PUSH1 0x20 ADD PUSH1 0x0 KECCAK256 PUSH1 0x0 DUP3 ADD MLOAD DUP2 PUSH1 0x0 ADD PUSH1 0x0 PUSH2 0x100 EXP DUP2 SLOAD DUP2 PUSH20 0xFFFFFFFFFFFFFFFFFFFFFFFFFFFFFFFFFFFFFFFF MUL NOT AND SWAP1 DUP4 PUSH20 0xFFFFFFFFFFFFFFFFFFFFFFFFFFFFFFFFFFFFFFFF AND MUL OR SWAP1 SSTORE POP PUSH1 0x20 DUP3 ADD MLOAD DUP2 PUSH1 0x1 ADD PUSH1 0x0 PUSH2 0x100 EXP DUP2 SLOAD DUP2 PUSH20 0xFFFFFFFFFFFFFFFFFFFFFFFFFFFFFFFFFFFFFFFF MUL NOT AND SWAP1 DUP4 PUSH20 0xFFFFFFFFFFFFFFFFFFFFFFFFFFFFFFFFFFFFFFFF AND MUL OR SWAP1 SSTORE POP PUSH1 0x40 DUP3 ADD MLOAD DUP2 PUSH1 0x2 ADD PUSH1 0x0 PUSH2 0x100 EXP DUP2 SLOAD DUP2 PUSH20 0xFFFFFFFFFFFFFFFFFFFFFFFFFFFFFFFFFFFFFFFF MUL NOT AND SWAP1 DUP4 PUSH20 0xFFFFFFFFFFFFFFFFFFFFFFFFFFFFFFFFFFFFFFFF AND MUL OR SWAP1 SSTORE POP PUSH1 0x60 DUP3 ADD MLOAD DUP2 PUSH1 0x3 ADD SSTORE PUSH1 0x80 DUP3 ADD MLOAD DUP2 PUSH1 0x4 ADD SSTORE PUSH1 0xA0 DUP3 ADD MLOAD DUP2 PUSH1 0x5 ADD PUSH1 0x0 PUSH2 0x100 EXP DUP2 SLOAD DUP2 PUSH1 0xFF MUL NOT AND SWAP1 DUP4 PUSH1 0x2 DUP2 GT ISZERO PUSH2 0xAE8 JUMPI PUSH2 0xAE7 PUSH2 0x101A JUMP JUMPDEST JUMPDEST MUL OR SWAP1 SSTORE POP SWAP1 POP POP PUSH1 0x0 DUP1 DUP8 DUP2 MSTORE PUSH1 0x20 ADD SWAP1 DUP2 MSTORE PUSH1 0x20 ADD PUSH1 0x0 KECCAK256 PUSH1 0x1 ADD PUSH1 0x0 SWAP1 SLOAD SWAP1 PUSH2 0x100 EXP SWAP1 DIV PUSH20 0xFFFFFFFFFFFFFFFFFFFFFFFFFFFFFFFFFFFFFFFF AND PUSH20 0xFFFFFFFFFFFFFFFFFFFFFFFFFFFFFFFFFFFFFFFF AND PUSH4 0x23B872DD CALLER ADDRESS PUSH1 0x0 DUP1 DUP12 DUP2 MSTORE PUSH1 0x20 ADD SWAP1 DUP2 MSTORE PUSH1 0x20 ADD PUSH1 0x0 KECCAK256 PUSH1 0x3 ADD SLOAD PUSH1 0x40 MLOAD DUP5 PUSH4 0xFFFFFFFF AND PUSH1 0xE0 SHL DUP2 MSTORE PUSH1 0x4 ADD PUSH2 0xB77 SWAP4 SWAP3 SWAP2 SWAP1 PUSH2 0x131A JUMP JUMPDEST PUSH1 0x20 PUSH1 0x40 MLOAD DUP1 DUP4 SUB DUP2 PUSH1 0x0 DUP8 GAS CALL ISZERO DUP1 ISZERO PUSH2 0xB96 JUMPI RETURNDATASIZE PUSH1 0x0 DUP1 RETURNDATACOPY RETURNDATASIZE PUSH1 0x0 REVERT JUMPDEST POP POP POP POP PUSH1 0x40 MLOAD RETURNDATASIZE PUSH1 0x1F NOT PUSH1 0x1F DUP3 ADD AND DUP3 ADD DUP1 PUSH1 0x40 MSTORE POP DUP2 ADD SWAP1 PUSH2 0xBBA SWAP2 SWAP1 PUSH2 0x1389 JUMP JUMPDEST PUSH2 0xBF9 JUMPI PUSH1 0x40 MLOAD PUSH32 0x8C379A000000000000000000000000000000000000000000000000000000000 DUP2 MSTORE PUSH1 0x4 ADD PUSH2 0xBF0 SWAP1 PUSH2 0x1402 JUMP JUMPDEST PUSH1 0x40 MLOAD DUP1 SWAP2 SUB SWAP1 REVERT JUMPDEST CALLER PUSH20 0xFFFFFFFFFFFFFFFFFFFFFFFFFFFFFFFFFFFFFFFF AND DUP7 PUSH32 0x597868596D6CE2373D6CCA48FC876374194D4E581DEE04262121463A33FA35D9 PUSH1 0x40 MLOAD PUSH1 0x40 MLOAD DUP1 SWAP2 SUB SWAP1 LOG3 POP POP POP POP POP POP JUMP JUMPDEST PUSH1 0x0 DUP1 PUSH1 0x0 DUP4 DUP2 MSTORE PUSH1 0x20 ADD SWAP1 DUP2 MSTORE PUSH1 0x20 ADD PUSH1 0x0 KECCAK256 SWAP1 POP DUP1 PUSH1 0x1 ADD PUSH1 0x0 SWAP1 SLOAD SWAP1 PUSH2 0x100 EXP SWAP1 DIV PUSH20 0xFFFFFFFFFFFFFFFFFFFFFFFFFFFFFFFFFFFFFFFF AND PUSH20 0xFFFFFFFFFFFFFFFFFFFFFFFFFFFFFFFFFFFFFFFF AND PUSH4 0xA9059CBB CALLER DUP4 PUSH1 0x3 ADD SLOAD PUSH1 0x40 MLOAD DUP4 PUSH4 0xFFFFFFFF AND PUSH1 0xE0 SHL DUP2 MSTORE PUSH1 0x4 ADD PUSH2 0xCBE SWAP3 SWAP2 SWAP1 PUSH2 0x14CF JUMP JUMPDEST PUSH1 0x20 PUSH1 0x40 MLOAD DUP1 DUP4 SUB DUP2 PUSH1 0x0 DUP8 GAS CALL ISZERO DUP1 ISZERO PUSH2 0xCDD JUMPI RETURNDATASIZE PUSH1 0x0 DUP1 RETURNDATACOPY RETURNDATASIZE PUSH1 0x0 REVERT JUMPDEST POP POP POP POP PUSH1 0x40 MLOAD RETURNDATASIZE PUSH1 0x1F NOT PUSH1 0x1F DUP3 ADD AND DUP3 ADD DUP1 PUSH1 0x40 MSTORE POP DUP2 ADD SWAP1 PUSH2 0xD01 SWAP2 SWAP1 PUSH2 0x1389 JUMP JUMPDEST PUSH2 0xD40 JUMPI PUSH1 0x40 MLOAD PUSH32 0x8C379A000000000000000000000000000000000000000000000000000000000 DUP2 MSTORE PUSH1 0x4 ADD PUSH2 0xD37 SWAP1 PUSH2 0x16AE JUMP JUMPDEST PUSH1 0x40 MLOAD DUP1 SWAP2 SUB SWAP1 REVERT JUMPDEST DUP1 PUSH1 0x2 ADD PUSH1 0x0 SWAP1 SLOAD SWAP1 PUSH2 0x100 EXP SWAP1 DIV PUSH20 0xFFFFFFFFFFFFFFFFFFFFFFFFFFFFFFFFFFFFFFFF AND PUSH20 0xFFFFFFFFFFFFFFFFFFFFFFFFFFFFFFFFFFFFFFFF AND PUSH4 0xA9059CBB DUP3 PUSH1 0x0 ADD PUSH1 0x0 SWAP1 SLOAD SWAP1 PUSH2 0x100 EXP SWAP1 DIV PUSH20 0xFFFFFFFFFFFFFFFFFFFFFFFFFFFFFFFFFFFFFFFF AND DUP4 PUSH1 0x4 ADD SLOAD PUSH1 0x40 MLOAD DUP4 PUSH4 0xFFFFFFFF AND PUSH1 0xE0 SHL DUP2 MSTORE PUSH1 0x4 ADD PUSH2 0xDC7 SWAP3 SWAP2 SWAP1 PUSH2 0x14CF JUMP JUMPDEST PUSH1 0x20 PUSH1 0x40 MLOAD DUP1 DUP4 SUB DUP2 PUSH1 0x0 DUP8 GAS CALL ISZERO DUP1 ISZERO PUSH2 0xDE6 JUMPI RETURNDATASIZE PUSH1 0x0 DUP1 RETURNDATACOPY RETURNDATASIZE PUSH1 0x0 REVERT JUMPDEST POP POP POP POP PUSH1 0x40 MLOAD RETURNDATASIZE PUSH1 0x1F NOT PUSH1 0x1F DUP3 ADD AND DUP3 ADD DUP1 PUSH1 0x40 MSTORE POP DUP2 ADD SWAP1 PUSH2 0xE0A SWAP2 SWAP1 PUSH2 0x1389 JUMP JUMPDEST PUSH2 0xE49 JUMPI PUSH1 0x40 MLOAD PUSH32 0x8C379A000000000000000000000000000000000000000000000000000000000 DUP2 MSTORE PUSH1 0x4 ADD PUSH2 0xE40 SWAP1 PUSH2 0x16AE JUMP JUMPDEST PUSH1 0x40 MLOAD DUP1 SWAP2 SUB SWAP1 REVERT JUMPDEST PUSH1 0x1 DUP2 PUSH1 0x5 ADD PUSH1 0x0 PUSH2 0x100 EXP DUP2 SLOAD DUP2 PUSH1 0xFF MUL NOT AND SWAP1 DUP4 PUSH1 0x2 DUP2 GT ISZERO PUSH2 0xE71 JUMPI PUSH2 0xE70 PUSH2 0x101A JUMP JUMPDEST JUMPDEST MUL OR SWAP1 SSTORE POP CALLER PUSH20 0xFFFFFFFFFFFFFFFFFFFFFFFFFFFFFFFFFFFFFFFF AND DUP2 PUSH1 0x0 ADD PUSH1 0x0 SWAP1 SLOAD SWAP1 PUSH2 0x100 EXP SWAP1 DIV PUSH20 0xFFFFFFFFFFFFFFFFFFFFFFFFFFFFFFFFFFFFFFFF AND PUSH20 0xFFFFFFFFFFFFFFFFFFFFFFFFFFFFFFFFFFFFFFFF AND DUP4 PUSH32 0x25BA91FAC1454F9BC07A738E2EFFF96F184334BC009F12FCF60F6BE2B2CBB971 PUSH1 0x40 MLOAD PUSH1 0x40 MLOAD DUP1 SWAP2 SUB SWAP1 LOG4 POP POP JUMP JUMPDEST PUSH1 0x0 DUP1 REVERT JUMPDEST PUSH1 0x0 DUP2 SWAP1 POP SWAP2 SWAP1 POP JUMP JUMPDEST PUSH2 0xF11 DUP2 PUSH2 0xEFE JUMP JUMPDEST DUP2 EQ PUSH2 0xF1C JUMPI PUSH1 0x0 DUP1 REVERT JUMPDEST POP JUMP JUMPDEST PUSH1 0x0 DUP2 CALLDATALOAD SWAP1 POP PUSH2 0xF2E DUP2 PUSH2 0xF08 JUMP JUMPDEST SWAP3 SWAP2 POP POP JUMP JUMPDEST PUSH1 0x0 PUSH1 0x20 DUP3 DUP5 SUB SLT ISZERO PUSH2 0xF4A JUMPI PUSH2 0xF49 PUSH2 0xEF9 JUMP JUMPDEST JUMPDEST PUSH1 0x0 PUSH2 0xF58 DUP5 DUP3 DUP6 ADD PUSH2 0xF1F JUMP JUMPDEST SWAP2 POP POP SWAP3 SWAP2 POP POP JUMP JUMPDEST PUSH1 0x0 PUSH20 0xFFFFFFFFFFFFFFFFFFFFFFFFFFFFFFFFFFFFFFFF DUP3 AND SWAP1 POP SWAP2 SWAP1 POP JUMP JUMPDEST PUSH1 0x0 PUSH2 0xF8C DUP3 PUSH2 0xF61 JUMP JUMPDEST SWAP1 POP SWAP2 SWAP1 POP JUMP JUMPDEST PUSH2 0xF9C DUP2 PUSH2 0xF81 JUMP JUMPDEST DUP3 MSTORE POP POP JUMP JUMPDEST PUSH1 0x0 DUP2 SWAP1 POP SWAP2 SWAP1 POP JUMP JUMPDEST PUSH1 0x0 PUSH2 0xFC7 PUSH2 0xFC2 PUSH2 0xFBD DUP5 PUSH2 0xF61 JUMP JUMPDEST PUSH2 0xFA2 JUMP JUMPDEST PUSH2 0xF61 JUMP JUMPDEST SWAP1 POP SWAP2 SWAP1 POP JUMP JUMPDEST PUSH1 0x0 PUSH2 0xFD9 DUP3 PUSH2 0xFAC JUMP JUMPDEST SWAP1 POP SWAP2 SWAP1 POP JUMP JUMPDEST PUSH1 0x0 PUSH2 0xFEB DUP3 PUSH2 0xFCE JUMP JUMPDEST SWAP1 POP SWAP2 SWAP1 POP JUMP JUMPDEST PUSH2 0xFFB DUP2 PUSH2 0xFE0 JUMP JUMPDEST DUP3 MSTORE POP POP JUMP JUMPDEST PUSH1 0x0 DUP2 SWAP1 POP SWAP2 SWAP1 POP JUMP JUMPDEST PUSH2 0x1014 DUP2 PUSH2 0x1001 JUMP JUMPDEST DUP3 MSTORE POP POP JUMP JUMPDEST PUSH32 0x4E487B7100000000000000000000000000000000000000000000000000000000 PUSH1 0x0 MSTORE PUSH1 0x21 PUSH1 0x4 MSTORE PUSH1 0x24 PUSH1 0x0 REVERT JUMPDEST PUSH1 0x3 DUP2 LT PUSH2 0x105A JUMPI PUSH2 0x1059 PUSH2 0x101A JUMP JUMPDEST JUMPDEST POP JUMP JUMPDEST PUSH1 0x0 DUP2 SWAP1 POP PUSH2 0x106B DUP3 PUSH2 0x1049 JUMP JUMPDEST SWAP2 SWAP1 POP JUMP JUMPDEST PUSH1 0x0 PUSH2 0x107B DUP3 PUSH2 0x105D JUMP JUMPDEST SWAP1 POP SWAP2 SWAP1 POP JUMP JUMPDEST PUSH2 0x108B DUP2 PUSH2 0x1070 JUMP JUMPDEST DUP3 MSTORE POP POP JUMP JUMPDEST PUSH1 0x0 PUSH1 0xC0 DUP3 ADD SWAP1 POP PUSH2 0x10A6 PUSH1 0x0 DUP4 ADD DUP10 PUSH2 0xF93 JUMP JUMPDEST PUSH2 0x10B3 PUSH1 0x20 DUP4 ADD DUP9 PUSH2 0xFF2 JUMP JUMPDEST PUSH2 0x10C0 PUSH1 0x40 DUP4 ADD DUP8 PUSH2 0xFF2 JUMP JUMPDEST PUSH2 0x10CD PUSH1 0x60 DUP4 ADD DUP7 PUSH2 0x100B JUMP JUMPDEST PUSH2 0x10DA PUSH1 0x80 DUP4 ADD DUP6 PUSH2 0x100B JUMP JUMPDEST PUSH2 0x10E7 PUSH1 0xA0 DUP4 ADD DUP5 PUSH2 0x1082 JUMP JUMPDEST SWAP8 SWAP7 POP POP POP POP POP POP POP JUMP JUMPDEST PUSH2 0x10FB DUP2 PUSH2 0xF81 JUMP JUMPDEST DUP2 EQ PUSH2 0x1106 JUMPI PUSH1 0x0 DUP1 REVERT JUMPDEST POP JUMP JUMPDEST PUSH1 0x0 DUP2 CALLDATALOAD SWAP1 POP PUSH2 0x1118 DUP2 PUSH2 0x10F2 JUMP JUMPDEST SWAP3 SWAP2 POP POP JUMP JUMPDEST PUSH2 0x1127 DUP2 PUSH2 0x1001 JUMP JUMPDEST DUP2 EQ PUSH2 0x1132 JUMPI PUSH1 0x0 DUP1 REVERT JUMPDEST POP JUMP JUMPDEST PUSH1 0x0 DUP2 CALLDATALOAD SWAP1 POP PUSH2 0x1144 DUP2 PUSH2 0x111E JUMP JUMPDEST SWAP3 SWAP2 POP POP JUMP JUMPDEST PUSH1 0x0 DUP1 PUSH1 0x0 DUP1 PUSH1 0x0 PUSH1 0xA0 DUP7 DUP9 SUB SLT ISZERO PUSH2 0x1166 JUMPI PUSH2 0x1165 PUSH2 0xEF9 JUMP JUMPDEST JUMPDEST PUSH1 0x0 PUSH2 0x1174 DUP9 DUP3 DUP10 ADD PUSH2 0xF1F JUMP JUMPDEST SWAP6 POP POP PUSH1 0x20 PUSH2 0x1185 DUP9 DUP3 DUP10 ADD PUSH2 0x1109 JUMP JUMPDEST SWAP5 POP POP PUSH1 0x40 PUSH2 0x1196 DUP9 DUP3 DUP10 ADD PUSH2 0x1109 JUMP JUMPDEST SWAP4 POP POP PUSH1 0x60 PUSH2 0x11A7 DUP9 DUP3 DUP10 ADD PUSH2 0x1135 JUMP JUMPDEST SWAP3 POP POP PUSH1 0x80 PUSH2 0x11B8 DUP9 DUP3 DUP10 ADD PUSH2 0x1135 JUMP JUMPDEST SWAP2 POP POP SWAP3 SWAP6 POP SWAP3 SWAP6 SWAP1 SWAP4 POP JUMP JUMPDEST PUSH1 0x0 DUP3 DUP3 MSTORE PUSH1 0x20 DUP3 ADD SWAP1 POP SWAP3 SWAP2 POP POP JUMP JUMPDEST PUSH32 0x54686973206F7264657220646F65736E27742065786973747300000000000000 PUSH1 0x0 DUP3 ADD MSTORE POP JUMP JUMPDEST PUSH1 0x0 PUSH2 0x120C PUSH1 0x19 DUP4 PUSH2 0x11C5 JUMP JUMPDEST SWAP2 POP PUSH2 0x1217 DUP3 PUSH2 0x11D6 JUMP JUMPDEST PUSH1 0x20 DUP3 ADD SWAP1 POP SWAP2 SWAP1 POP JUMP JUMPDEST PUSH1 0x0 PUSH1 0x20 DUP3 ADD SWAP1 POP DUP2 DUP2 SUB PUSH1 0x0 DUP4 ADD MSTORE PUSH2 0x123B DUP2 PUSH2 0x11FF JUMP JUMPDEST SWAP1 POP SWAP2 SWAP1 POP JUMP JUMPDEST PUSH32 0x54686973207472616E73616374696F6E20686173206265656E20646F6E650000 PUSH1 0x0 DUP3 ADD MSTORE POP JUMP JUMPDEST PUSH1 0x0 PUSH2 0x1278 PUSH1 0x1E DUP4 PUSH2 0x11C5 JUMP JUMPDEST SWAP2 POP PUSH2 0x1283 DUP3 PUSH2 0x1242 JUMP JUMPDEST PUSH1 0x20 DUP3 ADD SWAP1 POP SWAP2 SWAP1 POP JUMP JUMPDEST PUSH1 0x0 PUSH1 0x20 DUP3 ADD SWAP1 POP DUP2 DUP2 SUB PUSH1 0x0 DUP4 ADD MSTORE PUSH2 0x12A7 DUP2 PUSH2 0x126B JUMP JUMPDEST SWAP1 POP SWAP2 SWAP1 POP JUMP JUMPDEST PUSH32 0x43616E27742061636365707420627920796F75722073656C6621203D29290000 PUSH1 0x0 DUP3 ADD MSTORE POP JUMP JUMPDEST PUSH1 0x0 PUSH2 0x12E4 PUSH1 0x1E DUP4 PUSH2 0x11C5 JUMP JUMPDEST SWAP2 POP PUSH2 0x12EF DUP3 PUSH2 0x12AE JUMP JUMPDEST PUSH1 0x20 DUP3 ADD SWAP1 POP SWAP2 SWAP1 POP JUMP JUMPDEST PUSH1 0x0 PUSH1 0x20 DUP3 ADD SWAP1 POP DUP2 DUP2 SUB PUSH1 0x0 DUP4 ADD MSTORE PUSH2 0x1313 DUP2 PUSH2 0x12D7 JUMP JUMPDEST SWAP1 POP SWAP2 SWAP1 POP JUMP JUMPDEST PUSH1 0x0 PUSH1 0x60 DUP3 ADD SWAP1 POP PUSH2 0x132F PUSH1 0x0 DUP4 ADD DUP7 PUSH2 0xF93 JUMP JUMPDEST PUSH2 0x133C PUSH1 0x20 DUP4 ADD DUP6 PUSH2 0xF93 JUMP JUMPDEST PUSH2 0x1349 PUSH1 0x40 DUP4 ADD DUP5 PUSH2 0x100B JUMP JUMPDEST SWAP5 SWAP4 POP POP POP POP JUMP JUMPDEST PUSH1 0x0 DUP2 ISZERO ISZERO SWAP1 POP SWAP2 SWAP1 POP JUMP JUMPDEST PUSH2 0x1366 DUP2 PUSH2 0x1351 JUMP JUMPDEST DUP2 EQ PUSH2 0x1371 JUMPI PUSH1 0x0 DUP1 REVERT JUMPDEST POP JUMP JUMPDEST PUSH1 0x0 DUP2 MLOAD SWAP1 POP PUSH2 0x1383 DUP2 PUSH2 0x135D JUMP JUMPDEST SWAP3 SWAP2 POP POP JUMP JUMPDEST PUSH1 0x0 PUSH1 0x20 DUP3 DUP5 SUB SLT ISZERO PUSH2 0x139F JUMPI PUSH2 0x139E PUSH2 0xEF9 JUMP JUMPDEST JUMPDEST PUSH1 0x0 PUSH2 0x13AD DUP5 DUP3 DUP6 ADD PUSH2 0x1374 JUMP JUMPDEST SWAP2 POP POP SWAP3 SWAP2 POP POP JUMP JUMPDEST PUSH32 0x5472616E7366657220746F20636F6E7472616374206661696C65640000000000 PUSH1 0x0 DUP3 ADD MSTORE POP JUMP JUMPDEST PUSH1 0x0 PUSH2 0x13EC PUSH1 0x1B DUP4 PUSH2 0x11C5 JUMP JUMPDEST SWAP2 POP PUSH2 0x13F7 DUP3 PUSH2 0x13B6 JUMP JUMPDEST PUSH1 0x20 DUP3 ADD SWAP1 POP SWAP2 SWAP1 POP JUMP JUMPDEST PUSH1 0x0 PUSH1 0x20 DUP3 ADD SWAP1 POP DUP2 DUP2 SUB PUSH1 0x0 DUP4 ADD MSTORE PUSH2 0x141B DUP2 PUSH2 0x13DF JUMP JUMPDEST SWAP1 POP SWAP2 SWAP1 POP JUMP JUMPDEST PUSH1 0x0 PUSH1 0x20 DUP3 ADD SWAP1 POP PUSH2 0x1437 PUSH1 0x0 DUP4 ADD DUP5 PUSH2 0x100B JUMP JUMPDEST SWAP3 SWAP2 POP POP JUMP JUMPDEST PUSH32 0x4F6E6C79206F776E65722063616E20726566756E642074686973207472616E73 PUSH1 0x0 DUP3 ADD MSTORE PUSH32 0x616374696F6E0000000000000000000000000000000000000000000000000000 PUSH1 0x20 DUP3 ADD MSTORE POP JUMP JUMPDEST PUSH1 0x0 PUSH2 0x1499 PUSH1 0x26 DUP4 PUSH2 0x11C5 JUMP JUMPDEST SWAP2 POP PUSH2 0x14A4 DUP3 PUSH2 0x143D JUMP JUMPDEST PUSH1 0x40 DUP3 ADD SWAP1 POP SWAP2 SWAP1 POP JUMP JUMPDEST PUSH1 0x0 PUSH1 0x20 DUP3 ADD SWAP1 POP DUP2 DUP2 SUB PUSH1 0x0 DUP4 ADD MSTORE PUSH2 0x14C8 DUP2 PUSH2 0x148C JUMP JUMPDEST SWAP1 POP SWAP2 SWAP1 POP JUMP JUMPDEST PUSH1 0x0 PUSH1 0x40 DUP3 ADD SWAP1 POP PUSH2 0x14E4 PUSH1 0x0 DUP4 ADD DUP6 PUSH2 0xF93 JUMP JUMPDEST PUSH2 0x14F1 PUSH1 0x20 DUP4 ADD DUP5 PUSH2 0x100B JUMP JUMPDEST SWAP4 SWAP3 POP POP POP JUMP JUMPDEST PUSH32 0x526566756E64206661696C656400000000000000000000000000000000000000 PUSH1 0x0 DUP3 ADD MSTORE POP JUMP JUMPDEST PUSH1 0x0 PUSH2 0x152E PUSH1 0xD DUP4 PUSH2 0x11C5 JUMP JUMPDEST SWAP2 POP PUSH2 0x1539 DUP3 PUSH2 0x14F8 JUMP JUMPDEST PUSH1 0x20 DUP3 ADD SWAP1 POP SWAP2 SWAP1 POP JUMP JUMPDEST PUSH1 0x0 PUSH1 0x20 DUP3 ADD SWAP1 POP DUP2 DUP2 SUB PUSH1 0x0 DUP4 ADD MSTORE PUSH2 0x155D DUP2 PUSH2 0x1521 JUMP JUMPDEST SWAP1 POP SWAP2 SWAP1 POP JUMP JUMPDEST PUSH32 0x4475706C6963617465206F726465722062792069640000000000000000000000 PUSH1 0x0 DUP3 ADD MSTORE POP JUMP JUMPDEST PUSH1 0x0 PUSH2 0x159A PUSH1 0x15 DUP4 PUSH2 0x11C5 JUMP JUMPDEST SWAP2 POP PUSH2 0x15A5 DUP3 PUSH2 0x1564 JUMP JUMPDEST PUSH1 0x20 DUP3 ADD SWAP1 POP SWAP2 SWAP1 POP JUMP JUMPDEST PUSH1 0x0 PUSH1 0x20 DUP3 ADD SWAP1 POP DUP2 DUP2 SUB PUSH1 0x0 DUP4 ADD MSTORE PUSH2 0x15C9 DUP2 PUSH2 0x158D JUMP JUMPDEST SWAP1 POP SWAP2 SWAP1 POP JUMP JUMPDEST PUSH32 0x4F6E6C792073776170206265747765656E2074776F20646966666572656E7420 PUSH1 0x0 DUP3 ADD MSTORE PUSH32 0x746F6B656E000000000000000000000000000000000000000000000000000000 PUSH1 0x20 DUP3 ADD MSTORE POP JUMP JUMPDEST PUSH1 0x0 PUSH2 0x162C PUSH1 0x25 DUP4 PUSH2 0x11C5 JUMP JUMPDEST SWAP2 POP PUSH2 0x1637 DUP3 PUSH2 0x15D0 JUMP JUMPDEST PUSH1 0x40 DUP3 ADD SWAP1 POP SWAP2 SWAP1 POP JUMP JUMPDEST PUSH1 0x0 PUSH1 0x20 DUP3 ADD SWAP1 POP DUP2 DUP2 SUB PUSH1 0x0 DUP4 ADD MSTORE PUSH2 0x165B DUP2 PUSH2 0x161F JUMP JUMPDEST SWAP1 POP SWAP2 SWAP1 POP JUMP JUMPDEST PUSH32 0x53776170206661696C6564000000000000000000000000000000000000000000 PUSH1 0x0 DUP3 ADD MSTORE POP JUMP JUMPDEST PUSH1 0x0 PUSH2 0x1698 PUSH1 0xB DUP4 PUSH2 0x11C5 JUMP JUMPDEST SWAP2 POP PUSH2 0x16A3 DUP3 PUSH2 0x1662 JUMP JUMPDEST PUSH1 0x20 DUP3 ADD SWAP1 POP SWAP2 SWAP1 POP JUMP JUMPDEST PUSH1 0x0 PUSH1 0x20 DUP3 ADD SWAP1 POP DUP2 DUP2 SUB PUSH1 0x0 DUP4 ADD MSTORE PUSH2 0x16C7 DUP2 PUSH2 0x168B JUMP JUMPDEST SWAP1 POP SWAP2 SWAP1 POP JUMP INVALID LOG2 PUSH5 0x6970667358 0x22 SLT KECCAK256 0xDA 0xAA PUSH9 0xADC1F05079E855F3B1 SHR 0x1F 0xEE 0xBF 0xEA 0xB7 CALLDATALOAD PUSH11 0x827E7147F412DDF2935A21 0xD4 PUSH5 0x736F6C6343 STOP ADDMOD SLT STOP CALLER "},"methodIdentifiers":{"acceptTx(bytes32)":"5407a9e3","createTx(bytes32,address,address,uint256,uint256)":"c0a88f41","refund(bytes32)":"7249fbb6","transactions(bytes32)":"642f2eaf"}}}}}