{"contracts/HTLC.sol":{"HTLC":{"abi":[{"inputs":[],"stateMutability":"nonpayable","type":"constructor"},{"anonymous":false,"inputs":[{"indexed":false,"internalType":"address","name":"from","type":"address"},{"indexed":false,"internalType":"uint256","name":"amount","type":"uint256"}],"name":"canceled","type":"event"},{"anonymous":false,"inputs":[{"indexed":false,"internalType":"address","name":"from","type":"address"},{"indexed":false,"internalType":"uint256","name":"amount","type":"uint256"}],"name":"withdrawn","type":"event"},{"inputs":[{"internalType":"string","name":"txId","type":"string"},{"internalType":"address","name":"receiver","type":"address"}],"name":"acceptFor","outputs":[],"stateMutability":"nonpayable","type":"function"},{"inputs":[{"internalType":"string","name":"id","type":"string"},{"internalType":"address","name":"receiver","type":"address"},{"internalType":"address","name":"token","type":"address"},{"internalType":"uint256","name":"amount","type":"uint256"},{"internalType":"string","name":"key","type":"string"},{"internalType":"bytes32","name":"hashlock","type":"bytes32"},{"internalType":"uint256","name":"timelock","type":"uint256"}],"name":"createTx","outputs":[{"internalType":"bool","name":"","type":"bool"}],"stateMutability":"nonpayable","type":"function"},{"inputs":[{"internalType":"string","name":"txId","type":"string"}],"name":"getSecretKey","outputs":[{"internalType":"string","name":"","type":"string"}],"stateMutability":"view","type":"function"},{"inputs":[{"internalType":"string","name":"txId","type":"string"}],"name":"refund","outputs":[],"stateMutability":"nonpayable","type":"function"},{"inputs":[{"internalType":"string","name":"txId","type":"string"},{"internalType":"string","name":"_key","type":"string"}],"name":"withDraw","outputs":[],"stateMutability":"nonpayable","type":"function"}],"evm":{"bytecode":{"linkReferences":{},"object":"608060405234801561001057600080fd5b50611ef8806100206000396000f3fe608060405234801561001057600080fd5b50600436106100575760003560e01c806302db27131461005c5780633a4e0be81461008c578063f878631e146100a8578063fe5f2e88146100c4578063fea68273146100e0575b600080fd5b6100766004803603810190610071919061106f565b610110565b6040516100839190611137565b60405180910390f35b6100a660048036038101906100a19190611159565b610322565b005b6100c260048036038101906100bd919061122f565b610651565b005b6100de60048036038101906100d9919061106f565b61086a565b005b6100fa60048036038101906100f591906112f7565b610af0565b60405161010791906113ec565b60405180910390f35b6060600073ffffffffffffffffffffffffffffffffffffffff1660008360405161013a9190611443565b908152602001604051809103902060000160009054906101000a900473ffffffffffffffffffffffffffffffffffffffff1673ffffffffffffffffffffffffffffffffffffffff16036101c2576040517f08c379a00000000000000000000000000000000000000000000000000000000081526004016101b9906114a6565b60405180910390fd5b3373ffffffffffffffffffffffffffffffffffffffff166000836040516101e99190611443565b908152602001604051809103902060000160009054906101000a900473ffffffffffffffffffffffffffffffffffffffff1673ffffffffffffffffffffffffffffffffffffffff1614610271576040517f08c379a000000000000000000000000000000000000000000000000000000000815260040161026890611538565b60405180910390fd5b6000826040516102819190611443565b9081526020016040518091039020600401805461029d90611587565b80601f01602080910402602001604051908101604052809291908181526020018280546102c990611587565b80156103165780601f106102eb57610100808354040283529160200191610316565b820191906000526020600020905b8154815290600101906020018083116102f957829003601f168201915b50505050509050919050565b600080836040516103339190611443565b90815260200160405180910390209050600015158160070160019054906101000a900460ff1615151461039b576040517f08c379a000000000000000000000000000000000000000000000000000000000815260040161039290611604565b60405180910390fd5b600015158160070160009054906101000a900460ff161515146103f3576040517f08c379a00000000000000000000000000000000000000000000000000000000081526004016103ea90611670565b60405180910390fd5b3373ffffffffffffffffffffffffffffffffffffffff168160010160009054906101000a900473ffffffffffffffffffffffffffffffffffffffff1673ffffffffffffffffffffffffffffffffffffffff1614610485576040517f08c379a000000000000000000000000000000000000000000000000000000000815260040161047c906116dc565b60405180910390fd5b80600501548260405160200161049b9190611443565b60405160208183030381529060405280519060200120146104f1576040517f08c379a00000000000000000000000000000000000000000000000000000000081526004016104e890611748565b60405180910390fd5b8060020160009054906101000a900473ffffffffffffffffffffffffffffffffffffffff1673ffffffffffffffffffffffffffffffffffffffff1663a9059cbb8260010160009054906101000a900473ffffffffffffffffffffffffffffffffffffffff1683600301546040518363ffffffff1660e01b8152600401610578929190611786565b6020604051808303816000875af1158015610597573d6000803e3d6000fd5b505050506040513d601f19601f820116820180604052508101906105bb91906117db565b50818160040190816105cd91906119b4565b5060018160070160006101000a81548160ff0219169083151502179055507f6fb24f3ad0678f9d138e80b17293be051d87911eb34e9e60f0d1b9c3805e885a8160010160009054906101000a900473ffffffffffffffffffffffffffffffffffffffff168260030154604051610644929190611786565b60405180910390a1505050565b8073ffffffffffffffffffffffffffffffffffffffff163373ffffffffffffffffffffffffffffffffffffffff16036106bf576040517f08c379a00000000000000000000000000000000000000000000000000000000081526004016106b690611ad2565b60405180910390fd5b600080836040516106d09190611443565b908152602001604051809103902090503373ffffffffffffffffffffffffffffffffffffffff168160000160009054906101000a900473ffffffffffffffffffffffffffffffffffffffff1673ffffffffffffffffffffffffffffffffffffffff1614610772576040517f08c379a000000000000000000000000000000000000000000000000000000000815260040161076990611b3e565b60405180910390fd5b600073ffffffffffffffffffffffffffffffffffffffff168160010160009054906101000a900473ffffffffffffffffffffffffffffffffffffffff1673ffffffffffffffffffffffffffffffffffffffff1614610805576040517f08c379a00000000000000000000000000000000000000000000000000000000081526004016107fc90611baa565b60405180910390fd5b818160010160006101000a81548173ffffffffffffffffffffffffffffffffffffffff021916908373ffffffffffffffffffffffffffffffffffffffff16021790555060018160070160026101000a81548160ff021916908315150217905550505050565b6000808260405161087b9190611443565b90815260200160405180910390209050600015158160070160009054906101000a900460ff1615151480156108c55750600015158160070160019054906101000a900460ff161515145b610904576040517f08c379a00000000000000000000000000000000000000000000000000000000081526004016108fb90611c16565b60405180910390fd5b600015158160070160029054906101000a900460ff1615151461095c576040517f08c379a000000000000000000000000000000000000000000000000000000000815260040161095390611c82565b60405180910390fd5b42816006015411156109a3576040517f08c379a000000000000000000000000000000000000000000000000000000000815260040161099a90611cee565b60405180910390fd5b8060020160009054906101000a900473ffffffffffffffffffffffffffffffffffffffff1673ffffffffffffffffffffffffffffffffffffffff1663a9059cbb8260000160009054906101000a900473ffffffffffffffffffffffffffffffffffffffff1683600301546040518363ffffffff1660e01b8152600401610a2a929190611786565b6020604051808303816000875af1158015610a49573d6000803e3d6000fd5b505050506040513d601f19601f82011682018060405250810190610a6d91906117db565b5060018160070160016101000a81548160ff0219169083151502179055507fb0fff5d2b17a855b0a22a0965386bcf2f7a8a364c81497c7ea721f3b771ba47e8160000160009054906101000a900473ffffffffffffffffffffffffffffffffffffffff168260030154604051610ae4929190611786565b60405180910390a15050565b60008073ffffffffffffffffffffffffffffffffffffffff16600089604051610b199190611443565b908152602001604051809103902060000160009054906101000a900473ffffffffffffffffffffffffffffffffffffffff1673ffffffffffffffffffffffffffffffffffffffff1614610ba1576040517f08c379a0000000000000000000000000000000000000000000000000000000008152600401610b9890611d5a565b60405180910390fd5b8673ffffffffffffffffffffffffffffffffffffffff163373ffffffffffffffffffffffffffffffffffffffff1603610c0f576040517f08c379a0000000000000000000000000000000000000000000000000000000008152600401610c0690611dc6565b60405180910390fd5b6040518061014001604052803373ffffffffffffffffffffffffffffffffffffffff1681526020018873ffffffffffffffffffffffffffffffffffffffff1681526020018773ffffffffffffffffffffffffffffffffffffffff16815260200186815260200185815260200184815260200183610e10610c8f9190611e15565b42610c9a9190611e57565b815260200160001515815260200160001515815260200160001515815250600089604051610cc89190611443565b908152602001604051809103902060008201518160000160006101000a81548173ffffffffffffffffffffffffffffffffffffffff021916908373ffffffffffffffffffffffffffffffffffffffff16021790555060208201518160010160006101000a81548173ffffffffffffffffffffffffffffffffffffffff021916908373ffffffffffffffffffffffffffffffffffffffff16021790555060408201518160020160006101000a81548173ffffffffffffffffffffffffffffffffffffffff021916908373ffffffffffffffffffffffffffffffffffffffff160217905550606082015181600301556080820151816004019081610dca91906119b4565b5060a0820151816005015560c0820151816006015560e08201518160070160006101000a81548160ff0219169083151502179055506101008201518160070160016101000a81548160ff0219169083151502179055506101208201518160070160026101000a81548160ff021916908315150217905550905050600088604051610e549190611443565b908152602001604051809103902060020160009054906101000a900473ffffffffffffffffffffffffffffffffffffffff1673ffffffffffffffffffffffffffffffffffffffff166323b872dd3330886040518463ffffffff1660e01b8152600401610ec293929190611e8b565b6020604051808303816000875af1158015610ee1573d6000803e3d6000fd5b505050506040513d601f19601f82011682018060405250810190610f0591906117db565b5060019050979650505050505050565b6000604051905090565b600080fd5b600080fd5b600080fd5b600080fd5b6000601f19601f8301169050919050565b7f4e487b7100000000000000000000000000000000000000000000000000000000600052604160045260246000fd5b610f7c82610f33565b810181811067ffffffffffffffff82111715610f9b57610f9a610f44565b5b80604052505050565b6000610fae610f15565b9050610fba8282610f73565b919050565b600067ffffffffffffffff821115610fda57610fd9610f44565b5b610fe382610f33565b9050602081019050919050565b82818337600083830152505050565b600061101261100d84610fbf565b610fa4565b90508281526020810184848401111561102e5761102d610f2e565b5b611039848285610ff0565b509392505050565b600082601f83011261105657611055610f29565b5b8135611066848260208601610fff565b91505092915050565b60006020828403121561108557611084610f1f565b5b600082013567ffffffffffffffff8111156110a3576110a2610f24565b5b6110af84828501611041565b91505092915050565b600081519050919050565b600082825260208201905092915050565b60005b838110156110f25780820151818401526020810190506110d7565b60008484015250505050565b6000611109826110b8565b61111381856110c3565b93506111238185602086016110d4565b61112c81610f33565b840191505092915050565b6000602082019050818103600083015261115181846110fe565b905092915050565b600080604083850312156111705761116f610f1f565b5b600083013567ffffffffffffffff81111561118e5761118d610f24565b5b61119a85828601611041565b925050602083013567ffffffffffffffff8111156111bb576111ba610f24565b5b6111c785828601611041565b9150509250929050565b600073ffffffffffffffffffffffffffffffffffffffff82169050919050565b60006111fc826111d1565b9050919050565b61120c816111f1565b811461121757600080fd5b50565b60008135905061122981611203565b92915050565b6000806040838503121561124657611245610f1f565b5b600083013567ffffffffffffffff81111561126457611263610f24565b5b61127085828601611041565b92505060206112818582860161121a565b9150509250929050565b6000819050919050565b61129e8161128b565b81146112a957600080fd5b50565b6000813590506112bb81611295565b92915050565b6000819050919050565b6112d4816112c1565b81146112df57600080fd5b50565b6000813590506112f1816112cb565b92915050565b600080600080600080600060e0888a03121561131657611315610f1f565b5b600088013567ffffffffffffffff81111561133457611333610f24565b5b6113408a828b01611041565b97505060206113518a828b0161121a565b96505060406113628a828b0161121a565b95505060606113738a828b016112ac565b945050608088013567ffffffffffffffff81111561139457611393610f24565b5b6113a08a828b01611041565b93505060a06113b18a828b016112e2565b92505060c06113c28a828b016112ac565b91505092959891949750929550565b60008115159050919050565b6113e6816113d1565b82525050565b600060208201905061140160008301846113dd565b92915050565b600081905092915050565b600061141d826110b8565b6114278185611407565b93506114378185602086016110d4565b80840191505092915050565b600061144f8284611412565b915081905092915050565b7f54686973207472616e73616374696f6e20646f65736e27742065786973747300600082015250565b6000611490601f836110c3565b915061149b8261145a565b602082019050919050565b600060208201905081810360008301526114bf81611483565b9050919050565b7f4f6e6c79206f776e65722063616e206765742074686520736563726574206b6560008201527f7900000000000000000000000000000000000000000000000000000000000000602082015250565b60006115226021836110c3565b915061152d826114c6565b604082019050919050565b6000602082019050818103600083015261155181611515565b9050919050565b7f4e487b7100000000000000000000000000000000000000000000000000000000600052602260045260246000fd5b6000600282049050600182168061159f57607f821691505b6020821081036115b2576115b1611558565b5b50919050565b7f5472616e73616374696f6e20686173206265656e2063616e63656c6564000000600082015250565b60006115ee601d836110c3565b91506115f9826115b8565b602082019050919050565b6000602082019050818103600083015261161d816115e1565b9050919050565b7f5472616e73616374696f6e20686173206265656e2077697468647261776e0000600082015250565b600061165a601e836110c3565b915061166582611624565b602082019050919050565b600060208201905081810360008301526116898161164d565b9050919050565b7f4f6e6c792072656365697665722063616e207769746864726177000000000000600082015250565b60006116c6601a836110c3565b91506116d182611690565b602082019050919050565b600060208201905081810360008301526116f5816116b9565b9050919050565b7f496e636f7272656374206b657900000000000000000000000000000000000000600082015250565b6000611732600d836110c3565b915061173d826116fc565b602082019050919050565b6000602082019050818103600083015261176181611725565b9050919050565b611771816111f1565b82525050565b6117808161128b565b82525050565b600060408201905061179b6000830185611768565b6117a86020830184611777565b9392505050565b6117b8816113d1565b81146117c357600080fd5b50565b6000815190506117d5816117af565b92915050565b6000602082840312156117f1576117f0610f1f565b5b60006117ff848285016117c6565b91505092915050565b60008190508160005260206000209050919050565b60006020601f8301049050919050565b600082821b905092915050565b60006008830261186a7fffffffffffffffffffffffffffffffffffffffffffffffffffffffffffffffff8261182d565b611874868361182d565b95508019841693508086168417925050509392505050565b6000819050919050565b60006118b16118ac6118a78461128b565b61188c565b61128b565b9050919050565b6000819050919050565b6118cb83611896565b6118df6118d7826118b8565b84845461183a565b825550505050565b600090565b6118f46118e7565b6118ff8184846118c2565b505050565b5b81811015611923576119186000826118ec565b600181019050611905565b5050565b601f8211156119685761193981611808565b6119428461181d565b81016020851015611951578190505b61196561195d8561181d565b830182611904565b50505b505050565b600082821c905092915050565b600061198b6000198460080261196d565b1980831691505092915050565b60006119a4838361197a565b9150826002028217905092915050565b6119bd826110b8565b67ffffffffffffffff8111156119d6576119d5610f44565b5b6119e08254611587565b6119eb828285611927565b600060209050601f831160018114611a1e5760008415611a0c578287015190505b611a168582611998565b865550611a7e565b601f198416611a2c86611808565b60005b82811015611a5457848901518255600182019150602085019450602081019050611a2f565b86831015611a715784890151611a6d601f89168261197a565b8355505b6001600288020188555050505b505050505050565b7f43616e27742061636365707420627920796f757273656c660000000000000000600082015250565b6000611abc6018836110c3565b9150611ac782611a86565b602082019050919050565b60006020820190508181036000830152611aeb81611aaf565b9050919050565b7f4f6e6c79206f776e65722063616e206772616e74207065726d697373696f6e00600082015250565b6000611b28601f836110c3565b9150611b3382611af2565b602082019050919050565b60006020820190508181036000830152611b5781611b1b565b9050919050565b7f5472616e73616374696f6e20686173206265656e206163636570746564000000600082015250565b6000611b94601d836110c3565b9150611b9f82611b5e565b602082019050919050565b60006020820190508181036000830152611bc381611b87565b9050919050565b7f43616e277420726566756e640000000000000000000000000000000000000000600082015250565b6000611c00600c836110c3565b9150611c0b82611bca565b602082019050919050565b60006020820190508181036000830152611c2f81611bf3565b9050919050565b7f5472616e73616374696f6e20697320696e2070726f6772657373000000000000600082015250565b6000611c6c601a836110c3565b9150611c7782611c36565b602082019050919050565b60006020820190508181036000830152611c9b81611c5f565b9050919050565b7f546f6f206561726c7920746f20726566756e6400000000000000000000000000600082015250565b6000611cd86013836110c3565b9150611ce382611ca2565b602082019050919050565b60006020820190508181036000830152611d0781611ccb565b9050919050565b7f4475706c6963617465207472616e73616374696f6e2062792069640000000000600082015250565b6000611d44601b836110c3565b9150611d4f82611d0e565b602082019050919050565b60006020820190508181036000830152611d7381611d37565b9050919050565b7f545472616e73616374696f6e20696e76616c6964000000000000000000000000600082015250565b6000611db06014836110c3565b9150611dbb82611d7a565b602082019050919050565b60006020820190508181036000830152611ddf81611da3565b9050919050565b7f4e487b7100000000000000000000000000000000000000000000000000000000600052601160045260246000fd5b6000611e208261128b565b9150611e2b8361128b565b9250828202611e398161128b565b91508282048414831517611e5057611e4f611de6565b5b5092915050565b6000611e628261128b565b9150611e6d8361128b565b9250828201905080821115611e8557611e84611de6565b5b92915050565b6000606082019050611ea06000830186611768565b611ead6020830185611768565b611eba6040830184611777565b94935050505056fea2646970667358221220aa1423657ce1231f55ba311665967932abf544ed14e023a2c3e37e5e4e7775a264736f6c63430008120033","opcodes":"PUSH1 0x80 PUSH1 0x40 MSTORE CALLVALUE DUP1 ISZERO PUSH2 0x10 JUMPI PUSH1 0x0 DUP1 REVERT JUMPDEST POP PUSH2 0x1EF8 DUP1 PUSH2 0x20 PUSH1 0x0 CODECOPY PUSH1 0x0 RETURN INVALID PUSH1 0x80 PUSH1 0x40 MSTORE CALLVALUE DUP1 ISZERO PUSH2 0x10 JUMPI PUSH1 0x0 DUP1 REVERT JUMPDEST POP PUSH1 0x4 CALLDATASIZE LT PUSH2 0x57 JUMPI PUSH1 0x0 CALLDATALOAD PUSH1 0xE0 SHR DUP1 PUSH4 0x2DB2713 EQ PUSH2 0x5C JUMPI DUP1 PUSH4 0x3A4E0BE8 EQ PUSH2 0x8C JUMPI DUP1 PUSH4 0xF878631E EQ PUSH2 0xA8 JUMPI DUP1 PUSH4 0xFE5F2E88 EQ PUSH2 0xC4 JUMPI DUP1 PUSH4 0xFEA68273 EQ PUSH2 0xE0 JUMPI JUMPDEST PUSH1 0x0 DUP1 REVERT JUMPDEST PUSH2 0x76 PUSH1 0x4 DUP1 CALLDATASIZE SUB DUP2 ADD SWAP1 PUSH2 0x71 SWAP2 SWAP1 PUSH2 0x106F JUMP JUMPDEST PUSH2 0x110 JUMP JUMPDEST PUSH1 0x40 MLOAD PUSH2 0x83 SWAP2 SWAP1 PUSH2 0x1137 JUMP JUMPDEST PUSH1 0x40 MLOAD DUP1 SWAP2 SUB SWAP1 RETURN JUMPDEST PUSH2 0xA6 PUSH1 0x4 DUP1 CALLDATASIZE SUB DUP2 ADD SWAP1 PUSH2 0xA1 SWAP2 SWAP1 PUSH2 0x1159 JUMP JUMPDEST PUSH2 0x322 JUMP JUMPDEST STOP JUMPDEST PUSH2 0xC2 PUSH1 0x4 DUP1 CALLDATASIZE SUB DUP2 ADD SWAP1 PUSH2 0xBD SWAP2 SWAP1 PUSH2 0x122F JUMP JUMPDEST PUSH2 0x651 JUMP JUMPDEST STOP JUMPDEST PUSH2 0xDE PUSH1 0x4 DUP1 CALLDATASIZE SUB DUP2 ADD SWAP1 PUSH2 0xD9 SWAP2 SWAP1 PUSH2 0x106F JUMP JUMPDEST PUSH2 0x86A JUMP JUMPDEST STOP JUMPDEST PUSH2 0xFA PUSH1 0x4 DUP1 CALLDATASIZE SUB DUP2 ADD SWAP1 PUSH2 0xF5 SWAP2 SWAP1 PUSH2 0x12F7 JUMP JUMPDEST PUSH2 0xAF0 JUMP JUMPDEST PUSH1 0x40 MLOAD PUSH2 0x107 SWAP2 SWAP1 PUSH2 0x13EC JUMP JUMPDEST PUSH1 0x40 MLOAD DUP1 SWAP2 SUB SWAP1 RETURN JUMPDEST PUSH1 0x60 PUSH1 0x0 PUSH20 0xFFFFFFFFFFFFFFFFFFFFFFFFFFFFFFFFFFFFFFFF AND PUSH1 0x0 DUP4 PUSH1 0x40 MLOAD PUSH2 0x13A SWAP2 SWAP1 PUSH2 0x1443 JUMP JUMPDEST SWAP1 DUP2 MSTORE PUSH1 0x20 ADD PUSH1 0x40 MLOAD DUP1 SWAP2 SUB SWAP1 KECCAK256 PUSH1 0x0 ADD PUSH1 0x0 SWAP1 SLOAD SWAP1 PUSH2 0x100 EXP SWAP1 DIV PUSH20 0xFFFFFFFFFFFFFFFFFFFFFFFFFFFFFFFFFFFFFFFF AND PUSH20 0xFFFFFFFFFFFFFFFFFFFFFFFFFFFFFFFFFFFFFFFF AND SUB PUSH2 0x1C2 JUMPI PUSH1 0x40 MLOAD PUSH32 0x8C379A000000000000000000000000000000000000000000000000000000000 DUP2 MSTORE PUSH1 0x4 ADD PUSH2 0x1B9 SWAP1 PUSH2 0x14A6 JUMP JUMPDEST PUSH1 0x40 MLOAD DUP1 SWAP2 SUB SWAP1 REVERT JUMPDEST CALLER PUSH20 0xFFFFFFFFFFFFFFFFFFFFFFFFFFFFFFFFFFFFFFFF AND PUSH1 0x0 DUP4 PUSH1 0x40 MLOAD PUSH2 0x1E9 SWAP2 SWAP1 PUSH2 0x1443 JUMP JUMPDEST SWAP1 DUP2 MSTORE PUSH1 0x20 ADD PUSH1 0x40 MLOAD DUP1 SWAP2 SUB SWAP1 KECCAK256 PUSH1 0x0 ADD PUSH1 0x0 SWAP1 SLOAD SWAP1 PUSH2 0x100 EXP SWAP1 DIV PUSH20 0xFFFFFFFFFFFFFFFFFFFFFFFFFFFFFFFFFFFFFFFF AND PUSH20 0xFFFFFFFFFFFFFFFFFFFFFFFFFFFFFFFFFFFFFFFF AND EQ PUSH2 0x271 JUMPI PUSH1 0x40 MLOAD PUSH32 0x8C379A000000000000000000000000000000000000000000000000000000000 DUP2 MSTORE PUSH1 0x4 ADD PUSH2 0x268 SWAP1 PUSH2 0x1538 JUMP JUMPDEST PUSH1 0x40 MLOAD DUP1 SWAP2 SUB SWAP1 REVERT JUMPDEST PUSH1 0x0 DUP3 PUSH1 0x40 MLOAD PUSH2 0x281 SWAP2 SWAP1 PUSH2 0x1443 JUMP JUMPDEST SWAP1 DUP2 MSTORE PUSH1 0x20 ADD PUSH1 0x40 MLOAD DUP1 SWAP2 SUB SWAP1 KECCAK256 PUSH1 0x4 ADD DUP1 SLOAD PUSH2 0x29D SWAP1 PUSH2 0x1587 JUMP JUMPDEST DUP1 PUSH1 0x1F ADD PUSH1 0x20 DUP1 SWAP2 DIV MUL PUSH1 0x20 ADD PUSH1 0x40 MLOAD SWAP1 DUP2 ADD PUSH1 0x40 MSTORE DUP1 SWAP3 SWAP2 SWAP1 DUP2 DUP2 MSTORE PUSH1 0x20 ADD DUP3 DUP1 SLOAD PUSH2 0x2C9 SWAP1 PUSH2 0x1587 JUMP JUMPDEST DUP1 ISZERO PUSH2 0x316 JUMPI DUP1 PUSH1 0x1F LT PUSH2 0x2EB JUMPI PUSH2 0x100 DUP1 DUP4 SLOAD DIV MUL DUP4 MSTORE SWAP2 PUSH1 0x20 ADD SWAP2 PUSH2 0x316 JUMP JUMPDEST DUP3 ADD SWAP2 SWAP1 PUSH1 0x0 MSTORE PUSH1 0x20 PUSH1 0x0 KECCAK256 SWAP1 JUMPDEST DUP2 SLOAD DUP2 MSTORE SWAP1 PUSH1 0x1 ADD SWAP1 PUSH1 0x20 ADD DUP1 DUP4 GT PUSH2 0x2F9 JUMPI DUP3 SWAP1 SUB PUSH1 0x1F AND DUP3 ADD SWAP2 JUMPDEST POP POP POP POP POP SWAP1 POP SWAP2 SWAP1 POP JUMP JUMPDEST PUSH1 0x0 DUP1 DUP4 PUSH1 0x40 MLOAD PUSH2 0x333 SWAP2 SWAP1 PUSH2 0x1443 JUMP JUMPDEST SWAP1 DUP2 MSTORE PUSH1 0x20 ADD PUSH1 0x40 MLOAD DUP1 SWAP2 SUB SWAP1 KECCAK256 SWAP1 POP PUSH1 0x0 ISZERO ISZERO DUP2 PUSH1 0x7 ADD PUSH1 0x1 SWAP1 SLOAD SWAP1 PUSH2 0x100 EXP SWAP1 DIV PUSH1 0xFF AND ISZERO ISZERO EQ PUSH2 0x39B JUMPI PUSH1 0x40 MLOAD PUSH32 0x8C379A000000000000000000000000000000000000000000000000000000000 DUP2 MSTORE PUSH1 0x4 ADD PUSH2 0x392 SWAP1 PUSH2 0x1604 JUMP JUMPDEST PUSH1 0x40 MLOAD DUP1 SWAP2 SUB SWAP1 REVERT JUMPDEST PUSH1 0x0 ISZERO ISZERO DUP2 PUSH1 0x7 ADD PUSH1 0x0 SWAP1 SLOAD SWAP1 PUSH2 0x100 EXP SWAP1 DIV PUSH1 0xFF AND ISZERO ISZERO EQ PUSH2 0x3F3 JUMPI PUSH1 0x40 MLOAD PUSH32 0x8C379A000000000000000000000000000000000000000000000000000000000 DUP2 MSTORE PUSH1 0x4 ADD PUSH2 0x3EA SWAP1 PUSH2 0x1670 JUMP JUMPDEST PUSH1 0x40 MLOAD DUP1 SWAP2 SUB SWAP1 REVERT JUMPDEST CALLER PUSH20 0xFFFFFFFFFFFFFFFFFFFFFFFFFFFFFFFFFFFFFFFF AND DUP2 PUSH1 0x1 ADD PUSH1 0x0 SWAP1 SLOAD SWAP1 PUSH2 0x100 EXP SWAP1 DIV PUSH20 0xFFFFFFFFFFFFFFFFFFFFFFFFFFFFFFFFFFFFFFFF AND PUSH20 0xFFFFFFFFFFFFFFFFFFFFFFFFFFFFFFFFFFFFFFFF AND EQ PUSH2 0x485 JUMPI PUSH1 0x40 MLOAD PUSH32 0x8C379A000000000000000000000000000000000000000000000000000000000 DUP2 MSTORE PUSH1 0x4 ADD PUSH2 0x47C SWAP1 PUSH2 0x16DC JUMP JUMPDEST PUSH1 0x40 MLOAD DUP1 SWAP2 SUB SWAP1 REVERT JUMPDEST DUP1 PUSH1 0x5 ADD SLOAD DUP3 PUSH1 0x40 MLOAD PUSH1 0x20 ADD PUSH2 0x49B SWAP2 SWAP1 PUSH2 0x1443 JUMP JUMPDEST PUSH1 0x40 MLOAD PUSH1 0x20 DUP2 DUP4 SUB SUB DUP2 MSTORE SWAP1 PUSH1 0x40 MSTORE DUP1 MLOAD SWAP1 PUSH1 0x20 ADD KECCAK256 EQ PUSH2 0x4F1 JUMPI PUSH1 0x40 MLOAD PUSH32 0x8C379A000000000000000000000000000000000000000000000000000000000 DUP2 MSTORE PUSH1 0x4 ADD PUSH2 0x4E8 SWAP1 PUSH2 0x1748 JUMP JUMPDEST PUSH1 0x40 MLOAD DUP1 SWAP2 SUB SWAP1 REVERT JUMPDEST DUP1 PUSH1 0x2 ADD PUSH1 0x0 SWAP1 SLOAD SWAP1 PUSH2 0x100 EXP SWAP1 DIV PUSH20 0xFFFFFFFFFFFFFFFFFFFFFFFFFFFFFFFFFFFFFFFF AND PUSH20 0xFFFFFFFFFFFFFFFFFFFFFFFFFFFFFFFFFFFFFFFF AND PUSH4 0xA9059CBB DUP3 PUSH1 0x1 ADD PUSH1 0x0 SWAP1 SLOAD SWAP1 PUSH2 0x100 EXP SWAP1 DIV PUSH20 0xFFFFFFFFFFFFFFFFFFFFFFFFFFFFFFFFFFFFFFFF AND DUP4 PUSH1 0x3 ADD SLOAD PUSH1 0x40 MLOAD DUP4 PUSH4 0xFFFFFFFF AND PUSH1 0xE0 SHL DUP2 MSTORE PUSH1 0x4 ADD PUSH2 0x578 SWAP3 SWAP2 SWAP1 PUSH2 0x1786 JUMP JUMPDEST PUSH1 0x20 PUSH1 0x40 MLOAD DUP1 DUP4 SUB DUP2 PUSH1 0x0 DUP8 GAS CALL ISZERO DUP1 ISZERO PUSH2 0x597 JUMPI RETURNDATASIZE PUSH1 0x0 DUP1 RETURNDATACOPY RETURNDATASIZE PUSH1 0x0 REVERT JUMPDEST POP POP POP POP PUSH1 0x40 MLOAD RETURNDATASIZE PUSH1 0x1F NOT PUSH1 0x1F DUP3 ADD AND DUP3 ADD DUP1 PUSH1 0x40 MSTORE POP DUP2 ADD SWAP1 PUSH2 0x5BB SWAP2 SWAP1 PUSH2 0x17DB JUMP JUMPDEST POP DUP2 DUP2 PUSH1 0x4 ADD SWAP1 DUP2 PUSH2 0x5CD SWAP2 SWAP1 PUSH2 0x19B4 JUMP JUMPDEST POP PUSH1 0x1 DUP2 PUSH1 0x7 ADD PUSH1 0x0 PUSH2 0x100 EXP DUP2 SLOAD DUP2 PUSH1 0xFF MUL NOT AND SWAP1 DUP4 ISZERO ISZERO MUL OR SWAP1 SSTORE POP PUSH32 0x6FB24F3AD0678F9D138E80B17293BE051D87911EB34E9E60F0D1B9C3805E885A DUP2 PUSH1 0x1 ADD PUSH1 0x0 SWAP1 SLOAD SWAP1 PUSH2 0x100 EXP SWAP1 DIV PUSH20 0xFFFFFFFFFFFFFFFFFFFFFFFFFFFFFFFFFFFFFFFF AND DUP3 PUSH1 0x3 ADD SLOAD PUSH1 0x40 MLOAD PUSH2 0x644 SWAP3 SWAP2 SWAP1 PUSH2 0x1786 JUMP JUMPDEST PUSH1 0x40 MLOAD DUP1 SWAP2 SUB SWAP1 LOG1 POP POP POP JUMP JUMPDEST DUP1 PUSH20 0xFFFFFFFFFFFFFFFFFFFFFFFFFFFFFFFFFFFFFFFF AND CALLER PUSH20 0xFFFFFFFFFFFFFFFFFFFFFFFFFFFFFFFFFFFFFFFF AND SUB PUSH2 0x6BF JUMPI PUSH1 0x40 MLOAD PUSH32 0x8C379A000000000000000000000000000000000000000000000000000000000 DUP2 MSTORE PUSH1 0x4 ADD PUSH2 0x6B6 SWAP1 PUSH2 0x1AD2 JUMP JUMPDEST PUSH1 0x40 MLOAD DUP1 SWAP2 SUB SWAP1 REVERT JUMPDEST PUSH1 0x0 DUP1 DUP4 PUSH1 0x40 MLOAD PUSH2 0x6D0 SWAP2 SWAP1 PUSH2 0x1443 JUMP JUMPDEST SWAP1 DUP2 MSTORE PUSH1 0x20 ADD PUSH1 0x40 MLOAD DUP1 SWAP2 SUB SWAP1 KECCAK256 SWAP1 POP CALLER PUSH20 0xFFFFFFFFFFFFFFFFFFFFFFFFFFFFFFFFFFFFFFFF AND DUP2 PUSH1 0x0 ADD PUSH1 0x0 SWAP1 SLOAD SWAP1 PUSH2 0x100 EXP SWAP1 DIV PUSH20 0xFFFFFFFFFFFFFFFFFFFFFFFFFFFFFFFFFFFFFFFF AND PUSH20 0xFFFFFFFFFFFFFFFFFFFFFFFFFFFFFFFFFFFFFFFF AND EQ PUSH2 0x772 JUMPI PUSH1 0x40 MLOAD PUSH32 0x8C379A000000000000000000000000000000000000000000000000000000000 DUP2 MSTORE PUSH1 0x4 ADD PUSH2 0x769 SWAP1 PUSH2 0x1B3E JUMP JUMPDEST PUSH1 0x40 MLOAD DUP1 SWAP2 SUB SWAP1 REVERT JUMPDEST PUSH1 0x0 PUSH20 0xFFFFFFFFFFFFFFFFFFFFFFFFFFFFFFFFFFFFFFFF AND DUP2 PUSH1 0x1 ADD PUSH1 0x0 SWAP1 SLOAD SWAP1 PUSH2 0x100 EXP SWAP1 DIV PUSH20 0xFFFFFFFFFFFFFFFFFFFFFFFFFFFFFFFFFFFFFFFF AND PUSH20 0xFFFFFFFFFFFFFFFFFFFFFFFFFFFFFFFFFFFFFFFF AND EQ PUSH2 0x805 JUMPI PUSH1 0x40 MLOAD PUSH32 0x8C379A000000000000000000000000000000000000000000000000000000000 DUP2 MSTORE PUSH1 0x4 ADD PUSH2 0x7FC SWAP1 PUSH2 0x1BAA JUMP JUMPDEST PUSH1 0x40 MLOAD DUP1 SWAP2 SUB SWAP1 REVERT JUMPDEST DUP2 DUP2 PUSH1 0x1 ADD PUSH1 0x0 PUSH2 0x100 EXP DUP2 SLOAD DUP2 PUSH20 0xFFFFFFFFFFFFFFFFFFFFFFFFFFFFFFFFFFFFFFFF MUL NOT AND SWAP1 DUP4 PUSH20 0xFFFFFFFFFFFFFFFFFFFFFFFFFFFFFFFFFFFFFFFF AND MUL OR SWAP1 SSTORE POP PUSH1 0x1 DUP2 PUSH1 0x7 ADD PUSH1 0x2 PUSH2 0x100 EXP DUP2 SLOAD DUP2 PUSH1 0xFF MUL NOT AND SWAP1 DUP4 ISZERO ISZERO MUL OR SWAP1 SSTORE POP POP POP POP JUMP JUMPDEST PUSH1 0x0 DUP1 DUP3 PUSH1 0x40 MLOAD PUSH2 0x87B SWAP2 SWAP1 PUSH2 0x1443 JUMP JUMPDEST SWAP1 DUP2 MSTORE PUSH1 0x20 ADD PUSH1 0x40 MLOAD DUP1 SWAP2 SUB SWAP1 KECCAK256 SWAP1 POP PUSH1 0x0 ISZERO ISZERO DUP2 PUSH1 0x7 ADD PUSH1 0x0 SWAP1 SLOAD SWAP1 PUSH2 0x100 EXP SWAP1 DIV PUSH1 0xFF AND ISZERO ISZERO EQ DUP1 ISZERO PUSH2 0x8C5 JUMPI POP PUSH1 0x0 ISZERO ISZERO DUP2 PUSH1 0x7 ADD PUSH1 0x1 SWAP1 SLOAD SWAP1 PUSH2 0x100 EXP SWAP1 DIV PUSH1 0xFF AND ISZERO ISZERO EQ JUMPDEST PUSH2 0x904 JUMPI PUSH1 0x40 MLOAD PUSH32 0x8C379A000000000000000000000000000000000000000000000000000000000 DUP2 MSTORE PUSH1 0x4 ADD PUSH2 0x8FB SWAP1 PUSH2 0x1C16 JUMP JUMPDEST PUSH1 0x40 MLOAD DUP1 SWAP2 SUB SWAP1 REVERT JUMPDEST PUSH1 0x0 ISZERO ISZERO DUP2 PUSH1 0x7 ADD PUSH1 0x2 SWAP1 SLOAD SWAP1 PUSH2 0x100 EXP SWAP1 DIV PUSH1 0xFF AND ISZERO ISZERO EQ PUSH2 0x95C JUMPI PUSH1 0x40 MLOAD PUSH32 0x8C379A000000000000000000000000000000000000000000000000000000000 DUP2 MSTORE PUSH1 0x4 ADD PUSH2 0x953 SWAP1 PUSH2 0x1C82 JUMP JUMPDEST PUSH1 0x40 MLOAD DUP1 SWAP2 SUB SWAP1 REVERT JUMPDEST TIMESTAMP DUP2 PUSH1 0x6 ADD SLOAD GT ISZERO PUSH2 0x9A3 JUMPI PUSH1 0x40 MLOAD PUSH32 0x8C379A000000000000000000000000000000000000000000000000000000000 DUP2 MSTORE PUSH1 0x4 ADD PUSH2 0x99A SWAP1 PUSH2 0x1CEE JUMP JUMPDEST PUSH1 0x40 MLOAD DUP1 SWAP2 SUB SWAP1 REVERT JUMPDEST DUP1 PUSH1 0x2 ADD PUSH1 0x0 SWAP1 SLOAD SWAP1 PUSH2 0x100 EXP SWAP1 DIV PUSH20 0xFFFFFFFFFFFFFFFFFFFFFFFFFFFFFFFFFFFFFFFF AND PUSH20 0xFFFFFFFFFFFFFFFFFFFFFFFFFFFFFFFFFFFFFFFF AND PUSH4 0xA9059CBB DUP3 PUSH1 0x0 ADD PUSH1 0x0 SWAP1 SLOAD SWAP1 PUSH2 0x100 EXP SWAP1 DIV PUSH20 0xFFFFFFFFFFFFFFFFFFFFFFFFFFFFFFFFFFFFFFFF AND DUP4 PUSH1 0x3 ADD SLOAD PUSH1 0x40 MLOAD DUP4 PUSH4 0xFFFFFFFF AND PUSH1 0xE0 SHL DUP2 MSTORE PUSH1 0x4 ADD PUSH2 0xA2A SWAP3 SWAP2 SWAP1 PUSH2 0x1786 JUMP JUMPDEST PUSH1 0x20 PUSH1 0x40 MLOAD DUP1 DUP4 SUB DUP2 PUSH1 0x0 DUP8 GAS CALL ISZERO DUP1 ISZERO PUSH2 0xA49 JUMPI RETURNDATASIZE PUSH1 0x0 DUP1 RETURNDATACOPY RETURNDATASIZE PUSH1 0x0 REVERT JUMPDEST POP POP POP POP PUSH1 0x40 MLOAD RETURNDATASIZE PUSH1 0x1F NOT PUSH1 0x1F DUP3 ADD AND DUP3 ADD DUP1 PUSH1 0x40 MSTORE POP DUP2 ADD SWAP1 PUSH2 0xA6D SWAP2 SWAP1 PUSH2 0x17DB JUMP JUMPDEST POP PUSH1 0x1 DUP2 PUSH1 0x7 ADD PUSH1 0x1 PUSH2 0x100 EXP DUP2 SLOAD DUP2 PUSH1 0xFF MUL NOT AND SWAP1 DUP4 ISZERO ISZERO MUL OR SWAP1 SSTORE POP PUSH32 0xB0FFF5D2B17A855B0A22A0965386BCF2F7A8A364C81497C7EA721F3B771BA47E DUP2 PUSH1 0x0 ADD PUSH1 0x0 SWAP1 SLOAD SWAP1 PUSH2 0x100 EXP SWAP1 DIV PUSH20 0xFFFFFFFFFFFFFFFFFFFFFFFFFFFFFFFFFFFFFFFF AND DUP3 PUSH1 0x3 ADD SLOAD PUSH1 0x40 MLOAD PUSH2 0xAE4 SWAP3 SWAP2 SWAP1 PUSH2 0x1786 JUMP JUMPDEST PUSH1 0x40 MLOAD DUP1 SWAP2 SUB SWAP1 LOG1 POP POP JUMP JUMPDEST PUSH1 0x0 DUP1 PUSH20 0xFFFFFFFFFFFFFFFFFFFFFFFFFFFFFFFFFFFFFFFF AND PUSH1 0x0 DUP10 PUSH1 0x40 MLOAD PUSH2 0xB19 SWAP2 SWAP1 PUSH2 0x1443 JUMP JUMPDEST SWAP1 DUP2 MSTORE PUSH1 0x20 ADD PUSH1 0x40 MLOAD DUP1 SWAP2 SUB SWAP1 KECCAK256 PUSH1 0x0 ADD PUSH1 0x0 SWAP1 SLOAD SWAP1 PUSH2 0x100 EXP SWAP1 DIV PUSH20 0xFFFFFFFFFFFFFFFFFFFFFFFFFFFFFFFFFFFFFFFF AND PUSH20 0xFFFFFFFFFFFFFFFFFFFFFFFFFFFFFFFFFFFFFFFF AND EQ PUSH2 0xBA1 JUMPI PUSH1 0x40 MLOAD PUSH32 0x8C379A000000000000000000000000000000000000000000000000000000000 DUP2 MSTORE PUSH1 0x4 ADD PUSH2 0xB98 SWAP1 PUSH2 0x1D5A JUMP JUMPDEST PUSH1 0x40 MLOAD DUP1 SWAP2 SUB SWAP1 REVERT JUMPDEST DUP7 PUSH20 0xFFFFFFFFFFFFFFFFFFFFFFFFFFFFFFFFFFFFFFFF AND CALLER PUSH20 0xFFFFFFFFFFFFFFFFFFFFFFFFFFFFFFFFFFFFFFFF AND SUB PUSH2 0xC0F JUMPI PUSH1 0x40 MLOAD PUSH32 0x8C379A000000000000000000000000000000000000000000000000000000000 DUP2 MSTORE PUSH1 0x4 ADD PUSH2 0xC06 SWAP1 PUSH2 0x1DC6 JUMP JUMPDEST PUSH1 0x40 MLOAD DUP1 SWAP2 SUB SWAP1 REVERT JUMPDEST PUSH1 0x40 MLOAD DUP1 PUSH2 0x140 ADD PUSH1 0x40 MSTORE DUP1 CALLER PUSH20 0xFFFFFFFFFFFFFFFFFFFFFFFFFFFFFFFFFFFFFFFF AND DUP2 MSTORE PUSH1 0x20 ADD DUP9 PUSH20 0xFFFFFFFFFFFFFFFFFFFFFFFFFFFFFFFFFFFFFFFF AND DUP2 MSTORE PUSH1 0x20 ADD DUP8 PUSH20 0xFFFFFFFFFFFFFFFFFFFFFFFFFFFFFFFFFFFFFFFF AND DUP2 MSTORE PUSH1 0x20 ADD DUP7 DUP2 MSTORE PUSH1 0x20 ADD DUP6 DUP2 MSTORE PUSH1 0x20 ADD DUP5 DUP2 MSTORE PUSH1 0x20 ADD DUP4 PUSH2 0xE10 PUSH2 0xC8F SWAP2 SWAP1 PUSH2 0x1E15 JUMP JUMPDEST TIMESTAMP PUSH2 0xC9A SWAP2 SWAP1 PUSH2 0x1E57 JUMP JUMPDEST DUP2 MSTORE PUSH1 0x20 ADD PUSH1 0x0 ISZERO ISZERO DUP2 MSTORE PUSH1 0x20 ADD PUSH1 0x0 ISZERO ISZERO DUP2 MSTORE PUSH1 0x20 ADD PUSH1 0x0 ISZERO ISZERO DUP2 MSTORE POP PUSH1 0x0 DUP10 PUSH1 0x40 MLOAD PUSH2 0xCC8 SWAP2 SWAP1 PUSH2 0x1443 JUMP JUMPDEST SWAP1 DUP2 MSTORE PUSH1 0x20 ADD PUSH1 0x40 MLOAD DUP1 SWAP2 SUB SWAP1 KECCAK256 PUSH1 0x0 DUP3 ADD MLOAD DUP2 PUSH1 0x0 ADD PUSH1 0x0 PUSH2 0x100 EXP DUP2 SLOAD DUP2 PUSH20 0xFFFFFFFFFFFFFFFFFFFFFFFFFFFFFFFFFFFFFFFF MUL NOT AND SWAP1 DUP4 PUSH20 0xFFFFFFFFFFFFFFFFFFFFFFFFFFFFFFFFFFFFFFFF AND MUL OR SWAP1 SSTORE POP PUSH1 0x20 DUP3 ADD MLOAD DUP2 PUSH1 0x1 ADD PUSH1 0x0 PUSH2 0x100 EXP DUP2 SLOAD DUP2 PUSH20 0xFFFFFFFFFFFFFFFFFFFFFFFFFFFFFFFFFFFFFFFF MUL NOT AND SWAP1 DUP4 PUSH20 0xFFFFFFFFFFFFFFFFFFFFFFFFFFFFFFFFFFFFFFFF AND MUL OR SWAP1 SSTORE POP PUSH1 0x40 DUP3 ADD MLOAD DUP2 PUSH1 0x2 ADD PUSH1 0x0 PUSH2 0x100 EXP DUP2 SLOAD DUP2 PUSH20 0xFFFFFFFFFFFFFFFFFFFFFFFFFFFFFFFFFFFFFFFF MUL NOT AND SWAP1 DUP4 PUSH20 0xFFFFFFFFFFFFFFFFFFFFFFFFFFFFFFFFFFFFFFFF AND MUL OR SWAP1 SSTORE POP PUSH1 0x60 DUP3 ADD MLOAD DUP2 PUSH1 0x3 ADD SSTORE PUSH1 0x80 DUP3 ADD MLOAD DUP2 PUSH1 0x4 ADD SWAP1 DUP2 PUSH2 0xDCA SWAP2 SWAP1 PUSH2 0x19B4 JUMP JUMPDEST POP PUSH1 0xA0 DUP3 ADD MLOAD DUP2 PUSH1 0x5 ADD SSTORE PUSH1 0xC0 DUP3 ADD MLOAD DUP2 PUSH1 0x6 ADD SSTORE PUSH1 0xE0 DUP3 ADD MLOAD DUP2 PUSH1 0x7 ADD PUSH1 0x0 PUSH2 0x100 EXP DUP2 SLOAD DUP2 PUSH1 0xFF MUL NOT AND SWAP1 DUP4 ISZERO ISZERO MUL OR SWAP1 SSTORE POP PUSH2 0x100 DUP3 ADD MLOAD DUP2 PUSH1 0x7 ADD PUSH1 0x1 PUSH2 0x100 EXP DUP2 SLOAD DUP2 PUSH1 0xFF MUL NOT AND SWAP1 DUP4 ISZERO ISZERO MUL OR SWAP1 SSTORE POP PUSH2 0x120 DUP3 ADD MLOAD DUP2 PUSH1 0x7 ADD PUSH1 0x2 PUSH2 0x100 EXP DUP2 SLOAD DUP2 PUSH1 0xFF MUL NOT AND SWAP1 DUP4 ISZERO ISZERO MUL OR SWAP1 SSTORE POP SWAP1 POP POP PUSH1 0x0 DUP9 PUSH1 0x40 MLOAD PUSH2 0xE54 SWAP2 SWAP1 PUSH2 0x1443 JUMP JUMPDEST SWAP1 DUP2 MSTORE PUSH1 0x20 ADD PUSH1 0x40 MLOAD DUP1 SWAP2 SUB SWAP1 KECCAK256 PUSH1 0x2 ADD PUSH1 0x0 SWAP1 SLOAD SWAP1 PUSH2 0x100 EXP SWAP1 DIV PUSH20 0xFFFFFFFFFFFFFFFFFFFFFFFFFFFFFFFFFFFFFFFF AND PUSH20 0xFFFFFFFFFFFFFFFFFFFFFFFFFFFFFFFFFFFFFFFF AND PUSH4 0x23B872DD CALLER ADDRESS DUP9 PUSH1 0x40 MLOAD DUP5 PUSH4 0xFFFFFFFF AND PUSH1 0xE0 SHL DUP2 MSTORE PUSH1 0x4 ADD PUSH2 0xEC2 SWAP4 SWAP3 SWAP2 SWAP1 PUSH2 0x1E8B JUMP JUMPDEST PUSH1 0x20 PUSH1 0x40 MLOAD DUP1 DUP4 SUB DUP2 PUSH1 0x0 DUP8 GAS CALL ISZERO DUP1 ISZERO PUSH2 0xEE1 JUMPI RETURNDATASIZE PUSH1 0x0 DUP1 RETURNDATACOPY RETURNDATASIZE PUSH1 0x0 REVERT JUMPDEST POP POP POP POP PUSH1 0x40 MLOAD RETURNDATASIZE PUSH1 0x1F NOT PUSH1 0x1F DUP3 ADD AND DUP3 ADD DUP1 PUSH1 0x40 MSTORE POP DUP2 ADD SWAP1 PUSH2 0xF05 SWAP2 SWAP1 PUSH2 0x17DB JUMP JUMPDEST POP PUSH1 0x1 SWAP1 POP SWAP8 SWAP7 POP POP POP POP POP POP POP JUMP JUMPDEST PUSH1 0x0 PUSH1 0x40 MLOAD SWAP1 POP SWAP1 JUMP JUMPDEST PUSH1 0x0 DUP1 REVERT JUMPDEST PUSH1 0x0 DUP1 REVERT JUMPDEST PUSH1 0x0 DUP1 REVERT JUMPDEST PUSH1 0x0 DUP1 REVERT JUMPDEST PUSH1 0x0 PUSH1 0x1F NOT PUSH1 0x1F DUP4 ADD AND SWAP1 POP SWAP2 SWAP1 POP JUMP JUMPDEST PUSH32 0x4E487B7100000000000000000000000000000000000000000000000000000000 PUSH1 0x0 MSTORE PUSH1 0x41 PUSH1 0x4 MSTORE PUSH1 0x24 PUSH1 0x0 REVERT JUMPDEST PUSH2 0xF7C DUP3 PUSH2 0xF33 JUMP JUMPDEST DUP2 ADD DUP2 DUP2 LT PUSH8 0xFFFFFFFFFFFFFFFF DUP3 GT OR ISZERO PUSH2 0xF9B JUMPI PUSH2 0xF9A PUSH2 0xF44 JUMP JUMPDEST JUMPDEST DUP1 PUSH1 0x40 MSTORE POP POP POP JUMP JUMPDEST PUSH1 0x0 PUSH2 0xFAE PUSH2 0xF15 JUMP JUMPDEST SWAP1 POP PUSH2 0xFBA DUP3 DUP3 PUSH2 0xF73 JUMP JUMPDEST SWAP2 SWAP1 POP JUMP JUMPDEST PUSH1 0x0 PUSH8 0xFFFFFFFFFFFFFFFF DUP3 GT ISZERO PUSH2 0xFDA JUMPI PUSH2 0xFD9 PUSH2 0xF44 JUMP JUMPDEST JUMPDEST PUSH2 0xFE3 DUP3 PUSH2 0xF33 JUMP JUMPDEST SWAP1 POP PUSH1 0x20 DUP2 ADD SWAP1 POP SWAP2 SWAP1 POP JUMP JUMPDEST DUP3 DUP2 DUP4 CALLDATACOPY PUSH1 0x0 DUP4 DUP4 ADD MSTORE POP POP POP JUMP JUMPDEST PUSH1 0x0 PUSH2 0x1012 PUSH2 0x100D DUP5 PUSH2 0xFBF JUMP JUMPDEST PUSH2 0xFA4 JUMP JUMPDEST SWAP1 POP DUP3 DUP2 MSTORE PUSH1 0x20 DUP2 ADD DUP5 DUP5 DUP5 ADD GT ISZERO PUSH2 0x102E JUMPI PUSH2 0x102D PUSH2 0xF2E JUMP JUMPDEST JUMPDEST PUSH2 0x1039 DUP5 DUP3 DUP6 PUSH2 0xFF0 JUMP JUMPDEST POP SWAP4 SWAP3 POP POP POP JUMP JUMPDEST PUSH1 0x0 DUP3 PUSH1 0x1F DUP4 ADD SLT PUSH2 0x1056 JUMPI PUSH2 0x1055 PUSH2 0xF29 JUMP JUMPDEST JUMPDEST DUP2 CALLDATALOAD PUSH2 0x1066 DUP5 DUP3 PUSH1 0x20 DUP7 ADD PUSH2 0xFFF JUMP JUMPDEST SWAP2 POP POP SWAP3 SWAP2 POP POP JUMP JUMPDEST PUSH1 0x0 PUSH1 0x20 DUP3 DUP5 SUB SLT ISZERO PUSH2 0x1085 JUMPI PUSH2 0x1084 PUSH2 0xF1F JUMP JUMPDEST JUMPDEST PUSH1 0x0 DUP3 ADD CALLDATALOAD PUSH8 0xFFFFFFFFFFFFFFFF DUP2 GT ISZERO PUSH2 0x10A3 JUMPI PUSH2 0x10A2 PUSH2 0xF24 JUMP JUMPDEST JUMPDEST PUSH2 0x10AF DUP5 DUP3 DUP6 ADD PUSH2 0x1041 JUMP JUMPDEST SWAP2 POP POP SWAP3 SWAP2 POP POP JUMP JUMPDEST PUSH1 0x0 DUP2 MLOAD SWAP1 POP SWAP2 SWAP1 POP JUMP JUMPDEST PUSH1 0x0 DUP3 DUP3 MSTORE PUSH1 0x20 DUP3 ADD SWAP1 POP SWAP3 SWAP2 POP POP JUMP JUMPDEST PUSH1 0x0 JUMPDEST DUP4 DUP2 LT ISZERO PUSH2 0x10F2 JUMPI DUP1 DUP3 ADD MLOAD DUP2 DUP5 ADD MSTORE PUSH1 0x20 DUP2 ADD SWAP1 POP PUSH2 0x10D7 JUMP JUMPDEST PUSH1 0x0 DUP5 DUP5 ADD MSTORE POP POP POP POP JUMP JUMPDEST PUSH1 0x0 PUSH2 0x1109 DUP3 PUSH2 0x10B8 JUMP JUMPDEST PUSH2 0x1113 DUP2 DUP6 PUSH2 0x10C3 JUMP JUMPDEST SWAP4 POP PUSH2 0x1123 DUP2 DUP6 PUSH1 0x20 DUP7 ADD PUSH2 0x10D4 JUMP JUMPDEST PUSH2 0x112C DUP2 PUSH2 0xF33 JUMP JUMPDEST DUP5 ADD SWAP2 POP POP SWAP3 SWAP2 POP POP JUMP JUMPDEST PUSH1 0x0 PUSH1 0x20 DUP3 ADD SWAP1 POP DUP2 DUP2 SUB PUSH1 0x0 DUP4 ADD MSTORE PUSH2 0x1151 DUP2 DUP5 PUSH2 0x10FE JUMP JUMPDEST SWAP1 POP SWAP3 SWAP2 POP POP JUMP JUMPDEST PUSH1 0x0 DUP1 PUSH1 0x40 DUP4 DUP6 SUB SLT ISZERO PUSH2 0x1170 JUMPI PUSH2 0x116F PUSH2 0xF1F JUMP JUMPDEST JUMPDEST PUSH1 0x0 DUP4 ADD CALLDATALOAD PUSH8 0xFFFFFFFFFFFFFFFF DUP2 GT ISZERO PUSH2 0x118E JUMPI PUSH2 0x118D PUSH2 0xF24 JUMP JUMPDEST JUMPDEST PUSH2 0x119A DUP6 DUP3 DUP7 ADD PUSH2 0x1041 JUMP JUMPDEST SWAP3 POP POP PUSH1 0x20 DUP4 ADD CALLDATALOAD PUSH8 0xFFFFFFFFFFFFFFFF DUP2 GT ISZERO PUSH2 0x11BB JUMPI PUSH2 0x11BA PUSH2 0xF24 JUMP JUMPDEST JUMPDEST PUSH2 0x11C7 DUP6 DUP3 DUP7 ADD PUSH2 0x1041 JUMP JUMPDEST SWAP2 POP POP SWAP3 POP SWAP3 SWAP1 POP JUMP JUMPDEST PUSH1 0x0 PUSH20 0xFFFFFFFFFFFFFFFFFFFFFFFFFFFFFFFFFFFFFFFF DUP3 AND SWAP1 POP SWAP2 SWAP1 POP JUMP JUMPDEST PUSH1 0x0 PUSH2 0x11FC DUP3 PUSH2 0x11D1 JUMP JUMPDEST SWAP1 POP SWAP2 SWAP1 POP JUMP JUMPDEST PUSH2 0x120C DUP2 PUSH2 0x11F1 JUMP JUMPDEST DUP2 EQ PUSH2 0x1217 JUMPI PUSH1 0x0 DUP1 REVERT JUMPDEST POP JUMP JUMPDEST PUSH1 0x0 DUP2 CALLDATALOAD SWAP1 POP PUSH2 0x1229 DUP2 PUSH2 0x1203 JUMP JUMPDEST SWAP3 SWAP2 POP POP JUMP JUMPDEST PUSH1 0x0 DUP1 PUSH1 0x40 DUP4 DUP6 SUB SLT ISZERO PUSH2 0x1246 JUMPI PUSH2 0x1245 PUSH2 0xF1F JUMP JUMPDEST JUMPDEST PUSH1 0x0 DUP4 ADD CALLDATALOAD PUSH8 0xFFFFFFFFFFFFFFFF DUP2 GT ISZERO PUSH2 0x1264 JUMPI PUSH2 0x1263 PUSH2 0xF24 JUMP JUMPDEST JUMPDEST PUSH2 0x1270 DUP6 DUP3 DUP7 ADD PUSH2 0x1041 JUMP JUMPDEST SWAP3 POP POP PUSH1 0x20 PUSH2 0x1281 DUP6 DUP3 DUP7 ADD PUSH2 0x121A JUMP JUMPDEST SWAP2 POP POP SWAP3 POP SWAP3 SWAP1 POP JUMP JUMPDEST PUSH1 0x0 DUP2 SWAP1 POP SWAP2 SWAP1 POP JUMP JUMPDEST PUSH2 0x129E DUP2 PUSH2 0x128B JUMP JUMPDEST DUP2 EQ PUSH2 0x12A9 JUMPI PUSH1 0x0 DUP1 REVERT JUMPDEST POP JUMP JUMPDEST PUSH1 0x0 DUP2 CALLDATALOAD SWAP1 POP PUSH2 0x12BB DUP2 PUSH2 0x1295 JUMP JUMPDEST SWAP3 SWAP2 POP POP JUMP JUMPDEST PUSH1 0x0 DUP2 SWAP1 POP SWAP2 SWAP1 POP JUMP JUMPDEST PUSH2 0x12D4 DUP2 PUSH2 0x12C1 JUMP JUMPDEST DUP2 EQ PUSH2 0x12DF JUMPI PUSH1 0x0 DUP1 REVERT JUMPDEST POP JUMP JUMPDEST PUSH1 0x0 DUP2 CALLDATALOAD SWAP1 POP PUSH2 0x12F1 DUP2 PUSH2 0x12CB JUMP JUMPDEST SWAP3 SWAP2 POP POP JUMP JUMPDEST PUSH1 0x0 DUP1 PUSH1 0x0 DUP1 PUSH1 0x0 DUP1 PUSH1 0x0 PUSH1 0xE0 DUP9 DUP11 SUB SLT ISZERO PUSH2 0x1316 JUMPI PUSH2 0x1315 PUSH2 0xF1F JUMP JUMPDEST JUMPDEST PUSH1 0x0 DUP9 ADD CALLDATALOAD PUSH8 0xFFFFFFFFFFFFFFFF DUP2 GT ISZERO PUSH2 0x1334 JUMPI PUSH2 0x1333 PUSH2 0xF24 JUMP JUMPDEST JUMPDEST PUSH2 0x1340 DUP11 DUP3 DUP12 ADD PUSH2 0x1041 JUMP JUMPDEST SWAP8 POP POP PUSH1 0x20 PUSH2 0x1351 DUP11 DUP3 DUP12 ADD PUSH2 0x121A JUMP JUMPDEST SWAP7 POP POP PUSH1 0x40 PUSH2 0x1362 DUP11 DUP3 DUP12 ADD PUSH2 0x121A JUMP JUMPDEST SWAP6 POP POP PUSH1 0x60 PUSH2 0x1373 DUP11 DUP3 DUP12 ADD PUSH2 0x12AC JUMP JUMPDEST SWAP5 POP POP PUSH1 0x80 DUP9 ADD CALLDATALOAD PUSH8 0xFFFFFFFFFFFFFFFF DUP2 GT ISZERO PUSH2 0x1394 JUMPI PUSH2 0x1393 PUSH2 0xF24 JUMP JUMPDEST JUMPDEST PUSH2 0x13A0 DUP11 DUP3 DUP12 ADD PUSH2 0x1041 JUMP JUMPDEST SWAP4 POP POP PUSH1 0xA0 PUSH2 0x13B1 DUP11 DUP3 DUP12 ADD PUSH2 0x12E2 JUMP JUMPDEST SWAP3 POP POP PUSH1 0xC0 PUSH2 0x13C2 DUP11 DUP3 DUP12 ADD PUSH2 0x12AC JUMP JUMPDEST SWAP2 POP POP SWAP3 SWAP6 SWAP9 SWAP2 SWAP5 SWAP8 POP SWAP3 SWAP6 POP JUMP JUMPDEST PUSH1 0x0 DUP2 ISZERO ISZERO SWAP1 POP SWAP2 SWAP1 POP JUMP JUMPDEST PUSH2 0x13E6 DUP2 PUSH2 0x13D1 JUMP JUMPDEST DUP3 MSTORE POP POP JUMP JUMPDEST PUSH1 0x0 PUSH1 0x20 DUP3 ADD SWAP1 POP PUSH2 0x1401 PUSH1 0x0 DUP4 ADD DUP5 PUSH2 0x13DD JUMP JUMPDEST SWAP3 SWAP2 POP POP JUMP JUMPDEST PUSH1 0x0 DUP2 SWAP1 POP SWAP3 SWAP2 POP POP JUMP JUMPDEST PUSH1 0x0 PUSH2 0x141D DUP3 PUSH2 0x10B8 JUMP JUMPDEST PUSH2 0x1427 DUP2 DUP6 PUSH2 0x1407 JUMP JUMPDEST SWAP4 POP PUSH2 0x1437 DUP2 DUP6 PUSH1 0x20 DUP7 ADD PUSH2 0x10D4 JUMP JUMPDEST DUP1 DUP5 ADD SWAP2 POP POP SWAP3 SWAP2 POP POP JUMP JUMPDEST PUSH1 0x0 PUSH2 0x144F DUP3 DUP5 PUSH2 0x1412 JUMP JUMPDEST SWAP2 POP DUP2 SWAP1 POP SWAP3 SWAP2 POP POP JUMP JUMPDEST PUSH32 0x54686973207472616E73616374696F6E20646F65736E27742065786973747300 PUSH1 0x0 DUP3 ADD MSTORE POP JUMP JUMPDEST PUSH1 0x0 PUSH2 0x1490 PUSH1 0x1F DUP4 PUSH2 0x10C3 JUMP JUMPDEST SWAP2 POP PUSH2 0x149B DUP3 PUSH2 0x145A JUMP JUMPDEST PUSH1 0x20 DUP3 ADD SWAP1 POP SWAP2 SWAP1 POP JUMP JUMPDEST PUSH1 0x0 PUSH1 0x20 DUP3 ADD SWAP1 POP DUP2 DUP2 SUB PUSH1 0x0 DUP4 ADD MSTORE PUSH2 0x14BF DUP2 PUSH2 0x1483 JUMP JUMPDEST SWAP1 POP SWAP2 SWAP1 POP JUMP JUMPDEST PUSH32 0x4F6E6C79206F776E65722063616E206765742074686520736563726574206B65 PUSH1 0x0 DUP3 ADD MSTORE PUSH32 0x7900000000000000000000000000000000000000000000000000000000000000 PUSH1 0x20 DUP3 ADD MSTORE POP JUMP JUMPDEST PUSH1 0x0 PUSH2 0x1522 PUSH1 0x21 DUP4 PUSH2 0x10C3 JUMP JUMPDEST SWAP2 POP PUSH2 0x152D DUP3 PUSH2 0x14C6 JUMP JUMPDEST PUSH1 0x40 DUP3 ADD SWAP1 POP SWAP2 SWAP1 POP JUMP JUMPDEST PUSH1 0x0 PUSH1 0x20 DUP3 ADD SWAP1 POP DUP2 DUP2 SUB PUSH1 0x0 DUP4 ADD MSTORE PUSH2 0x1551 DUP2 PUSH2 0x1515 JUMP JUMPDEST SWAP1 POP SWAP2 SWAP1 POP JUMP JUMPDEST PUSH32 0x4E487B7100000000000000000000000000000000000000000000000000000000 PUSH1 0x0 MSTORE PUSH1 0x22 PUSH1 0x4 MSTORE PUSH1 0x24 PUSH1 0x0 REVERT JUMPDEST PUSH1 0x0 PUSH1 0x2 DUP3 DIV SWAP1 POP PUSH1 0x1 DUP3 AND DUP1 PUSH2 0x159F JUMPI PUSH1 0x7F DUP3 AND SWAP2 POP JUMPDEST PUSH1 0x20 DUP3 LT DUP2 SUB PUSH2 0x15B2 JUMPI PUSH2 0x15B1 PUSH2 0x1558 JUMP JUMPDEST JUMPDEST POP SWAP2 SWAP1 POP JUMP JUMPDEST PUSH32 0x5472616E73616374696F6E20686173206265656E2063616E63656C6564000000 PUSH1 0x0 DUP3 ADD MSTORE POP JUMP JUMPDEST PUSH1 0x0 PUSH2 0x15EE PUSH1 0x1D DUP4 PUSH2 0x10C3 JUMP JUMPDEST SWAP2 POP PUSH2 0x15F9 DUP3 PUSH2 0x15B8 JUMP JUMPDEST PUSH1 0x20 DUP3 ADD SWAP1 POP SWAP2 SWAP1 POP JUMP JUMPDEST PUSH1 0x0 PUSH1 0x20 DUP3 ADD SWAP1 POP DUP2 DUP2 SUB PUSH1 0x0 DUP4 ADD MSTORE PUSH2 0x161D DUP2 PUSH2 0x15E1 JUMP JUMPDEST SWAP1 POP SWAP2 SWAP1 POP JUMP JUMPDEST PUSH32 0x5472616E73616374696F6E20686173206265656E2077697468647261776E0000 PUSH1 0x0 DUP3 ADD MSTORE POP JUMP JUMPDEST PUSH1 0x0 PUSH2 0x165A PUSH1 0x1E DUP4 PUSH2 0x10C3 JUMP JUMPDEST SWAP2 POP PUSH2 0x1665 DUP3 PUSH2 0x1624 JUMP JUMPDEST PUSH1 0x20 DUP3 ADD SWAP1 POP SWAP2 SWAP1 POP JUMP JUMPDEST PUSH1 0x0 PUSH1 0x20 DUP3 ADD SWAP1 POP DUP2 DUP2 SUB PUSH1 0x0 DUP4 ADD MSTORE PUSH2 0x1689 DUP2 PUSH2 0x164D JUMP JUMPDEST SWAP1 POP SWAP2 SWAP1 POP JUMP JUMPDEST PUSH32 0x4F6E6C792072656365697665722063616E207769746864726177000000000000 PUSH1 0x0 DUP3 ADD MSTORE POP JUMP JUMPDEST PUSH1 0x0 PUSH2 0x16C6 PUSH1 0x1A DUP4 PUSH2 0x10C3 JUMP JUMPDEST SWAP2 POP PUSH2 0x16D1 DUP3 PUSH2 0x1690 JUMP JUMPDEST PUSH1 0x20 DUP3 ADD SWAP1 POP SWAP2 SWAP1 POP JUMP JUMPDEST PUSH1 0x0 PUSH1 0x20 DUP3 ADD SWAP1 POP DUP2 DUP2 SUB PUSH1 0x0 DUP4 ADD MSTORE PUSH2 0x16F5 DUP2 PUSH2 0x16B9 JUMP JUMPDEST SWAP1 POP SWAP2 SWAP1 POP JUMP JUMPDEST PUSH32 0x496E636F7272656374206B657900000000000000000000000000000000000000 PUSH1 0x0 DUP3 ADD MSTORE POP JUMP JUMPDEST PUSH1 0x0 PUSH2 0x1732 PUSH1 0xD DUP4 PUSH2 0x10C3 JUMP JUMPDEST SWAP2 POP PUSH2 0x173D DUP3 PUSH2 0x16FC JUMP JUMPDEST PUSH1 0x20 DUP3 ADD SWAP1 POP SWAP2 SWAP1 POP JUMP JUMPDEST PUSH1 0x0 PUSH1 0x20 DUP3 ADD SWAP1 POP DUP2 DUP2 SUB PUSH1 0x0 DUP4 ADD MSTORE PUSH2 0x1761 DUP2 PUSH2 0x1725 JUMP JUMPDEST SWAP1 POP SWAP2 SWAP1 POP JUMP JUMPDEST PUSH2 0x1771 DUP2 PUSH2 0x11F1 JUMP JUMPDEST DUP3 MSTORE POP POP JUMP JUMPDEST PUSH2 0x1780 DUP2 PUSH2 0x128B JUMP JUMPDEST DUP3 MSTORE POP POP JUMP JUMPDEST PUSH1 0x0 PUSH1 0x40 DUP3 ADD SWAP1 POP PUSH2 0x179B PUSH1 0x0 DUP4 ADD DUP6 PUSH2 0x1768 JUMP JUMPDEST PUSH2 0x17A8 PUSH1 0x20 DUP4 ADD DUP5 PUSH2 0x1777 JUMP JUMPDEST SWAP4 SWAP3 POP POP POP JUMP JUMPDEST PUSH2 0x17B8 DUP2 PUSH2 0x13D1 JUMP JUMPDEST DUP2 EQ PUSH2 0x17C3 JUMPI PUSH1 0x0 DUP1 REVERT JUMPDEST POP JUMP JUMPDEST PUSH1 0x0 DUP2 MLOAD SWAP1 POP PUSH2 0x17D5 DUP2 PUSH2 0x17AF JUMP JUMPDEST SWAP3 SWAP2 POP POP JUMP JUMPDEST PUSH1 0x0 PUSH1 0x20 DUP3 DUP5 SUB SLT ISZERO PUSH2 0x17F1 JUMPI PUSH2 0x17F0 PUSH2 0xF1F JUMP JUMPDEST JUMPDEST PUSH1 0x0 PUSH2 0x17FF DUP5 DUP3 DUP6 ADD PUSH2 0x17C6 JUMP JUMPDEST SWAP2 POP POP SWAP3 SWAP2 POP POP JUMP JUMPDEST PUSH1 0x0 DUP2 SWAP1 POP DUP2 PUSH1 0x0 MSTORE PUSH1 0x20 PUSH1 0x0 KECCAK256 SWAP1 POP SWAP2 SWAP1 POP JUMP JUMPDEST PUSH1 0x0 PUSH1 0x20 PUSH1 0x1F DUP4 ADD DIV SWAP1 POP SWAP2 SWAP1 POP JUMP JUMPDEST PUSH1 0x0 DUP3 DUP3 SHL SWAP1 POP SWAP3 SWAP2 POP POP JUMP JUMPDEST PUSH1 0x0 PUSH1 0x8 DUP4 MUL PUSH2 0x186A PUSH32 0xFFFFFFFFFFFFFFFFFFFFFFFFFFFFFFFFFFFFFFFFFFFFFFFFFFFFFFFFFFFFFFFF DUP3 PUSH2 0x182D JUMP JUMPDEST PUSH2 0x1874 DUP7 DUP4 PUSH2 0x182D JUMP JUMPDEST SWAP6 POP DUP1 NOT DUP5 AND SWAP4 POP DUP1 DUP7 AND DUP5 OR SWAP3 POP POP POP SWAP4 SWAP3 POP POP POP JUMP JUMPDEST PUSH1 0x0 DUP2 SWAP1 POP SWAP2 SWAP1 POP JUMP JUMPDEST PUSH1 0x0 PUSH2 0x18B1 PUSH2 0x18AC PUSH2 0x18A7 DUP5 PUSH2 0x128B JUMP JUMPDEST PUSH2 0x188C JUMP JUMPDEST PUSH2 0x128B JUMP JUMPDEST SWAP1 POP SWAP2 SWAP1 POP JUMP JUMPDEST PUSH1 0x0 DUP2 SWAP1 POP SWAP2 SWAP1 POP JUMP JUMPDEST PUSH2 0x18CB DUP4 PUSH2 0x1896 JUMP JUMPDEST PUSH2 0x18DF PUSH2 0x18D7 DUP3 PUSH2 0x18B8 JUMP JUMPDEST DUP5 DUP5 SLOAD PUSH2 0x183A JUMP JUMPDEST DUP3 SSTORE POP POP POP POP JUMP JUMPDEST PUSH1 0x0 SWAP1 JUMP JUMPDEST PUSH2 0x18F4 PUSH2 0x18E7 JUMP JUMPDEST PUSH2 0x18FF DUP2 DUP5 DUP5 PUSH2 0x18C2 JUMP JUMPDEST POP POP POP JUMP JUMPDEST JUMPDEST DUP2 DUP2 LT ISZERO PUSH2 0x1923 JUMPI PUSH2 0x1918 PUSH1 0x0 DUP3 PUSH2 0x18EC JUMP JUMPDEST PUSH1 0x1 DUP2 ADD SWAP1 POP PUSH2 0x1905 JUMP JUMPDEST POP POP JUMP JUMPDEST PUSH1 0x1F DUP3 GT ISZERO PUSH2 0x1968 JUMPI PUSH2 0x1939 DUP2 PUSH2 0x1808 JUMP JUMPDEST PUSH2 0x1942 DUP5 PUSH2 0x181D JUMP JUMPDEST DUP2 ADD PUSH1 0x20 DUP6 LT ISZERO PUSH2 0x1951 JUMPI DUP2 SWAP1 POP JUMPDEST PUSH2 0x1965 PUSH2 0x195D DUP6 PUSH2 0x181D JUMP JUMPDEST DUP4 ADD DUP3 PUSH2 0x1904 JUMP JUMPDEST POP POP JUMPDEST POP POP POP JUMP JUMPDEST PUSH1 0x0 DUP3 DUP3 SHR SWAP1 POP SWAP3 SWAP2 POP POP JUMP JUMPDEST PUSH1 0x0 PUSH2 0x198B PUSH1 0x0 NOT DUP5 PUSH1 0x8 MUL PUSH2 0x196D JUMP JUMPDEST NOT DUP1 DUP4 AND SWAP2 POP POP SWAP3 SWAP2 POP POP JUMP JUMPDEST PUSH1 0x0 PUSH2 0x19A4 DUP4 DUP4 PUSH2 0x197A JUMP JUMPDEST SWAP2 POP DUP3 PUSH1 0x2 MUL DUP3 OR SWAP1 POP SWAP3 SWAP2 POP POP JUMP JUMPDEST PUSH2 0x19BD DUP3 PUSH2 0x10B8 JUMP JUMPDEST PUSH8 0xFFFFFFFFFFFFFFFF DUP2 GT ISZERO PUSH2 0x19D6 JUMPI PUSH2 0x19D5 PUSH2 0xF44 JUMP JUMPDEST JUMPDEST PUSH2 0x19E0 DUP3 SLOAD PUSH2 0x1587 JUMP JUMPDEST PUSH2 0x19EB DUP3 DUP3 DUP6 PUSH2 0x1927 JUMP JUMPDEST PUSH1 0x0 PUSH1 0x20 SWAP1 POP PUSH1 0x1F DUP4 GT PUSH1 0x1 DUP2 EQ PUSH2 0x1A1E JUMPI PUSH1 0x0 DUP5 ISZERO PUSH2 0x1A0C JUMPI DUP3 DUP8 ADD MLOAD SWAP1 POP JUMPDEST PUSH2 0x1A16 DUP6 DUP3 PUSH2 0x1998 JUMP JUMPDEST DUP7 SSTORE POP PUSH2 0x1A7E JUMP JUMPDEST PUSH1 0x1F NOT DUP5 AND PUSH2 0x1A2C DUP7 PUSH2 0x1808 JUMP JUMPDEST PUSH1 0x0 JUMPDEST DUP3 DUP2 LT ISZERO PUSH2 0x1A54 JUMPI DUP5 DUP10 ADD MLOAD DUP3 SSTORE PUSH1 0x1 DUP3 ADD SWAP2 POP PUSH1 0x20 DUP6 ADD SWAP5 POP PUSH1 0x20 DUP2 ADD SWAP1 POP PUSH2 0x1A2F JUMP JUMPDEST DUP7 DUP4 LT ISZERO PUSH2 0x1A71 JUMPI DUP5 DUP10 ADD MLOAD PUSH2 0x1A6D PUSH1 0x1F DUP10 AND DUP3 PUSH2 0x197A JUMP JUMPDEST DUP4 SSTORE POP JUMPDEST PUSH1 0x1 PUSH1 0x2 DUP9 MUL ADD DUP9 SSTORE POP POP POP JUMPDEST POP POP POP POP POP POP JUMP JUMPDEST PUSH32 0x43616E27742061636365707420627920796F757273656C660000000000000000 PUSH1 0x0 DUP3 ADD MSTORE POP JUMP JUMPDEST PUSH1 0x0 PUSH2 0x1ABC PUSH1 0x18 DUP4 PUSH2 0x10C3 JUMP JUMPDEST SWAP2 POP PUSH2 0x1AC7 DUP3 PUSH2 0x1A86 JUMP JUMPDEST PUSH1 0x20 DUP3 ADD SWAP1 POP SWAP2 SWAP1 POP JUMP JUMPDEST PUSH1 0x0 PUSH1 0x20 DUP3 ADD SWAP1 POP DUP2 DUP2 SUB PUSH1 0x0 DUP4 ADD MSTORE PUSH2 0x1AEB DUP2 PUSH2 0x1AAF JUMP JUMPDEST SWAP1 POP SWAP2 SWAP1 POP JUMP JUMPDEST PUSH32 0x4F6E6C79206F776E65722063616E206772616E74207065726D697373696F6E00 PUSH1 0x0 DUP3 ADD MSTORE POP JUMP JUMPDEST PUSH1 0x0 PUSH2 0x1B28 PUSH1 0x1F DUP4 PUSH2 0x10C3 JUMP JUMPDEST SWAP2 POP PUSH2 0x1B33 DUP3 PUSH2 0x1AF2 JUMP JUMPDEST PUSH1 0x20 DUP3 ADD SWAP1 POP SWAP2 SWAP1 POP JUMP JUMPDEST PUSH1 0x0 PUSH1 0x20 DUP3 ADD SWAP1 POP DUP2 DUP2 SUB PUSH1 0x0 DUP4 ADD MSTORE PUSH2 0x1B57 DUP2 PUSH2 0x1B1B JUMP JUMPDEST SWAP1 POP SWAP2 SWAP1 POP JUMP JUMPDEST PUSH32 0x5472616E73616374696F6E20686173206265656E206163636570746564000000 PUSH1 0x0 DUP3 ADD MSTORE POP JUMP JUMPDEST PUSH1 0x0 PUSH2 0x1B94 PUSH1 0x1D DUP4 PUSH2 0x10C3 JUMP JUMPDEST SWAP2 POP PUSH2 0x1B9F DUP3 PUSH2 0x1B5E JUMP JUMPDEST PUSH1 0x20 DUP3 ADD SWAP1 POP SWAP2 SWAP1 POP JUMP JUMPDEST PUSH1 0x0 PUSH1 0x20 DUP3 ADD SWAP1 POP DUP2 DUP2 SUB PUSH1 0x0 DUP4 ADD MSTORE PUSH2 0x1BC3 DUP2 PUSH2 0x1B87 JUMP JUMPDEST SWAP1 POP SWAP2 SWAP1 POP JUMP JUMPDEST PUSH32 0x43616E277420726566756E640000000000000000000000000000000000000000 PUSH1 0x0 DUP3 ADD MSTORE POP JUMP JUMPDEST PUSH1 0x0 PUSH2 0x1C00 PUSH1 0xC DUP4 PUSH2 0x10C3 JUMP JUMPDEST SWAP2 POP PUSH2 0x1C0B DUP3 PUSH2 0x1BCA JUMP JUMPDEST PUSH1 0x20 DUP3 ADD SWAP1 POP SWAP2 SWAP1 POP JUMP JUMPDEST PUSH1 0x0 PUSH1 0x20 DUP3 ADD SWAP1 POP DUP2 DUP2 SUB PUSH1 0x0 DUP4 ADD MSTORE PUSH2 0x1C2F DUP2 PUSH2 0x1BF3 JUMP JUMPDEST SWAP1 POP SWAP2 SWAP1 POP JUMP JUMPDEST PUSH32 0x5472616E73616374696F6E20697320696E2070726F6772657373000000000000 PUSH1 0x0 DUP3 ADD MSTORE POP JUMP JUMPDEST PUSH1 0x0 PUSH2 0x1C6C PUSH1 0x1A DUP4 PUSH2 0x10C3 JUMP JUMPDEST SWAP2 POP PUSH2 0x1C77 DUP3 PUSH2 0x1C36 JUMP JUMPDEST PUSH1 0x20 DUP3 ADD SWAP1 POP SWAP2 SWAP1 POP JUMP JUMPDEST PUSH1 0x0 PUSH1 0x20 DUP3 ADD SWAP1 POP DUP2 DUP2 SUB PUSH1 0x0 DUP4 ADD MSTORE PUSH2 0x1C9B DUP2 PUSH2 0x1C5F JUMP JUMPDEST SWAP1 POP SWAP2 SWAP1 POP JUMP JUMPDEST PUSH32 0x546F6F206561726C7920746F20726566756E6400000000000000000000000000 PUSH1 0x0 DUP3 ADD MSTORE POP JUMP JUMPDEST PUSH1 0x0 PUSH2 0x1CD8 PUSH1 0x13 DUP4 PUSH2 0x10C3 JUMP JUMPDEST SWAP2 POP PUSH2 0x1CE3 DUP3 PUSH2 0x1CA2 JUMP JUMPDEST PUSH1 0x20 DUP3 ADD SWAP1 POP SWAP2 SWAP1 POP JUMP JUMPDEST PUSH1 0x0 PUSH1 0x20 DUP3 ADD SWAP1 POP DUP2 DUP2 SUB PUSH1 0x0 DUP4 ADD MSTORE PUSH2 0x1D07 DUP2 PUSH2 0x1CCB JUMP JUMPDEST SWAP1 POP SWAP2 SWAP1 POP JUMP JUMPDEST PUSH32 0x4475706C6963617465207472616E73616374696F6E2062792069640000000000 PUSH1 0x0 DUP3 ADD MSTORE POP JUMP JUMPDEST PUSH1 0x0 PUSH2 0x1D44 PUSH1 0x1B DUP4 PUSH2 0x10C3 JUMP JUMPDEST SWAP2 POP PUSH2 0x1D4F DUP3 PUSH2 0x1D0E JUMP JUMPDEST PUSH1 0x20 DUP3 ADD SWAP1 POP SWAP2 SWAP1 POP JUMP JUMPDEST PUSH1 0x0 PUSH1 0x20 DUP3 ADD SWAP1 POP DUP2 DUP2 SUB PUSH1 0x0 DUP4 ADD MSTORE PUSH2 0x1D73 DUP2 PUSH2 0x1D37 JUMP JUMPDEST SWAP1 POP SWAP2 SWAP1 POP JUMP JUMPDEST PUSH32 0x545472616E73616374696F6E20696E76616C6964000000000000000000000000 PUSH1 0x0 DUP3 ADD MSTORE POP JUMP JUMPDEST PUSH1 0x0 PUSH2 0x1DB0 PUSH1 0x14 DUP4 PUSH2 0x10C3 JUMP JUMPDEST SWAP2 POP PUSH2 0x1DBB DUP3 PUSH2 0x1D7A JUMP JUMPDEST PUSH1 0x20 DUP3 ADD SWAP1 POP SWAP2 SWAP1 POP JUMP JUMPDEST PUSH1 0x0 PUSH1 0x20 DUP3 ADD SWAP1 POP DUP2 DUP2 SUB PUSH1 0x0 DUP4 ADD MSTORE PUSH2 0x1DDF DUP2 PUSH2 0x1DA3 JUMP JUMPDEST SWAP1 POP SWAP2 SWAP1 POP JUMP JUMPDEST PUSH32 0x4E487B7100000000000000000000000000000000000000000000000000000000 PUSH1 0x0 MSTORE PUSH1 0x11 PUSH1 0x4 MSTORE PUSH1 0x24 PUSH1 0x0 REVERT JUMPDEST PUSH1 0x0 PUSH2 0x1E20 DUP3 PUSH2 0x128B JUMP JUMPDEST SWAP2 POP PUSH2 0x1E2B DUP4 PUSH2 0x128B JUMP JUMPDEST SWAP3 POP DUP3 DUP3 MUL PUSH2 0x1E39 DUP2 PUSH2 0x128B JUMP JUMPDEST SWAP2 POP DUP3 DUP3 DIV DUP5 EQ DUP4 ISZERO OR PUSH2 0x1E50 JUMPI PUSH2 0x1E4F PUSH2 0x1DE6 JUMP JUMPDEST JUMPDEST POP SWAP3 SWAP2 POP POP JUMP JUMPDEST PUSH1 0x0 PUSH2 0x1E62 DUP3 PUSH2 0x128B JUMP JUMPDEST SWAP2 POP PUSH2 0x1E6D DUP4 PUSH2 0x128B JUMP JUMPDEST SWAP3 POP DUP3 DUP3 ADD SWAP1 POP DUP1 DUP3 GT ISZERO PUSH2 0x1E85 JUMPI PUSH2 0x1E84 PUSH2 0x1DE6 JUMP JUMPDEST JUMPDEST SWAP3 SWAP2 POP POP JUMP JUMPDEST PUSH1 0x0 PUSH1 0x60 DUP3 ADD SWAP1 POP PUSH2 0x1EA0 PUSH1 0x0 DUP4 ADD DUP7 PUSH2 0x1768 JUMP JUMPDEST PUSH2 0x1EAD PUSH1 0x20 DUP4 ADD DUP6 PUSH2 0x1768 JUMP JUMPDEST PUSH2 0x1EBA PUSH1 0x40 DUP4 ADD DUP5 PUSH2 0x1777 JUMP JUMPDEST SWAP5 SWAP4 POP POP POP POP JUMP INVALID LOG2 PUSH5 0x6970667358 0x22 SLT KECCAK256 0xAA EQ 0x23 PUSH6 0x7CE1231F55BA BALANCE AND PUSH6 0x967932ABF544 0xED EQ 0xE0 0x23 LOG2 0xC3 0xE3 PUSH31 0x5E4E7775A264736F6C63430008120033000000000000000000000000000000 "},"methodIdentifiers":{"acceptFor(string,address)":"f878631e","createTx(string,address,address,uint256,string,bytes32,uint256)":"fea68273","getSecretKey(string)":"02db2713","refund(string)":"fe5f2e88","withDraw(string,string)":"3a4e0be8"}}}}}