{
  "_format": "hh-sol-artifact-1",
  "contractName": "SwapTwoChain",
  "sourceName": "contracts/SwapTwoChain.sol",
  "abi": [
    {
      "inputs": [],
      "stateMutability": "nonpayable",
      "type": "constructor"
    },
    {
      "anonymous": false,
      "inputs": [
        {
          "indexed": true,
          "internalType": "bytes32",
          "name": "id",
          "type": "bytes32"
        },
        {
          "indexed": true,
          "internalType": "address",
          "name": "from",
          "type": "address"
        },
        {
          "indexed": false,
          "internalType": "uint256",
          "name": "amount",
          "type": "uint256"
        }
      ],
      "name": "canceled",
      "type": "event"
    },
    {
      "anonymous": false,
      "inputs": [
        {
          "indexed": true,
          "internalType": "bytes32",
          "name": "id",
          "type": "bytes32"
        },
        {
          "indexed": true,
          "internalType": "address",
          "name": "from",
          "type": "address"
        }
      ],
      "name": "created",
      "type": "event"
    },
    {
      "anonymous": false,
      "inputs": [
        {
          "indexed": true,
          "internalType": "bytes32",
          "name": "id",
          "type": "bytes32"
        },
        {
          "indexed": true,
          "internalType": "address",
          "name": "from",
          "type": "address"
        },
        {
          "indexed": false,
          "internalType": "uint256",
          "name": "amount",
          "type": "uint256"
        }
      ],
      "name": "withdrawn",
      "type": "event"
    },
    {
      "inputs": [
        {
          "internalType": "bytes32",
          "name": "id",
          "type": "bytes32"
        },
        {
          "internalType": "address",
          "name": "receiver",
          "type": "address"
        },
        {
          "internalType": "address",
          "name": "token",
          "type": "address"
        },
        {
          "internalType": "uint256",
          "name": "amount",
          "type": "uint256"
        },
        {
          "internalType": "bytes32",
          "name": "hashlock",
          "type": "bytes32"
        },
        {
          "internalType": "bool",
          "name": "isSeller",
          "type": "bool"
        }
      ],
      "name": "create",
      "outputs": [],
      "stateMutability": "nonpayable",
      "type": "function"
    },
    {
      "inputs": [
        {
          "internalType": "bytes32",
          "name": "contractId",
          "type": "bytes32"
        }
      ],
      "name": "getSecretKey",
      "outputs": [
        {
          "internalType": "string",
          "name": "",
          "type": "string"
        }
      ],
      "stateMutability": "view",
      "type": "function"
    },
    {
      "inputs": [
        {
          "internalType": "bytes32",
          "name": "contractId",
          "type": "bytes32"
        }
      ],
      "name": "getTimelock",
      "outputs": [
        {
          "internalType": "uint256",
          "name": "",
          "type": "uint256"
        }
      ],
      "stateMutability": "view",
      "type": "function"
    },
    {
      "inputs": [
        {
          "internalType": "bytes32",
          "name": "contractId",
          "type": "bytes32"
        }
      ],
      "name": "isInProgress",
      "outputs": [
        {
          "internalType": "bool",
          "name": "",
          "type": "bool"
        }
      ],
      "stateMutability": "view",
      "type": "function"
    },
    {
      "inputs": [
        {
          "internalType": "bytes32",
          "name": "contractId",
          "type": "bytes32"
        },
        {
          "internalType": "uint256",
          "name": "nonce",
          "type": "uint256"
        },
        {
          "internalType": "bytes",
          "name": "signatureAdmin",
          "type": "bytes"
        }
      ],
      "name": "refund",
      "outputs": [],
      "stateMutability": "nonpayable",
      "type": "function"
    },
    {
      "inputs": [
        {
          "internalType": "bytes32",
          "name": "contractId",
          "type": "bytes32"
        },
        {
          "internalType": "string",
          "name": "key",
          "type": "string"
        }
      ],
      "name": "withdraw",
      "outputs": [],
      "stateMutability": "nonpayable",
      "type": "function"
    }
  ],
  "bytecode": "0x608060405234801561001057600080fd5b50336000806101000a81548173ffffffffffffffffffffffffffffffffffffffff021916908373ffffffffffffffffffffffffffffffffffffffff160217905550612816806100606000396000f3fe608060405234801561001057600080fd5b50600436106100625760003560e01c806306a53665146100675780636d955b24146100835780636e968b041461009f57806379a55806146100cf578063e45464fd146100ff578063fc443cd91461011b575b600080fd5b610081600480360381019061007c9190611803565b61014b565b005b61009d60048036038101906100989190611936565b610557565b005b6100b960048036038101906100b491906119a5565b610929565b6040516100c691906119ed565b60405180910390f35b6100e960048036038101906100e491906119a5565b610c16565b6040516100f69190611a17565b60405180910390f35b61011960048036038101906101149190611abc565b610cdd565b005b610135600480360381019061013091906119a5565b611154565b6040516101429190611bc8565b60405180910390f35b81600073ffffffffffffffffffffffffffffffffffffffff166001600083815260200190815260200160002060000160009054906101000a900473ffffffffffffffffffffffffffffffffffffffff1673ffffffffffffffffffffffffffffffffffffffff16036101f1576040517f08c379a00000000000000000000000000000000000000000000000000000000081526004016101e890611c36565b60405180910390fd5b826001600381111561020657610205611c56565b5b6001600083815260200190815260200160002060070160009054906101000a900460ff16600381111561023c5761023b611c56565b5b1461027c576040517f08c379a000000000000000000000000000000000000000000000000000000000815260040161027390611cd1565b60405180910390fd5b60006001600086815260200190815260200160002090503373ffffffffffffffffffffffffffffffffffffffff168160010160009054906101000a900473ffffffffffffffffffffffffffffffffffffffff1673ffffffffffffffffffffffffffffffffffffffff1614610325576040517f08c379a000000000000000000000000000000000000000000000000000000000815260040161031c90611d3d565b60405180910390fd5b80600501548460405160200161033b9190611d99565b6040516020818303038152906040528051906020012014610391576040517f08c379a000000000000000000000000000000000000000000000000000000000815260040161038890611dfc565b60405180910390fd5b8060020160009054906101000a900473ffffffffffffffffffffffffffffffffffffffff1673ffffffffffffffffffffffffffffffffffffffff1663a9059cbb8260010160009054906101000a900473ffffffffffffffffffffffffffffffffffffffff1683600301546040518363ffffffff1660e01b8152600401610418929190611e2b565b6020604051808303816000875af1158015610437573d6000803e3d6000fd5b505050506040513d601f19601f8201168201806040525081019061045b9190611e69565b61049a576040517f08c379a000000000000000000000000000000000000000000000000000000000815260040161049190611ee2565b60405180910390fd5b838160040190816104ab919061210e565b5060028160070160006101000a81548160ff021916908360038111156104d4576104d3611c56565b5b02179055508060010160009054906101000a900473ffffffffffffffffffffffffffffffffffffffff1673ffffffffffffffffffffffffffffffffffffffff16857f7de9fd34e1c0a314d284fe1553fce3bb38b03aa4af4b88cd82c1f6767ca8cc2883600301546040516105489190611a17565b60405180910390a35050505050565b82600073ffffffffffffffffffffffffffffffffffffffff166001600083815260200190815260200160002060000160009054906101000a900473ffffffffffffffffffffffffffffffffffffffff1673ffffffffffffffffffffffffffffffffffffffff16036105fd576040517f08c379a00000000000000000000000000000000000000000000000000000000081526004016105f490611c36565b60405180910390fd5b836001600381111561061257610611611c56565b5b6001600083815260200190815260200160002060070160009054906101000a900460ff16600381111561064857610647611c56565b5b14610688576040517f08c379a000000000000000000000000000000000000000000000000000000000815260040161067f90611cd1565b60405180910390fd5b600085338660405160200161069f9392919061226a565b60405160208183030381529060405280519060200120905060006106c282611347565b90506106ce818661137d565b73ffffffffffffffffffffffffffffffffffffffff1660008054906101000a900473ffffffffffffffffffffffffffffffffffffffff1673ffffffffffffffffffffffffffffffffffffffff161461075b576040517f08c379a0000000000000000000000000000000000000000000000000000000008152600401610752906122f3565b60405180910390fd5b60006001600089815260200190815260200160002090508060020160009054906101000a900473ffffffffffffffffffffffffffffffffffffffff1673ffffffffffffffffffffffffffffffffffffffff1663a9059cbb8260000160009054906101000a900473ffffffffffffffffffffffffffffffffffffffff1683600301546040518363ffffffff1660e01b81526004016107f9929190611e2b565b6020604051808303816000875af1158015610818573d6000803e3d6000fd5b505050506040513d601f19601f8201168201806040525081019061083c9190611e69565b61087b576040517f08c379a00000000000000000000000000000000000000000000000000000000081526004016108729061235f565b60405180910390fd5b60038160070160006101000a81548160ff021916908360038111156108a3576108a2611c56565b5b02179055508060000160009054906101000a900473ffffffffffffffffffffffffffffffffffffffff1673ffffffffffffffffffffffffffffffffffffffff16887fce1fbacea7f745c89680bdb99975ce1e5f6a7381689e57cc3662f45bbd341a9483600301546040516109179190611a17565b60405180910390a35050505050505050565b600081600073ffffffffffffffffffffffffffffffffffffffff166001600083815260200190815260200160002060000160009054906101000a900473ffffffffffffffffffffffffffffffffffffffff1673ffffffffffffffffffffffffffffffffffffffff16036109d1576040517f08c379a00000000000000000000000000000000000000000000000000000000081526004016109c890611c36565b60405180910390fd5b600060016000858152602001908152602001600020604051806101000160405290816000820160009054906101000a900473ffffffffffffffffffffffffffffffffffffffff1673ffffffffffffffffffffffffffffffffffffffff1673ffffffffffffffffffffffffffffffffffffffff1681526020016001820160009054906101000a900473ffffffffffffffffffffffffffffffffffffffff1673ffffffffffffffffffffffffffffffffffffffff1673ffffffffffffffffffffffffffffffffffffffff1681526020016002820160009054906101000a900473ffffffffffffffffffffffffffffffffffffffff1673ffffffffffffffffffffffffffffffffffffffff1673ffffffffffffffffffffffffffffffffffffffff16815260200160038201548152602001600482018054610b0e90611f31565b80601f0160208091040260200160405190810160405280929190818152602001828054610b3a90611f31565b8015610b875780601f10610b5c57610100808354040283529160200191610b87565b820191906000526020600020905b815481529060010190602001808311610b6a57829003601f168201915b5050505050815260200160058201548152602001600682015481526020016007820160009054906101000a900460ff166003811115610bc957610bc8611c56565b5b6003811115610bdb57610bda611c56565b5b81525050905060016003811115610bf557610bf4611c56565b5b8160e001516003811115610c0c57610c0b611c56565b5b1492505050919050565b600081600073ffffffffffffffffffffffffffffffffffffffff166001600083815260200190815260200160002060000160009054906101000a900473ffffffffffffffffffffffffffffffffffffffff1673ffffffffffffffffffffffffffffffffffffffff1603610cbe576040517f08c379a0000000000000000000000000000000000000000000000000000000008152600401610cb590611c36565b60405180910390fd5b6001600084815260200190815260200160002060060154915050919050565b85600073ffffffffffffffffffffffffffffffffffffffff166001600083815260200190815260200160002060000160009054906101000a900473ffffffffffffffffffffffffffffffffffffffff1673ffffffffffffffffffffffffffffffffffffffff1614610d83576040517f08c379a0000000000000000000000000000000000000000000000000000000008152600401610d7a906123cb565b60405180910390fd5b8573ffffffffffffffffffffffffffffffffffffffff163373ffffffffffffffffffffffffffffffffffffffff1603610df1576040517f08c379a0000000000000000000000000000000000000000000000000000000008152600401610de890612437565b60405180910390fd5b600082610e0857610e038888336113a4565b610e14565b610e138833896113a4565b5b90506040518061010001604052803373ffffffffffffffffffffffffffffffffffffffff1681526020018873ffffffffffffffffffffffffffffffffffffffff1681526020018773ffffffffffffffffffffffffffffffffffffffff1681526020018681526020016040518060200160405280600081525081526020018581526020016201518042610ea69190612486565b815260200160016003811115610ebf57610ebe611c56565b5b8152506001600083815260200190815260200160002060008201518160000160006101000a81548173ffffffffffffffffffffffffffffffffffffffff021916908373ffffffffffffffffffffffffffffffffffffffff16021790555060208201518160010160006101000a81548173ffffffffffffffffffffffffffffffffffffffff021916908373ffffffffffffffffffffffffffffffffffffffff16021790555060408201518160020160006101000a81548173ffffffffffffffffffffffffffffffffffffffff021916908373ffffffffffffffffffffffffffffffffffffffff160217905550606082015181600301556080820151816004019081610fc9919061210e565b5060a0820151816005015560c0820151816006015560e08201518160070160006101000a81548160ff0219169083600381111561100957611008611c56565b5b02179055509050506001600082815260200190815260200160002060020160009054906101000a900473ffffffffffffffffffffffffffffffffffffffff1673ffffffffffffffffffffffffffffffffffffffff166323b872dd3330886040518463ffffffff1660e01b8152600401611084939291906124ba565b6020604051808303816000875af11580156110a3573d6000803e3d6000fd5b505050506040513d601f19601f820116820180604052508101906110c79190611e69565b611106576040517f08c379a00000000000000000000000000000000000000000000000000000000081526004016110fd9061253d565b60405180910390fd5b3373ffffffffffffffffffffffffffffffffffffffff16817f597868596d6ce2373d6cca48fc876374194d4e581dee04262121463a33fa35d960405160405180910390a35050505050505050565b606081600073ffffffffffffffffffffffffffffffffffffffff166001600083815260200190815260200160002060000160009054906101000a900473ffffffffffffffffffffffffffffffffffffffff1673ffffffffffffffffffffffffffffffffffffffff16036111fc576040517f08c379a00000000000000000000000000000000000000000000000000000000081526004016111f390611c36565b60405180910390fd5b6001600084815260200190815260200160002060000160009054906101000a900473ffffffffffffffffffffffffffffffffffffffff1673ffffffffffffffffffffffffffffffffffffffff163373ffffffffffffffffffffffffffffffffffffffff16146112a0576040517f08c379a0000000000000000000000000000000000000000000000000000000008152600401611297906125a9565b60405180910390fd5b6001600084815260200190815260200160002060040180546112c190611f31565b80601f01602080910402602001604051908101604052809291908181526020018280546112ed90611f31565b801561133a5780601f1061130f5761010080835404028352916020019161133a565b820191906000526020600020905b81548152906001019060200180831161131d57829003601f168201915b5050505050915050919050565b60007f19457468657265756d205369676e6564204d6573736167653a0a33320000000060005281601c52603c6000209050919050565b600080600061138c85856113da565b915091506113998161142b565b819250505092915050565b60008383836040516020016113bb939291906125c9565b6040516020818303038152906040528051906020012090509392505050565b600080604183510361141b5760008060006020860151925060408601519150606086015160001a905061140f87828585611591565b94509450505050611424565b60006002915091505b9250929050565b6000600481111561143f5761143e611c56565b5b81600481111561145257611451611c56565b5b031561158e576001600481111561146c5761146b611c56565b5b81600481111561147f5761147e611c56565b5b036114bf576040517f08c379a00000000000000000000000000000000000000000000000000000000081526004016114b690612652565b60405180910390fd5b600260048111156114d3576114d2611c56565b5b8160048111156114e6576114e5611c56565b5b03611526576040517f08c379a000000000000000000000000000000000000000000000000000000000815260040161151d906126be565b60405180910390fd5b6003600481111561153a57611539611c56565b5b81600481111561154d5761154c611c56565b5b0361158d576040517f08c379a000000000000000000000000000000000000000000000000000000000815260040161158490612750565b60405180910390fd5b5b50565b6000807f7fffffffffffffffffffffffffffffff5d576e7357a4501ddfe92f46681b20a08360001c11156115cc57600060039150915061166a565b6000600187878787604051600081526020016040526040516115f1949392919061279b565b6020604051602081039080840390855afa158015611613573d6000803e3d6000fd5b505050602060405103519050600073ffffffffffffffffffffffffffffffffffffffff168173ffffffffffffffffffffffffffffffffffffffff16036116615760006001925092505061166a565b80600092509250505b94509492505050565b6000604051905090565b600080fd5b600080fd5b6000819050919050565b61169a81611687565b81146116a557600080fd5b50565b6000813590506116b781611691565b92915050565b600080fd5b600080fd5b6000601f19601f8301169050919050565b7f4e487b7100000000000000000000000000000000000000000000000000000000600052604160045260246000fd5b611710826116c7565b810181811067ffffffffffffffff8211171561172f5761172e6116d8565b5b80604052505050565b6000611742611673565b905061174e8282611707565b919050565b600067ffffffffffffffff82111561176e5761176d6116d8565b5b611777826116c7565b9050602081019050919050565b82818337600083830152505050565b60006117a66117a184611753565b611738565b9050828152602081018484840111156117c2576117c16116c2565b5b6117cd848285611784565b509392505050565b600082601f8301126117ea576117e96116bd565b5b81356117fa848260208601611793565b91505092915050565b6000806040838503121561181a5761181961167d565b5b6000611828858286016116a8565b925050602083013567ffffffffffffffff81111561184957611848611682565b5b611855858286016117d5565b9150509250929050565b6000819050919050565b6118728161185f565b811461187d57600080fd5b50565b60008135905061188f81611869565b92915050565b600067ffffffffffffffff8211156118b0576118af6116d8565b5b6118b9826116c7565b9050602081019050919050565b60006118d96118d484611895565b611738565b9050828152602081018484840111156118f5576118f46116c2565b5b611900848285611784565b509392505050565b600082601f83011261191d5761191c6116bd565b5b813561192d8482602086016118c6565b91505092915050565b60008060006060848603121561194f5761194e61167d565b5b600061195d868287016116a8565b935050602061196e86828701611880565b925050604084013567ffffffffffffffff81111561198f5761198e611682565b5b61199b86828701611908565b9150509250925092565b6000602082840312156119bb576119ba61167d565b5b60006119c9848285016116a8565b91505092915050565b60008115159050919050565b6119e7816119d2565b82525050565b6000602082019050611a0260008301846119de565b92915050565b611a118161185f565b82525050565b6000602082019050611a2c6000830184611a08565b92915050565b600073ffffffffffffffffffffffffffffffffffffffff82169050919050565b6000611a5d82611a32565b9050919050565b611a6d81611a52565b8114611a7857600080fd5b50565b600081359050611a8a81611a64565b92915050565b611a99816119d2565b8114611aa457600080fd5b50565b600081359050611ab681611a90565b92915050565b60008060008060008060c08789031215611ad957611ad861167d565b5b6000611ae789828a016116a8565b9650506020611af889828a01611a7b565b9550506040611b0989828a01611a7b565b9450506060611b1a89828a01611880565b9350506080611b2b89828a016116a8565b92505060a0611b3c89828a01611aa7565b9150509295509295509295565b600081519050919050565b600082825260208201905092915050565b60005b83811015611b83578082015181840152602081019050611b68565b60008484015250505050565b6000611b9a82611b49565b611ba48185611b54565b9350611bb4818560208601611b65565b611bbd816116c7565b840191505092915050565b60006020820190508181036000830152611be28184611b8f565b905092915050565b7f54686973206f7264657220646f65736e27742065786973747300000000000000600082015250565b6000611c20601983611b54565b9150611c2b82611bea565b602082019050919050565b60006020820190508181036000830152611c4f81611c13565b9050919050565b7f4e487b7100000000000000000000000000000000000000000000000000000000600052602160045260246000fd5b7f54686973207472616e73616374696f6e20686173206265656e20646f6e650000600082015250565b6000611cbb601e83611b54565b9150611cc682611c85565b602082019050919050565b60006020820190508181036000830152611cea81611cae565b9050919050565b7f4f6e6c792072656365697665722063616e207769746864726177000000000000600082015250565b6000611d27601a83611b54565b9150611d3282611cf1565b602082019050919050565b60006020820190508181036000830152611d5681611d1a565b9050919050565b600081905092915050565b6000611d7382611b49565b611d7d8185611d5d565b9350611d8d818560208601611b65565b80840191505092915050565b6000611da58284611d68565b915081905092915050565b7f496e636f7272656374206b657900000000000000000000000000000000000000600082015250565b6000611de6600d83611b54565b9150611df182611db0565b602082019050919050565b60006020820190508181036000830152611e1581611dd9565b9050919050565b611e2581611a52565b82525050565b6000604082019050611e406000830185611e1c565b611e4d6020830184611a08565b9392505050565b600081519050611e6381611a90565b92915050565b600060208284031215611e7f57611e7e61167d565b5b6000611e8d84828501611e54565b91505092915050565b7f5769746864726177206661696c65640000000000000000000000000000000000600082015250565b6000611ecc600f83611b54565b9150611ed782611e96565b602082019050919050565b60006020820190508181036000830152611efb81611ebf565b9050919050565b7f4e487b7100000000000000000000000000000000000000000000000000000000600052602260045260246000fd5b60006002820490506001821680611f4957607f821691505b602082108103611f5c57611f5b611f02565b5b50919050565b60008190508160005260206000209050919050565b60006020601f8301049050919050565b600082821b905092915050565b600060088302611fc47fffffffffffffffffffffffffffffffffffffffffffffffffffffffffffffffff82611f87565b611fce8683611f87565b95508019841693508086168417925050509392505050565b6000819050919050565b600061200b6120066120018461185f565b611fe6565b61185f565b9050919050565b6000819050919050565b61202583611ff0565b61203961203182612012565b848454611f94565b825550505050565b600090565b61204e612041565b61205981848461201c565b505050565b5b8181101561207d57612072600082612046565b60018101905061205f565b5050565b601f8211156120c25761209381611f62565b61209c84611f77565b810160208510156120ab578190505b6120bf6120b785611f77565b83018261205e565b50505b505050565b600082821c905092915050565b60006120e5600019846008026120c7565b1980831691505092915050565b60006120fe83836120d4565b9150826002028217905092915050565b61211782611b49565b67ffffffffffffffff8111156121305761212f6116d8565b5b61213a8254611f31565b612145828285612081565b600060209050601f8311600181146121785760008415612166578287015190505b61217085826120f2565b8655506121d8565b601f19841661218686611f62565b60005b828110156121ae57848901518255600182019150602085019450602081019050612189565b868310156121cb57848901516121c7601f8916826120d4565b8355505b6001600288020188555050505b505050505050565b6000819050919050565b6121fb6121f682611687565b6121e0565b82525050565b60008160601b9050919050565b600061221982612201565b9050919050565b600061222b8261220e565b9050919050565b61224361223e82611a52565b612220565b82525050565b6000819050919050565b61226461225f8261185f565b612249565b82525050565b600061227682866121ea565b6020820191506122868285612232565b6014820191506122968284612253565b602082019150819050949350505050565b7f496e76616c6964207369676e6174757265000000000000000000000000000000600082015250565b60006122dd601183611b54565b91506122e8826122a7565b602082019050919050565b6000602082019050818103600083015261230c816122d0565b9050919050565b7f526566756e64206661696c656400000000000000000000000000000000000000600082015250565b6000612349600d83611b54565b915061235482612313565b602082019050919050565b600060208201905081810360008301526123788161233c565b9050919050565b7f4475706c6963617465207472616e73616374696f6e2062792069640000000000600082015250565b60006123b5601b83611b54565b91506123c08261237f565b602082019050919050565b600060208201905081810360008301526123e4816123a8565b9050919050565b7f5472616e73616374696f6e20696e76616c696400000000000000000000000000600082015250565b6000612421601383611b54565b915061242c826123eb565b602082019050919050565b6000602082019050818103600083015261245081612414565b9050919050565b7f4e487b7100000000000000000000000000000000000000000000000000000000600052601160045260246000fd5b60006124918261185f565b915061249c8361185f565b92508282019050808211156124b4576124b3612457565b5b92915050565b60006060820190506124cf6000830186611e1c565b6124dc6020830185611e1c565b6124e96040830184611a08565b949350505050565b7f5472616e7366657220746f20636f6e7472616374206661696c65640000000000600082015250565b6000612527601b83611b54565b9150612532826124f1565b602082019050919050565b600060208201905081810360008301526125568161251a565b9050919050565b7f4f6e6c79206f776e65722063616e2067657420736563726574206b6579000000600082015250565b6000612593601d83611b54565b915061259e8261255d565b602082019050919050565b600060208201905081810360008301526125c281612586565b9050919050565b60006125d582866121ea565b6020820191506125e58285612232565b6014820191506125f58284612232565b601482019150819050949350505050565b7f45434453413a20696e76616c6964207369676e61747572650000000000000000600082015250565b600061263c601883611b54565b915061264782612606565b602082019050919050565b6000602082019050818103600083015261266b8161262f565b9050919050565b7f45434453413a20696e76616c6964207369676e6174757265206c656e67746800600082015250565b60006126a8601f83611b54565b91506126b382612672565b602082019050919050565b600060208201905081810360008301526126d78161269b565b9050919050565b7f45434453413a20696e76616c6964207369676e6174757265202773272076616c60008201527f7565000000000000000000000000000000000000000000000000000000000000602082015250565b600061273a602283611b54565b9150612745826126de565b604082019050919050565b600060208201905081810360008301526127698161272d565b9050919050565b61277981611687565b82525050565b600060ff82169050919050565b6127958161277f565b82525050565b60006080820190506127b06000830187612770565b6127bd602083018661278c565b6127ca6040830185612770565b6127d76060830184612770565b9594505050505056fea2646970667358221220a9565d75903c49d48bae0b6fc44411d8f41ef19bfcaa73923394e4a330fa5ba464736f6c63430008120033",
  "linkReferences": {},
  "deployedLinkReferences": {}
}