{
  "_format": "hh-sol-artifact-1",
  "contractName": "SwapTwoChain",
  "sourceName": "contracts/SwapTwoChain.sol",
  "abi": [
    {
      "inputs": [],
      "stateMutability": "nonpayable",
      "type": "constructor"
    },
    {
      "anonymous": false,
      "inputs": [
        {
          "indexed": false,
          "internalType": "address",
          "name": "from",
          "type": "address"
        },
        {
          "indexed": false,
          "internalType": "uint256",
          "name": "amount",
          "type": "uint256"
        }
      ],
      "name": "canceled",
      "type": "event"
    },
    {
      "anonymous": false,
      "inputs": [
        {
          "indexed": false,
          "internalType": "address",
          "name": "from",
          "type": "address"
        },
        {
          "indexed": false,
          "internalType": "uint256",
          "name": "amount",
          "type": "uint256"
        }
      ],
      "name": "withdrawn",
      "type": "event"
    },
    {
      "inputs": [
        {
          "internalType": "string",
          "name": "id",
          "type": "string"
        },
        {
          "internalType": "address",
          "name": "receiver",
          "type": "address"
        },
        {
          "internalType": "address",
          "name": "token",
          "type": "address"
        },
        {
          "internalType": "uint256",
          "name": "amount",
          "type": "uint256"
        },
        {
          "internalType": "string",
          "name": "key",
          "type": "string"
        },
        {
          "internalType": "bytes32",
          "name": "hashlock",
          "type": "bytes32"
        },
        {
          "internalType": "uint256",
          "name": "timelock",
          "type": "uint256"
        }
      ],
      "name": "create",
      "outputs": [
        {
          "internalType": "bool",
          "name": "",
          "type": "bool"
        }
      ],
      "stateMutability": "nonpayable",
      "type": "function"
    },
    {
      "inputs": [
        {
          "internalType": "string",
          "name": "txId",
          "type": "string"
        }
      ],
      "name": "getSecretKey",
      "outputs": [
        {
          "internalType": "string",
          "name": "",
          "type": "string"
        }
      ],
      "stateMutability": "view",
      "type": "function"
    },
    {
      "inputs": [
        {
          "internalType": "string",
          "name": "txID",
          "type": "string"
        }
      ],
      "name": "isEndLockContract",
      "outputs": [
        {
          "internalType": "bool",
          "name": "",
          "type": "bool"
        }
      ],
      "stateMutability": "view",
      "type": "function"
    },
    {
      "inputs": [
        {
          "internalType": "string",
          "name": "txID",
          "type": "string"
        },
        {
          "internalType": "uint256",
          "name": "nonce",
          "type": "uint256"
        },
        {
          "internalType": "bytes",
          "name": "signatureAdmin",
          "type": "bytes"
        }
      ],
      "name": "refund",
      "outputs": [],
      "stateMutability": "nonpayable",
      "type": "function"
    },
    {
      "inputs": [
        {
          "internalType": "string",
          "name": "txID",
          "type": "string"
        },
        {
          "internalType": "uint256",
          "name": "timelock",
          "type": "uint256"
        }
      ],
      "name": "repost",
      "outputs": [],
      "stateMutability": "nonpayable",
      "type": "function"
    },
    {
      "inputs": [
        {
          "internalType": "string",
          "name": "txId",
          "type": "string"
        },
        {
          "internalType": "string",
          "name": "_key",
          "type": "string"
        }
      ],
      "name": "withdraw",
      "outputs": [],
      "stateMutability": "nonpayable",
      "type": "function"
    }
  ],
  "bytecode": "0x608060405234801561001057600080fd5b50336000806101000a81548173ffffffffffffffffffffffffffffffffffffffff021916908373ffffffffffffffffffffffffffffffffffffffff16021790555061277c806100606000396000f3fe608060405234801561001057600080fd5b50600436106100625760003560e01c806302db271314610067578063073379f61461009757806320b2e7bf146100b35780632f0bb145146100cf578063b49cba74146100ff578063bfe76aaf1461012f575b600080fd5b610081600480360381019061007c9190611588565b61014b565b60405161008e9190611650565b60405180910390f35b6100b160048036038101906100ac9190611749565b61035d565b005b6100cd60048036038101906100c891906117d4565b610663565b005b6100e960048036038101906100e491906118e0565b610993565b6040516100f691906119d5565b60405180910390f35b61011960048036038101906101149190611588565b610d8e565b60405161012691906119d5565b60405180910390f35b610149600480360381019061014491906119f0565b610fc5565b005b6060600073ffffffffffffffffffffffffffffffffffffffff166001836040516101759190611a88565b908152602001604051809103902060000160009054906101000a900473ffffffffffffffffffffffffffffffffffffffff1673ffffffffffffffffffffffffffffffffffffffff16036101fd576040517f08c379a00000000000000000000000000000000000000000000000000000000081526004016101f490611aeb565b60405180910390fd5b3373ffffffffffffffffffffffffffffffffffffffff166001836040516102249190611a88565b908152602001604051809103902060000160009054906101000a900473ffffffffffffffffffffffffffffffffffffffff1673ffffffffffffffffffffffffffffffffffffffff16146102ac576040517f08c379a00000000000000000000000000000000000000000000000000000000081526004016102a390611b7d565b60405180910390fd5b6001826040516102bc9190611a88565b908152602001604051809103902060040180546102d890611bcc565b80601f016020809104026020016040519081016040528092919081815260200182805461030490611bcc565b80156103515780601f1061032657610100808354040283529160200191610351565b820191906000526020600020905b81548152906001019060200180831161033457829003601f168201915b50505050509050919050565b600083338460405160200161037493929190611c66565b604051602081830303815290604052805190602001209050600061039782611138565b90506103a3818461116e565b73ffffffffffffffffffffffffffffffffffffffff1660008054906101000a900473ffffffffffffffffffffffffffffffffffffffff1673ffffffffffffffffffffffffffffffffffffffff1614610430576040517f08c379a000000000000000000000000000000000000000000000000000000000815260040161042790611ceb565b60405180910390fd5b60006001866040516104429190611a88565b90815260200160405180910390209050600015158160070160009054906101000a900460ff16151514801561048c5750600015158160070160019054906101000a900460ff161515145b6104cb576040517f08c379a00000000000000000000000000000000000000000000000000000000081526004016104c290611d57565b60405180910390fd5b4281600601541115610512576040517f08c379a000000000000000000000000000000000000000000000000000000000815260040161050990611dc3565b60405180910390fd5b8060020160009054906101000a900473ffffffffffffffffffffffffffffffffffffffff1673ffffffffffffffffffffffffffffffffffffffff1663a9059cbb8260000160009054906101000a900473ffffffffffffffffffffffffffffffffffffffff1683600301546040518363ffffffff1660e01b8152600401610599929190611e01565b6020604051808303816000875af11580156105b8573d6000803e3d6000fd5b505050506040513d601f19601f820116820180604052508101906105dc9190611e56565b5060018160070160016101000a81548160ff0219169083151502179055507fb0fff5d2b17a855b0a22a0965386bcf2f7a8a364c81497c7ea721f3b771ba47e8160000160009054906101000a900473ffffffffffffffffffffffffffffffffffffffff168260030154604051610653929190611e01565b60405180910390a1505050505050565b60006001836040516106759190611a88565b90815260200160405180910390209050600015158160070160019054906101000a900460ff161515146106dd576040517f08c379a00000000000000000000000000000000000000000000000000000000081526004016106d490611ecf565b60405180910390fd5b600015158160070160009054906101000a900460ff16151514610735576040517f08c379a000000000000000000000000000000000000000000000000000000000815260040161072c90611f3b565b60405180910390fd5b3373ffffffffffffffffffffffffffffffffffffffff168160010160009054906101000a900473ffffffffffffffffffffffffffffffffffffffff1673ffffffffffffffffffffffffffffffffffffffff16146107c7576040517f08c379a00000000000000000000000000000000000000000000000000000000081526004016107be90611fa7565b60405180910390fd5b8060050154826040516020016107dd9190611a88565b6040516020818303038152906040528051906020012014610833576040517f08c379a000000000000000000000000000000000000000000000000000000000815260040161082a90612013565b60405180910390fd5b8060020160009054906101000a900473ffffffffffffffffffffffffffffffffffffffff1673ffffffffffffffffffffffffffffffffffffffff1663a9059cbb8260010160009054906101000a900473ffffffffffffffffffffffffffffffffffffffff1683600301546040518363ffffffff1660e01b81526004016108ba929190611e01565b6020604051808303816000875af11580156108d9573d6000803e3d6000fd5b505050506040513d601f19601f820116820180604052508101906108fd9190611e56565b508181600401908161090f91906121df565b5060018160070160006101000a81548160ff0219169083151502179055507f6fb24f3ad0678f9d138e80b17293be051d87911eb34e9e60f0d1b9c3805e885a8160010160009054906101000a900473ffffffffffffffffffffffffffffffffffffffff168260030154604051610986929190611e01565b60405180910390a1505050565b60008073ffffffffffffffffffffffffffffffffffffffff166001896040516109bc9190611a88565b908152602001604051809103902060000160009054906101000a900473ffffffffffffffffffffffffffffffffffffffff1673ffffffffffffffffffffffffffffffffffffffff1614610a44576040517f08c379a0000000000000000000000000000000000000000000000000000000008152600401610a3b906122fd565b60405180910390fd5b8673ffffffffffffffffffffffffffffffffffffffff163373ffffffffffffffffffffffffffffffffffffffff1603610ab2576040517f08c379a0000000000000000000000000000000000000000000000000000000008152600401610aa990612369565b60405180910390fd5b6040518061012001604052803373ffffffffffffffffffffffffffffffffffffffff1681526020018873ffffffffffffffffffffffffffffffffffffffff1681526020018773ffffffffffffffffffffffffffffffffffffffff16815260200186815260200185815260200184815260200183610e10610b3291906123b8565b42610b3d91906123fa565b815260200160001515815260200160001515815250600189604051610b629190611a88565b908152602001604051809103902060008201518160000160006101000a81548173ffffffffffffffffffffffffffffffffffffffff021916908373ffffffffffffffffffffffffffffffffffffffff16021790555060208201518160010160006101000a81548173ffffffffffffffffffffffffffffffffffffffff021916908373ffffffffffffffffffffffffffffffffffffffff16021790555060408201518160020160006101000a81548173ffffffffffffffffffffffffffffffffffffffff021916908373ffffffffffffffffffffffffffffffffffffffff160217905550606082015181600301556080820151816004019081610c6491906121df565b5060a0820151816005015560c0820151816006015560e08201518160070160006101000a81548160ff0219169083151502179055506101008201518160070160016101000a81548160ff021916908315150217905550905050600188604051610ccd9190611a88565b908152602001604051809103902060020160009054906101000a900473ffffffffffffffffffffffffffffffffffffffff1673ffffffffffffffffffffffffffffffffffffffff166323b872dd3330886040518463ffffffff1660e01b8152600401610d3b9392919061242e565b6020604051808303816000875af1158015610d5a573d6000803e3d6000fd5b505050506040513d601f19601f82011682018060405250810190610d7e9190611e56565b5060019050979650505050505050565b600080600183604051610da19190611a88565b9081526020016040518091039020604051806101200160405290816000820160009054906101000a900473ffffffffffffffffffffffffffffffffffffffff1673ffffffffffffffffffffffffffffffffffffffff1673ffffffffffffffffffffffffffffffffffffffff1681526020016001820160009054906101000a900473ffffffffffffffffffffffffffffffffffffffff1673ffffffffffffffffffffffffffffffffffffffff1673ffffffffffffffffffffffffffffffffffffffff1681526020016002820160009054906101000a900473ffffffffffffffffffffffffffffffffffffffff1673ffffffffffffffffffffffffffffffffffffffff1673ffffffffffffffffffffffffffffffffffffffff16815260200160038201548152602001600482018054610ed790611bcc565b80601f0160208091040260200160405190810160405280929190818152602001828054610f0390611bcc565b8015610f505780601f10610f2557610100808354040283529160200191610f50565b820191906000526020600020905b815481529060010190602001808311610f3357829003601f168201915b5050505050815260200160058201548152602001600682015481526020016007820160009054906101000a900460ff161515151581526020016007820160019054906101000a900460ff1615151515815250509050428160c0015111610fba576001915050610fc0565b60009150505b919050565b6000600183604051610fd79190611a88565b908152602001604051809103902090503373ffffffffffffffffffffffffffffffffffffffff168160000160009054906101000a900473ffffffffffffffffffffffffffffffffffffffff1673ffffffffffffffffffffffffffffffffffffffff1614611079576040517f08c379a0000000000000000000000000000000000000000000000000000000008152600401611070906124b1565b60405180910390fd5b42816006015411156110c0576040517f08c379a00000000000000000000000000000000000000000000000000000000081526004016110b79061251d565b60405180910390fd5b8060070160019054906101000a900460ff1615611112576040517f08c379a000000000000000000000000000000000000000000000000000000000815260040161110990611ecf565b60405180910390fd5b81610e1061112091906123b8565b4261112b91906123fa565b8160060181905550505050565b60007f19457468657265756d205369676e6564204d6573736167653a0a33320000000060005281601c52603c6000209050919050565b600080600061117d8585611195565b9150915061118a816111e6565b819250505092915050565b60008060418351036111d65760008060006020860151925060408601519150606086015160001a90506111ca8782858561134c565b945094505050506111df565b60006002915091505b9250929050565b600060048111156111fa576111f961253d565b5b81600481111561120d5761120c61253d565b5b031561134957600160048111156112275761122661253d565b5b81600481111561123a5761123961253d565b5b0361127a576040517f08c379a0000000000000000000000000000000000000000000000000000000008152600401611271906125b8565b60405180910390fd5b6002600481111561128e5761128d61253d565b5b8160048111156112a1576112a061253d565b5b036112e1576040517f08c379a00000000000000000000000000000000000000000000000000000000081526004016112d890612624565b60405180910390fd5b600360048111156112f5576112f461253d565b5b8160048111156113085761130761253d565b5b03611348576040517f08c379a000000000000000000000000000000000000000000000000000000000815260040161133f906126b6565b60405180910390fd5b5b50565b6000807f7fffffffffffffffffffffffffffffff5d576e7357a4501ddfe92f46681b20a08360001c1115611387576000600391509150611425565b6000600187878787604051600081526020016040526040516113ac9493929190612701565b6020604051602081039080840390855afa1580156113ce573d6000803e3d6000fd5b505050602060405103519050600073ffffffffffffffffffffffffffffffffffffffff168173ffffffffffffffffffffffffffffffffffffffff160361141c57600060019250925050611425565b80600092509250505b94509492505050565b6000604051905090565b600080fd5b600080fd5b600080fd5b600080fd5b6000601f19601f8301169050919050565b7f4e487b7100000000000000000000000000000000000000000000000000000000600052604160045260246000fd5b6114958261144c565b810181811067ffffffffffffffff821117156114b4576114b361145d565b5b80604052505050565b60006114c761142e565b90506114d3828261148c565b919050565b600067ffffffffffffffff8211156114f3576114f261145d565b5b6114fc8261144c565b9050602081019050919050565b82818337600083830152505050565b600061152b611526846114d8565b6114bd565b90508281526020810184848401111561154757611546611447565b5b611552848285611509565b509392505050565b600082601f83011261156f5761156e611442565b5b813561157f848260208601611518565b91505092915050565b60006020828403121561159e5761159d611438565b5b600082013567ffffffffffffffff8111156115bc576115bb61143d565b5b6115c88482850161155a565b91505092915050565b600081519050919050565b600082825260208201905092915050565b60005b8381101561160b5780820151818401526020810190506115f0565b60008484015250505050565b6000611622826115d1565b61162c81856115dc565b935061163c8185602086016115ed565b6116458161144c565b840191505092915050565b6000602082019050818103600083015261166a8184611617565b905092915050565b6000819050919050565b61168581611672565b811461169057600080fd5b50565b6000813590506116a28161167c565b92915050565b600067ffffffffffffffff8211156116c3576116c261145d565b5b6116cc8261144c565b9050602081019050919050565b60006116ec6116e7846116a8565b6114bd565b90508281526020810184848401111561170857611707611447565b5b611713848285611509565b509392505050565b600082601f8301126117305761172f611442565b5b81356117408482602086016116d9565b91505092915050565b60008060006060848603121561176257611761611438565b5b600084013567ffffffffffffffff8111156117805761177f61143d565b5b61178c8682870161155a565b935050602061179d86828701611693565b925050604084013567ffffffffffffffff8111156117be576117bd61143d565b5b6117ca8682870161171b565b9150509250925092565b600080604083850312156117eb576117ea611438565b5b600083013567ffffffffffffffff8111156118095761180861143d565b5b6118158582860161155a565b925050602083013567ffffffffffffffff8111156118365761183561143d565b5b6118428582860161155a565b9150509250929050565b600073ffffffffffffffffffffffffffffffffffffffff82169050919050565b60006118778261184c565b9050919050565b6118878161186c565b811461189257600080fd5b50565b6000813590506118a48161187e565b92915050565b6000819050919050565b6118bd816118aa565b81146118c857600080fd5b50565b6000813590506118da816118b4565b92915050565b600080600080600080600060e0888a0312156118ff576118fe611438565b5b600088013567ffffffffffffffff81111561191d5761191c61143d565b5b6119298a828b0161155a565b975050602061193a8a828b01611895565b965050604061194b8a828b01611895565b955050606061195c8a828b01611693565b945050608088013567ffffffffffffffff81111561197d5761197c61143d565b5b6119898a828b0161155a565b93505060a061199a8a828b016118cb565b92505060c06119ab8a828b01611693565b91505092959891949750929550565b60008115159050919050565b6119cf816119ba565b82525050565b60006020820190506119ea60008301846119c6565b92915050565b60008060408385031215611a0757611a06611438565b5b600083013567ffffffffffffffff811115611a2557611a2461143d565b5b611a318582860161155a565b9250506020611a4285828601611693565b9150509250929050565b600081905092915050565b6000611a62826115d1565b611a6c8185611a4c565b9350611a7c8185602086016115ed565b80840191505092915050565b6000611a948284611a57565b915081905092915050565b7f54686973207472616e73616374696f6e20646f65736e27742065786973747300600082015250565b6000611ad5601f836115dc565b9150611ae082611a9f565b602082019050919050565b60006020820190508181036000830152611b0481611ac8565b9050919050565b7f4f6e6c79206f776e65722063616e206765742074686520736563726574206b6560008201527f7900000000000000000000000000000000000000000000000000000000000000602082015250565b6000611b676021836115dc565b9150611b7282611b0b565b604082019050919050565b60006020820190508181036000830152611b9681611b5a565b9050919050565b7f4e487b7100000000000000000000000000000000000000000000000000000000600052602260045260246000fd5b60006002820490506001821680611be457607f821691505b602082108103611bf757611bf6611b9d565b5b50919050565b60008160601b9050919050565b6000611c1582611bfd565b9050919050565b6000611c2782611c0a565b9050919050565b611c3f611c3a8261186c565b611c1c565b82525050565b6000819050919050565b611c60611c5b82611672565b611c45565b82525050565b6000611c728286611a57565b9150611c7e8285611c2e565b601482019150611c8e8284611c4f565b602082019150819050949350505050565b7f496e76616c6964207369676e6174757265000000000000000000000000000000600082015250565b6000611cd56011836115dc565b9150611ce082611c9f565b602082019050919050565b60006020820190508181036000830152611d0481611cc8565b9050919050565b7f43616e277420726566756e640000000000000000000000000000000000000000600082015250565b6000611d41600c836115dc565b9150611d4c82611d0b565b602082019050919050565b60006020820190508181036000830152611d7081611d34565b9050919050565b7f546f6f206561726c7920746f20726566756e6400000000000000000000000000600082015250565b6000611dad6013836115dc565b9150611db882611d77565b602082019050919050565b60006020820190508181036000830152611ddc81611da0565b9050919050565b611dec8161186c565b82525050565b611dfb81611672565b82525050565b6000604082019050611e166000830185611de3565b611e236020830184611df2565b9392505050565b611e33816119ba565b8114611e3e57600080fd5b50565b600081519050611e5081611e2a565b92915050565b600060208284031215611e6c57611e6b611438565b5b6000611e7a84828501611e41565b91505092915050565b7f5472616e73616374696f6e20686173206265656e2063616e63656c6564000000600082015250565b6000611eb9601d836115dc565b9150611ec482611e83565b602082019050919050565b60006020820190508181036000830152611ee881611eac565b9050919050565b7f5472616e73616374696f6e20686173206265656e2077697468647261776e0000600082015250565b6000611f25601e836115dc565b9150611f3082611eef565b602082019050919050565b60006020820190508181036000830152611f5481611f18565b9050919050565b7f4f6e6c792072656365697665722063616e207769746864726177000000000000600082015250565b6000611f91601a836115dc565b9150611f9c82611f5b565b602082019050919050565b60006020820190508181036000830152611fc081611f84565b9050919050565b7f496e636f7272656374206b657900000000000000000000000000000000000000600082015250565b6000611ffd600d836115dc565b915061200882611fc7565b602082019050919050565b6000602082019050818103600083015261202c81611ff0565b9050919050565b60008190508160005260206000209050919050565b60006020601f8301049050919050565b600082821b905092915050565b6000600883026120957fffffffffffffffffffffffffffffffffffffffffffffffffffffffffffffffff82612058565b61209f8683612058565b95508019841693508086168417925050509392505050565b6000819050919050565b60006120dc6120d76120d284611672565b6120b7565b611672565b9050919050565b6000819050919050565b6120f6836120c1565b61210a612102826120e3565b848454612065565b825550505050565b600090565b61211f612112565b61212a8184846120ed565b505050565b5b8181101561214e57612143600082612117565b600181019050612130565b5050565b601f8211156121935761216481612033565b61216d84612048565b8101602085101561217c578190505b61219061218885612048565b83018261212f565b50505b505050565b600082821c905092915050565b60006121b660001984600802612198565b1980831691505092915050565b60006121cf83836121a5565b9150826002028217905092915050565b6121e8826115d1565b67ffffffffffffffff8111156122015761220061145d565b5b61220b8254611bcc565b612216828285612152565b600060209050601f8311600181146122495760008415612237578287015190505b61224185826121c3565b8655506122a9565b601f19841661225786612033565b60005b8281101561227f5784890151825560018201915060208501945060208101905061225a565b8683101561229c5784890151612298601f8916826121a5565b8355505b6001600288020188555050505b505050505050565b7f4475706c6963617465207472616e73616374696f6e2062792069640000000000600082015250565b60006122e7601b836115dc565b91506122f2826122b1565b602082019050919050565b60006020820190508181036000830152612316816122da565b9050919050565b7f5472616e73616374696f6e20696e76616c696400000000000000000000000000600082015250565b60006123536013836115dc565b915061235e8261231d565b602082019050919050565b6000602082019050818103600083015261238281612346565b9050919050565b7f4e487b7100000000000000000000000000000000000000000000000000000000600052601160045260246000fd5b60006123c382611672565b91506123ce83611672565b92508282026123dc81611672565b915082820484148315176123f3576123f2612389565b5b5092915050565b600061240582611672565b915061241083611672565b925082820190508082111561242857612427612389565b5b92915050565b60006060820190506124436000830186611de3565b6124506020830185611de3565b61245d6040830184611df2565b949350505050565b7f4f6e6c792073656e6465722063616e207265706f737400000000000000000000600082015250565b600061249b6016836115dc565b91506124a682612465565b602082019050919050565b600060208201905081810360008301526124ca8161248e565b9050919050565b7f546f6f206561726c7920746f207265706f737400000000000000000000000000600082015250565b60006125076013836115dc565b9150612512826124d1565b602082019050919050565b60006020820190508181036000830152612536816124fa565b9050919050565b7f4e487b7100000000000000000000000000000000000000000000000000000000600052602160045260246000fd5b7f45434453413a20696e76616c6964207369676e61747572650000000000000000600082015250565b60006125a26018836115dc565b91506125ad8261256c565b602082019050919050565b600060208201905081810360008301526125d181612595565b9050919050565b7f45434453413a20696e76616c6964207369676e6174757265206c656e67746800600082015250565b600061260e601f836115dc565b9150612619826125d8565b602082019050919050565b6000602082019050818103600083015261263d81612601565b9050919050565b7f45434453413a20696e76616c6964207369676e6174757265202773272076616c60008201527f7565000000000000000000000000000000000000000000000000000000000000602082015250565b60006126a06022836115dc565b91506126ab82612644565b604082019050919050565b600060208201905081810360008301526126cf81612693565b9050919050565b6126df816118aa565b82525050565b600060ff82169050919050565b6126fb816126e5565b82525050565b600060808201905061271660008301876126d6565b61272360208301866126f2565b61273060408301856126d6565b61273d60608301846126d6565b9594505050505056fea2646970667358221220d550dd5205feadb66ee69a735ccfabe9eaee3822301ceaecc7c8981807bc65b164736f6c63430008120033",
  "linkReferences": {},
  "deployedLinkReferences": {}
}