{
  "_format": "hh-sol-artifact-1",
  "contractName": "SwapTwoChain",
  "sourceName": "contracts/SwapTwoChain.sol",
  "abi": [
    {
      "inputs": [],
      "stateMutability": "nonpayable",
      "type": "constructor"
    },
    {
      "anonymous": false,
      "inputs": [
        {
          "indexed": true,
          "internalType": "bytes32",
          "name": "id",
          "type": "bytes32"
        },
        {
          "indexed": true,
          "internalType": "address",
          "name": "from",
          "type": "address"
        },
        {
          "indexed": false,
          "internalType": "uint256",
          "name": "amount",
          "type": "uint256"
        }
      ],
      "name": "canceled",
      "type": "event"
    },
    {
      "anonymous": false,
      "inputs": [
        {
          "indexed": true,
          "internalType": "bytes32",
          "name": "id",
          "type": "bytes32"
        },
        {
          "indexed": true,
          "internalType": "address",
          "name": "from",
          "type": "address"
        }
      ],
      "name": "created",
      "type": "event"
    },
    {
      "anonymous": false,
      "inputs": [
        {
          "indexed": true,
          "internalType": "bytes32",
          "name": "id",
          "type": "bytes32"
        },
        {
          "indexed": false,
          "internalType": "address",
          "name": "from",
          "type": "address"
        },
        {
          "indexed": false,
          "internalType": "uint256",
          "name": "amount",
          "type": "uint256"
        }
      ],
      "name": "withdrawn",
      "type": "event"
    },
    {
      "inputs": [
        {
          "internalType": "bytes32",
          "name": "id",
          "type": "bytes32"
        },
        {
          "internalType": "address",
          "name": "receiver",
          "type": "address"
        },
        {
          "internalType": "address",
          "name": "token",
          "type": "address"
        },
        {
          "internalType": "uint256",
          "name": "amount",
          "type": "uint256"
        },
        {
          "internalType": "bytes32",
          "name": "hashlock",
          "type": "bytes32"
        }
      ],
      "name": "create",
      "outputs": [],
      "stateMutability": "nonpayable",
      "type": "function"
    },
    {
      "inputs": [
        {
          "internalType": "bytes32",
          "name": "txId",
          "type": "bytes32"
        }
      ],
      "name": "isInProgress",
      "outputs": [
        {
          "internalType": "bool",
          "name": "",
          "type": "bool"
        }
      ],
      "stateMutability": "view",
      "type": "function"
    },
    {
      "inputs": [
        {
          "internalType": "bytes32",
          "name": "txId",
          "type": "bytes32"
        },
        {
          "internalType": "uint256",
          "name": "nonce",
          "type": "uint256"
        },
        {
          "internalType": "bytes",
          "name": "signatureAdmin",
          "type": "bytes"
        }
      ],
      "name": "refund",
      "outputs": [],
      "stateMutability": "nonpayable",
      "type": "function"
    },
    {
      "inputs": [
        {
          "internalType": "bytes32",
          "name": "txId",
          "type": "bytes32"
        },
        {
          "internalType": "string",
          "name": "key",
          "type": "string"
        }
      ],
      "name": "withdraw",
      "outputs": [],
      "stateMutability": "nonpayable",
      "type": "function"
    }
  ],
  "bytecode": "0x608060405234801561001057600080fd5b50336000806101000a81548173ffffffffffffffffffffffffffffffffffffffff021916908373ffffffffffffffffffffffffffffffffffffffff160217905550611f0f806100606000396000f3fe608060405234801561001057600080fd5b506004361061004c5760003560e01c806306a53665146100515780636d955b241461006d5780636e968b04146100895780637496531b146100b9575b600080fd5b61006b60048036038101906100669190611368565b6100d5565b005b6100876004803603810190610082919061149b565b6104ba565b005b6100a3600480360381019061009e919061150a565b61088c565b6040516100b09190611552565b60405180910390f35b6100d360048036038101906100ce91906115cb565b610adc565b005b81600073ffffffffffffffffffffffffffffffffffffffff166001600083815260200190815260200160002060000160009054906101000a900473ffffffffffffffffffffffffffffffffffffffff1673ffffffffffffffffffffffffffffffffffffffff160361017b576040517f08c379a0000000000000000000000000000000000000000000000000000000008152600401610172906116a3565b60405180910390fd5b82600060028111156101905761018f6116c3565b5b6001600083815260200190815260200160002060050160009054906101000a900460ff1660028111156101c6576101c56116c3565b5b14610206576040517f08c379a00000000000000000000000000000000000000000000000000000000081526004016101fd9061173e565b60405180910390fd5b60006001600086815260200190815260200160002090503373ffffffffffffffffffffffffffffffffffffffff168160010160009054906101000a900473ffffffffffffffffffffffffffffffffffffffff1673ffffffffffffffffffffffffffffffffffffffff16146102af576040517f08c379a00000000000000000000000000000000000000000000000000000000081526004016102a6906117aa565b60405180910390fd5b8060040154846040516020016102c5919061183b565b604051602081830303815290604052805190602001201461031b576040517f08c379a00000000000000000000000000000000000000000000000000000000081526004016103129061189e565b60405180910390fd5b8060020160009054906101000a900473ffffffffffffffffffffffffffffffffffffffff1673ffffffffffffffffffffffffffffffffffffffff1663a9059cbb8260010160009054906101000a900473ffffffffffffffffffffffffffffffffffffffff1683600301546040518363ffffffff1660e01b81526004016103a29291906118dc565b6020604051808303816000875af11580156103c1573d6000803e3d6000fd5b505050506040513d601f19601f820116820180604052508101906103e59190611931565b610424576040517f08c379a000000000000000000000000000000000000000000000000000000000815260040161041b906119aa565b60405180910390fd5b60018160050160006101000a81548160ff0219169083600281111561044c5761044b6116c3565b5b0217905550847f7de9fd34e1c0a314d284fe1553fce3bb38b03aa4af4b88cd82c1f6767ca8cc288260010160009054906101000a900473ffffffffffffffffffffffffffffffffffffffff1683600301546040516104ab9291906118dc565b60405180910390a25050505050565b82600073ffffffffffffffffffffffffffffffffffffffff166001600083815260200190815260200160002060000160009054906101000a900473ffffffffffffffffffffffffffffffffffffffff1673ffffffffffffffffffffffffffffffffffffffff1603610560576040517f08c379a0000000000000000000000000000000000000000000000000000000008152600401610557906116a3565b60405180910390fd5b8360006002811115610575576105746116c3565b5b6001600083815260200190815260200160002060050160009054906101000a900460ff1660028111156105ab576105aa6116c3565b5b146105eb576040517f08c379a00000000000000000000000000000000000000000000000000000000081526004016105e29061173e565b60405180910390fd5b600085338660405160200161060293929190611a54565b604051602081830303815290604052805190602001209050600061062582610ee2565b90506106318186610f18565b73ffffffffffffffffffffffffffffffffffffffff1660008054906101000a900473ffffffffffffffffffffffffffffffffffffffff1673ffffffffffffffffffffffffffffffffffffffff16146106be576040517f08c379a00000000000000000000000000000000000000000000000000000000081526004016106b590611add565b60405180910390fd5b60006001600089815260200190815260200160002090508060020160009054906101000a900473ffffffffffffffffffffffffffffffffffffffff1673ffffffffffffffffffffffffffffffffffffffff1663a9059cbb8260000160009054906101000a900473ffffffffffffffffffffffffffffffffffffffff1683600301546040518363ffffffff1660e01b815260040161075c9291906118dc565b6020604051808303816000875af115801561077b573d6000803e3d6000fd5b505050506040513d601f19601f8201168201806040525081019061079f9190611931565b6107de576040517f08c379a00000000000000000000000000000000000000000000000000000000081526004016107d590611b49565b60405180910390fd5b60028160050160006101000a81548160ff02191690836002811115610806576108056116c3565b5b02179055508060000160009054906101000a900473ffffffffffffffffffffffffffffffffffffffff1673ffffffffffffffffffffffffffffffffffffffff16887fce1fbacea7f745c89680bdb99975ce1e5f6a7381689e57cc3662f45bbd341a94836003015460405161087a9190611b69565b60405180910390a35050505050505050565b600081600073ffffffffffffffffffffffffffffffffffffffff166001600083815260200190815260200160002060000160009054906101000a900473ffffffffffffffffffffffffffffffffffffffff1673ffffffffffffffffffffffffffffffffffffffff1603610934576040517f08c379a000000000000000000000000000000000000000000000000000000000815260040161092b906116a3565b60405180910390fd5b6000600160008581526020019081526020016000206040518060c00160405290816000820160009054906101000a900473ffffffffffffffffffffffffffffffffffffffff1673ffffffffffffffffffffffffffffffffffffffff1673ffffffffffffffffffffffffffffffffffffffff1681526020016001820160009054906101000a900473ffffffffffffffffffffffffffffffffffffffff1673ffffffffffffffffffffffffffffffffffffffff1673ffffffffffffffffffffffffffffffffffffffff1681526020016002820160009054906101000a900473ffffffffffffffffffffffffffffffffffffffff1673ffffffffffffffffffffffffffffffffffffffff1673ffffffffffffffffffffffffffffffffffffffff16815260200160038201548152602001600482015481526020016005820160009054906101000a900460ff166002811115610a8f57610a8e6116c3565b5b6002811115610aa157610aa06116c3565b5b81525050905060006002811115610abb57610aba6116c3565b5b8160a001516002811115610ad257610ad16116c3565b5b1492505050919050565b84600073ffffffffffffffffffffffffffffffffffffffff166001600083815260200190815260200160002060000160009054906101000a900473ffffffffffffffffffffffffffffffffffffffff1673ffffffffffffffffffffffffffffffffffffffff1614610b82576040517f08c379a0000000000000000000000000000000000000000000000000000000008152600401610b7990611bd0565b60405180910390fd5b8473ffffffffffffffffffffffffffffffffffffffff163373ffffffffffffffffffffffffffffffffffffffff1603610bf0576040517f08c379a0000000000000000000000000000000000000000000000000000000008152600401610be790611c3c565b60405180910390fd5b6040518060c001604052803373ffffffffffffffffffffffffffffffffffffffff1681526020018673ffffffffffffffffffffffffffffffffffffffff1681526020018573ffffffffffffffffffffffffffffffffffffffff16815260200184815260200183815260200160006002811115610c6f57610c6e6116c3565b5b8152506001600088815260200190815260200160002060008201518160000160006101000a81548173ffffffffffffffffffffffffffffffffffffffff021916908373ffffffffffffffffffffffffffffffffffffffff16021790555060208201518160010160006101000a81548173ffffffffffffffffffffffffffffffffffffffff021916908373ffffffffffffffffffffffffffffffffffffffff16021790555060408201518160020160006101000a81548173ffffffffffffffffffffffffffffffffffffffff021916908373ffffffffffffffffffffffffffffffffffffffff160217905550606082015181600301556080820151816004015560a08201518160050160006101000a81548160ff02191690836002811115610d9957610d986116c3565b5b02179055509050506001600087815260200190815260200160002060020160009054906101000a900473ffffffffffffffffffffffffffffffffffffffff1673ffffffffffffffffffffffffffffffffffffffff166323b872dd3330866040518463ffffffff1660e01b8152600401610e1493929190611c5c565b6020604051808303816000875af1158015610e33573d6000803e3d6000fd5b505050506040513d601f19601f82011682018060405250810190610e579190611931565b610e96576040517f08c379a0000000000000000000000000000000000000000000000000000000008152600401610e8d90611cdf565b60405180910390fd5b3373ffffffffffffffffffffffffffffffffffffffff16867f597868596d6ce2373d6cca48fc876374194d4e581dee04262121463a33fa35d960405160405180910390a3505050505050565b60007f19457468657265756d205369676e6564204d6573736167653a0a33320000000060005281601c52603c6000209050919050565b6000806000610f278585610f3f565b91509150610f3481610f90565b819250505092915050565b6000806041835103610f805760008060006020860151925060408601519150606086015160001a9050610f74878285856110f6565b94509450505050610f89565b60006002915091505b9250929050565b60006004811115610fa457610fa36116c3565b5b816004811115610fb757610fb66116c3565b5b03156110f35760016004811115610fd157610fd06116c3565b5b816004811115610fe457610fe36116c3565b5b03611024576040517f08c379a000000000000000000000000000000000000000000000000000000000815260040161101b90611d4b565b60405180910390fd5b60026004811115611038576110376116c3565b5b81600481111561104b5761104a6116c3565b5b0361108b576040517f08c379a000000000000000000000000000000000000000000000000000000000815260040161108290611db7565b60405180910390fd5b6003600481111561109f5761109e6116c3565b5b8160048111156110b2576110b16116c3565b5b036110f2576040517f08c379a00000000000000000000000000000000000000000000000000000000081526004016110e990611e49565b60405180910390fd5b5b50565b6000807f7fffffffffffffffffffffffffffffff5d576e7357a4501ddfe92f46681b20a08360001c11156111315760006003915091506111cf565b6000600187878787604051600081526020016040526040516111569493929190611e94565b6020604051602081039080840390855afa158015611178573d6000803e3d6000fd5b505050602060405103519050600073ffffffffffffffffffffffffffffffffffffffff168173ffffffffffffffffffffffffffffffffffffffff16036111c6576000600192509250506111cf565b80600092509250505b94509492505050565b6000604051905090565b600080fd5b600080fd5b6000819050919050565b6111ff816111ec565b811461120a57600080fd5b50565b60008135905061121c816111f6565b92915050565b600080fd5b600080fd5b6000601f19601f8301169050919050565b7f4e487b7100000000000000000000000000000000000000000000000000000000600052604160045260246000fd5b6112758261122c565b810181811067ffffffffffffffff821117156112945761129361123d565b5b80604052505050565b60006112a76111d8565b90506112b3828261126c565b919050565b600067ffffffffffffffff8211156112d3576112d261123d565b5b6112dc8261122c565b9050602081019050919050565b82818337600083830152505050565b600061130b611306846112b8565b61129d565b90508281526020810184848401111561132757611326611227565b5b6113328482856112e9565b509392505050565b600082601f83011261134f5761134e611222565b5b813561135f8482602086016112f8565b91505092915050565b6000806040838503121561137f5761137e6111e2565b5b600061138d8582860161120d565b925050602083013567ffffffffffffffff8111156113ae576113ad6111e7565b5b6113ba8582860161133a565b9150509250929050565b6000819050919050565b6113d7816113c4565b81146113e257600080fd5b50565b6000813590506113f4816113ce565b92915050565b600067ffffffffffffffff8211156114155761141461123d565b5b61141e8261122c565b9050602081019050919050565b600061143e611439846113fa565b61129d565b90508281526020810184848401111561145a57611459611227565b5b6114658482856112e9565b509392505050565b600082601f83011261148257611481611222565b5b813561149284826020860161142b565b91505092915050565b6000806000606084860312156114b4576114b36111e2565b5b60006114c28682870161120d565b93505060206114d3868287016113e5565b925050604084013567ffffffffffffffff8111156114f4576114f36111e7565b5b6115008682870161146d565b9150509250925092565b6000602082840312156115205761151f6111e2565b5b600061152e8482850161120d565b91505092915050565b60008115159050919050565b61154c81611537565b82525050565b60006020820190506115676000830184611543565b92915050565b600073ffffffffffffffffffffffffffffffffffffffff82169050919050565b60006115988261156d565b9050919050565b6115a88161158d565b81146115b357600080fd5b50565b6000813590506115c58161159f565b92915050565b600080600080600060a086880312156115e7576115e66111e2565b5b60006115f58882890161120d565b9550506020611606888289016115b6565b9450506040611617888289016115b6565b9350506060611628888289016113e5565b92505060806116398882890161120d565b9150509295509295909350565b600082825260208201905092915050565b7f54686973206f7264657220646f65736e27742065786973747300000000000000600082015250565b600061168d601983611646565b915061169882611657565b602082019050919050565b600060208201905081810360008301526116bc81611680565b9050919050565b7f4e487b7100000000000000000000000000000000000000000000000000000000600052602160045260246000fd5b7f54686973207472616e73616374696f6e20686173206265656e20646f6e650000600082015250565b6000611728601e83611646565b9150611733826116f2565b602082019050919050565b600060208201905081810360008301526117578161171b565b9050919050565b7f4f6e6c792072656365697665722063616e207769746864726177000000000000600082015250565b6000611794601a83611646565b915061179f8261175e565b602082019050919050565b600060208201905081810360008301526117c381611787565b9050919050565b600081519050919050565b600081905092915050565b60005b838110156117fe5780820151818401526020810190506117e3565b60008484015250505050565b6000611815826117ca565b61181f81856117d5565b935061182f8185602086016117e0565b80840191505092915050565b6000611847828461180a565b915081905092915050565b7f496e636f7272656374206b657900000000000000000000000000000000000000600082015250565b6000611888600d83611646565b915061189382611852565b602082019050919050565b600060208201905081810360008301526118b78161187b565b9050919050565b6118c78161158d565b82525050565b6118d6816113c4565b82525050565b60006040820190506118f160008301856118be565b6118fe60208301846118cd565b9392505050565b61190e81611537565b811461191957600080fd5b50565b60008151905061192b81611905565b92915050565b600060208284031215611947576119466111e2565b5b60006119558482850161191c565b91505092915050565b7f5769746864726177206661696c65640000000000000000000000000000000000600082015250565b6000611994600f83611646565b915061199f8261195e565b602082019050919050565b600060208201905081810360008301526119c381611987565b9050919050565b6000819050919050565b6119e56119e0826111ec565b6119ca565b82525050565b60008160601b9050919050565b6000611a03826119eb565b9050919050565b6000611a15826119f8565b9050919050565b611a2d611a288261158d565b611a0a565b82525050565b6000819050919050565b611a4e611a49826113c4565b611a33565b82525050565b6000611a6082866119d4565b602082019150611a708285611a1c565b601482019150611a808284611a3d565b602082019150819050949350505050565b7f496e76616c6964207369676e6174757265000000000000000000000000000000600082015250565b6000611ac7601183611646565b9150611ad282611a91565b602082019050919050565b60006020820190508181036000830152611af681611aba565b9050919050565b7f526566756e64206661696c656400000000000000000000000000000000000000600082015250565b6000611b33600d83611646565b9150611b3e82611afd565b602082019050919050565b60006020820190508181036000830152611b6281611b26565b9050919050565b6000602082019050611b7e60008301846118cd565b92915050565b7f4475706c6963617465207472616e73616374696f6e2062792069640000000000600082015250565b6000611bba601b83611646565b9150611bc582611b84565b602082019050919050565b60006020820190508181036000830152611be981611bad565b9050919050565b7f5472616e73616374696f6e20696e76616c696400000000000000000000000000600082015250565b6000611c26601383611646565b9150611c3182611bf0565b602082019050919050565b60006020820190508181036000830152611c5581611c19565b9050919050565b6000606082019050611c7160008301866118be565b611c7e60208301856118be565b611c8b60408301846118cd565b949350505050565b7f5472616e7366657220746f20636f6e7472616374206661696c65640000000000600082015250565b6000611cc9601b83611646565b9150611cd482611c93565b602082019050919050565b60006020820190508181036000830152611cf881611cbc565b9050919050565b7f45434453413a20696e76616c6964207369676e61747572650000000000000000600082015250565b6000611d35601883611646565b9150611d4082611cff565b602082019050919050565b60006020820190508181036000830152611d6481611d28565b9050919050565b7f45434453413a20696e76616c6964207369676e6174757265206c656e67746800600082015250565b6000611da1601f83611646565b9150611dac82611d6b565b602082019050919050565b60006020820190508181036000830152611dd081611d94565b9050919050565b7f45434453413a20696e76616c6964207369676e6174757265202773272076616c60008201527f7565000000000000000000000000000000000000000000000000000000000000602082015250565b6000611e33602283611646565b9150611e3e82611dd7565b604082019050919050565b60006020820190508181036000830152611e6281611e26565b9050919050565b611e72816111ec565b82525050565b600060ff82169050919050565b611e8e81611e78565b82525050565b6000608082019050611ea96000830187611e69565b611eb66020830186611e85565b611ec36040830185611e69565b611ed06060830184611e69565b9594505050505056fea264697066735822122061dd8d8f7b3ca960ebc0ae5119634a1c5b1c99754d600ef8869b6c739f4eb92264736f6c63430008120033",
  "linkReferences": {},
  "deployedLinkReferences": {}
}