{
  "_format": "hh-sol-artifact-1",
  "contractName": "SwapTwoChain",
  "sourceName": "contracts/SwapTwoChain.sol",
  "abi": [
    {
      "inputs": [],
      "stateMutability": "nonpayable",
      "type": "constructor"
    },
    {
      "anonymous": false,
      "inputs": [
        {
          "indexed": false,
          "internalType": "address",
          "name": "from",
          "type": "address"
        },
        {
          "indexed": false,
          "internalType": "uint256",
          "name": "amount",
          "type": "uint256"
        }
      ],
      "name": "canceled",
      "type": "event"
    },
    {
      "anonymous": false,
      "inputs": [
        {
          "indexed": false,
          "internalType": "address",
          "name": "from",
          "type": "address"
        },
        {
          "indexed": false,
          "internalType": "uint256",
          "name": "amount",
          "type": "uint256"
        }
      ],
      "name": "withdrawn",
      "type": "event"
    },
    {
      "inputs": [
        {
          "internalType": "string",
          "name": "id",
          "type": "string"
        },
        {
          "internalType": "address",
          "name": "receiver",
          "type": "address"
        },
        {
          "internalType": "address",
          "name": "token",
          "type": "address"
        },
        {
          "internalType": "uint256",
          "name": "amount",
          "type": "uint256"
        },
        {
          "internalType": "string",
          "name": "key",
          "type": "string"
        },
        {
          "internalType": "bytes32",
          "name": "hashlock",
          "type": "bytes32"
        },
        {
          "internalType": "uint256",
          "name": "timelock",
          "type": "uint256"
        }
      ],
      "name": "create",
      "outputs": [
        {
          "internalType": "bool",
          "name": "",
          "type": "bool"
        }
      ],
      "stateMutability": "nonpayable",
      "type": "function"
    },
    {
      "inputs": [
        {
          "internalType": "string",
          "name": "txId",
          "type": "string"
        }
      ],
      "name": "getSecretKey",
      "outputs": [
        {
          "internalType": "string",
          "name": "",
          "type": "string"
        }
      ],
      "stateMutability": "view",
      "type": "function"
    },
    {
      "inputs": [
        {
          "internalType": "string",
          "name": "txId",
          "type": "string"
        }
      ],
      "name": "isEndLockContract",
      "outputs": [
        {
          "internalType": "bool",
          "name": "",
          "type": "bool"
        }
      ],
      "stateMutability": "view",
      "type": "function"
    },
    {
      "inputs": [
        {
          "internalType": "string",
          "name": "txId",
          "type": "string"
        }
      ],
      "name": "isRefunded",
      "outputs": [
        {
          "internalType": "bool",
          "name": "",
          "type": "bool"
        }
      ],
      "stateMutability": "view",
      "type": "function"
    },
    {
      "inputs": [
        {
          "internalType": "string",
          "name": "txId",
          "type": "string"
        }
      ],
      "name": "isWithdrawn",
      "outputs": [
        {
          "internalType": "bool",
          "name": "",
          "type": "bool"
        }
      ],
      "stateMutability": "view",
      "type": "function"
    },
    {
      "inputs": [
        {
          "internalType": "string",
          "name": "txId",
          "type": "string"
        },
        {
          "internalType": "uint256",
          "name": "nonce",
          "type": "uint256"
        },
        {
          "internalType": "bytes",
          "name": "signatureAdmin",
          "type": "bytes"
        }
      ],
      "name": "refund",
      "outputs": [],
      "stateMutability": "nonpayable",
      "type": "function"
    },
    {
      "inputs": [
        {
          "internalType": "string",
          "name": "txId",
          "type": "string"
        },
        {
          "internalType": "string",
          "name": "_key",
          "type": "string"
        }
      ],
      "name": "withdraw",
      "outputs": [],
      "stateMutability": "nonpayable",
      "type": "function"
    }
  ],
  "bytecode": "0x608060405234801561001057600080fd5b50336000806101000a81548173ffffffffffffffffffffffffffffffffffffffff021916908373ffffffffffffffffffffffffffffffffffffffff160217905550612b8d806100606000396000f3fe608060405234801561001057600080fd5b506004361061007d5760003560e01c80632baef8fa1161005b5780632baef8fa146100ea5780632f0bb1451461011a578063b49cba741461014a578063cf413f951461017a5761007d565b806302db271314610082578063073379f6146100b257806320b2e7bf146100ce575b600080fd5b61009c60048036038101906100979190611acd565b6101aa565b6040516100a99190611b95565b60405180910390f35b6100cc60048036038101906100c79190611c8e565b6103bc565b005b6100e860048036038101906100e39190611d19565b6106c2565b005b61010460048036038101906100ff9190611acd565b6109f2565b6040516101119190611dac565b60405180910390f35b610134600480360381019061012f9190611e5b565b610cc6565b6040516101419190611dac565b60405180910390f35b610164600480360381019061015f9190611acd565b6110c1565b6040516101719190611dac565b60405180910390f35b610194600480360381019061018f9190611acd565b6113a8565b6040516101a19190611dac565b60405180910390f35b6060600073ffffffffffffffffffffffffffffffffffffffff166001836040516101d49190611f71565b908152602001604051809103902060000160009054906101000a900473ffffffffffffffffffffffffffffffffffffffff1673ffffffffffffffffffffffffffffffffffffffff160361025c576040517f08c379a000000000000000000000000000000000000000000000000000000000815260040161025390611fd4565b60405180910390fd5b3373ffffffffffffffffffffffffffffffffffffffff166001836040516102839190611f71565b908152602001604051809103902060000160009054906101000a900473ffffffffffffffffffffffffffffffffffffffff1673ffffffffffffffffffffffffffffffffffffffff161461030b576040517f08c379a000000000000000000000000000000000000000000000000000000000815260040161030290612066565b60405180910390fd5b60018260405161031b9190611f71565b90815260200160405180910390206004018054610337906120b5565b80601f0160208091040260200160405190810160405280929190818152602001828054610363906120b5565b80156103b05780601f10610385576101008083540402835291602001916103b0565b820191906000526020600020905b81548152906001019060200180831161039357829003601f168201915b50505050509050919050565b60008333846040516020016103d39392919061214f565b60405160208183030381529060405280519060200120905060006103f68261167d565b905061040281846116b3565b73ffffffffffffffffffffffffffffffffffffffff1660008054906101000a900473ffffffffffffffffffffffffffffffffffffffff1673ffffffffffffffffffffffffffffffffffffffff161461048f576040517f08c379a0000000000000000000000000000000000000000000000000000000008152600401610486906121d4565b60405180910390fd5b60006001866040516104a19190611f71565b90815260200160405180910390209050600015158160070160009054906101000a900460ff1615151480156104eb5750600015158160070160019054906101000a900460ff161515145b61052a576040517f08c379a000000000000000000000000000000000000000000000000000000000815260040161052190612240565b60405180910390fd5b4281600601541115610571576040517f08c379a0000000000000000000000000000000000000000000000000000000008152600401610568906122ac565b60405180910390fd5b8060020160009054906101000a900473ffffffffffffffffffffffffffffffffffffffff1673ffffffffffffffffffffffffffffffffffffffff1663a9059cbb8260000160009054906101000a900473ffffffffffffffffffffffffffffffffffffffff1683600301546040518363ffffffff1660e01b81526004016105f89291906122ea565b6020604051808303816000875af1158015610617573d6000803e3d6000fd5b505050506040513d601f19601f8201168201806040525081019061063b919061233f565b5060018160070160016101000a81548160ff0219169083151502179055507fb0fff5d2b17a855b0a22a0965386bcf2f7a8a364c81497c7ea721f3b771ba47e8160000160009054906101000a900473ffffffffffffffffffffffffffffffffffffffff1682600301546040516106b29291906122ea565b60405180910390a1505050505050565b60006001836040516106d49190611f71565b90815260200160405180910390209050600015158160070160019054906101000a900460ff1615151461073c576040517f08c379a0000000000000000000000000000000000000000000000000000000008152600401610733906123b8565b60405180910390fd5b600015158160070160009054906101000a900460ff16151514610794576040517f08c379a000000000000000000000000000000000000000000000000000000000815260040161078b90612424565b60405180910390fd5b3373ffffffffffffffffffffffffffffffffffffffff168160010160009054906101000a900473ffffffffffffffffffffffffffffffffffffffff1673ffffffffffffffffffffffffffffffffffffffff1614610826576040517f08c379a000000000000000000000000000000000000000000000000000000000815260040161081d90612490565b60405180910390fd5b80600501548260405160200161083c9190611f71565b6040516020818303038152906040528051906020012014610892576040517f08c379a0000000000000000000000000000000000000000000000000000000008152600401610889906124fc565b60405180910390fd5b8060020160009054906101000a900473ffffffffffffffffffffffffffffffffffffffff1673ffffffffffffffffffffffffffffffffffffffff1663a9059cbb8260010160009054906101000a900473ffffffffffffffffffffffffffffffffffffffff1683600301546040518363ffffffff1660e01b81526004016109199291906122ea565b6020604051808303816000875af1158015610938573d6000803e3d6000fd5b505050506040513d601f19601f8201168201806040525081019061095c919061233f565b508181600401908161096e91906126c8565b5060018160070160006101000a81548160ff0219169083151502179055507f6fb24f3ad0678f9d138e80b17293be051d87911eb34e9e60f0d1b9c3805e885a8160010160009054906101000a900473ffffffffffffffffffffffffffffffffffffffff1682600301546040516109e59291906122ea565b60405180910390a1505050565b60008073ffffffffffffffffffffffffffffffffffffffff16600183604051610a1b9190611f71565b908152602001604051809103902060000160009054906101000a900473ffffffffffffffffffffffffffffffffffffffff1673ffffffffffffffffffffffffffffffffffffffff1603610aa3576040517f08c379a0000000000000000000000000000000000000000000000000000000008152600401610a9a90611fd4565b60405180910390fd5b6000600183604051610ab59190611f71565b9081526020016040518091039020604051806101200160405290816000820160009054906101000a900473ffffffffffffffffffffffffffffffffffffffff1673ffffffffffffffffffffffffffffffffffffffff1673ffffffffffffffffffffffffffffffffffffffff1681526020016001820160009054906101000a900473ffffffffffffffffffffffffffffffffffffffff1673ffffffffffffffffffffffffffffffffffffffff1673ffffffffffffffffffffffffffffffffffffffff1681526020016002820160009054906101000a900473ffffffffffffffffffffffffffffffffffffffff1673ffffffffffffffffffffffffffffffffffffffff1673ffffffffffffffffffffffffffffffffffffffff16815260200160038201548152602001600482018054610beb906120b5565b80601f0160208091040260200160405190810160405280929190818152602001828054610c17906120b5565b8015610c645780601f10610c3957610100808354040283529160200191610c64565b820191906000526020600020905b815481529060010190602001808311610c4757829003601f168201915b5050505050815260200160058201548152602001600682015481526020016007820160009054906101000a900460ff161515151581526020016007820160019054906101000a900460ff16151515158152505090508060e00151915050919050565b60008073ffffffffffffffffffffffffffffffffffffffff16600189604051610cef9190611f71565b908152602001604051809103902060000160009054906101000a900473ffffffffffffffffffffffffffffffffffffffff1673ffffffffffffffffffffffffffffffffffffffff1614610d77576040517f08c379a0000000000000000000000000000000000000000000000000000000008152600401610d6e906127e6565b60405180910390fd5b8673ffffffffffffffffffffffffffffffffffffffff163373ffffffffffffffffffffffffffffffffffffffff1603610de5576040517f08c379a0000000000000000000000000000000000000000000000000000000008152600401610ddc90612852565b60405180910390fd5b6040518061012001604052803373ffffffffffffffffffffffffffffffffffffffff1681526020018873ffffffffffffffffffffffffffffffffffffffff1681526020018773ffffffffffffffffffffffffffffffffffffffff16815260200186815260200185815260200184815260200183610e10610e6591906128a1565b42610e7091906128e3565b815260200160001515815260200160001515815250600189604051610e959190611f71565b908152602001604051809103902060008201518160000160006101000a81548173ffffffffffffffffffffffffffffffffffffffff021916908373ffffffffffffffffffffffffffffffffffffffff16021790555060208201518160010160006101000a81548173ffffffffffffffffffffffffffffffffffffffff021916908373ffffffffffffffffffffffffffffffffffffffff16021790555060408201518160020160006101000a81548173ffffffffffffffffffffffffffffffffffffffff021916908373ffffffffffffffffffffffffffffffffffffffff160217905550606082015181600301556080820151816004019081610f9791906126c8565b5060a0820151816005015560c0820151816006015560e08201518160070160006101000a81548160ff0219169083151502179055506101008201518160070160016101000a81548160ff0219169083151502179055509050506001886040516110009190611f71565b908152602001604051809103902060020160009054906101000a900473ffffffffffffffffffffffffffffffffffffffff1673ffffffffffffffffffffffffffffffffffffffff166323b872dd3330886040518463ffffffff1660e01b815260040161106e93929190612917565b6020604051808303816000875af115801561108d573d6000803e3d6000fd5b505050506040513d601f19601f820116820180604052508101906110b1919061233f565b5060019050979650505050505050565b60008073ffffffffffffffffffffffffffffffffffffffff166001836040516110ea9190611f71565b908152602001604051809103902060000160009054906101000a900473ffffffffffffffffffffffffffffffffffffffff1673ffffffffffffffffffffffffffffffffffffffff1603611172576040517f08c379a000000000000000000000000000000000000000000000000000000000815260040161116990611fd4565b60405180910390fd5b60006001836040516111849190611f71565b9081526020016040518091039020604051806101200160405290816000820160009054906101000a900473ffffffffffffffffffffffffffffffffffffffff1673ffffffffffffffffffffffffffffffffffffffff1673ffffffffffffffffffffffffffffffffffffffff1681526020016001820160009054906101000a900473ffffffffffffffffffffffffffffffffffffffff1673ffffffffffffffffffffffffffffffffffffffff1673ffffffffffffffffffffffffffffffffffffffff1681526020016002820160009054906101000a900473ffffffffffffffffffffffffffffffffffffffff1673ffffffffffffffffffffffffffffffffffffffff1673ffffffffffffffffffffffffffffffffffffffff168152602001600382015481526020016004820180546112ba906120b5565b80601f01602080910402602001604051908101604052809291908181526020018280546112e6906120b5565b80156113335780601f1061130857610100808354040283529160200191611333565b820191906000526020600020905b81548152906001019060200180831161131657829003601f168201915b5050505050815260200160058201548152602001600682015481526020016007820160009054906101000a900460ff161515151581526020016007820160019054906101000a900460ff1615151515815250509050428160c001511161139d5760019150506113a3565b60009150505b919050565b60008073ffffffffffffffffffffffffffffffffffffffff166001836040516113d19190611f71565b908152602001604051809103902060000160009054906101000a900473ffffffffffffffffffffffffffffffffffffffff1673ffffffffffffffffffffffffffffffffffffffff1603611459576040517f08c379a000000000000000000000000000000000000000000000000000000000815260040161145090611fd4565b60405180910390fd5b600060018360405161146b9190611f71565b9081526020016040518091039020604051806101200160405290816000820160009054906101000a900473ffffffffffffffffffffffffffffffffffffffff1673ffffffffffffffffffffffffffffffffffffffff1673ffffffffffffffffffffffffffffffffffffffff1681526020016001820160009054906101000a900473ffffffffffffffffffffffffffffffffffffffff1673ffffffffffffffffffffffffffffffffffffffff1673ffffffffffffffffffffffffffffffffffffffff1681526020016002820160009054906101000a900473ffffffffffffffffffffffffffffffffffffffff1673ffffffffffffffffffffffffffffffffffffffff1673ffffffffffffffffffffffffffffffffffffffff168152602001600382015481526020016004820180546115a1906120b5565b80601f01602080910402602001604051908101604052809291908181526020018280546115cd906120b5565b801561161a5780601f106115ef5761010080835404028352916020019161161a565b820191906000526020600020905b8154815290600101906020018083116115fd57829003601f168201915b5050505050815260200160058201548152602001600682015481526020016007820160009054906101000a900460ff161515151581526020016007820160019054906101000a900460ff1615151515815250509050806101000151915050919050565b60007f19457468657265756d205369676e6564204d6573736167653a0a33320000000060005281601c52603c6000209050919050565b60008060006116c285856116da565b915091506116cf8161172b565b819250505092915050565b600080604183510361171b5760008060006020860151925060408601519150606086015160001a905061170f87828585611891565b94509450505050611724565b60006002915091505b9250929050565b6000600481111561173f5761173e61294e565b5b8160048111156117525761175161294e565b5b031561188e576001600481111561176c5761176b61294e565b5b81600481111561177f5761177e61294e565b5b036117bf576040517f08c379a00000000000000000000000000000000000000000000000000000000081526004016117b6906129c9565b60405180910390fd5b600260048111156117d3576117d261294e565b5b8160048111156117e6576117e561294e565b5b03611826576040517f08c379a000000000000000000000000000000000000000000000000000000000815260040161181d90612a35565b60405180910390fd5b6003600481111561183a5761183961294e565b5b81600481111561184d5761184c61294e565b5b0361188d576040517f08c379a000000000000000000000000000000000000000000000000000000000815260040161188490612ac7565b60405180910390fd5b5b50565b6000807f7fffffffffffffffffffffffffffffff5d576e7357a4501ddfe92f46681b20a08360001c11156118cc57600060039150915061196a565b6000600187878787604051600081526020016040526040516118f19493929190612b12565b6020604051602081039080840390855afa158015611913573d6000803e3d6000fd5b505050602060405103519050600073ffffffffffffffffffffffffffffffffffffffff168173ffffffffffffffffffffffffffffffffffffffff16036119615760006001925092505061196a565b80600092509250505b94509492505050565b6000604051905090565b600080fd5b600080fd5b600080fd5b600080fd5b6000601f19601f8301169050919050565b7f4e487b7100000000000000000000000000000000000000000000000000000000600052604160045260246000fd5b6119da82611991565b810181811067ffffffffffffffff821117156119f9576119f86119a2565b5b80604052505050565b6000611a0c611973565b9050611a1882826119d1565b919050565b600067ffffffffffffffff821115611a3857611a376119a2565b5b611a4182611991565b9050602081019050919050565b82818337600083830152505050565b6000611a70611a6b84611a1d565b611a02565b905082815260208101848484011115611a8c57611a8b61198c565b5b611a97848285611a4e565b509392505050565b600082601f830112611ab457611ab3611987565b5b8135611ac4848260208601611a5d565b91505092915050565b600060208284031215611ae357611ae261197d565b5b600082013567ffffffffffffffff811115611b0157611b00611982565b5b611b0d84828501611a9f565b91505092915050565b600081519050919050565b600082825260208201905092915050565b60005b83811015611b50578082015181840152602081019050611b35565b60008484015250505050565b6000611b6782611b16565b611b718185611b21565b9350611b81818560208601611b32565b611b8a81611991565b840191505092915050565b60006020820190508181036000830152611baf8184611b5c565b905092915050565b6000819050919050565b611bca81611bb7565b8114611bd557600080fd5b50565b600081359050611be781611bc1565b92915050565b600067ffffffffffffffff821115611c0857611c076119a2565b5b611c1182611991565b9050602081019050919050565b6000611c31611c2c84611bed565b611a02565b905082815260208101848484011115611c4d57611c4c61198c565b5b611c58848285611a4e565b509392505050565b600082601f830112611c7557611c74611987565b5b8135611c85848260208601611c1e565b91505092915050565b600080600060608486031215611ca757611ca661197d565b5b600084013567ffffffffffffffff811115611cc557611cc4611982565b5b611cd186828701611a9f565b9350506020611ce286828701611bd8565b925050604084013567ffffffffffffffff811115611d0357611d02611982565b5b611d0f86828701611c60565b9150509250925092565b60008060408385031215611d3057611d2f61197d565b5b600083013567ffffffffffffffff811115611d4e57611d4d611982565b5b611d5a85828601611a9f565b925050602083013567ffffffffffffffff811115611d7b57611d7a611982565b5b611d8785828601611a9f565b9150509250929050565b60008115159050919050565b611da681611d91565b82525050565b6000602082019050611dc16000830184611d9d565b92915050565b600073ffffffffffffffffffffffffffffffffffffffff82169050919050565b6000611df282611dc7565b9050919050565b611e0281611de7565b8114611e0d57600080fd5b50565b600081359050611e1f81611df9565b92915050565b6000819050919050565b611e3881611e25565b8114611e4357600080fd5b50565b600081359050611e5581611e2f565b92915050565b600080600080600080600060e0888a031215611e7a57611e7961197d565b5b600088013567ffffffffffffffff811115611e9857611e97611982565b5b611ea48a828b01611a9f565b9750506020611eb58a828b01611e10565b9650506040611ec68a828b01611e10565b9550506060611ed78a828b01611bd8565b945050608088013567ffffffffffffffff811115611ef857611ef7611982565b5b611f048a828b01611a9f565b93505060a0611f158a828b01611e46565b92505060c0611f268a828b01611bd8565b91505092959891949750929550565b600081905092915050565b6000611f4b82611b16565b611f558185611f35565b9350611f65818560208601611b32565b80840191505092915050565b6000611f7d8284611f40565b915081905092915050565b7f54686973207472616e73616374696f6e20646f65736e27742065786973747300600082015250565b6000611fbe601f83611b21565b9150611fc982611f88565b602082019050919050565b60006020820190508181036000830152611fed81611fb1565b9050919050565b7f4f6e6c79206f776e65722063616e206765742074686520736563726574206b6560008201527f7900000000000000000000000000000000000000000000000000000000000000602082015250565b6000612050602183611b21565b915061205b82611ff4565b604082019050919050565b6000602082019050818103600083015261207f81612043565b9050919050565b7f4e487b7100000000000000000000000000000000000000000000000000000000600052602260045260246000fd5b600060028204905060018216806120cd57607f821691505b6020821081036120e0576120df612086565b5b50919050565b60008160601b9050919050565b60006120fe826120e6565b9050919050565b6000612110826120f3565b9050919050565b61212861212382611de7565b612105565b82525050565b6000819050919050565b61214961214482611bb7565b61212e565b82525050565b600061215b8286611f40565b91506121678285612117565b6014820191506121778284612138565b602082019150819050949350505050565b7f496e76616c6964207369676e6174757265000000000000000000000000000000600082015250565b60006121be601183611b21565b91506121c982612188565b602082019050919050565b600060208201905081810360008301526121ed816121b1565b9050919050565b7f43616e277420726566756e640000000000000000000000000000000000000000600082015250565b600061222a600c83611b21565b9150612235826121f4565b602082019050919050565b600060208201905081810360008301526122598161221d565b9050919050565b7f546f6f206561726c7920746f20726566756e6400000000000000000000000000600082015250565b6000612296601383611b21565b91506122a182612260565b602082019050919050565b600060208201905081810360008301526122c581612289565b9050919050565b6122d581611de7565b82525050565b6122e481611bb7565b82525050565b60006040820190506122ff60008301856122cc565b61230c60208301846122db565b9392505050565b61231c81611d91565b811461232757600080fd5b50565b60008151905061233981612313565b92915050565b6000602082840312156123555761235461197d565b5b60006123638482850161232a565b91505092915050565b7f5472616e73616374696f6e20686173206265656e2063616e63656c6564000000600082015250565b60006123a2601d83611b21565b91506123ad8261236c565b602082019050919050565b600060208201905081810360008301526123d181612395565b9050919050565b7f5472616e73616374696f6e20686173206265656e2077697468647261776e0000600082015250565b600061240e601e83611b21565b9150612419826123d8565b602082019050919050565b6000602082019050818103600083015261243d81612401565b9050919050565b7f4f6e6c792072656365697665722063616e207769746864726177000000000000600082015250565b600061247a601a83611b21565b915061248582612444565b602082019050919050565b600060208201905081810360008301526124a98161246d565b9050919050565b7f496e636f7272656374206b657900000000000000000000000000000000000000600082015250565b60006124e6600d83611b21565b91506124f1826124b0565b602082019050919050565b60006020820190508181036000830152612515816124d9565b9050919050565b60008190508160005260206000209050919050565b60006020601f8301049050919050565b600082821b905092915050565b60006008830261257e7fffffffffffffffffffffffffffffffffffffffffffffffffffffffffffffffff82612541565b6125888683612541565b95508019841693508086168417925050509392505050565b6000819050919050565b60006125c56125c06125bb84611bb7565b6125a0565b611bb7565b9050919050565b6000819050919050565b6125df836125aa565b6125f36125eb826125cc565b84845461254e565b825550505050565b600090565b6126086125fb565b6126138184846125d6565b505050565b5b818110156126375761262c600082612600565b600181019050612619565b5050565b601f82111561267c5761264d8161251c565b61265684612531565b81016020851015612665578190505b61267961267185612531565b830182612618565b50505b505050565b600082821c905092915050565b600061269f60001984600802612681565b1980831691505092915050565b60006126b8838361268e565b9150826002028217905092915050565b6126d182611b16565b67ffffffffffffffff8111156126ea576126e96119a2565b5b6126f482546120b5565b6126ff82828561263b565b600060209050601f8311600181146127325760008415612720578287015190505b61272a85826126ac565b865550612792565b601f1984166127408661251c565b60005b8281101561276857848901518255600182019150602085019450602081019050612743565b868310156127855784890151612781601f89168261268e565b8355505b6001600288020188555050505b505050505050565b7f4475706c6963617465207472616e73616374696f6e2062792069640000000000600082015250565b60006127d0601b83611b21565b91506127db8261279a565b602082019050919050565b600060208201905081810360008301526127ff816127c3565b9050919050565b7f5472616e73616374696f6e20696e76616c696400000000000000000000000000600082015250565b600061283c601383611b21565b915061284782612806565b602082019050919050565b6000602082019050818103600083015261286b8161282f565b9050919050565b7f4e487b7100000000000000000000000000000000000000000000000000000000600052601160045260246000fd5b60006128ac82611bb7565b91506128b783611bb7565b92508282026128c581611bb7565b915082820484148315176128dc576128db612872565b5b5092915050565b60006128ee82611bb7565b91506128f983611bb7565b925082820190508082111561291157612910612872565b5b92915050565b600060608201905061292c60008301866122cc565b61293960208301856122cc565b61294660408301846122db565b949350505050565b7f4e487b7100000000000000000000000000000000000000000000000000000000600052602160045260246000fd5b7f45434453413a20696e76616c6964207369676e61747572650000000000000000600082015250565b60006129b3601883611b21565b91506129be8261297d565b602082019050919050565b600060208201905081810360008301526129e2816129a6565b9050919050565b7f45434453413a20696e76616c6964207369676e6174757265206c656e67746800600082015250565b6000612a1f601f83611b21565b9150612a2a826129e9565b602082019050919050565b60006020820190508181036000830152612a4e81612a12565b9050919050565b7f45434453413a20696e76616c6964207369676e6174757265202773272076616c60008201527f7565000000000000000000000000000000000000000000000000000000000000602082015250565b6000612ab1602283611b21565b9150612abc82612a55565b604082019050919050565b60006020820190508181036000830152612ae081612aa4565b9050919050565b612af081611e25565b82525050565b600060ff82169050919050565b612b0c81612af6565b82525050565b6000608082019050612b276000830187612ae7565b612b346020830186612b03565b612b416040830185612ae7565b612b4e6060830184612ae7565b9594505050505056fea26469706673582212205c3d0f026d77af3173e9bf0d70aeae94e9d2c5a3c5f67e907159efc11c0dbb4564736f6c63430008120033",
  "linkReferences": {},
  "deployedLinkReferences": {}
}