{
  "_format": "hh-sol-artifact-1",
  "contractName": "HTLC",
  "sourceName": "contracts/HTLC.sol",
  "abi": [
    {
      "inputs": [],
      "stateMutability": "nonpayable",
      "type": "constructor"
    },
    {
      "anonymous": false,
      "inputs": [
        {
          "indexed": false,
          "internalType": "address",
          "name": "from",
          "type": "address"
        },
        {
          "indexed": false,
          "internalType": "uint256",
          "name": "amount",
          "type": "uint256"
        }
      ],
      "name": "canceled",
      "type": "event"
    },
    {
      "anonymous": false,
      "inputs": [
        {
          "indexed": false,
          "internalType": "address",
          "name": "from",
          "type": "address"
        },
        {
          "indexed": false,
          "internalType": "uint256",
          "name": "amount",
          "type": "uint256"
        }
      ],
      "name": "withdrawn",
      "type": "event"
    },
    {
      "inputs": [
        {
          "internalType": "string",
          "name": "txId",
          "type": "string"
        },
        {
          "internalType": "address",
          "name": "receiver",
          "type": "address"
        }
      ],
      "name": "acceptFor",
      "outputs": [],
      "stateMutability": "nonpayable",
      "type": "function"
    },
    {
      "inputs": [
        {
          "internalType": "string",
          "name": "id",
          "type": "string"
        },
        {
          "internalType": "address",
          "name": "receiver",
          "type": "address"
        },
        {
          "internalType": "address",
          "name": "token",
          "type": "address"
        },
        {
          "internalType": "uint256",
          "name": "amount",
          "type": "uint256"
        },
        {
          "internalType": "string",
          "name": "key",
          "type": "string"
        },
        {
          "internalType": "bytes32",
          "name": "hashlock",
          "type": "bytes32"
        },
        {
          "internalType": "uint256",
          "name": "timelock",
          "type": "uint256"
        }
      ],
      "name": "createTx",
      "outputs": [
        {
          "internalType": "bool",
          "name": "",
          "type": "bool"
        }
      ],
      "stateMutability": "nonpayable",
      "type": "function"
    },
    {
      "inputs": [
        {
          "internalType": "string",
          "name": "txId",
          "type": "string"
        }
      ],
      "name": "getSecretKey",
      "outputs": [
        {
          "internalType": "string",
          "name": "",
          "type": "string"
        }
      ],
      "stateMutability": "view",
      "type": "function"
    },
    {
      "inputs": [
        {
          "internalType": "string",
          "name": "txId",
          "type": "string"
        }
      ],
      "name": "refund",
      "outputs": [],
      "stateMutability": "nonpayable",
      "type": "function"
    },
    {
      "inputs": [
        {
          "internalType": "string",
          "name": "txId",
          "type": "string"
        },
        {
          "internalType": "string",
          "name": "_key",
          "type": "string"
        }
      ],
      "name": "withDraw",
      "outputs": [],
      "stateMutability": "nonpayable",
      "type": "function"
    }
  ],
  "bytecode": "0x608060405234801561001057600080fd5b50611ead806100206000396000f3fe608060405234801561001057600080fd5b50600436106100575760003560e01c806302db27131461005c5780633a4e0be81461008c578063f878631e146100a8578063fe5f2e88146100c4578063fea68273146100e0575b600080fd5b6100766004803603810190610071919061105b565b610110565b6040516100839190611123565b60405180910390f35b6100a660048036038101906100a19190611145565b610322565b005b6100c260048036038101906100bd919061121b565b610651565b005b6100de60048036038101906100d9919061105b565b61086a565b005b6100fa60048036038101906100f591906112e3565b610af0565b60405161010791906113d8565b60405180910390f35b6060600073ffffffffffffffffffffffffffffffffffffffff1660008360405161013a919061142f565b908152602001604051809103902060000160009054906101000a900473ffffffffffffffffffffffffffffffffffffffff1673ffffffffffffffffffffffffffffffffffffffff16036101c2576040517f08c379a00000000000000000000000000000000000000000000000000000000081526004016101b990611492565b60405180910390fd5b3373ffffffffffffffffffffffffffffffffffffffff166000836040516101e9919061142f565b908152602001604051809103902060000160009054906101000a900473ffffffffffffffffffffffffffffffffffffffff1673ffffffffffffffffffffffffffffffffffffffff1614610271576040517f08c379a000000000000000000000000000000000000000000000000000000000815260040161026890611524565b60405180910390fd5b600082604051610281919061142f565b9081526020016040518091039020600401805461029d90611573565b80601f01602080910402602001604051908101604052809291908181526020018280546102c990611573565b80156103165780601f106102eb57610100808354040283529160200191610316565b820191906000526020600020905b8154815290600101906020018083116102f957829003601f168201915b50505050509050919050565b60008083604051610333919061142f565b90815260200160405180910390209050600015158160070160019054906101000a900460ff1615151461039b576040517f08c379a0000000000000000000000000000000000000000000000000000000008152600401610392906115f0565b60405180910390fd5b600015158160070160009054906101000a900460ff161515146103f3576040517f08c379a00000000000000000000000000000000000000000000000000000000081526004016103ea9061165c565b60405180910390fd5b3373ffffffffffffffffffffffffffffffffffffffff168160010160009054906101000a900473ffffffffffffffffffffffffffffffffffffffff1673ffffffffffffffffffffffffffffffffffffffff1614610485576040517f08c379a000000000000000000000000000000000000000000000000000000000815260040161047c906116c8565b60405180910390fd5b80600501548260405160200161049b919061142f565b60405160208183030381529060405280519060200120146104f1576040517f08c379a00000000000000000000000000000000000000000000000000000000081526004016104e890611734565b60405180910390fd5b8060020160009054906101000a900473ffffffffffffffffffffffffffffffffffffffff1673ffffffffffffffffffffffffffffffffffffffff1663a9059cbb8260010160009054906101000a900473ffffffffffffffffffffffffffffffffffffffff1683600301546040518363ffffffff1660e01b8152600401610578929190611772565b6020604051808303816000875af1158015610597573d6000803e3d6000fd5b505050506040513d601f19601f820116820180604052508101906105bb91906117c7565b50818160040190816105cd91906119a0565b5060018160070160006101000a81548160ff0219169083151502179055507f6fb24f3ad0678f9d138e80b17293be051d87911eb34e9e60f0d1b9c3805e885a8160010160009054906101000a900473ffffffffffffffffffffffffffffffffffffffff168260030154604051610644929190611772565b60405180910390a1505050565b8073ffffffffffffffffffffffffffffffffffffffff163373ffffffffffffffffffffffffffffffffffffffff16036106bf576040517f08c379a00000000000000000000000000000000000000000000000000000000081526004016106b690611abe565b60405180910390fd5b600080836040516106d0919061142f565b908152602001604051809103902090503373ffffffffffffffffffffffffffffffffffffffff168160000160009054906101000a900473ffffffffffffffffffffffffffffffffffffffff1673ffffffffffffffffffffffffffffffffffffffff1614610772576040517f08c379a000000000000000000000000000000000000000000000000000000000815260040161076990611b2a565b60405180910390fd5b600073ffffffffffffffffffffffffffffffffffffffff168160010160009054906101000a900473ffffffffffffffffffffffffffffffffffffffff1673ffffffffffffffffffffffffffffffffffffffff1614610805576040517f08c379a00000000000000000000000000000000000000000000000000000000081526004016107fc90611b96565b60405180910390fd5b818160010160006101000a81548173ffffffffffffffffffffffffffffffffffffffff021916908373ffffffffffffffffffffffffffffffffffffffff16021790555060018160070160026101000a81548160ff021916908315150217905550505050565b6000808260405161087b919061142f565b90815260200160405180910390209050600015158160070160009054906101000a900460ff1615151480156108c55750600015158160070160019054906101000a900460ff161515145b610904576040517f08c379a00000000000000000000000000000000000000000000000000000000081526004016108fb90611c02565b60405180910390fd5b600015158160070160029054906101000a900460ff1615151461095c576040517f08c379a000000000000000000000000000000000000000000000000000000000815260040161095390611c6e565b60405180910390fd5b42816006015411156109a3576040517f08c379a000000000000000000000000000000000000000000000000000000000815260040161099a90611cda565b60405180910390fd5b8060020160009054906101000a900473ffffffffffffffffffffffffffffffffffffffff1673ffffffffffffffffffffffffffffffffffffffff1663a9059cbb8260000160009054906101000a900473ffffffffffffffffffffffffffffffffffffffff1683600301546040518363ffffffff1660e01b8152600401610a2a929190611772565b6020604051808303816000875af1158015610a49573d6000803e3d6000fd5b505050506040513d601f19601f82011682018060405250810190610a6d91906117c7565b5060018160070160016101000a81548160ff0219169083151502179055507fb0fff5d2b17a855b0a22a0965386bcf2f7a8a364c81497c7ea721f3b771ba47e8160000160009054906101000a900473ffffffffffffffffffffffffffffffffffffffff168260030154604051610ae4929190611772565b60405180910390a15050565b60008073ffffffffffffffffffffffffffffffffffffffff16600089604051610b19919061142f565b908152602001604051809103902060000160009054906101000a900473ffffffffffffffffffffffffffffffffffffffff1673ffffffffffffffffffffffffffffffffffffffff1614610ba1576040517f08c379a0000000000000000000000000000000000000000000000000000000008152600401610b9890611d46565b60405180910390fd5b8673ffffffffffffffffffffffffffffffffffffffff163373ffffffffffffffffffffffffffffffffffffffff1603610c0f576040517f08c379a0000000000000000000000000000000000000000000000000000000008152600401610c0690611db2565b60405180910390fd5b6040518061014001604052803373ffffffffffffffffffffffffffffffffffffffff1681526020018873ffffffffffffffffffffffffffffffffffffffff1681526020018773ffffffffffffffffffffffffffffffffffffffff16815260200186815260200185815260200184815260200183610e10610c8f9190611e01565b42610c9a9190611e43565b815260200160001515815260200160001515815260200160001515815250600089604051610cc8919061142f565b908152602001604051809103902060008201518160000160006101000a81548173ffffffffffffffffffffffffffffffffffffffff021916908373ffffffffffffffffffffffffffffffffffffffff16021790555060208201518160010160006101000a81548173ffffffffffffffffffffffffffffffffffffffff021916908373ffffffffffffffffffffffffffffffffffffffff16021790555060408201518160020160006101000a81548173ffffffffffffffffffffffffffffffffffffffff021916908373ffffffffffffffffffffffffffffffffffffffff160217905550606082015181600301556080820151816004019081610dca91906119a0565b5060a0820151816005015560c0820151816006015560e08201518160070160006101000a81548160ff0219169083151502179055506101008201518160070160016101000a81548160ff0219169083151502179055506101208201518160070160026101000a81548160ff021916908315150217905550905050600088604051610e54919061142f565b908152602001604051809103902060020160009054906101000a900473ffffffffffffffffffffffffffffffffffffffff1673ffffffffffffffffffffffffffffffffffffffff16631a81422733876040518363ffffffff1660e01b8152600401610ec0929190611772565b600060405180830381600087803b158015610eda57600080fd5b505af1158015610eee573d6000803e3d6000fd5b5050505060019050979650505050505050565b6000604051905090565b600080fd5b600080fd5b600080fd5b600080fd5b6000601f19601f8301169050919050565b7f4e487b7100000000000000000000000000000000000000000000000000000000600052604160045260246000fd5b610f6882610f1f565b810181811067ffffffffffffffff82111715610f8757610f86610f30565b5b80604052505050565b6000610f9a610f01565b9050610fa68282610f5f565b919050565b600067ffffffffffffffff821115610fc657610fc5610f30565b5b610fcf82610f1f565b9050602081019050919050565b82818337600083830152505050565b6000610ffe610ff984610fab565b610f90565b90508281526020810184848401111561101a57611019610f1a565b5b611025848285610fdc565b509392505050565b600082601f83011261104257611041610f15565b5b8135611052848260208601610feb565b91505092915050565b60006020828403121561107157611070610f0b565b5b600082013567ffffffffffffffff81111561108f5761108e610f10565b5b61109b8482850161102d565b91505092915050565b600081519050919050565b600082825260208201905092915050565b60005b838110156110de5780820151818401526020810190506110c3565b60008484015250505050565b60006110f5826110a4565b6110ff81856110af565b935061110f8185602086016110c0565b61111881610f1f565b840191505092915050565b6000602082019050818103600083015261113d81846110ea565b905092915050565b6000806040838503121561115c5761115b610f0b565b5b600083013567ffffffffffffffff81111561117a57611179610f10565b5b6111868582860161102d565b925050602083013567ffffffffffffffff8111156111a7576111a6610f10565b5b6111b38582860161102d565b9150509250929050565b600073ffffffffffffffffffffffffffffffffffffffff82169050919050565b60006111e8826111bd565b9050919050565b6111f8816111dd565b811461120357600080fd5b50565b600081359050611215816111ef565b92915050565b6000806040838503121561123257611231610f0b565b5b600083013567ffffffffffffffff8111156112505761124f610f10565b5b61125c8582860161102d565b925050602061126d85828601611206565b9150509250929050565b6000819050919050565b61128a81611277565b811461129557600080fd5b50565b6000813590506112a781611281565b92915050565b6000819050919050565b6112c0816112ad565b81146112cb57600080fd5b50565b6000813590506112dd816112b7565b92915050565b600080600080600080600060e0888a03121561130257611301610f0b565b5b600088013567ffffffffffffffff8111156113205761131f610f10565b5b61132c8a828b0161102d565b975050602061133d8a828b01611206565b965050604061134e8a828b01611206565b955050606061135f8a828b01611298565b945050608088013567ffffffffffffffff8111156113805761137f610f10565b5b61138c8a828b0161102d565b93505060a061139d8a828b016112ce565b92505060c06113ae8a828b01611298565b91505092959891949750929550565b60008115159050919050565b6113d2816113bd565b82525050565b60006020820190506113ed60008301846113c9565b92915050565b600081905092915050565b6000611409826110a4565b61141381856113f3565b93506114238185602086016110c0565b80840191505092915050565b600061143b82846113fe565b915081905092915050565b7f54686973207472616e73616374696f6e20646f65736e27742065786973747300600082015250565b600061147c601f836110af565b915061148782611446565b602082019050919050565b600060208201905081810360008301526114ab8161146f565b9050919050565b7f4f6e6c79206f776e65722063616e206765742074686520736563726574206b6560008201527f7900000000000000000000000000000000000000000000000000000000000000602082015250565b600061150e6021836110af565b9150611519826114b2565b604082019050919050565b6000602082019050818103600083015261153d81611501565b9050919050565b7f4e487b7100000000000000000000000000000000000000000000000000000000600052602260045260246000fd5b6000600282049050600182168061158b57607f821691505b60208210810361159e5761159d611544565b5b50919050565b7f5472616e73616374696f6e20686173206265656e2063616e63656c6564000000600082015250565b60006115da601d836110af565b91506115e5826115a4565b602082019050919050565b60006020820190508181036000830152611609816115cd565b9050919050565b7f5472616e73616374696f6e20686173206265656e2077697468647261776e0000600082015250565b6000611646601e836110af565b915061165182611610565b602082019050919050565b6000602082019050818103600083015261167581611639565b9050919050565b7f4f6e6c792072656365697665722063616e207769746864726177000000000000600082015250565b60006116b2601a836110af565b91506116bd8261167c565b602082019050919050565b600060208201905081810360008301526116e1816116a5565b9050919050565b7f496e636f7272656374206b657900000000000000000000000000000000000000600082015250565b600061171e600d836110af565b9150611729826116e8565b602082019050919050565b6000602082019050818103600083015261174d81611711565b9050919050565b61175d816111dd565b82525050565b61176c81611277565b82525050565b60006040820190506117876000830185611754565b6117946020830184611763565b9392505050565b6117a4816113bd565b81146117af57600080fd5b50565b6000815190506117c18161179b565b92915050565b6000602082840312156117dd576117dc610f0b565b5b60006117eb848285016117b2565b91505092915050565b60008190508160005260206000209050919050565b60006020601f8301049050919050565b600082821b905092915050565b6000600883026118567fffffffffffffffffffffffffffffffffffffffffffffffffffffffffffffffff82611819565b6118608683611819565b95508019841693508086168417925050509392505050565b6000819050919050565b600061189d61189861189384611277565b611878565b611277565b9050919050565b6000819050919050565b6118b783611882565b6118cb6118c3826118a4565b848454611826565b825550505050565b600090565b6118e06118d3565b6118eb8184846118ae565b505050565b5b8181101561190f576119046000826118d8565b6001810190506118f1565b5050565b601f82111561195457611925816117f4565b61192e84611809565b8101602085101561193d578190505b61195161194985611809565b8301826118f0565b50505b505050565b600082821c905092915050565b600061197760001984600802611959565b1980831691505092915050565b60006119908383611966565b9150826002028217905092915050565b6119a9826110a4565b67ffffffffffffffff8111156119c2576119c1610f30565b5b6119cc8254611573565b6119d7828285611913565b600060209050601f831160018114611a0a57600084156119f8578287015190505b611a028582611984565b865550611a6a565b601f198416611a18866117f4565b60005b82811015611a4057848901518255600182019150602085019450602081019050611a1b565b86831015611a5d5784890151611a59601f891682611966565b8355505b6001600288020188555050505b505050505050565b7f43616e27742061636365707420627920796f757273656c660000000000000000600082015250565b6000611aa86018836110af565b9150611ab382611a72565b602082019050919050565b60006020820190508181036000830152611ad781611a9b565b9050919050565b7f4f6e6c79206f776e65722063616e206772616e74207065726d697373696f6e00600082015250565b6000611b14601f836110af565b9150611b1f82611ade565b602082019050919050565b60006020820190508181036000830152611b4381611b07565b9050919050565b7f5472616e73616374696f6e20686173206265656e206163636570746564000000600082015250565b6000611b80601d836110af565b9150611b8b82611b4a565b602082019050919050565b60006020820190508181036000830152611baf81611b73565b9050919050565b7f43616e277420726566756e640000000000000000000000000000000000000000600082015250565b6000611bec600c836110af565b9150611bf782611bb6565b602082019050919050565b60006020820190508181036000830152611c1b81611bdf565b9050919050565b7f5472616e73616374696f6e20697320696e2070726f6772657373000000000000600082015250565b6000611c58601a836110af565b9150611c6382611c22565b602082019050919050565b60006020820190508181036000830152611c8781611c4b565b9050919050565b7f546f6f206561726c7920746f20726566756e6400000000000000000000000000600082015250565b6000611cc46013836110af565b9150611ccf82611c8e565b602082019050919050565b60006020820190508181036000830152611cf381611cb7565b9050919050565b7f4475706c6963617465207472616e73616374696f6e2062792069640000000000600082015250565b6000611d30601b836110af565b9150611d3b82611cfa565b602082019050919050565b60006020820190508181036000830152611d5f81611d23565b9050919050565b7f545472616e73616374696f6e20696e76616c6964000000000000000000000000600082015250565b6000611d9c6014836110af565b9150611da782611d66565b602082019050919050565b60006020820190508181036000830152611dcb81611d8f565b9050919050565b7f4e487b7100000000000000000000000000000000000000000000000000000000600052601160045260246000fd5b6000611e0c82611277565b9150611e1783611277565b9250828202611e2581611277565b91508282048414831517611e3c57611e3b611dd2565b5b5092915050565b6000611e4e82611277565b9150611e5983611277565b9250828201905080821115611e7157611e70611dd2565b5b9291505056fea2646970667358221220113829c04388a5fc69278cf99017619381967fb0bc490791f9ad1bfc236c727a64736f6c63430008120033",
  "linkReferences": {},
  "deployedLinkReferences": {}
}