{
  "_format": "hh-sol-artifact-1",
  "contractName": "HTLC",
  "sourceName": "contracts/HTLC.sol",
  "abi": [
    {
      "inputs": [],
      "stateMutability": "nonpayable",
      "type": "constructor"
    },
    {
      "anonymous": false,
      "inputs": [
        {
          "indexed": false,
          "internalType": "address",
          "name": "from",
          "type": "address"
        },
        {
          "indexed": false,
          "internalType": "uint256",
          "name": "amount",
          "type": "uint256"
        }
      ],
      "name": "canceled",
      "type": "event"
    },
    {
      "anonymous": false,
      "inputs": [
        {
          "indexed": false,
          "internalType": "address",
          "name": "from",
          "type": "address"
        },
        {
          "indexed": false,
          "internalType": "uint256",
          "name": "amount",
          "type": "uint256"
        }
      ],
      "name": "withdrawn",
      "type": "event"
    },
    {
      "inputs": [
        {
          "internalType": "string",
          "name": "txId",
          "type": "string"
        },
        {
          "internalType": "address",
          "name": "receiver",
          "type": "address"
        }
      ],
      "name": "acceptFor",
      "outputs": [],
      "stateMutability": "nonpayable",
      "type": "function"
    },
    {
      "inputs": [
        {
          "internalType": "string",
          "name": "id",
          "type": "string"
        },
        {
          "internalType": "address",
          "name": "receiver",
          "type": "address"
        },
        {
          "internalType": "address",
          "name": "token",
          "type": "address"
        },
        {
          "internalType": "uint256",
          "name": "amount",
          "type": "uint256"
        },
        {
          "internalType": "string",
          "name": "key",
          "type": "string"
        },
        {
          "internalType": "bytes32",
          "name": "hashlock",
          "type": "bytes32"
        },
        {
          "internalType": "uint256",
          "name": "timelock",
          "type": "uint256"
        }
      ],
      "name": "createTx",
      "outputs": [
        {
          "internalType": "bool",
          "name": "",
          "type": "bool"
        }
      ],
      "stateMutability": "nonpayable",
      "type": "function"
    },
    {
      "inputs": [
        {
          "internalType": "string",
          "name": "txId",
          "type": "string"
        }
      ],
      "name": "getSecretKey",
      "outputs": [
        {
          "internalType": "string",
          "name": "",
          "type": "string"
        }
      ],
      "stateMutability": "view",
      "type": "function"
    },
    {
      "inputs": [
        {
          "internalType": "string",
          "name": "txId",
          "type": "string"
        }
      ],
      "name": "refund",
      "outputs": [],
      "stateMutability": "nonpayable",
      "type": "function"
    },
    {
      "inputs": [
        {
          "internalType": "string",
          "name": "txId",
          "type": "string"
        },
        {
          "internalType": "string",
          "name": "_key",
          "type": "string"
        }
      ],
      "name": "withDraw",
      "outputs": [],
      "stateMutability": "nonpayable",
      "type": "function"
    }
  ],
  "bytecode": "0x608060405234801561001057600080fd5b50611ef8806100206000396000f3fe608060405234801561001057600080fd5b50600436106100575760003560e01c806302db27131461005c5780633a4e0be81461008c578063f878631e146100a8578063fe5f2e88146100c4578063fea68273146100e0575b600080fd5b6100766004803603810190610071919061106f565b610110565b6040516100839190611137565b60405180910390f35b6100a660048036038101906100a19190611159565b610322565b005b6100c260048036038101906100bd919061122f565b610651565b005b6100de60048036038101906100d9919061106f565b61086a565b005b6100fa60048036038101906100f591906112f7565b610af0565b60405161010791906113ec565b60405180910390f35b6060600073ffffffffffffffffffffffffffffffffffffffff1660008360405161013a9190611443565b908152602001604051809103902060000160009054906101000a900473ffffffffffffffffffffffffffffffffffffffff1673ffffffffffffffffffffffffffffffffffffffff16036101c2576040517f08c379a00000000000000000000000000000000000000000000000000000000081526004016101b9906114a6565b60405180910390fd5b3373ffffffffffffffffffffffffffffffffffffffff166000836040516101e99190611443565b908152602001604051809103902060000160009054906101000a900473ffffffffffffffffffffffffffffffffffffffff1673ffffffffffffffffffffffffffffffffffffffff1614610271576040517f08c379a000000000000000000000000000000000000000000000000000000000815260040161026890611538565b60405180910390fd5b6000826040516102819190611443565b9081526020016040518091039020600401805461029d90611587565b80601f01602080910402602001604051908101604052809291908181526020018280546102c990611587565b80156103165780601f106102eb57610100808354040283529160200191610316565b820191906000526020600020905b8154815290600101906020018083116102f957829003601f168201915b50505050509050919050565b600080836040516103339190611443565b90815260200160405180910390209050600015158160070160019054906101000a900460ff1615151461039b576040517f08c379a000000000000000000000000000000000000000000000000000000000815260040161039290611604565b60405180910390fd5b600015158160070160009054906101000a900460ff161515146103f3576040517f08c379a00000000000000000000000000000000000000000000000000000000081526004016103ea90611670565b60405180910390fd5b3373ffffffffffffffffffffffffffffffffffffffff168160010160009054906101000a900473ffffffffffffffffffffffffffffffffffffffff1673ffffffffffffffffffffffffffffffffffffffff1614610485576040517f08c379a000000000000000000000000000000000000000000000000000000000815260040161047c906116dc565b60405180910390fd5b80600501548260405160200161049b9190611443565b60405160208183030381529060405280519060200120146104f1576040517f08c379a00000000000000000000000000000000000000000000000000000000081526004016104e890611748565b60405180910390fd5b8060020160009054906101000a900473ffffffffffffffffffffffffffffffffffffffff1673ffffffffffffffffffffffffffffffffffffffff1663a9059cbb8260010160009054906101000a900473ffffffffffffffffffffffffffffffffffffffff1683600301546040518363ffffffff1660e01b8152600401610578929190611786565b6020604051808303816000875af1158015610597573d6000803e3d6000fd5b505050506040513d601f19601f820116820180604052508101906105bb91906117db565b50818160040190816105cd91906119b4565b5060018160070160006101000a81548160ff0219169083151502179055507f6fb24f3ad0678f9d138e80b17293be051d87911eb34e9e60f0d1b9c3805e885a8160010160009054906101000a900473ffffffffffffffffffffffffffffffffffffffff168260030154604051610644929190611786565b60405180910390a1505050565b8073ffffffffffffffffffffffffffffffffffffffff163373ffffffffffffffffffffffffffffffffffffffff16036106bf576040517f08c379a00000000000000000000000000000000000000000000000000000000081526004016106b690611ad2565b60405180910390fd5b600080836040516106d09190611443565b908152602001604051809103902090503373ffffffffffffffffffffffffffffffffffffffff168160000160009054906101000a900473ffffffffffffffffffffffffffffffffffffffff1673ffffffffffffffffffffffffffffffffffffffff1614610772576040517f08c379a000000000000000000000000000000000000000000000000000000000815260040161076990611b3e565b60405180910390fd5b600073ffffffffffffffffffffffffffffffffffffffff168160010160009054906101000a900473ffffffffffffffffffffffffffffffffffffffff1673ffffffffffffffffffffffffffffffffffffffff1614610805576040517f08c379a00000000000000000000000000000000000000000000000000000000081526004016107fc90611baa565b60405180910390fd5b818160010160006101000a81548173ffffffffffffffffffffffffffffffffffffffff021916908373ffffffffffffffffffffffffffffffffffffffff16021790555060018160070160026101000a81548160ff021916908315150217905550505050565b6000808260405161087b9190611443565b90815260200160405180910390209050600015158160070160009054906101000a900460ff1615151480156108c55750600015158160070160019054906101000a900460ff161515145b610904576040517f08c379a00000000000000000000000000000000000000000000000000000000081526004016108fb90611c16565b60405180910390fd5b600015158160070160029054906101000a900460ff1615151461095c576040517f08c379a000000000000000000000000000000000000000000000000000000000815260040161095390611c82565b60405180910390fd5b42816006015411156109a3576040517f08c379a000000000000000000000000000000000000000000000000000000000815260040161099a90611cee565b60405180910390fd5b8060020160009054906101000a900473ffffffffffffffffffffffffffffffffffffffff1673ffffffffffffffffffffffffffffffffffffffff1663a9059cbb8260000160009054906101000a900473ffffffffffffffffffffffffffffffffffffffff1683600301546040518363ffffffff1660e01b8152600401610a2a929190611786565b6020604051808303816000875af1158015610a49573d6000803e3d6000fd5b505050506040513d601f19601f82011682018060405250810190610a6d91906117db565b5060018160070160016101000a81548160ff0219169083151502179055507fb0fff5d2b17a855b0a22a0965386bcf2f7a8a364c81497c7ea721f3b771ba47e8160000160009054906101000a900473ffffffffffffffffffffffffffffffffffffffff168260030154604051610ae4929190611786565b60405180910390a15050565b60008073ffffffffffffffffffffffffffffffffffffffff16600089604051610b199190611443565b908152602001604051809103902060000160009054906101000a900473ffffffffffffffffffffffffffffffffffffffff1673ffffffffffffffffffffffffffffffffffffffff1614610ba1576040517f08c379a0000000000000000000000000000000000000000000000000000000008152600401610b9890611d5a565b60405180910390fd5b8673ffffffffffffffffffffffffffffffffffffffff163373ffffffffffffffffffffffffffffffffffffffff1603610c0f576040517f08c379a0000000000000000000000000000000000000000000000000000000008152600401610c0690611dc6565b60405180910390fd5b6040518061014001604052803373ffffffffffffffffffffffffffffffffffffffff1681526020018873ffffffffffffffffffffffffffffffffffffffff1681526020018773ffffffffffffffffffffffffffffffffffffffff16815260200186815260200185815260200184815260200183610e10610c8f9190611e15565b42610c9a9190611e57565b815260200160001515815260200160001515815260200160001515815250600089604051610cc89190611443565b908152602001604051809103902060008201518160000160006101000a81548173ffffffffffffffffffffffffffffffffffffffff021916908373ffffffffffffffffffffffffffffffffffffffff16021790555060208201518160010160006101000a81548173ffffffffffffffffffffffffffffffffffffffff021916908373ffffffffffffffffffffffffffffffffffffffff16021790555060408201518160020160006101000a81548173ffffffffffffffffffffffffffffffffffffffff021916908373ffffffffffffffffffffffffffffffffffffffff160217905550606082015181600301556080820151816004019081610dca91906119b4565b5060a0820151816005015560c0820151816006015560e08201518160070160006101000a81548160ff0219169083151502179055506101008201518160070160016101000a81548160ff0219169083151502179055506101208201518160070160026101000a81548160ff021916908315150217905550905050600088604051610e549190611443565b908152602001604051809103902060020160009054906101000a900473ffffffffffffffffffffffffffffffffffffffff1673ffffffffffffffffffffffffffffffffffffffff166323b872dd3330886040518463ffffffff1660e01b8152600401610ec293929190611e8b565b6020604051808303816000875af1158015610ee1573d6000803e3d6000fd5b505050506040513d601f19601f82011682018060405250810190610f0591906117db565b5060019050979650505050505050565b6000604051905090565b600080fd5b600080fd5b600080fd5b600080fd5b6000601f19601f8301169050919050565b7f4e487b7100000000000000000000000000000000000000000000000000000000600052604160045260246000fd5b610f7c82610f33565b810181811067ffffffffffffffff82111715610f9b57610f9a610f44565b5b80604052505050565b6000610fae610f15565b9050610fba8282610f73565b919050565b600067ffffffffffffffff821115610fda57610fd9610f44565b5b610fe382610f33565b9050602081019050919050565b82818337600083830152505050565b600061101261100d84610fbf565b610fa4565b90508281526020810184848401111561102e5761102d610f2e565b5b611039848285610ff0565b509392505050565b600082601f83011261105657611055610f29565b5b8135611066848260208601610fff565b91505092915050565b60006020828403121561108557611084610f1f565b5b600082013567ffffffffffffffff8111156110a3576110a2610f24565b5b6110af84828501611041565b91505092915050565b600081519050919050565b600082825260208201905092915050565b60005b838110156110f25780820151818401526020810190506110d7565b60008484015250505050565b6000611109826110b8565b61111381856110c3565b93506111238185602086016110d4565b61112c81610f33565b840191505092915050565b6000602082019050818103600083015261115181846110fe565b905092915050565b600080604083850312156111705761116f610f1f565b5b600083013567ffffffffffffffff81111561118e5761118d610f24565b5b61119a85828601611041565b925050602083013567ffffffffffffffff8111156111bb576111ba610f24565b5b6111c785828601611041565b9150509250929050565b600073ffffffffffffffffffffffffffffffffffffffff82169050919050565b60006111fc826111d1565b9050919050565b61120c816111f1565b811461121757600080fd5b50565b60008135905061122981611203565b92915050565b6000806040838503121561124657611245610f1f565b5b600083013567ffffffffffffffff81111561126457611263610f24565b5b61127085828601611041565b92505060206112818582860161121a565b9150509250929050565b6000819050919050565b61129e8161128b565b81146112a957600080fd5b50565b6000813590506112bb81611295565b92915050565b6000819050919050565b6112d4816112c1565b81146112df57600080fd5b50565b6000813590506112f1816112cb565b92915050565b600080600080600080600060e0888a03121561131657611315610f1f565b5b600088013567ffffffffffffffff81111561133457611333610f24565b5b6113408a828b01611041565b97505060206113518a828b0161121a565b96505060406113628a828b0161121a565b95505060606113738a828b016112ac565b945050608088013567ffffffffffffffff81111561139457611393610f24565b5b6113a08a828b01611041565b93505060a06113b18a828b016112e2565b92505060c06113c28a828b016112ac565b91505092959891949750929550565b60008115159050919050565b6113e6816113d1565b82525050565b600060208201905061140160008301846113dd565b92915050565b600081905092915050565b600061141d826110b8565b6114278185611407565b93506114378185602086016110d4565b80840191505092915050565b600061144f8284611412565b915081905092915050565b7f54686973207472616e73616374696f6e20646f65736e27742065786973747300600082015250565b6000611490601f836110c3565b915061149b8261145a565b602082019050919050565b600060208201905081810360008301526114bf81611483565b9050919050565b7f4f6e6c79206f776e65722063616e206765742074686520736563726574206b6560008201527f7900000000000000000000000000000000000000000000000000000000000000602082015250565b60006115226021836110c3565b915061152d826114c6565b604082019050919050565b6000602082019050818103600083015261155181611515565b9050919050565b7f4e487b7100000000000000000000000000000000000000000000000000000000600052602260045260246000fd5b6000600282049050600182168061159f57607f821691505b6020821081036115b2576115b1611558565b5b50919050565b7f5472616e73616374696f6e20686173206265656e2063616e63656c6564000000600082015250565b60006115ee601d836110c3565b91506115f9826115b8565b602082019050919050565b6000602082019050818103600083015261161d816115e1565b9050919050565b7f5472616e73616374696f6e20686173206265656e2077697468647261776e0000600082015250565b600061165a601e836110c3565b915061166582611624565b602082019050919050565b600060208201905081810360008301526116898161164d565b9050919050565b7f4f6e6c792072656365697665722063616e207769746864726177000000000000600082015250565b60006116c6601a836110c3565b91506116d182611690565b602082019050919050565b600060208201905081810360008301526116f5816116b9565b9050919050565b7f496e636f7272656374206b657900000000000000000000000000000000000000600082015250565b6000611732600d836110c3565b915061173d826116fc565b602082019050919050565b6000602082019050818103600083015261176181611725565b9050919050565b611771816111f1565b82525050565b6117808161128b565b82525050565b600060408201905061179b6000830185611768565b6117a86020830184611777565b9392505050565b6117b8816113d1565b81146117c357600080fd5b50565b6000815190506117d5816117af565b92915050565b6000602082840312156117f1576117f0610f1f565b5b60006117ff848285016117c6565b91505092915050565b60008190508160005260206000209050919050565b60006020601f8301049050919050565b600082821b905092915050565b60006008830261186a7fffffffffffffffffffffffffffffffffffffffffffffffffffffffffffffffff8261182d565b611874868361182d565b95508019841693508086168417925050509392505050565b6000819050919050565b60006118b16118ac6118a78461128b565b61188c565b61128b565b9050919050565b6000819050919050565b6118cb83611896565b6118df6118d7826118b8565b84845461183a565b825550505050565b600090565b6118f46118e7565b6118ff8184846118c2565b505050565b5b81811015611923576119186000826118ec565b600181019050611905565b5050565b601f8211156119685761193981611808565b6119428461181d565b81016020851015611951578190505b61196561195d8561181d565b830182611904565b50505b505050565b600082821c905092915050565b600061198b6000198460080261196d565b1980831691505092915050565b60006119a4838361197a565b9150826002028217905092915050565b6119bd826110b8565b67ffffffffffffffff8111156119d6576119d5610f44565b5b6119e08254611587565b6119eb828285611927565b600060209050601f831160018114611a1e5760008415611a0c578287015190505b611a168582611998565b865550611a7e565b601f198416611a2c86611808565b60005b82811015611a5457848901518255600182019150602085019450602081019050611a2f565b86831015611a715784890151611a6d601f89168261197a565b8355505b6001600288020188555050505b505050505050565b7f43616e27742061636365707420627920796f757273656c660000000000000000600082015250565b6000611abc6018836110c3565b9150611ac782611a86565b602082019050919050565b60006020820190508181036000830152611aeb81611aaf565b9050919050565b7f4f6e6c79206f776e65722063616e206772616e74207065726d697373696f6e00600082015250565b6000611b28601f836110c3565b9150611b3382611af2565b602082019050919050565b60006020820190508181036000830152611b5781611b1b565b9050919050565b7f5472616e73616374696f6e20686173206265656e206163636570746564000000600082015250565b6000611b94601d836110c3565b9150611b9f82611b5e565b602082019050919050565b60006020820190508181036000830152611bc381611b87565b9050919050565b7f43616e277420726566756e640000000000000000000000000000000000000000600082015250565b6000611c00600c836110c3565b9150611c0b82611bca565b602082019050919050565b60006020820190508181036000830152611c2f81611bf3565b9050919050565b7f5472616e73616374696f6e20697320696e2070726f6772657373000000000000600082015250565b6000611c6c601a836110c3565b9150611c7782611c36565b602082019050919050565b60006020820190508181036000830152611c9b81611c5f565b9050919050565b7f546f6f206561726c7920746f20726566756e6400000000000000000000000000600082015250565b6000611cd86013836110c3565b9150611ce382611ca2565b602082019050919050565b60006020820190508181036000830152611d0781611ccb565b9050919050565b7f4475706c6963617465207472616e73616374696f6e2062792069640000000000600082015250565b6000611d44601b836110c3565b9150611d4f82611d0e565b602082019050919050565b60006020820190508181036000830152611d7381611d37565b9050919050565b7f545472616e73616374696f6e20696e76616c6964000000000000000000000000600082015250565b6000611db06014836110c3565b9150611dbb82611d7a565b602082019050919050565b60006020820190508181036000830152611ddf81611da3565b9050919050565b7f4e487b7100000000000000000000000000000000000000000000000000000000600052601160045260246000fd5b6000611e208261128b565b9150611e2b8361128b565b9250828202611e398161128b565b91508282048414831517611e5057611e4f611de6565b5b5092915050565b6000611e628261128b565b9150611e6d8361128b565b9250828201905080821115611e8557611e84611de6565b5b92915050565b6000606082019050611ea06000830186611768565b611ead6020830185611768565b611eba6040830184611777565b94935050505056fea2646970667358221220aa1423657ce1231f55ba311665967932abf544ed14e023a2c3e37e5e4e7775a264736f6c63430008120033",
  "linkReferences": {},
  "deployedLinkReferences": {}
}