{
  "_format": "hh-sol-artifact-1",
  "contractName": "HTLC",
  "sourceName": "contracts/HTLC.sol",
  "abi": [
    {
      "inputs": [],
      "stateMutability": "nonpayable",
      "type": "constructor"
    },
    {
      "anonymous": false,
      "inputs": [
        {
          "indexed": false,
          "internalType": "address",
          "name": "from",
          "type": "address"
        },
        {
          "indexed": false,
          "internalType": "uint256",
          "name": "amount",
          "type": "uint256"
        }
      ],
      "name": "canceled",
      "type": "event"
    },
    {
      "anonymous": false,
      "inputs": [
        {
          "indexed": false,
          "internalType": "address",
          "name": "from",
          "type": "address"
        },
        {
          "indexed": false,
          "internalType": "uint256",
          "name": "amount",
          "type": "uint256"
        }
      ],
      "name": "withdrawn",
      "type": "event"
    },
    {
      "inputs": [
        {
          "internalType": "string",
          "name": "txId",
          "type": "string"
        },
        {
          "internalType": "address",
          "name": "receiver",
          "type": "address"
        }
      ],
      "name": "acceptFor",
      "outputs": [],
      "stateMutability": "nonpayable",
      "type": "function"
    },
    {
      "inputs": [
        {
          "internalType": "string",
          "name": "id",
          "type": "string"
        },
        {
          "internalType": "address",
          "name": "receiver",
          "type": "address"
        },
        {
          "internalType": "address",
          "name": "token",
          "type": "address"
        },
        {
          "internalType": "uint256",
          "name": "amount",
          "type": "uint256"
        },
        {
          "internalType": "string",
          "name": "key",
          "type": "string"
        },
        {
          "internalType": "bytes32",
          "name": "hashlock",
          "type": "bytes32"
        },
        {
          "internalType": "uint256",
          "name": "timelock",
          "type": "uint256"
        },
        {
          "internalType": "bytes",
          "name": "signature",
          "type": "bytes"
        }
      ],
      "name": "createTx",
      "outputs": [
        {
          "internalType": "bool",
          "name": "",
          "type": "bool"
        }
      ],
      "stateMutability": "nonpayable",
      "type": "function"
    },
    {
      "inputs": [
        {
          "internalType": "string",
          "name": "txId",
          "type": "string"
        }
      ],
      "name": "getSecretKey",
      "outputs": [
        {
          "internalType": "string",
          "name": "",
          "type": "string"
        }
      ],
      "stateMutability": "view",
      "type": "function"
    },
    {
      "inputs": [
        {
          "internalType": "string",
          "name": "txId",
          "type": "string"
        }
      ],
      "name": "refund",
      "outputs": [],
      "stateMutability": "nonpayable",
      "type": "function"
    },
    {
      "inputs": [
        {
          "internalType": "string",
          "name": "txId",
          "type": "string"
        },
        {
          "internalType": "string",
          "name": "_key",
          "type": "string"
        }
      ],
      "name": "withDraw",
      "outputs": [],
      "stateMutability": "nonpayable",
      "type": "function"
    }
  ],
  "bytecode": "0x608060405234801561001057600080fd5b50612014806100206000396000f3fe608060405234801561001057600080fd5b50600436106100575760003560e01c806302db27131461005c5780633a4e0be81461008c5780636ea48ef2146100a8578063f878631e146100d8578063fe5f2e88146100f4575b600080fd5b6100766004803603810190610071919061105e565b610110565b6040516100839190611126565b60405180910390f35b6100a660048036038101906100a19190611148565b610322565b005b6100c260048036038101906100bd919061132b565b610651565b6040516100cf9190611450565b60405180910390f35b6100f260048036038101906100ed919061146b565b610a65565b005b61010e6004803603810190610109919061105e565b610c7e565b005b6060600073ffffffffffffffffffffffffffffffffffffffff1660008360405161013a9190611503565b908152602001604051809103902060000160009054906101000a900473ffffffffffffffffffffffffffffffffffffffff1673ffffffffffffffffffffffffffffffffffffffff16036101c2576040517f08c379a00000000000000000000000000000000000000000000000000000000081526004016101b990611566565b60405180910390fd5b3373ffffffffffffffffffffffffffffffffffffffff166000836040516101e99190611503565b908152602001604051809103902060000160009054906101000a900473ffffffffffffffffffffffffffffffffffffffff1673ffffffffffffffffffffffffffffffffffffffff1614610271576040517f08c379a0000000000000000000000000000000000000000000000000000000008152600401610268906115f8565b60405180910390fd5b6000826040516102819190611503565b9081526020016040518091039020600401805461029d90611647565b80601f01602080910402602001604051908101604052809291908181526020018280546102c990611647565b80156103165780601f106102eb57610100808354040283529160200191610316565b820191906000526020600020905b8154815290600101906020018083116102f957829003601f168201915b50505050509050919050565b600080836040516103339190611503565b90815260200160405180910390209050600015158160070160019054906101000a900460ff1615151461039b576040517f08c379a0000000000000000000000000000000000000000000000000000000008152600401610392906116c4565b60405180910390fd5b600015158160070160009054906101000a900460ff161515146103f3576040517f08c379a00000000000000000000000000000000000000000000000000000000081526004016103ea90611730565b60405180910390fd5b3373ffffffffffffffffffffffffffffffffffffffff168160010160009054906101000a900473ffffffffffffffffffffffffffffffffffffffff1673ffffffffffffffffffffffffffffffffffffffff1614610485576040517f08c379a000000000000000000000000000000000000000000000000000000000815260040161047c9061179c565b60405180910390fd5b80600501548260405160200161049b9190611503565b60405160208183030381529060405280519060200120146104f1576040517f08c379a00000000000000000000000000000000000000000000000000000000081526004016104e890611808565b60405180910390fd5b8060020160009054906101000a900473ffffffffffffffffffffffffffffffffffffffff1673ffffffffffffffffffffffffffffffffffffffff1663a9059cbb8260010160009054906101000a900473ffffffffffffffffffffffffffffffffffffffff1683600301546040518363ffffffff1660e01b8152600401610578929190611846565b6020604051808303816000875af1158015610597573d6000803e3d6000fd5b505050506040513d601f19601f820116820180604052508101906105bb919061189b565b50818160040190816105cd9190611a74565b5060018160070160006101000a81548160ff0219169083151502179055507f6fb24f3ad0678f9d138e80b17293be051d87911eb34e9e60f0d1b9c3805e885a8160010160009054906101000a900473ffffffffffffffffffffffffffffffffffffffff168260030154604051610644929190611846565b60405180910390a1505050565b60008073ffffffffffffffffffffffffffffffffffffffff1660008a60405161067a9190611503565b908152602001604051809103902060000160009054906101000a900473ffffffffffffffffffffffffffffffffffffffff1673ffffffffffffffffffffffffffffffffffffffff1614610702576040517f08c379a00000000000000000000000000000000000000000000000000000000081526004016106f990611b92565b60405180910390fd5b8773ffffffffffffffffffffffffffffffffffffffff163373ffffffffffffffffffffffffffffffffffffffff1603610770576040517f08c379a000000000000000000000000000000000000000000000000000000000815260040161076790611bfe565b60405180910390fd5b6040518061014001604052803373ffffffffffffffffffffffffffffffffffffffff1681526020018973ffffffffffffffffffffffffffffffffffffffff1681526020018873ffffffffffffffffffffffffffffffffffffffff16815260200187815260200186815260200185815260200184610e106107f09190611c4d565b426107fb9190611c8f565b81526020016000151581526020016000151581526020016000151581525060008a6040516108299190611503565b908152602001604051809103902060008201518160000160006101000a81548173ffffffffffffffffffffffffffffffffffffffff021916908373ffffffffffffffffffffffffffffffffffffffff16021790555060208201518160010160006101000a81548173ffffffffffffffffffffffffffffffffffffffff021916908373ffffffffffffffffffffffffffffffffffffffff16021790555060408201518160020160006101000a81548173ffffffffffffffffffffffffffffffffffffffff021916908373ffffffffffffffffffffffffffffffffffffffff16021790555060608201518160030155608082015181600401908161092b9190611a74565b5060a0820151816005015560c0820151816006015560e08201518160070160006101000a81548160ff0219169083151502179055506101008201518160070160016101000a81548160ff0219169083151502179055506101208201518160070160026101000a81548160ff0219169083151502179055509050506000896040516109b59190611503565b908152602001604051809103902060020160009054906101000a900473ffffffffffffffffffffffffffffffffffffffff1673ffffffffffffffffffffffffffffffffffffffff1663df8ab3303388856040518463ffffffff1660e01b8152600401610a2393929190611d18565b600060405180830381600087803b158015610a3d57600080fd5b505af1158015610a51573d6000803e3d6000fd5b505050506001905098975050505050505050565b8073ffffffffffffffffffffffffffffffffffffffff163373ffffffffffffffffffffffffffffffffffffffff1603610ad3576040517f08c379a0000000000000000000000000000000000000000000000000000000008152600401610aca90611da2565b60405180910390fd5b60008083604051610ae49190611503565b908152602001604051809103902090503373ffffffffffffffffffffffffffffffffffffffff168160000160009054906101000a900473ffffffffffffffffffffffffffffffffffffffff1673ffffffffffffffffffffffffffffffffffffffff1614610b86576040517f08c379a0000000000000000000000000000000000000000000000000000000008152600401610b7d90611e0e565b60405180910390fd5b600073ffffffffffffffffffffffffffffffffffffffff168160010160009054906101000a900473ffffffffffffffffffffffffffffffffffffffff1673ffffffffffffffffffffffffffffffffffffffff1614610c19576040517f08c379a0000000000000000000000000000000000000000000000000000000008152600401610c1090611e7a565b60405180910390fd5b818160010160006101000a81548173ffffffffffffffffffffffffffffffffffffffff021916908373ffffffffffffffffffffffffffffffffffffffff16021790555060018160070160026101000a81548160ff021916908315150217905550505050565b60008082604051610c8f9190611503565b90815260200160405180910390209050600015158160070160009054906101000a900460ff161515148015610cd95750600015158160070160019054906101000a900460ff161515145b610d18576040517f08c379a0000000000000000000000000000000000000000000000000000000008152600401610d0f90611ee6565b60405180910390fd5b600015158160070160029054906101000a900460ff16151514610d70576040517f08c379a0000000000000000000000000000000000000000000000000000000008152600401610d6790611f52565b60405180910390fd5b4281600601541115610db7576040517f08c379a0000000000000000000000000000000000000000000000000000000008152600401610dae90611fbe565b60405180910390fd5b8060020160009054906101000a900473ffffffffffffffffffffffffffffffffffffffff1673ffffffffffffffffffffffffffffffffffffffff1663a9059cbb8260000160009054906101000a900473ffffffffffffffffffffffffffffffffffffffff1683600301546040518363ffffffff1660e01b8152600401610e3e929190611846565b6020604051808303816000875af1158015610e5d573d6000803e3d6000fd5b505050506040513d601f19601f82011682018060405250810190610e81919061189b565b5060018160070160016101000a81548160ff0219169083151502179055507fb0fff5d2b17a855b0a22a0965386bcf2f7a8a364c81497c7ea721f3b771ba47e8160000160009054906101000a900473ffffffffffffffffffffffffffffffffffffffff168260030154604051610ef8929190611846565b60405180910390a15050565b6000604051905090565b600080fd5b600080fd5b600080fd5b600080fd5b6000601f19601f8301169050919050565b7f4e487b7100000000000000000000000000000000000000000000000000000000600052604160045260246000fd5b610f6b82610f22565b810181811067ffffffffffffffff82111715610f8a57610f89610f33565b5b80604052505050565b6000610f9d610f04565b9050610fa98282610f62565b919050565b600067ffffffffffffffff821115610fc957610fc8610f33565b5b610fd282610f22565b9050602081019050919050565b82818337600083830152505050565b6000611001610ffc84610fae565b610f93565b90508281526020810184848401111561101d5761101c610f1d565b5b611028848285610fdf565b509392505050565b600082601f83011261104557611044610f18565b5b8135611055848260208601610fee565b91505092915050565b60006020828403121561107457611073610f0e565b5b600082013567ffffffffffffffff81111561109257611091610f13565b5b61109e84828501611030565b91505092915050565b600081519050919050565b600082825260208201905092915050565b60005b838110156110e15780820151818401526020810190506110c6565b60008484015250505050565b60006110f8826110a7565b61110281856110b2565b93506111128185602086016110c3565b61111b81610f22565b840191505092915050565b6000602082019050818103600083015261114081846110ed565b905092915050565b6000806040838503121561115f5761115e610f0e565b5b600083013567ffffffffffffffff81111561117d5761117c610f13565b5b61118985828601611030565b925050602083013567ffffffffffffffff8111156111aa576111a9610f13565b5b6111b685828601611030565b9150509250929050565b600073ffffffffffffffffffffffffffffffffffffffff82169050919050565b60006111eb826111c0565b9050919050565b6111fb816111e0565b811461120657600080fd5b50565b600081359050611218816111f2565b92915050565b6000819050919050565b6112318161121e565b811461123c57600080fd5b50565b60008135905061124e81611228565b92915050565b6000819050919050565b61126781611254565b811461127257600080fd5b50565b6000813590506112848161125e565b92915050565b600067ffffffffffffffff8211156112a5576112a4610f33565b5b6112ae82610f22565b9050602081019050919050565b60006112ce6112c98461128a565b610f93565b9050828152602081018484840111156112ea576112e9610f1d565b5b6112f5848285610fdf565b509392505050565b600082601f83011261131257611311610f18565b5b81356113228482602086016112bb565b91505092915050565b600080600080600080600080610100898b03121561134c5761134b610f0e565b5b600089013567ffffffffffffffff81111561136a57611369610f13565b5b6113768b828c01611030565b98505060206113878b828c01611209565b97505060406113988b828c01611209565b96505060606113a98b828c0161123f565b955050608089013567ffffffffffffffff8111156113ca576113c9610f13565b5b6113d68b828c01611030565b94505060a06113e78b828c01611275565b93505060c06113f88b828c0161123f565b92505060e089013567ffffffffffffffff81111561141957611418610f13565b5b6114258b828c016112fd565b9150509295985092959890939650565b60008115159050919050565b61144a81611435565b82525050565b60006020820190506114656000830184611441565b92915050565b6000806040838503121561148257611481610f0e565b5b600083013567ffffffffffffffff8111156114a05761149f610f13565b5b6114ac85828601611030565b92505060206114bd85828601611209565b9150509250929050565b600081905092915050565b60006114dd826110a7565b6114e781856114c7565b93506114f78185602086016110c3565b80840191505092915050565b600061150f82846114d2565b915081905092915050565b7f54686973207472616e73616374696f6e20646f65736e27742065786973747300600082015250565b6000611550601f836110b2565b915061155b8261151a565b602082019050919050565b6000602082019050818103600083015261157f81611543565b9050919050565b7f4f6e6c79206f776e65722063616e206765742074686520736563726574206b6560008201527f7900000000000000000000000000000000000000000000000000000000000000602082015250565b60006115e26021836110b2565b91506115ed82611586565b604082019050919050565b60006020820190508181036000830152611611816115d5565b9050919050565b7f4e487b7100000000000000000000000000000000000000000000000000000000600052602260045260246000fd5b6000600282049050600182168061165f57607f821691505b60208210810361167257611671611618565b5b50919050565b7f5472616e73616374696f6e20686173206265656e2063616e63656c6564000000600082015250565b60006116ae601d836110b2565b91506116b982611678565b602082019050919050565b600060208201905081810360008301526116dd816116a1565b9050919050565b7f5472616e73616374696f6e20686173206265656e2077697468647261776e0000600082015250565b600061171a601e836110b2565b9150611725826116e4565b602082019050919050565b600060208201905081810360008301526117498161170d565b9050919050565b7f4f6e6c792072656365697665722063616e207769746864726177000000000000600082015250565b6000611786601a836110b2565b915061179182611750565b602082019050919050565b600060208201905081810360008301526117b581611779565b9050919050565b7f496e636f7272656374206b657900000000000000000000000000000000000000600082015250565b60006117f2600d836110b2565b91506117fd826117bc565b602082019050919050565b60006020820190508181036000830152611821816117e5565b9050919050565b611831816111e0565b82525050565b6118408161121e565b82525050565b600060408201905061185b6000830185611828565b6118686020830184611837565b9392505050565b61187881611435565b811461188357600080fd5b50565b6000815190506118958161186f565b92915050565b6000602082840312156118b1576118b0610f0e565b5b60006118bf84828501611886565b91505092915050565b60008190508160005260206000209050919050565b60006020601f8301049050919050565b600082821b905092915050565b60006008830261192a7fffffffffffffffffffffffffffffffffffffffffffffffffffffffffffffffff826118ed565b61193486836118ed565b95508019841693508086168417925050509392505050565b6000819050919050565b600061197161196c6119678461121e565b61194c565b61121e565b9050919050565b6000819050919050565b61198b83611956565b61199f61199782611978565b8484546118fa565b825550505050565b600090565b6119b46119a7565b6119bf818484611982565b505050565b5b818110156119e3576119d86000826119ac565b6001810190506119c5565b5050565b601f821115611a28576119f9816118c8565b611a02846118dd565b81016020851015611a11578190505b611a25611a1d856118dd565b8301826119c4565b50505b505050565b600082821c905092915050565b6000611a4b60001984600802611a2d565b1980831691505092915050565b6000611a648383611a3a565b9150826002028217905092915050565b611a7d826110a7565b67ffffffffffffffff811115611a9657611a95610f33565b5b611aa08254611647565b611aab8282856119e7565b600060209050601f831160018114611ade5760008415611acc578287015190505b611ad68582611a58565b865550611b3e565b601f198416611aec866118c8565b60005b82811015611b1457848901518255600182019150602085019450602081019050611aef565b86831015611b315784890151611b2d601f891682611a3a565b8355505b6001600288020188555050505b505050505050565b7f4475706c6963617465207472616e73616374696f6e2062792069640000000000600082015250565b6000611b7c601b836110b2565b9150611b8782611b46565b602082019050919050565b60006020820190508181036000830152611bab81611b6f565b9050919050565b7f545472616e73616374696f6e20696e76616c6964000000000000000000000000600082015250565b6000611be86014836110b2565b9150611bf382611bb2565b602082019050919050565b60006020820190508181036000830152611c1781611bdb565b9050919050565b7f4e487b7100000000000000000000000000000000000000000000000000000000600052601160045260246000fd5b6000611c588261121e565b9150611c638361121e565b9250828202611c718161121e565b91508282048414831517611c8857611c87611c1e565b5b5092915050565b6000611c9a8261121e565b9150611ca58361121e565b9250828201905080821115611cbd57611cbc611c1e565b5b92915050565b600081519050919050565b600082825260208201905092915050565b6000611cea82611cc3565b611cf48185611cce565b9350611d048185602086016110c3565b611d0d81610f22565b840191505092915050565b6000606082019050611d2d6000830186611828565b611d3a6020830185611837565b8181036040830152611d4c8184611cdf565b9050949350505050565b7f43616e27742061636365707420627920796f757273656c660000000000000000600082015250565b6000611d8c6018836110b2565b9150611d9782611d56565b602082019050919050565b60006020820190508181036000830152611dbb81611d7f565b9050919050565b7f4f6e6c79206f776e65722063616e206772616e74207065726d697373696f6e00600082015250565b6000611df8601f836110b2565b9150611e0382611dc2565b602082019050919050565b60006020820190508181036000830152611e2781611deb565b9050919050565b7f5472616e73616374696f6e20686173206265656e206163636570746564000000600082015250565b6000611e64601d836110b2565b9150611e6f82611e2e565b602082019050919050565b60006020820190508181036000830152611e9381611e57565b9050919050565b7f43616e277420726566756e640000000000000000000000000000000000000000600082015250565b6000611ed0600c836110b2565b9150611edb82611e9a565b602082019050919050565b60006020820190508181036000830152611eff81611ec3565b9050919050565b7f5472616e73616374696f6e20697320696e2070726f6772657373000000000000600082015250565b6000611f3c601a836110b2565b9150611f4782611f06565b602082019050919050565b60006020820190508181036000830152611f6b81611f2f565b9050919050565b7f546f6f206561726c7920746f20726566756e6400000000000000000000000000600082015250565b6000611fa86013836110b2565b9150611fb382611f72565b602082019050919050565b60006020820190508181036000830152611fd781611f9b565b905091905056fea26469706673582212205170889c7faebb6aa6d87234c53738ec94afbf08cbc5316e0a6cb9732b3cc96064736f6c63430008120033",
  "linkReferences": {},
  "deployedLinkReferences": {}
}