{
  "_format": "hh-sol-artifact-1",
  "contractName": "Token",
  "sourceName": "contracts/Token.sol",
  "abi": [
    {
      "inputs": [
        {
          "internalType": "string",
          "name": "name_",
          "type": "string"
        },
        {
          "internalType": "string",
          "name": "symbol_",
          "type": "string"
        },
        {
          "internalType": "address[]",
          "name": "admins_",
          "type": "address[]"
        }
      ],
      "stateMutability": "nonpayable",
      "type": "constructor"
    },
    {
      "anonymous": false,
      "inputs": [
        {
          "indexed": true,
          "internalType": "address",
          "name": "owner",
          "type": "address"
        },
        {
          "indexed": true,
          "internalType": "address",
          "name": "spender",
          "type": "address"
        },
        {
          "indexed": false,
          "internalType": "uint256",
          "name": "value",
          "type": "uint256"
        }
      ],
      "name": "Approval",
      "type": "event"
    },
    {
      "anonymous": false,
      "inputs": [
        {
          "indexed": true,
          "internalType": "address",
          "name": "from",
          "type": "address"
        },
        {
          "indexed": true,
          "internalType": "address",
          "name": "to",
          "type": "address"
        },
        {
          "indexed": false,
          "internalType": "uint256",
          "name": "value",
          "type": "uint256"
        }
      ],
      "name": "Transfer",
      "type": "event"
    },
    {
      "inputs": [
        {
          "internalType": "address",
          "name": "",
          "type": "address"
        }
      ],
      "name": "admins",
      "outputs": [
        {
          "internalType": "bool",
          "name": "",
          "type": "bool"
        }
      ],
      "stateMutability": "view",
      "type": "function"
    },
    {
      "inputs": [
        {
          "internalType": "address",
          "name": "owner",
          "type": "address"
        },
        {
          "internalType": "address",
          "name": "spender",
          "type": "address"
        }
      ],
      "name": "allowance",
      "outputs": [
        {
          "internalType": "uint256",
          "name": "",
          "type": "uint256"
        }
      ],
      "stateMutability": "view",
      "type": "function"
    },
    {
      "inputs": [
        {
          "internalType": "address",
          "name": "spender",
          "type": "address"
        },
        {
          "internalType": "uint256",
          "name": "amount",
          "type": "uint256"
        }
      ],
      "name": "approve",
      "outputs": [
        {
          "internalType": "bool",
          "name": "",
          "type": "bool"
        }
      ],
      "stateMutability": "nonpayable",
      "type": "function"
    },
    {
      "inputs": [
        {
          "internalType": "address",
          "name": "account",
          "type": "address"
        }
      ],
      "name": "balanceOf",
      "outputs": [
        {
          "internalType": "uint256",
          "name": "",
          "type": "uint256"
        }
      ],
      "stateMutability": "view",
      "type": "function"
    },
    {
      "inputs": [
        {
          "internalType": "address",
          "name": "account",
          "type": "address"
        },
        {
          "internalType": "bool",
          "name": "isAllowed",
          "type": "bool"
        }
      ],
      "name": "changeAdmin",
      "outputs": [],
      "stateMutability": "nonpayable",
      "type": "function"
    },
    {
      "inputs": [],
      "name": "decimals",
      "outputs": [
        {
          "internalType": "uint8",
          "name": "",
          "type": "uint8"
        }
      ],
      "stateMutability": "view",
      "type": "function"
    },
    {
      "inputs": [
        {
          "internalType": "address",
          "name": "spender",
          "type": "address"
        },
        {
          "internalType": "uint256",
          "name": "subtractedValue",
          "type": "uint256"
        }
      ],
      "name": "decreaseAllowance",
      "outputs": [
        {
          "internalType": "bool",
          "name": "",
          "type": "bool"
        }
      ],
      "stateMutability": "nonpayable",
      "type": "function"
    },
    {
      "inputs": [
        {
          "internalType": "address",
          "name": "spender",
          "type": "address"
        },
        {
          "internalType": "uint256",
          "name": "addedValue",
          "type": "uint256"
        }
      ],
      "name": "increaseAllowance",
      "outputs": [
        {
          "internalType": "bool",
          "name": "",
          "type": "bool"
        }
      ],
      "stateMutability": "nonpayable",
      "type": "function"
    },
    {
      "inputs": [
        {
          "internalType": "uint256",
          "name": "amount",
          "type": "uint256"
        }
      ],
      "name": "mintToken",
      "outputs": [],
      "stateMutability": "nonpayable",
      "type": "function"
    },
    {
      "inputs": [],
      "name": "name",
      "outputs": [
        {
          "internalType": "string",
          "name": "",
          "type": "string"
        }
      ],
      "stateMutability": "view",
      "type": "function"
    },
    {
      "inputs": [],
      "name": "symbol",
      "outputs": [
        {
          "internalType": "string",
          "name": "",
          "type": "string"
        }
      ],
      "stateMutability": "view",
      "type": "function"
    },
    {
      "inputs": [],
      "name": "totalSupply",
      "outputs": [
        {
          "internalType": "uint256",
          "name": "",
          "type": "uint256"
        }
      ],
      "stateMutability": "view",
      "type": "function"
    },
    {
      "inputs": [
        {
          "internalType": "address",
          "name": "to",
          "type": "address"
        },
        {
          "internalType": "uint256",
          "name": "amount",
          "type": "uint256"
        }
      ],
      "name": "transfer",
      "outputs": [
        {
          "internalType": "bool",
          "name": "",
          "type": "bool"
        }
      ],
      "stateMutability": "nonpayable",
      "type": "function"
    },
    {
      "inputs": [
        {
          "internalType": "address",
          "name": "from",
          "type": "address"
        },
        {
          "internalType": "address",
          "name": "to",
          "type": "address"
        },
        {
          "internalType": "uint256",
          "name": "amount",
          "type": "uint256"
        }
      ],
      "name": "transferFrom",
      "outputs": [
        {
          "internalType": "bool",
          "name": "",
          "type": "bool"
        }
      ],
      "stateMutability": "nonpayable",
      "type": "function"
    },
    {
      "inputs": [
        {
          "internalType": "address",
          "name": "from",
          "type": "address"
        },
        {
          "internalType": "uint256",
          "name": "amount",
          "type": "uint256"
        }
      ],
      "name": "transferToBridge",
      "outputs": [],
      "stateMutability": "nonpayable",
      "type": "function"
    }
  ],
  "bytecode": "0x60806040523480156200001157600080fd5b5060405162002527380380620025278339818101604052810190620000379190620005fc565b828281600390816200004a919062000900565b5080600490816200005c919062000900565b50505060005b8151811015620001a8576000828281518110620000845762000083620009e7565b5b602002602001015173ffffffffffffffffffffffffffffffffffffffff163b14620000e6576040517f08c379a0000000000000000000000000000000000000000000000000000000008152600401620000dd9062000a77565b60405180910390fd5b600160056000848481518110620001025762000101620009e7565b5b602002602001015173ffffffffffffffffffffffffffffffffffffffff1673ffffffffffffffffffffffffffffffffffffffff16815260200190815260200160002060006101000a81548160ff02191690831515021790555062000192828281518110620001755762000174620009e7565b5b6020026020010151678ac7230489e80000620001b260201b60201c565b80806200019f9062000ac8565b91505062000062565b5050505062000bf0565b600073ffffffffffffffffffffffffffffffffffffffff168273ffffffffffffffffffffffffffffffffffffffff160362000224576040517f08c379a00000000000000000000000000000000000000000000000000000000081526004016200021b9062000b65565b60405180910390fd5b62000238600083836200031f60201b60201c565b80600260008282546200024c919062000b87565b92505081905550806000808473ffffffffffffffffffffffffffffffffffffffff1673ffffffffffffffffffffffffffffffffffffffff168152602001908152602001600020600082825401925050819055508173ffffffffffffffffffffffffffffffffffffffff16600073ffffffffffffffffffffffffffffffffffffffff167fddf252ad1be2c89b69c2b068fc378daa952ba7f163c4a11628f55a4df523b3ef83604051620002ff919062000bd3565b60405180910390a36200031b600083836200032460201b60201c565b5050565b505050565b505050565b6000604051905090565b600080fd5b600080fd5b600080fd5b600080fd5b6000601f19601f8301169050919050565b7f4e487b7100000000000000000000000000000000000000000000000000000000600052604160045260246000fd5b620003928262000347565b810181811067ffffffffffffffff82111715620003b457620003b362000358565b5b80604052505050565b6000620003c962000329565b9050620003d7828262000387565b919050565b600067ffffffffffffffff821115620003fa57620003f962000358565b5b620004058262000347565b9050602081019050919050565b60005b838110156200043257808201518184015260208101905062000415565b60008484015250505050565b6000620004556200044f84620003dc565b620003bd565b90508281526020810184848401111562000474576200047362000342565b5b6200048184828562000412565b509392505050565b600082601f830112620004a157620004a06200033d565b5b8151620004b38482602086016200043e565b91505092915050565b600067ffffffffffffffff821115620004da57620004d962000358565b5b602082029050602081019050919050565b600080fd5b600073ffffffffffffffffffffffffffffffffffffffff82169050919050565b60006200051d82620004f0565b9050919050565b6200052f8162000510565b81146200053b57600080fd5b50565b6000815190506200054f8162000524565b92915050565b60006200056c6200056684620004bc565b620003bd565b90508083825260208201905060208402830185811115620005925762000591620004eb565b5b835b81811015620005bf5780620005aa88826200053e565b84526020840193505060208101905062000594565b5050509392505050565b600082601f830112620005e157620005e06200033d565b5b8151620005f384826020860162000555565b91505092915050565b60008060006060848603121562000618576200061762000333565b5b600084015167ffffffffffffffff81111562000639576200063862000338565b5b620006478682870162000489565b935050602084015167ffffffffffffffff8111156200066b576200066a62000338565b5b620006798682870162000489565b925050604084015167ffffffffffffffff8111156200069d576200069c62000338565b5b620006ab86828701620005c9565b9150509250925092565b600081519050919050565b7f4e487b7100000000000000000000000000000000000000000000000000000000600052602260045260246000fd5b600060028204905060018216806200070857607f821691505b6020821081036200071e576200071d620006c0565b5b50919050565b60008190508160005260206000209050919050565b60006020601f8301049050919050565b600082821b905092915050565b600060088302620007887fffffffffffffffffffffffffffffffffffffffffffffffffffffffffffffffff8262000749565b62000794868362000749565b95508019841693508086168417925050509392505050565b6000819050919050565b6000819050919050565b6000620007e1620007db620007d584620007ac565b620007b6565b620007ac565b9050919050565b6000819050919050565b620007fd83620007c0565b620008156200080c82620007e8565b84845462000756565b825550505050565b600090565b6200082c6200081d565b62000839818484620007f2565b505050565b5b8181101562000861576200085560008262000822565b6001810190506200083f565b5050565b601f821115620008b0576200087a8162000724565b620008858462000739565b8101602085101562000895578190505b620008ad620008a48562000739565b8301826200083e565b50505b505050565b600082821c905092915050565b6000620008d560001984600802620008b5565b1980831691505092915050565b6000620008f08383620008c2565b9150826002028217905092915050565b6200090b82620006b5565b67ffffffffffffffff81111562000927576200092662000358565b5b620009338254620006ef565b6200094082828562000865565b600060209050601f83116001811462000978576000841562000963578287015190505b6200096f8582620008e2565b865550620009df565b601f198416620009888662000724565b60005b82811015620009b2578489015182556001820191506020850194506020810190506200098b565b86831015620009d25784890151620009ce601f891682620008c2565b8355505b6001600288020188555050505b505050505050565b7f4e487b7100000000000000000000000000000000000000000000000000000000600052603260045260246000fd5b600082825260208201905092915050565b7f4f6e6c7920454f412063616e2062652061646d696e0000000000000000000000600082015250565b600062000a5f60158362000a16565b915062000a6c8262000a27565b602082019050919050565b6000602082019050818103600083015262000a928162000a50565b9050919050565b7f4e487b7100000000000000000000000000000000000000000000000000000000600052601160045260246000fd5b600062000ad582620007ac565b91507fffffffffffffffffffffffffffffffffffffffffffffffffffffffffffffffff820362000b0a5762000b0962000a99565b5b600182019050919050565b7f45524332303a206d696e7420746f20746865207a65726f206164647265737300600082015250565b600062000b4d601f8362000a16565b915062000b5a8262000b15565b602082019050919050565b6000602082019050818103600083015262000b808162000b3e565b9050919050565b600062000b9482620007ac565b915062000ba183620007ac565b925082820190508082111562000bbc5762000bbb62000a99565b5b92915050565b62000bcd81620007ac565b82525050565b600060208201905062000bea600083018462000bc2565b92915050565b6119278062000c006000396000f3fe608060405234801561001057600080fd5b50600436106100f55760003560e01c8063429b62e511610097578063a9059cbb11610066578063a9059cbb146102ae578063c634d032146102de578063dc11a496146102fa578063dd62ed3e14610316576100f5565b8063429b62e51461020057806370a082311461023057806395d89b4114610260578063a457c2d71461027e576100f5565b80631a814227116100d35780631a8142271461016657806323b872dd14610182578063313ce567146101b257806339509351146101d0576100f5565b806306fdde03146100fa578063095ea7b31461011857806318160ddd14610148575b600080fd5b610102610346565b60405161010f9190610f95565b60405180910390f35b610132600480360381019061012d9190611050565b6103d8565b60405161013f91906110ab565b60405180910390f35b6101506103fb565b60405161015d91906110d5565b60405180910390f35b610180600480360381019061017b9190611050565b610405565b005b61019c600480360381019061019791906110f0565b61046e565b6040516101a991906110ab565b60405180910390f35b6101ba61049d565b6040516101c7919061115f565b60405180910390f35b6101ea60048036038101906101e59190611050565b6104a6565b6040516101f791906110ab565b60405180910390f35b61021a6004803603810190610215919061117a565b6104dd565b60405161022791906110ab565b60405180910390f35b61024a6004803603810190610245919061117a565b6104fd565b60405161025791906110d5565b60405180910390f35b610268610545565b6040516102759190610f95565b60405180910390f35b61029860048036038101906102939190611050565b6105d7565b6040516102a591906110ab565b60405180910390f35b6102c860048036038101906102c39190611050565b61064e565b6040516102d591906110ab565b60405180910390f35b6102f860048036038101906102f391906111a7565b610671565b005b610314600480360381019061030f9190611200565b61070a565b005b610330600480360381019061032b9190611240565b61084b565b60405161033d91906110d5565b60405180910390f35b606060038054610355906112af565b80601f0160208091040260200160405190810160405280929190818152602001828054610381906112af565b80156103ce5780601f106103a3576101008083540402835291602001916103ce565b820191906000526020600020905b8154815290600101906020018083116103b157829003601f168201915b5050505050905090565b6000806103e36108d2565b90506103f08185856108da565b600191505092915050565b6000600254905090565b60003373ffffffffffffffffffffffffffffffffffffffff163b0361045f576040517f08c379a00000000000000000000000000000000000000000000000000000000081526004016104569061132c565b60405180910390fd5b61046a823383610aa3565b5050565b6000806104796108d2565b9050610486858285610d19565b610491858585610aa3565b60019150509392505050565b60006012905090565b6000806104b16108d2565b90506104d28185856104c3858961084b565b6104cd919061137b565b6108da565b600191505092915050565b60056020528060005260406000206000915054906101000a900460ff1681565b60008060008373ffffffffffffffffffffffffffffffffffffffff1673ffffffffffffffffffffffffffffffffffffffff168152602001908152602001600020549050919050565b606060048054610554906112af565b80601f0160208091040260200160405190810160405280929190818152602001828054610580906112af565b80156105cd5780601f106105a2576101008083540402835291602001916105cd565b820191906000526020600020905b8154815290600101906020018083116105b057829003601f168201915b5050505050905090565b6000806105e26108d2565b905060006105f0828661084b565b905083811015610635576040517f08c379a000000000000000000000000000000000000000000000000000000000815260040161062c90611421565b60405180910390fd5b61064282868684036108da565b60019250505092915050565b6000806106596108d2565b9050610666818585610aa3565b600191505092915050565b600560003373ffffffffffffffffffffffffffffffffffffffff1673ffffffffffffffffffffffffffffffffffffffff16815260200190815260200160002060009054906101000a900460ff166106fd576040517f08c379a00000000000000000000000000000000000000000000000000000000081526004016106f4906114b3565b60405180910390fd5b6107073382610da5565b50565b600560003373ffffffffffffffffffffffffffffffffffffffff1673ffffffffffffffffffffffffffffffffffffffff16815260200190815260200160002060009054906101000a900460ff16610796576040517f08c379a000000000000000000000000000000000000000000000000000000000815260040161078d906114b3565b60405180910390fd5b60008273ffffffffffffffffffffffffffffffffffffffff163b146107f0576040517f08c379a00000000000000000000000000000000000000000000000000000000081526004016107e79061151f565b60405180910390fd5b80600560008473ffffffffffffffffffffffffffffffffffffffff1673ffffffffffffffffffffffffffffffffffffffff16815260200190815260200160002060006101000a81548160ff0219169083151502179055505050565b6000600160008473ffffffffffffffffffffffffffffffffffffffff1673ffffffffffffffffffffffffffffffffffffffff16815260200190815260200160002060008373ffffffffffffffffffffffffffffffffffffffff1673ffffffffffffffffffffffffffffffffffffffff16815260200190815260200160002054905092915050565b600033905090565b600073ffffffffffffffffffffffffffffffffffffffff168373ffffffffffffffffffffffffffffffffffffffff1603610949576040517f08c379a0000000000000000000000000000000000000000000000000000000008152600401610940906115b1565b60405180910390fd5b600073ffffffffffffffffffffffffffffffffffffffff168273ffffffffffffffffffffffffffffffffffffffff16036109b8576040517f08c379a00000000000000000000000000000000000000000000000000000000081526004016109af90611643565b60405180910390fd5b80600160008573ffffffffffffffffffffffffffffffffffffffff1673ffffffffffffffffffffffffffffffffffffffff16815260200190815260200160002060008473ffffffffffffffffffffffffffffffffffffffff1673ffffffffffffffffffffffffffffffffffffffff168152602001908152602001600020819055508173ffffffffffffffffffffffffffffffffffffffff168373ffffffffffffffffffffffffffffffffffffffff167f8c5be1e5ebec7d5bd14f71427d1e84f3dd0314c0f7b2291e5b200ac8c7c3b92583604051610a9691906110d5565b60405180910390a3505050565b600073ffffffffffffffffffffffffffffffffffffffff168373ffffffffffffffffffffffffffffffffffffffff1603610b12576040517f08c379a0000000000000000000000000000000000000000000000000000000008152600401610b09906116d5565b60405180910390fd5b600073ffffffffffffffffffffffffffffffffffffffff168273ffffffffffffffffffffffffffffffffffffffff1603610b81576040517f08c379a0000000000000000000000000000000000000000000000000000000008152600401610b7890611767565b60405180910390fd5b610b8c838383610efb565b60008060008573ffffffffffffffffffffffffffffffffffffffff1673ffffffffffffffffffffffffffffffffffffffff16815260200190815260200160002054905081811015610c12576040517f08c379a0000000000000000000000000000000000000000000000000000000008152600401610c09906117f9565b60405180910390fd5b8181036000808673ffffffffffffffffffffffffffffffffffffffff1673ffffffffffffffffffffffffffffffffffffffff16815260200190815260200160002081905550816000808573ffffffffffffffffffffffffffffffffffffffff1673ffffffffffffffffffffffffffffffffffffffff168152602001908152602001600020600082825401925050819055508273ffffffffffffffffffffffffffffffffffffffff168473ffffffffffffffffffffffffffffffffffffffff167fddf252ad1be2c89b69c2b068fc378daa952ba7f163c4a11628f55a4df523b3ef84604051610d0091906110d5565b60405180910390a3610d13848484610f00565b50505050565b6000610d25848461084b565b90507fffffffffffffffffffffffffffffffffffffffffffffffffffffffffffffffff8114610d9f5781811015610d91576040517f08c379a0000000000000000000000000000000000000000000000000000000008152600401610d8890611865565b60405180910390fd5b610d9e84848484036108da565b5b50505050565b600073ffffffffffffffffffffffffffffffffffffffff168273ffffffffffffffffffffffffffffffffffffffff1603610e14576040517f08c379a0000000000000000000000000000000000000000000000000000000008152600401610e0b906118d1565b60405180910390fd5b610e2060008383610efb565b8060026000828254610e32919061137b565b92505081905550806000808473ffffffffffffffffffffffffffffffffffffffff1673ffffffffffffffffffffffffffffffffffffffff168152602001908152602001600020600082825401925050819055508173ffffffffffffffffffffffffffffffffffffffff16600073ffffffffffffffffffffffffffffffffffffffff167fddf252ad1be2c89b69c2b068fc378daa952ba7f163c4a11628f55a4df523b3ef83604051610ee391906110d5565b60405180910390a3610ef760008383610f00565b5050565b505050565b505050565b600081519050919050565b600082825260208201905092915050565b60005b83811015610f3f578082015181840152602081019050610f24565b60008484015250505050565b6000601f19601f8301169050919050565b6000610f6782610f05565b610f718185610f10565b9350610f81818560208601610f21565b610f8a81610f4b565b840191505092915050565b60006020820190508181036000830152610faf8184610f5c565b905092915050565b600080fd5b600073ffffffffffffffffffffffffffffffffffffffff82169050919050565b6000610fe782610fbc565b9050919050565b610ff781610fdc565b811461100257600080fd5b50565b60008135905061101481610fee565b92915050565b6000819050919050565b61102d8161101a565b811461103857600080fd5b50565b60008135905061104a81611024565b92915050565b6000806040838503121561106757611066610fb7565b5b600061107585828601611005565b92505060206110868582860161103b565b9150509250929050565b60008115159050919050565b6110a581611090565b82525050565b60006020820190506110c0600083018461109c565b92915050565b6110cf8161101a565b82525050565b60006020820190506110ea60008301846110c6565b92915050565b60008060006060848603121561110957611108610fb7565b5b600061111786828701611005565b935050602061112886828701611005565b92505060406111398682870161103b565b9150509250925092565b600060ff82169050919050565b61115981611143565b82525050565b60006020820190506111746000830184611150565b92915050565b6000602082840312156111905761118f610fb7565b5b600061119e84828501611005565b91505092915050565b6000602082840312156111bd576111bc610fb7565b5b60006111cb8482850161103b565b91505092915050565b6111dd81611090565b81146111e857600080fd5b50565b6000813590506111fa816111d4565b92915050565b6000806040838503121561121757611216610fb7565b5b600061122585828601611005565b9250506020611236858286016111eb565b9150509250929050565b6000806040838503121561125757611256610fb7565b5b600061126585828601611005565b925050602061127685828601611005565b9150509250929050565b7f4e487b7100000000000000000000000000000000000000000000000000000000600052602260045260246000fd5b600060028204905060018216806112c757607f821691505b6020821081036112da576112d9611280565b5b50919050565b7f4f6e6c7920636f6e74726163742063616e2063616c6c20746869732066756e63600082015250565b6000611316602083610f10565b9150611321826112e0565b602082019050919050565b6000602082019050818103600083015261134581611309565b9050919050565b7f4e487b7100000000000000000000000000000000000000000000000000000000600052601160045260246000fd5b60006113868261101a565b91506113918361101a565b92508282019050808211156113a9576113a861134c565b5b92915050565b7f45524332303a2064656372656173656420616c6c6f77616e63652062656c6f7760008201527f207a65726f000000000000000000000000000000000000000000000000000000602082015250565b600061140b602583610f10565b9150611416826113af565b604082019050919050565b6000602082019050818103600083015261143a816113fe565b9050919050565b7f4f6e6c792061646d696e2063616e2063616c6c20746869732066756e6374696f60008201527f6e00000000000000000000000000000000000000000000000000000000000000602082015250565b600061149d602183610f10565b91506114a882611441565b604082019050919050565b600060208201905081810360008301526114cc81611490565b9050919050565b7f4f6e6c7920454f412063616e2062652061646d696e0000000000000000000000600082015250565b6000611509601583610f10565b9150611514826114d3565b602082019050919050565b60006020820190508181036000830152611538816114fc565b9050919050565b7f45524332303a20617070726f76652066726f6d20746865207a65726f2061646460008201527f7265737300000000000000000000000000000000000000000000000000000000602082015250565b600061159b602483610f10565b91506115a68261153f565b604082019050919050565b600060208201905081810360008301526115ca8161158e565b9050919050565b7f45524332303a20617070726f766520746f20746865207a65726f20616464726560008201527f7373000000000000000000000000000000000000000000000000000000000000602082015250565b600061162d602283610f10565b9150611638826115d1565b604082019050919050565b6000602082019050818103600083015261165c81611620565b9050919050565b7f45524332303a207472616e736665722066726f6d20746865207a65726f20616460008201527f6472657373000000000000000000000000000000000000000000000000000000602082015250565b60006116bf602583610f10565b91506116ca82611663565b604082019050919050565b600060208201905081810360008301526116ee816116b2565b9050919050565b7f45524332303a207472616e7366657220746f20746865207a65726f206164647260008201527f6573730000000000000000000000000000000000000000000000000000000000602082015250565b6000611751602383610f10565b915061175c826116f5565b604082019050919050565b6000602082019050818103600083015261178081611744565b9050919050565b7f45524332303a207472616e7366657220616d6f756e742065786365656473206260008201527f616c616e63650000000000000000000000000000000000000000000000000000602082015250565b60006117e3602683610f10565b91506117ee82611787565b604082019050919050565b60006020820190508181036000830152611812816117d6565b9050919050565b7f45524332303a20696e73756666696369656e7420616c6c6f77616e6365000000600082015250565b600061184f601d83610f10565b915061185a82611819565b602082019050919050565b6000602082019050818103600083015261187e81611842565b9050919050565b7f45524332303a206d696e7420746f20746865207a65726f206164647265737300600082015250565b60006118bb601f83610f10565b91506118c682611885565b602082019050919050565b600060208201905081810360008301526118ea816118ae565b905091905056fea26469706673582212208577a920cae9b66d1e77047c067dbdb4ceb81898e45ffa15157b0581456d258c64736f6c63430008120033",
  "linkReferences": {},
  "deployedLinkReferences": {}
}