{
  "_format": "hh-sol-artifact-1",
  "contractName": "Collection",
  "sourceName": "contracts/Collection.sol",
  "abi": [
    {
      "inputs": [
        {
          "internalType": "address",
          "name": "enterprise_",
          "type": "address"
        }
      ],
      "stateMutability": "nonpayable",
      "type": "constructor"
    },
    {
      "anonymous": false,
      "inputs": [
        {
          "indexed": true,
          "internalType": "address",
          "name": "owner",
          "type": "address"
        },
        {
          "indexed": true,
          "internalType": "address",
          "name": "approved",
          "type": "address"
        },
        {
          "indexed": true,
          "internalType": "uint256",
          "name": "tokenId",
          "type": "uint256"
        }
      ],
      "name": "Approval",
      "type": "event"
    },
    {
      "anonymous": false,
      "inputs": [
        {
          "indexed": true,
          "internalType": "address",
          "name": "owner",
          "type": "address"
        },
        {
          "indexed": true,
          "internalType": "address",
          "name": "operator",
          "type": "address"
        },
        {
          "indexed": false,
          "internalType": "bool",
          "name": "approved",
          "type": "bool"
        }
      ],
      "name": "ApprovalForAll",
      "type": "event"
    },
    {
      "anonymous": false,
      "inputs": [
        {
          "indexed": false,
          "internalType": "uint256",
          "name": "_fromTokenId",
          "type": "uint256"
        },
        {
          "indexed": false,
          "internalType": "uint256",
          "name": "_toTokenId",
          "type": "uint256"
        }
      ],
      "name": "BatchMetadataUpdate",
      "type": "event"
    },
    {
      "anonymous": false,
      "inputs": [
        {
          "indexed": false,
          "internalType": "uint256",
          "name": "_tokenId",
          "type": "uint256"
        }
      ],
      "name": "MetadataUpdate",
      "type": "event"
    },
    {
      "anonymous": false,
      "inputs": [
        {
          "indexed": true,
          "internalType": "address",
          "name": "previousOwner",
          "type": "address"
        },
        {
          "indexed": true,
          "internalType": "address",
          "name": "newOwner",
          "type": "address"
        }
      ],
      "name": "OwnershipTransferred",
      "type": "event"
    },
    {
      "anonymous": false,
      "inputs": [
        {
          "indexed": true,
          "internalType": "address",
          "name": "from",
          "type": "address"
        },
        {
          "indexed": true,
          "internalType": "address",
          "name": "to",
          "type": "address"
        },
        {
          "indexed": true,
          "internalType": "uint256",
          "name": "tokenId",
          "type": "uint256"
        }
      ],
      "name": "Transfer",
      "type": "event"
    },
    {
      "inputs": [
        {
          "internalType": "address",
          "name": "to",
          "type": "address"
        },
        {
          "internalType": "uint256",
          "name": "tokenId",
          "type": "uint256"
        }
      ],
      "name": "approve",
      "outputs": [],
      "stateMutability": "nonpayable",
      "type": "function"
    },
    {
      "inputs": [
        {
          "internalType": "address",
          "name": "owner",
          "type": "address"
        }
      ],
      "name": "balanceOf",
      "outputs": [
        {
          "internalType": "uint256",
          "name": "",
          "type": "uint256"
        }
      ],
      "stateMutability": "view",
      "type": "function"
    },
    {
      "inputs": [],
      "name": "enterprise",
      "outputs": [
        {
          "internalType": "contract Token",
          "name": "",
          "type": "address"
        }
      ],
      "stateMutability": "view",
      "type": "function"
    },
    {
      "inputs": [
        {
          "internalType": "uint256",
          "name": "tokenId",
          "type": "uint256"
        }
      ],
      "name": "getApproved",
      "outputs": [
        {
          "internalType": "address",
          "name": "",
          "type": "address"
        }
      ],
      "stateMutability": "view",
      "type": "function"
    },
    {
      "inputs": [
        {
          "internalType": "address",
          "name": "owner",
          "type": "address"
        },
        {
          "internalType": "address",
          "name": "operator",
          "type": "address"
        }
      ],
      "name": "isApprovedForAll",
      "outputs": [
        {
          "internalType": "bool",
          "name": "",
          "type": "bool"
        }
      ],
      "stateMutability": "view",
      "type": "function"
    },
    {
      "inputs": [
        {
          "internalType": "uint256",
          "name": "_tokenId",
          "type": "uint256"
        },
        {
          "internalType": "string",
          "name": "_uri",
          "type": "string"
        }
      ],
      "name": "mint",
      "outputs": [],
      "stateMutability": "nonpayable",
      "type": "function"
    },
    {
      "inputs": [],
      "name": "name",
      "outputs": [
        {
          "internalType": "string",
          "name": "",
          "type": "string"
        }
      ],
      "stateMutability": "view",
      "type": "function"
    },
    {
      "inputs": [],
      "name": "owner",
      "outputs": [
        {
          "internalType": "address",
          "name": "",
          "type": "address"
        }
      ],
      "stateMutability": "view",
      "type": "function"
    },
    {
      "inputs": [
        {
          "internalType": "uint256",
          "name": "tokenId",
          "type": "uint256"
        }
      ],
      "name": "ownerOf",
      "outputs": [
        {
          "internalType": "address",
          "name": "",
          "type": "address"
        }
      ],
      "stateMutability": "view",
      "type": "function"
    },
    {
      "inputs": [],
      "name": "renounceOwnership",
      "outputs": [],
      "stateMutability": "nonpayable",
      "type": "function"
    },
    {
      "inputs": [
        {
          "internalType": "address",
          "name": "from",
          "type": "address"
        },
        {
          "internalType": "address",
          "name": "to",
          "type": "address"
        },
        {
          "internalType": "uint256",
          "name": "tokenId",
          "type": "uint256"
        }
      ],
      "name": "safeTransferFrom",
      "outputs": [],
      "stateMutability": "nonpayable",
      "type": "function"
    },
    {
      "inputs": [
        {
          "internalType": "address",
          "name": "from",
          "type": "address"
        },
        {
          "internalType": "address",
          "name": "to",
          "type": "address"
        },
        {
          "internalType": "uint256",
          "name": "tokenId",
          "type": "uint256"
        },
        {
          "internalType": "bytes",
          "name": "data",
          "type": "bytes"
        }
      ],
      "name": "safeTransferFrom",
      "outputs": [],
      "stateMutability": "nonpayable",
      "type": "function"
    },
    {
      "inputs": [
        {
          "internalType": "address",
          "name": "operator",
          "type": "address"
        },
        {
          "internalType": "bool",
          "name": "approved",
          "type": "bool"
        }
      ],
      "name": "setApprovalForAll",
      "outputs": [],
      "stateMutability": "nonpayable",
      "type": "function"
    },
    {
      "inputs": [
        {
          "internalType": "bytes4",
          "name": "interfaceId",
          "type": "bytes4"
        }
      ],
      "name": "supportsInterface",
      "outputs": [
        {
          "internalType": "bool",
          "name": "",
          "type": "bool"
        }
      ],
      "stateMutability": "view",
      "type": "function"
    },
    {
      "inputs": [],
      "name": "symbol",
      "outputs": [
        {
          "internalType": "string",
          "name": "",
          "type": "string"
        }
      ],
      "stateMutability": "view",
      "type": "function"
    },
    {
      "inputs": [
        {
          "internalType": "uint256",
          "name": "tokenId",
          "type": "uint256"
        }
      ],
      "name": "tokenURI",
      "outputs": [
        {
          "internalType": "string",
          "name": "",
          "type": "string"
        }
      ],
      "stateMutability": "view",
      "type": "function"
    },
    {
      "inputs": [
        {
          "internalType": "address",
          "name": "from",
          "type": "address"
        },
        {
          "internalType": "address",
          "name": "to",
          "type": "address"
        },
        {
          "internalType": "uint256",
          "name": "tokenId",
          "type": "uint256"
        }
      ],
      "name": "transferFrom",
      "outputs": [],
      "stateMutability": "nonpayable",
      "type": "function"
    },
    {
      "inputs": [
        {
          "internalType": "address",
          "name": "newOwner",
          "type": "address"
        }
      ],
      "name": "transferOwnership",
      "outputs": [],
      "stateMutability": "nonpayable",
      "type": "function"
    }
  ],
  "bytecode": "0x60806040523480156200001157600080fd5b50604051620038a4380380620038a48339818101604052810190620000379190620002fa565b8073ffffffffffffffffffffffffffffffffffffffff166306fdde036040518163ffffffff1660e01b8152600401600060405180830381865afa15801562000083573d6000803e3d6000fd5b505050506040513d6000823e3d601f19601f82011682018060405250810190620000ae9190620004ab565b8173ffffffffffffffffffffffffffffffffffffffff166395d89b416040518163ffffffff1660e01b8152600401600060405180830381865afa158015620000fa573d6000803e3d6000fd5b505050506040513d6000823e3d601f19601f82011682018060405250810190620001259190620004ab565b816000908162000136919062000747565b50806001908162000148919062000747565b5050506200016b6200015f620001b360201b60201c565b620001bb60201b60201c565b80600860006101000a81548173ffffffffffffffffffffffffffffffffffffffff021916908373ffffffffffffffffffffffffffffffffffffffff160217905550506200082e565b600033905090565b6000600760009054906101000a900473ffffffffffffffffffffffffffffffffffffffff16905081600760006101000a81548173ffffffffffffffffffffffffffffffffffffffff021916908373ffffffffffffffffffffffffffffffffffffffff1602179055508173ffffffffffffffffffffffffffffffffffffffff168173ffffffffffffffffffffffffffffffffffffffff167f8be0079c531659141344cd1fd0a4f28419497f9722a3daafe3b4186f6b6457e060405160405180910390a35050565b6000604051905090565b600080fd5b600080fd5b600073ffffffffffffffffffffffffffffffffffffffff82169050919050565b6000620002c28262000295565b9050919050565b620002d481620002b5565b8114620002e057600080fd5b50565b600081519050620002f481620002c9565b92915050565b6000602082840312156200031357620003126200028b565b5b60006200032384828501620002e3565b91505092915050565b600080fd5b600080fd5b6000601f19601f8301169050919050565b7f4e487b7100000000000000000000000000000000000000000000000000000000600052604160045260246000fd5b620003818262000336565b810181811067ffffffffffffffff82111715620003a357620003a262000347565b5b80604052505050565b6000620003b862000281565b9050620003c6828262000376565b919050565b600067ffffffffffffffff821115620003e957620003e862000347565b5b620003f48262000336565b9050602081019050919050565b60005b838110156200042157808201518184015260208101905062000404565b60008484015250505050565b6000620004446200043e84620003cb565b620003ac565b90508281526020810184848401111562000463576200046262000331565b5b6200047084828562000401565b509392505050565b600082601f83011262000490576200048f6200032c565b5b8151620004a28482602086016200042d565b91505092915050565b600060208284031215620004c457620004c36200028b565b5b600082015167ffffffffffffffff811115620004e557620004e462000290565b5b620004f38482850162000478565b91505092915050565b600081519050919050565b7f4e487b7100000000000000000000000000000000000000000000000000000000600052602260045260246000fd5b600060028204905060018216806200054f57607f821691505b60208210810362000565576200056462000507565b5b50919050565b60008190508160005260206000209050919050565b60006020601f8301049050919050565b600082821b905092915050565b600060088302620005cf7fffffffffffffffffffffffffffffffffffffffffffffffffffffffffffffffff8262000590565b620005db868362000590565b95508019841693508086168417925050509392505050565b6000819050919050565b6000819050919050565b600062000628620006226200061c84620005f3565b620005fd565b620005f3565b9050919050565b6000819050919050565b620006448362000607565b6200065c62000653826200062f565b8484546200059d565b825550505050565b600090565b6200067362000664565b6200068081848462000639565b505050565b5b81811015620006a8576200069c60008262000669565b60018101905062000686565b5050565b601f821115620006f757620006c1816200056b565b620006cc8462000580565b81016020851015620006dc578190505b620006f4620006eb8562000580565b83018262000685565b50505b505050565b600082821c905092915050565b60006200071c60001984600802620006fc565b1980831691505092915050565b600062000737838362000709565b9150826002028217905092915050565b6200075282620004fc565b67ffffffffffffffff8111156200076e576200076d62000347565b5b6200077a825462000536565b62000787828285620006ac565b600060209050601f831160018114620007bf5760008415620007aa578287015190505b620007b6858262000729565b86555062000826565b601f198416620007cf866200056b565b60005b82811015620007f957848901518255600182019150602085019450602081019050620007d2565b8683101562000819578489015162000815601f89168262000709565b8355505b6001600288020188555050505b505050505050565b613066806200083e6000396000f3fe608060405234801561001057600080fd5b50600436106101165760003560e01c806377097fc8116100a2578063a22cb46511610071578063a22cb465146102cd578063b88d4fde146102e9578063c87b56dd14610305578063e985e9c514610335578063f2fde38b1461036557610116565b806377097fc8146102575780638da5cb5b146102735780639478a8c01461029157806395d89b41146102af57610116565b806323b872dd116100e957806323b872dd146101b557806342842e0e146101d15780636352211e146101ed57806370a082311461021d578063715018a61461024d57610116565b806301ffc9a71461011b57806306fdde031461014b578063081812fc14610169578063095ea7b314610199575b600080fd5b61013560048036038101906101309190611d50565b610381565b6040516101429190611d98565b60405180910390f35b6101536103e2565b6040516101609190611e43565b60405180910390f35b610183600480360381019061017e9190611e9b565b610474565b6040516101909190611f09565b60405180910390f35b6101b360048036038101906101ae9190611f50565b6104ba565b005b6101cf60048036038101906101ca9190611f90565b6105d1565b005b6101eb60048036038101906101e69190611f90565b610631565b005b61020760048036038101906102029190611e9b565b610651565b6040516102149190611f09565b60405180910390f35b61023760048036038101906102329190611fe3565b6106d7565b604051610244919061201f565b60405180910390f35b61025561078e565b005b610271600480360381019061026c919061209f565b6107a2565b005b61027b6108da565b6040516102889190611f09565b60405180910390f35b610299610904565b6040516102a6919061215e565b60405180910390f35b6102b761092a565b6040516102c49190611e43565b60405180910390f35b6102e760048036038101906102e291906121a5565b6109bc565b005b61030360048036038101906102fe9190612315565b6109d2565b005b61031f600480360381019061031a9190611e9b565b610a34565b60405161032c9190611e43565b60405180910390f35b61034f600480360381019061034a9190612398565b610b46565b60405161035c9190611d98565b60405180910390f35b61037f600480360381019061037a9190611fe3565b610bda565b005b6000634906490660e01b7bffffffffffffffffffffffffffffffffffffffffffffffffffffffff1916827bffffffffffffffffffffffffffffffffffffffffffffffffffffffff191614806103db57506103da82610c5d565b5b9050919050565b6060600080546103f190612407565b80601f016020809104026020016040519081016040528092919081815260200182805461041d90612407565b801561046a5780601f1061043f5761010080835404028352916020019161046a565b820191906000526020600020905b81548152906001019060200180831161044d57829003601f168201915b5050505050905090565b600061047f82610d3f565b6004600083815260200190815260200160002060009054906101000a900473ffffffffffffffffffffffffffffffffffffffff169050919050565b60006104c582610651565b90508073ffffffffffffffffffffffffffffffffffffffff168373ffffffffffffffffffffffffffffffffffffffff1603610535576040517f08c379a000000000000000000000000000000000000000000000000000000000815260040161052c906124aa565b60405180910390fd5b8073ffffffffffffffffffffffffffffffffffffffff16610554610d8a565b73ffffffffffffffffffffffffffffffffffffffff16148061058357506105828161057d610d8a565b610b46565b5b6105c2576040517f08c379a00000000000000000000000000000000000000000000000000000000081526004016105b99061253c565b60405180910390fd5b6105cc8383610d92565b505050565b6105e26105dc610d8a565b82610e4b565b610621576040517f08c379a0000000000000000000000000000000000000000000000000000000008152600401610618906125ce565b60405180910390fd5b61062c838383610ee0565b505050565b61064c838383604051806020016040528060008152506109d2565b505050565b60008061065d836111d9565b9050600073ffffffffffffffffffffffffffffffffffffffff168173ffffffffffffffffffffffffffffffffffffffff16036106ce576040517f08c379a00000000000000000000000000000000000000000000000000000000081526004016106c59061263a565b60405180910390fd5b80915050919050565b60008073ffffffffffffffffffffffffffffffffffffffff168273ffffffffffffffffffffffffffffffffffffffff1603610747576040517f08c379a000000000000000000000000000000000000000000000000000000000815260040161073e906126cc565b60405180910390fd5b600360008373ffffffffffffffffffffffffffffffffffffffff1673ffffffffffffffffffffffffffffffffffffffff168152602001908152602001600020549050919050565b610796611216565b6107a06000611294565b565b600860009054906101000a900473ffffffffffffffffffffffffffffffffffffffff1673ffffffffffffffffffffffffffffffffffffffff1663429b62e5336040518263ffffffff1660e01b81526004016107fd9190611f09565b602060405180830381865afa15801561081a573d6000803e3d6000fd5b505050506040513d601f19601f8201168201806040525081019061083e9190612701565b61087d576040517f08c379a0000000000000000000000000000000000000000000000000000000008152600401610874906127a0565b60405180910390fd5b610887338461135a565b6108d58383838080601f016020809104026020016040519081016040528093929190818152602001838380828437600081840152601f19601f82011690508083019250505050505050611577565b505050565b6000600760009054906101000a900473ffffffffffffffffffffffffffffffffffffffff16905090565b600860009054906101000a900473ffffffffffffffffffffffffffffffffffffffff1681565b60606001805461093990612407565b80601f016020809104026020016040519081016040528092919081815260200182805461096590612407565b80156109b25780601f10610987576101008083540402835291602001916109b2565b820191906000526020600020905b81548152906001019060200180831161099557829003601f168201915b5050505050905090565b6109ce6109c7610d8a565b838361161b565b5050565b6109e36109dd610d8a565b83610e4b565b610a22576040517f08c379a0000000000000000000000000000000000000000000000000000000008152600401610a19906125ce565b60405180910390fd5b610a2e84848484611787565b50505050565b6060610a3f82610d3f565b6000600660008481526020019081526020016000208054610a5f90612407565b80601f0160208091040260200160405190810160405280929190818152602001828054610a8b90612407565b8015610ad85780601f10610aad57610100808354040283529160200191610ad8565b820191906000526020600020905b815481529060010190602001808311610abb57829003601f168201915b505050505090506000610ae96117e3565b90506000815103610afe578192505050610b41565b600082511115610b33578082604051602001610b1b9291906127fc565b60405160208183030381529060405292505050610b41565b610b3c846117fa565b925050505b919050565b6000600560008473ffffffffffffffffffffffffffffffffffffffff1673ffffffffffffffffffffffffffffffffffffffff16815260200190815260200160002060008373ffffffffffffffffffffffffffffffffffffffff1673ffffffffffffffffffffffffffffffffffffffff16815260200190815260200160002060009054906101000a900460ff16905092915050565b610be2611216565b600073ffffffffffffffffffffffffffffffffffffffff168173ffffffffffffffffffffffffffffffffffffffff1603610c51576040517f08c379a0000000000000000000000000000000000000000000000000000000008152600401610c4890612892565b60405180910390fd5b610c5a81611294565b50565b60007f80ac58cd000000000000000000000000000000000000000000000000000000007bffffffffffffffffffffffffffffffffffffffffffffffffffffffff1916827bffffffffffffffffffffffffffffffffffffffffffffffffffffffff19161480610d2857507f5b5e139f000000000000000000000000000000000000000000000000000000007bffffffffffffffffffffffffffffffffffffffffffffffffffffffff1916827bffffffffffffffffffffffffffffffffffffffffffffffffffffffff1916145b80610d385750610d3782611862565b5b9050919050565b610d48816118cc565b610d87576040517f08c379a0000000000000000000000000000000000000000000000000000000008152600401610d7e9061263a565b60405180910390fd5b50565b600033905090565b816004600083815260200190815260200160002060006101000a81548173ffffffffffffffffffffffffffffffffffffffff021916908373ffffffffffffffffffffffffffffffffffffffff160217905550808273ffffffffffffffffffffffffffffffffffffffff16610e0583610651565b73ffffffffffffffffffffffffffffffffffffffff167f8c5be1e5ebec7d5bd14f71427d1e84f3dd0314c0f7b2291e5b200ac8c7c3b92560405160405180910390a45050565b600080610e5783610651565b90508073ffffffffffffffffffffffffffffffffffffffff168473ffffffffffffffffffffffffffffffffffffffff161480610e995750610e988185610b46565b5b80610ed757508373ffffffffffffffffffffffffffffffffffffffff16610ebf84610474565b73ffffffffffffffffffffffffffffffffffffffff16145b91505092915050565b8273ffffffffffffffffffffffffffffffffffffffff16610f0082610651565b73ffffffffffffffffffffffffffffffffffffffff1614610f56576040517f08c379a0000000000000000000000000000000000000000000000000000000008152600401610f4d90612924565b60405180910390fd5b600073ffffffffffffffffffffffffffffffffffffffff168273ffffffffffffffffffffffffffffffffffffffff1603610fc5576040517f08c379a0000000000000000000000000000000000000000000000000000000008152600401610fbc906129b6565b60405180910390fd5b610fd2838383600161190d565b8273ffffffffffffffffffffffffffffffffffffffff16610ff282610651565b73ffffffffffffffffffffffffffffffffffffffff1614611048576040517f08c379a000000000000000000000000000000000000000000000000000000000815260040161103f90612924565b60405180910390fd5b6004600082815260200190815260200160002060006101000a81549073ffffffffffffffffffffffffffffffffffffffff02191690556001600360008573ffffffffffffffffffffffffffffffffffffffff1673ffffffffffffffffffffffffffffffffffffffff168152602001908152602001600020600082825403925050819055506001600360008473ffffffffffffffffffffffffffffffffffffffff1673ffffffffffffffffffffffffffffffffffffffff16815260200190815260200160002060008282540192505081905550816002600083815260200190815260200160002060006101000a81548173ffffffffffffffffffffffffffffffffffffffff021916908373ffffffffffffffffffffffffffffffffffffffff160217905550808273ffffffffffffffffffffffffffffffffffffffff168473ffffffffffffffffffffffffffffffffffffffff167fddf252ad1be2c89b69c2b068fc378daa952ba7f163c4a11628f55a4df523b3ef60405160405180910390a46111d48383836001611913565b505050565b60006002600083815260200190815260200160002060009054906101000a900473ffffffffffffffffffffffffffffffffffffffff169050919050565b61121e610d8a565b73ffffffffffffffffffffffffffffffffffffffff1661123c6108da565b73ffffffffffffffffffffffffffffffffffffffff1614611292576040517f08c379a000000000000000000000000000000000000000000000000000000000815260040161128990612a22565b60405180910390fd5b565b6000600760009054906101000a900473ffffffffffffffffffffffffffffffffffffffff16905081600760006101000a81548173ffffffffffffffffffffffffffffffffffffffff021916908373ffffffffffffffffffffffffffffffffffffffff1602179055508173ffffffffffffffffffffffffffffffffffffffff168173ffffffffffffffffffffffffffffffffffffffff167f8be0079c531659141344cd1fd0a4f28419497f9722a3daafe3b4186f6b6457e060405160405180910390a35050565b600073ffffffffffffffffffffffffffffffffffffffff168273ffffffffffffffffffffffffffffffffffffffff16036113c9576040517f08c379a00000000000000000000000000000000000000000000000000000000081526004016113c090612a8e565b60405180910390fd5b6113d2816118cc565b15611412576040517f08c379a000000000000000000000000000000000000000000000000000000000815260040161140990612afa565b60405180910390fd5b61142060008383600161190d565b611429816118cc565b15611469576040517f08c379a000000000000000000000000000000000000000000000000000000000815260040161146090612afa565b60405180910390fd5b6001600360008473ffffffffffffffffffffffffffffffffffffffff1673ffffffffffffffffffffffffffffffffffffffff16815260200190815260200160002060008282540192505081905550816002600083815260200190815260200160002060006101000a81548173ffffffffffffffffffffffffffffffffffffffff021916908373ffffffffffffffffffffffffffffffffffffffff160217905550808273ffffffffffffffffffffffffffffffffffffffff16600073ffffffffffffffffffffffffffffffffffffffff167fddf252ad1be2c89b69c2b068fc378daa952ba7f163c4a11628f55a4df523b3ef60405160405180910390a4611573600083836001611913565b5050565b611580826118cc565b6115bf576040517f08c379a00000000000000000000000000000000000000000000000000000000081526004016115b690612b8c565b60405180910390fd5b806006600084815260200190815260200160002090816115df9190612d4e565b507ff8e1a15aba9398e019f0b49df1a4fde98ee17ae345cb5f6b5e2c27f5033e8ce78260405161160f919061201f565b60405180910390a15050565b8173ffffffffffffffffffffffffffffffffffffffff168373ffffffffffffffffffffffffffffffffffffffff1603611689576040517f08c379a000000000000000000000000000000000000000000000000000000000815260040161168090612e6c565b60405180910390fd5b80600560008573ffffffffffffffffffffffffffffffffffffffff1673ffffffffffffffffffffffffffffffffffffffff16815260200190815260200160002060008473ffffffffffffffffffffffffffffffffffffffff1673ffffffffffffffffffffffffffffffffffffffff16815260200190815260200160002060006101000a81548160ff0219169083151502179055508173ffffffffffffffffffffffffffffffffffffffff168373ffffffffffffffffffffffffffffffffffffffff167f17307eab39ab6107e8899845ad3d59bd9653f200f220920489ca2b5937696c318360405161177a9190611d98565b60405180910390a3505050565b611792848484610ee0565b61179e84848484611919565b6117dd576040517f08c379a00000000000000000000000000000000000000000000000000000000081526004016117d490612efe565b60405180910390fd5b50505050565b606060405180602001604052806000815250905090565b606061180582610d3f565b600061180f6117e3565b9050600081511161182f576040518060200160405280600081525061185a565b8061183984611aa0565b60405160200161184a9291906127fc565b6040516020818303038152906040525b915050919050565b60007f01ffc9a7000000000000000000000000000000000000000000000000000000007bffffffffffffffffffffffffffffffffffffffffffffffffffffffff1916827bffffffffffffffffffffffffffffffffffffffffffffffffffffffff1916149050919050565b60008073ffffffffffffffffffffffffffffffffffffffff166118ee836111d9565b73ffffffffffffffffffffffffffffffffffffffff1614159050919050565b50505050565b50505050565b600061193a8473ffffffffffffffffffffffffffffffffffffffff16611b6e565b15611a93578373ffffffffffffffffffffffffffffffffffffffff1663150b7a02611963610d8a565b8786866040518563ffffffff1660e01b81526004016119859493929190612f73565b6020604051808303816000875af19250505080156119c157506040513d601f19601f820116820180604052508101906119be9190612fd4565b60015b611a43573d80600081146119f1576040519150601f19603f3d011682016040523d82523d6000602084013e6119f6565b606091505b506000815103611a3b576040517f08c379a0000000000000000000000000000000000000000000000000000000008152600401611a3290612efe565b60405180910390fd5b805181602001fd5b63150b7a0260e01b7bffffffffffffffffffffffffffffffffffffffffffffffffffffffff1916817bffffffffffffffffffffffffffffffffffffffffffffffffffffffff191614915050611a98565b600190505b949350505050565b606060006001611aaf84611b91565b01905060008167ffffffffffffffff811115611ace57611acd6121ea565b5b6040519080825280601f01601f191660200182016040528015611b005781602001600182028036833780820191505090505b509050600082602001820190505b600115611b63578080600190039150507f3031323334353637383961626364656600000000000000000000000000000000600a86061a8153600a8581611b5757611b56613001565b5b04945060008503611b0e575b819350505050919050565b6000808273ffffffffffffffffffffffffffffffffffffffff163b119050919050565b600080600090507a184f03e93ff9f4daa797ed6e38ed64bf6a1f0100000000000000008310611bef577a184f03e93ff9f4daa797ed6e38ed64bf6a1f0100000000000000008381611be557611be4613001565b5b0492506040810190505b6d04ee2d6d415b85acef81000000008310611c2c576d04ee2d6d415b85acef81000000008381611c2257611c21613001565b5b0492506020810190505b662386f26fc100008310611c5b57662386f26fc100008381611c5157611c50613001565b5b0492506010810190505b6305f5e1008310611c84576305f5e1008381611c7a57611c79613001565b5b0492506008810190505b6127108310611ca9576127108381611c9f57611c9e613001565b5b0492506004810190505b60648310611ccc5760648381611cc257611cc1613001565b5b0492506002810190505b600a8310611cdb576001810190505b80915050919050565b6000604051905090565b600080fd5b600080fd5b60007fffffffff0000000000000000000000000000000000000000000000000000000082169050919050565b611d2d81611cf8565b8114611d3857600080fd5b50565b600081359050611d4a81611d24565b92915050565b600060208284031215611d6657611d65611cee565b5b6000611d7484828501611d3b565b91505092915050565b60008115159050919050565b611d9281611d7d565b82525050565b6000602082019050611dad6000830184611d89565b92915050565b600081519050919050565b600082825260208201905092915050565b60005b83811015611ded578082015181840152602081019050611dd2565b60008484015250505050565b6000601f19601f8301169050919050565b6000611e1582611db3565b611e1f8185611dbe565b9350611e2f818560208601611dcf565b611e3881611df9565b840191505092915050565b60006020820190508181036000830152611e5d8184611e0a565b905092915050565b6000819050919050565b611e7881611e65565b8114611e8357600080fd5b50565b600081359050611e9581611e6f565b92915050565b600060208284031215611eb157611eb0611cee565b5b6000611ebf84828501611e86565b91505092915050565b600073ffffffffffffffffffffffffffffffffffffffff82169050919050565b6000611ef382611ec8565b9050919050565b611f0381611ee8565b82525050565b6000602082019050611f1e6000830184611efa565b92915050565b611f2d81611ee8565b8114611f3857600080fd5b50565b600081359050611f4a81611f24565b92915050565b60008060408385031215611f6757611f66611cee565b5b6000611f7585828601611f3b565b9250506020611f8685828601611e86565b9150509250929050565b600080600060608486031215611fa957611fa8611cee565b5b6000611fb786828701611f3b565b9350506020611fc886828701611f3b565b9250506040611fd986828701611e86565b9150509250925092565b600060208284031215611ff957611ff8611cee565b5b600061200784828501611f3b565b91505092915050565b61201981611e65565b82525050565b60006020820190506120346000830184612010565b92915050565b600080fd5b600080fd5b600080fd5b60008083601f84011261205f5761205e61203a565b5b8235905067ffffffffffffffff81111561207c5761207b61203f565b5b60208301915083600182028301111561209857612097612044565b5b9250929050565b6000806000604084860312156120b8576120b7611cee565b5b60006120c686828701611e86565b935050602084013567ffffffffffffffff8111156120e7576120e6611cf3565b5b6120f386828701612049565b92509250509250925092565b6000819050919050565b600061212461211f61211a84611ec8565b6120ff565b611ec8565b9050919050565b600061213682612109565b9050919050565b60006121488261212b565b9050919050565b6121588161213d565b82525050565b6000602082019050612173600083018461214f565b92915050565b61218281611d7d565b811461218d57600080fd5b50565b60008135905061219f81612179565b92915050565b600080604083850312156121bc576121bb611cee565b5b60006121ca85828601611f3b565b92505060206121db85828601612190565b9150509250929050565b600080fd5b7f4e487b7100000000000000000000000000000000000000000000000000000000600052604160045260246000fd5b61222282611df9565b810181811067ffffffffffffffff82111715612241576122406121ea565b5b80604052505050565b6000612254611ce4565b90506122608282612219565b919050565b600067ffffffffffffffff8211156122805761227f6121ea565b5b61228982611df9565b9050602081019050919050565b82818337600083830152505050565b60006122b86122b384612265565b61224a565b9050828152602081018484840111156122d4576122d36121e5565b5b6122df848285612296565b509392505050565b600082601f8301126122fc576122fb61203a565b5b813561230c8482602086016122a5565b91505092915050565b6000806000806080858703121561232f5761232e611cee565b5b600061233d87828801611f3b565b945050602061234e87828801611f3b565b935050604061235f87828801611e86565b925050606085013567ffffffffffffffff8111156123805761237f611cf3565b5b61238c878288016122e7565b91505092959194509250565b600080604083850312156123af576123ae611cee565b5b60006123bd85828601611f3b565b92505060206123ce85828601611f3b565b9150509250929050565b7f4e487b7100000000000000000000000000000000000000000000000000000000600052602260045260246000fd5b6000600282049050600182168061241f57607f821691505b602082108103612432576124316123d8565b5b50919050565b7f4552433732313a20617070726f76616c20746f2063757272656e74206f776e6560008201527f7200000000000000000000000000000000000000000000000000000000000000602082015250565b6000612494602183611dbe565b915061249f82612438565b604082019050919050565b600060208201905081810360008301526124c381612487565b9050919050565b7f4552433732313a20617070726f76652063616c6c6572206973206e6f7420746f60008201527f6b656e206f776e6572206f7220617070726f76656420666f7220616c6c000000602082015250565b6000612526603d83611dbe565b9150612531826124ca565b604082019050919050565b6000602082019050818103600083015261255581612519565b9050919050565b7f4552433732313a2063616c6c6572206973206e6f7420746f6b656e206f776e6560008201527f72206f7220617070726f76656400000000000000000000000000000000000000602082015250565b60006125b8602d83611dbe565b91506125c38261255c565b604082019050919050565b600060208201905081810360008301526125e7816125ab565b9050919050565b7f4552433732313a20696e76616c696420746f6b656e2049440000000000000000600082015250565b6000612624601883611dbe565b915061262f826125ee565b602082019050919050565b6000602082019050818103600083015261265381612617565b9050919050565b7f4552433732313a2061646472657373207a65726f206973206e6f74206120766160008201527f6c6964206f776e65720000000000000000000000000000000000000000000000602082015250565b60006126b6602983611dbe565b91506126c18261265a565b604082019050919050565b600060208201905081810360008301526126e5816126a9565b9050919050565b6000815190506126fb81612179565b92915050565b60006020828403121561271757612716611cee565b5b6000612725848285016126ec565b91505092915050565b7f4f6e6c792061646d696e2063616e2063616c6c20746869732066756e6374696f60008201527f6e00000000000000000000000000000000000000000000000000000000000000602082015250565b600061278a602183611dbe565b91506127958261272e565b604082019050919050565b600060208201905081810360008301526127b98161277d565b9050919050565b600081905092915050565b60006127d682611db3565b6127e081856127c0565b93506127f0818560208601611dcf565b80840191505092915050565b600061280882856127cb565b915061281482846127cb565b91508190509392505050565b7f4f776e61626c653a206e6577206f776e657220697320746865207a65726f206160008201527f6464726573730000000000000000000000000000000000000000000000000000602082015250565b600061287c602683611dbe565b915061288782612820565b604082019050919050565b600060208201905081810360008301526128ab8161286f565b9050919050565b7f4552433732313a207472616e736665722066726f6d20696e636f72726563742060008201527f6f776e6572000000000000000000000000000000000000000000000000000000602082015250565b600061290e602583611dbe565b9150612919826128b2565b604082019050919050565b6000602082019050818103600083015261293d81612901565b9050919050565b7f4552433732313a207472616e7366657220746f20746865207a65726f2061646460008201527f7265737300000000000000000000000000000000000000000000000000000000602082015250565b60006129a0602483611dbe565b91506129ab82612944565b604082019050919050565b600060208201905081810360008301526129cf81612993565b9050919050565b7f4f776e61626c653a2063616c6c6572206973206e6f7420746865206f776e6572600082015250565b6000612a0c602083611dbe565b9150612a17826129d6565b602082019050919050565b60006020820190508181036000830152612a3b816129ff565b9050919050565b7f4552433732313a206d696e7420746f20746865207a65726f2061646472657373600082015250565b6000612a78602083611dbe565b9150612a8382612a42565b602082019050919050565b60006020820190508181036000830152612aa781612a6b565b9050919050565b7f4552433732313a20746f6b656e20616c7265616479206d696e74656400000000600082015250565b6000612ae4601c83611dbe565b9150612aef82612aae565b602082019050919050565b60006020820190508181036000830152612b1381612ad7565b9050919050565b7f45524337323155524953746f726167653a2055524920736574206f66206e6f6e60008201527f6578697374656e7420746f6b656e000000000000000000000000000000000000602082015250565b6000612b76602e83611dbe565b9150612b8182612b1a565b604082019050919050565b60006020820190508181036000830152612ba581612b69565b9050919050565b60008190508160005260206000209050919050565b60006020601f8301049050919050565b600082821b905092915050565b600060088302612c0e7fffffffffffffffffffffffffffffffffffffffffffffffffffffffffffffffff82612bd1565b612c188683612bd1565b95508019841693508086168417925050509392505050565b6000612c4b612c46612c4184611e65565b6120ff565b611e65565b9050919050565b6000819050919050565b612c6583612c30565b612c79612c7182612c52565b848454612bde565b825550505050565b600090565b612c8e612c81565b612c99818484612c5c565b505050565b5b81811015612cbd57612cb2600082612c86565b600181019050612c9f565b5050565b601f821115612d0257612cd381612bac565b612cdc84612bc1565b81016020851015612ceb578190505b612cff612cf785612bc1565b830182612c9e565b50505b505050565b600082821c905092915050565b6000612d2560001984600802612d07565b1980831691505092915050565b6000612d3e8383612d14565b9150826002028217905092915050565b612d5782611db3565b67ffffffffffffffff811115612d7057612d6f6121ea565b5b612d7a8254612407565b612d85828285612cc1565b600060209050601f831160018114612db85760008415612da6578287015190505b612db08582612d32565b865550612e18565b601f198416612dc686612bac565b60005b82811015612dee57848901518255600182019150602085019450602081019050612dc9565b86831015612e0b5784890151612e07601f891682612d14565b8355505b6001600288020188555050505b505050505050565b7f4552433732313a20617070726f766520746f2063616c6c657200000000000000600082015250565b6000612e56601983611dbe565b9150612e6182612e20565b602082019050919050565b60006020820190508181036000830152612e8581612e49565b9050919050565b7f4552433732313a207472616e7366657220746f206e6f6e20455243373231526560008201527f63656976657220696d706c656d656e7465720000000000000000000000000000602082015250565b6000612ee8603283611dbe565b9150612ef382612e8c565b604082019050919050565b60006020820190508181036000830152612f1781612edb565b9050919050565b600081519050919050565b600082825260208201905092915050565b6000612f4582612f1e565b612f4f8185612f29565b9350612f5f818560208601611dcf565b612f6881611df9565b840191505092915050565b6000608082019050612f886000830187611efa565b612f956020830186611efa565b612fa26040830185612010565b8181036060830152612fb48184612f3a565b905095945050505050565b600081519050612fce81611d24565b92915050565b600060208284031215612fea57612fe9611cee565b5b6000612ff884828501612fbf565b91505092915050565b7f4e487b7100000000000000000000000000000000000000000000000000000000600052601260045260246000fdfea2646970667358221220d401fce0f99f5f474b7070812f9b5f4b92721f7d7cd1c1355390686f78dfb28c64736f6c63430008120033",
  "linkReferences": {},
  "deployedLinkReferences": {}
}